{
  "contractName": "AddressSetSpec",
  "abi": [
    {
      "constant": false,
      "inputs": [
        {
          "name": "value",
          "type": "address"
        }
      ],
      "name": "add",
      "outputs": [
        {
          "name": "",
          "type": "bool"
        }
      ],
      "payable": false,
      "stateMutability": "nonpayable",
      "type": "function"
    },
    {
      "constant": true,
      "inputs": [],
      "name": "getValues",
      "outputs": [
        {
          "name": "",
          "type": "address[]"
        }
      ],
      "payable": false,
      "stateMutability": "view",
      "type": "function"
    },
    {
      "constant": false,
      "inputs": [
        {
          "name": "value",
          "type": "address"
        }
      ],
      "name": "remove",
      "outputs": [
        {
          "name": "",
          "type": "bool"
        }
      ],
      "payable": false,
      "stateMutability": "nonpayable",
      "type": "function"
    },
    {
      "constant": false,
      "inputs": [
        {
          "name": "index",
          "type": "uint256"
        },
        {
          "name": "value",
          "type": "address"
        }
      ],
      "name": "set",
      "outputs": [
        {
          "name": "",
          "type": "bool"
        }
      ],
      "payable": false,
      "stateMutability": "nonpayable",
      "type": "function"
    },
    {
      "constant": true,
      "inputs": [],
      "name": "first",
      "outputs": [
        {
          "name": "",
          "type": "address"
        }
      ],
      "payable": false,
      "stateMutability": "view",
      "type": "function"
    },
    {
      "constant": true,
      "inputs": [],
      "name": "last",
      "outputs": [
        {
          "name": "",
          "type": "address"
        }
      ],
      "payable": false,
      "stateMutability": "view",
      "type": "function"
    },
    {
      "constant": true,
      "inputs": [
        {
          "name": "value",
          "type": "address"
        }
      ],
      "name": "contains",
      "outputs": [
        {
          "name": "",
          "type": "bool"
        }
      ],
      "payable": false,
      "stateMutability": "view",
      "type": "function"
    },
    {
      "constant": false,
      "inputs": [
        {
          "name": "index",
          "type": "uint256"
        }
      ],
      "name": "pop",
      "outputs": [
        {
          "name": "",
          "type": "address"
        }
      ],
      "payable": false,
      "stateMutability": "nonpayable",
      "type": "function"
    },
    {
      "constant": false,
      "inputs": [],
      "name": "destroy",
      "outputs": [],
      "payable": false,
      "stateMutability": "nonpayable",
      "type": "function"
    },
    {
      "constant": true,
      "inputs": [],
      "name": "lastRemove",
      "outputs": [
        {
          "name": "",
          "type": "bool"
        }
      ],
      "payable": false,
      "stateMutability": "view",
      "type": "function"
    },
    {
      "constant": true,
      "inputs": [],
      "name": "owner",
      "outputs": [
        {
          "name": "",
          "type": "address"
        }
      ],
      "payable": false,
      "stateMutability": "view",
      "type": "function"
    },
    {
      "constant": true,
      "inputs": [],
      "name": "lastPop",
      "outputs": [
        {
          "name": "",
          "type": "address"
        }
      ],
      "payable": false,
      "stateMutability": "view",
      "type": "function"
    },
    {
      "constant": true,
      "inputs": [],
      "name": "size",
      "outputs": [
        {
          "name": "",
          "type": "uint256"
        }
      ],
      "payable": false,
      "stateMutability": "view",
      "type": "function"
    },
    {
      "constant": true,
      "inputs": [
        {
          "name": "index",
          "type": "uint256"
        }
      ],
      "name": "get",
      "outputs": [
        {
          "name": "",
          "type": "address"
        }
      ],
      "payable": false,
      "stateMutability": "view",
      "type": "function"
    },
    {
      "constant": false,
      "inputs": [
        {
          "name": "newOwner",
          "type": "address"
        }
      ],
      "name": "transferOwnership",
      "outputs": [],
      "payable": false,
      "stateMutability": "nonpayable",
      "type": "function"
    },
    {
      "constant": false,
      "inputs": [
        {
          "name": "_recipient",
          "type": "address"
        }
      ],
      "name": "destroyAndSend",
      "outputs": [],
      "payable": false,
      "stateMutability": "nonpayable",
      "type": "function"
    },
    {
      "constant": true,
      "inputs": [
        {
          "name": "value",
          "type": "address"
        }
      ],
      "name": "indexOf",
      "outputs": [
        {
          "name": "",
          "type": "uint256"
        }
      ],
      "payable": false,
      "stateMutability": "view",
      "type": "function"
    },
    {
      "constant": true,
      "inputs": [],
      "name": "lastAdd",
      "outputs": [
        {
          "name": "",
          "type": "bool"
        }
      ],
      "payable": false,
      "stateMutability": "view",
      "type": "function"
    },
    {
      "inputs": [],
      "payable": true,
      "stateMutability": "payable",
      "type": "constructor"
    },
    {
      "payable": true,
      "stateMutability": "payable",
      "type": "fallback"
    },
    {
      "anonymous": false,
      "inputs": [
        {
          "indexed": true,
          "name": "previousOwner",
          "type": "address"
        },
        {
          "indexed": true,
          "name": "newOwner",
          "type": "address"
        }
      ],
      "name": "OwnershipTransferred",
      "type": "event"
    }
  ],
  "bytecode": "0x6060604052336000806101000a81548173ffffffffffffffffffffffffffffffffffffffff021916908373ffffffffffffffffffffffffffffffffffffffff16021790555061119c806100536000396000f3006060604052600436106100fc576000357c0100000000000000000000000000000000000000000000000000000000900463ffffffff1680630a3b0a4f146100fe57806319eb4a901461014f57806329092d0e146101b95780632f30c6f61461020a5780633df4ddf41461026457806347799da8146102b95780635dbe47e81461030e5780635dcfb4fa1461035f57806383197ef0146103c2578063866797b3146103d75780638da5cb5b146104045780638fbcd77514610459578063949d225d146104ae5780639507d39a146104d7578063f2fde38b1461053a578063f5074f4114610573578063fd6aad25146105ac578063fedab70d146105f9575b005b341561010957600080fd5b610135600480803573ffffffffffffffffffffffffffffffffffffffff16906020019091905050610626565b604051808215151515815260200191505060405180910390f35b341561015a57600080fd5b61016261071d565b6040518080602001828103825283818151815260200191508051906020019060200280838360005b838110156101a557808201518184015260208101905061018a565b505050509050019250505060405180910390f35b34156101c457600080fd5b6101f0600480803573ffffffffffffffffffffffffffffffffffffffff169060200190919050506107b4565b604051808215151515815260200191505060405180910390f35b341561021557600080fd5b61024a600480803590602001909190803573ffffffffffffffffffffffffffffffffffffffff169060200190919050506108ab565b604051808215151515815260200191505060405180910390f35b341561026f57600080fd5b610277610982565b604051808273ffffffffffffffffffffffffffffffffffffffff1673ffffffffffffffffffffffffffffffffffffffff16815260200191505060405180910390f35b34156102c457600080fd5b6102cc610a1a565b604051808273ffffffffffffffffffffffffffffffffffffffff1673ffffffffffffffffffffffffffffffffffffffff16815260200191505060405180910390f35b341561031957600080fd5b610345600480803573ffffffffffffffffffffffffffffffffffffffff16906020019091905050610ab2565b604051808215151515815260200191505060405180910390f35b341561036a57600080fd5b6103806004808035906020019091905050610b80565b604051808273ffffffffffffffffffffffffffffffffffffffff1673ffffffffffffffffffffffffffffffffffffffff16815260200191505060405180910390f35b34156103cd57600080fd5b6103d5610c85565b005b34156103e257600080fd5b6103ea610d1a565b604051808215151515815260200191505060405180910390f35b341561040f57600080fd5b610417610d2d565b604051808273ffffffffffffffffffffffffffffffffffffffff1673ffffffffffffffffffffffffffffffffffffffff16815260200191505060405180910390f35b341561046457600080fd5b61046c610d52565b604051808273ffffffffffffffffffffffffffffffffffffffff1673ffffffffffffffffffffffffffffffffffffffff16815260200191505060405180910390f35b34156104b957600080fd5b6104c1610d78565b6040518082815260200191505060405180910390f35b34156104e257600080fd5b6104f86004808035906020019091905050610e10565b604051808273ffffffffffffffffffffffffffffffffffffffff1673ffffffffffffffffffffffffffffffffffffffff16815260200191505060405180910390f35b341561054557600080fd5b610571600480803573ffffffffffffffffffffffffffffffffffffffff16906020019091905050610eb2565b005b341561057e57600080fd5b6105aa600480803573ffffffffffffffffffffffffffffffffffffffff16906020019091905050611007565b005b34156105b757600080fd5b6105e3600480803573ffffffffffffffffffffffffffffffffffffffff1690602001909190505061107b565b6040518082815260200191505060405180910390f35b341561060457600080fd5b61060c611149565b604051808215151515815260200191505060405180910390f35b6000600173__AddressSetLib_________________________631e4016169091846000604051602001526040518363ffffffff167c0100000000000000000000000000000000000000000000000000000000028152600401808381526020018273ffffffffffffffffffffffffffffffffffffffff1673ffffffffffffffffffffffffffffffffffffffff1681526020019250505060206040518083038186803b15156106d257600080fd5b6102c65a03f415156106e357600080fd5b50505060405180519050600460146101000a81548160ff021916908315150217905550600460149054906101000a900460ff169050919050565b61072561115c565b60016000018054806020026020016040519081016040528092919081815260200182805480156107aa57602002820191906000526020600020905b8160009054906101000a900473ffffffffffffffffffffffffffffffffffffffff1673ffffffffffffffffffffffffffffffffffffffff1681526020019060010190808311610760575b5050505050905090565b6000600173__AddressSetLib_________________________63499b67d99091846000604051602001526040518363ffffffff167c0100000000000000000000000000000000000000000000000000000000028152600401808381526020018273ffffffffffffffffffffffffffffffffffffffff1673ffffffffffffffffffffffffffffffffffffffff1681526020019250505060206040518083038186803b151561086057600080fd5b6102c65a03f4151561087157600080fd5b50505060405180519050600460156101000a81548160ff021916908315150217905550600460159054906101000a900460ff169050919050565b6000600173__AddressSetLib_________________________63840d4d37909185856000604051602001526040518463ffffffff167c0100000000000000000000000000000000000000000000000000000000028152600401808481526020018381526020018273ffffffffffffffffffffffffffffffffffffffff1673ffffffffffffffffffffffffffffffffffffffff168152602001935050505060206040518083038186803b151561095f57600080fd5b6102c65a03f4151561097057600080fd5b50505060405180519050905092915050565b6000600173__AddressSetLib_________________________63eae5496790916000604051602001526040518263ffffffff167c01000000000000000000000000000000000000000000000000000000000281526004018082815260200191505060206040518083038186803b15156109fa57600080fd5b6102c65a03f41515610a0b57600080fd5b50505060405180519050905090565b6000600173__AddressSetLib_________________________63ba39f4a590916000604051602001526040518263ffffffff167c01000000000000000000000000000000000000000000000000000000000281526004018082815260200191505060206040518083038186803b1515610a9257600080fd5b6102c65a03f41515610aa357600080fd5b50505060405180519050905090565b6000600173__AddressSetLib_________________________63dc02e70d9091846000604051602001526040518363ffffffff167c0100000000000000000000000000000000000000000000000000000000028152600401808381526020018273ffffffffffffffffffffffffffffffffffffffff1673ffffffffffffffffffffffffffffffffffffffff1681526020019250505060206040518083038186803b1515610b5e57600080fd5b6102c65a03f41515610b6f57600080fd5b505050604051805190509050919050565b6000600173__AddressSetLib_________________________63efc33f1e9091846000604051602001526040518363ffffffff167c0100000000000000000000000000000000000000000000000000000000028152600401808381526020018281526020019250505060206040518083038186803b1515610c0057600080fd5b6102c65a03f41515610c1157600080fd5b50505060405180519050600460006101000a81548173ffffffffffffffffffffffffffffffffffffffff021916908373ffffffffffffffffffffffffffffffffffffffff160217905550600460009054906101000a900473ffffffffffffffffffffffffffffffffffffffff169050919050565b6000809054906101000a900473ffffffffffffffffffffffffffffffffffffffff1673ffffffffffffffffffffffffffffffffffffffff163373ffffffffffffffffffffffffffffffffffffffff16141515610ce057600080fd5b6000809054906101000a900473ffffffffffffffffffffffffffffffffffffffff1673ffffffffffffffffffffffffffffffffffffffff16ff5b600460159054906101000a900460ff1681565b6000809054906101000a900473ffffffffffffffffffffffffffffffffffffffff1681565b600460009054906101000a900473ffffffffffffffffffffffffffffffffffffffff1681565b6000600173__AddressSetLib_________________________631d4cf6c490916000604051602001526040518263ffffffff167c01000000000000000000000000000000000000000000000000000000000281526004018082815260200191505060206040518083038186803b1515610df057600080fd5b6102c65a03f41515610e0157600080fd5b50505060405180519050905090565b6000600173__AddressSetLib_________________________63da5d23489091846000604051602001526040518363ffffffff167c0100000000000000000000000000000000000000000000000000000000028152600401808381526020018281526020019250505060206040518083038186803b1515610e9057600080fd5b6102c65a03f41515610ea157600080fd5b505050604051805190509050919050565b6000809054906101000a900473ffffffffffffffffffffffffffffffffffffffff1673ffffffffffffffffffffffffffffffffffffffff163373ffffffffffffffffffffffffffffffffffffffff16141515610f0d57600080fd5b600073ffffffffffffffffffffffffffffffffffffffff168173ffffffffffffffffffffffffffffffffffffffff1614151515610f4957600080fd5b8073ffffffffffffffffffffffffffffffffffffffff166000809054906101000a900473ffffffffffffffffffffffffffffffffffffffff1673ffffffffffffffffffffffffffffffffffffffff167f8be0079c531659141344cd1fd0a4f28419497f9722a3daafe3b4186f6b6457e060405160405180910390a3806000806101000a81548173ffffffffffffffffffffffffffffffffffffffff021916908373ffffffffffffffffffffffffffffffffffffffff16021790555050565b6000809054906101000a900473ffffffffffffffffffffffffffffffffffffffff1673ffffffffffffffffffffffffffffffffffffffff163373ffffffffffffffffffffffffffffffffffffffff1614151561106257600080fd5b8073ffffffffffffffffffffffffffffffffffffffff16ff5b6000600173__AddressSetLib_________________________63af026a909091846000604051602001526040518363ffffffff167c0100000000000000000000000000000000000000000000000000000000028152600401808381526020018273ffffffffffffffffffffffffffffffffffffffff1673ffffffffffffffffffffffffffffffffffffffff1681526020019250505060206040518083038186803b151561112757600080fd5b6102c65a03f4151561113857600080fd5b505050604051805190509050919050565b600460149054906101000a900460ff1681565b6020604051908101604052806000815250905600a165627a7a723058208e81efe23d71f51620ed44beb65bea4857234523f1e77395f6b42ddf712d82b30029",
  "source": "pragma solidity ^0.4.17;\n\nimport './AddressSetLib.sol';\nimport '../../Destructible.sol';\n\ncontract AddressSetSpec is Destructible {\n  using AddressSetLib for AddressSetLib.AddressSet;\n\n  AddressSetLib.AddressSet testSet;\n\n  address public lastPop;\n  bool public lastAdd;\n  bool public lastRemove;\n\n  function () public payable {}\n  function AddressSetSpec() public payable {}\n\n  function get(uint index) public view returns (address) {\n    return testSet.get(index);\n  }\n\n  function getValues() public view returns (address[]) {\n    return testSet.values;\n  }\n\n  function set(uint index, address value) public returns (bool) {\n    return testSet.set(index, value);\n  }\n\n  function add(address value) public returns (bool) {\n    lastAdd = testSet.add(value);\n    return lastAdd;\n  }\n\n  function remove(address value) public returns (bool) {\n    lastRemove = testSet.remove(value);\n    return lastRemove;\n  }\n\n  function pop(uint index) public returns (address) {\n    lastPop = testSet.pop(index);\n    return lastPop;\n  }\n\n  function first() public view returns (address) {\n    return testSet.first();\n  }\n\n  function last() public view returns (address) {\n    return testSet.last();\n  }\n\n  function indexOf(address value) public view returns (uint) {\n    return testSet.indexOf(value);\n  }\n\n  function contains(address value) public view returns (bool) {\n    return testSet.contains(value);\n  }\n\n  function size() public view returns (uint) {\n    return testSet.size();\n  }\n}\n",
  "sourcePath": "/Users/orie/OR13/transmute/packages/transmute-contracts/contracts/TransmuteFramework/SetLib/AddressSet/AddressSetSpec.sol",
  "compiler": {
    "name": "solc",
    "version": "0.4.18+commit.9cf6e910.Emscripten.clang"
  },
  "schemaVersion": "1.0.1",
  "updatedAt": "2017-12-30T20:06:56.643Z"
}