{
  "contractName": "Bytes32SetLib",
  "abi": [
    {
      "constant": false,
      "inputs": [
        {
          "name": "self",
          "type": "Bytes32SetLib.Bytes32Set storage"
        },
        {
          "name": "index",
          "type": "uint256"
        }
      ],
      "name": "pop",
      "outputs": [
        {
          "name": "",
          "type": "bytes32"
        }
      ],
      "payable": false,
      "stateMutability": "nonpayable",
      "type": "function"
    },
    {
      "constant": false,
      "inputs": [
        {
          "name": "self",
          "type": "Bytes32SetLib.Bytes32Set storage"
        },
        {
          "name": "value",
          "type": "bytes32"
        }
      ],
      "name": "remove",
      "outputs": [
        {
          "name": "",
          "type": "bool"
        }
      ],
      "payable": false,
      "stateMutability": "nonpayable",
      "type": "function"
    },
    {
      "constant": false,
      "inputs": [
        {
          "name": "self",
          "type": "Bytes32SetLib.Bytes32Set storage"
        },
        {
          "name": "index",
          "type": "uint256"
        },
        {
          "name": "value",
          "type": "bytes32"
        }
      ],
      "name": "set",
      "outputs": [
        {
          "name": "",
          "type": "bool"
        }
      ],
      "payable": false,
      "stateMutability": "nonpayable",
      "type": "function"
    },
    {
      "constant": true,
      "inputs": [
        {
          "name": "self",
          "type": "Bytes32SetLib.Bytes32Set storage"
        },
        {
          "name": "value",
          "type": "bytes32"
        }
      ],
      "name": "contains",
      "outputs": [
        {
          "name": "",
          "type": "bool"
        }
      ],
      "payable": false,
      "stateMutability": "view",
      "type": "function"
    },
    {
      "constant": false,
      "inputs": [
        {
          "name": "self",
          "type": "Bytes32SetLib.Bytes32Set storage"
        },
        {
          "name": "old",
          "type": "bytes32"
        },
        {
          "name": "nu",
          "type": "bytes32"
        }
      ],
      "name": "replace",
      "outputs": [
        {
          "name": "",
          "type": "bool"
        }
      ],
      "payable": false,
      "stateMutability": "nonpayable",
      "type": "function"
    },
    {
      "constant": false,
      "inputs": [
        {
          "name": "self",
          "type": "Bytes32SetLib.Bytes32Set storage"
        },
        {
          "name": "value",
          "type": "bytes32"
        }
      ],
      "name": "add",
      "outputs": [
        {
          "name": "",
          "type": "bool"
        }
      ],
      "payable": false,
      "stateMutability": "nonpayable",
      "type": "function"
    },
    {
      "constant": true,
      "inputs": [
        {
          "name": "self",
          "type": "Bytes32SetLib.Bytes32Set storage"
        }
      ],
      "name": "size",
      "outputs": [
        {
          "name": "",
          "type": "uint256"
        }
      ],
      "payable": false,
      "stateMutability": "view",
      "type": "function"
    },
    {
      "constant": true,
      "inputs": [
        {
          "name": "self",
          "type": "Bytes32SetLib.Bytes32Set storage"
        }
      ],
      "name": "last",
      "outputs": [
        {
          "name": "",
          "type": "bytes32"
        }
      ],
      "payable": false,
      "stateMutability": "view",
      "type": "function"
    },
    {
      "constant": true,
      "inputs": [
        {
          "name": "self",
          "type": "Bytes32SetLib.Bytes32Set storage"
        },
        {
          "name": "index",
          "type": "uint256"
        }
      ],
      "name": "get",
      "outputs": [
        {
          "name": "",
          "type": "bytes32"
        }
      ],
      "payable": false,
      "stateMutability": "view",
      "type": "function"
    },
    {
      "constant": true,
      "inputs": [
        {
          "name": "self",
          "type": "Bytes32SetLib.Bytes32Set storage"
        },
        {
          "name": "value",
          "type": "bytes32"
        }
      ],
      "name": "indexOf",
      "outputs": [
        {
          "name": "",
          "type": "uint256"
        }
      ],
      "payable": false,
      "stateMutability": "view",
      "type": "function"
    },
    {
      "constant": true,
      "inputs": [
        {
          "name": "self",
          "type": "Bytes32SetLib.Bytes32Set storage"
        }
      ],
      "name": "first",
      "outputs": [
        {
          "name": "",
          "type": "bytes32"
        }
      ],
      "payable": false,
      "stateMutability": "view",
      "type": "function"
    }
  ],
  "bytecode": "0x6060604052341561000f57600080fd5b61088d8061001e6000396000f3006060604052600436106100af576000357c0100000000000000000000000000000000000000000000000000000000900463ffffffff1680630bb52bda146100b4578063121920bc146100f157806317bf114c1461012e5780633fb5a9f31461017457806342684110146101b157806363d4d335146101fb5780636de9408a1461023857806385d5ac47146102645780639542d9d914610298578063aef98a62146102d5578063e3cbfc171461030e575b600080fd5b6100d36004808035906020019091908035906020019091905050610342565b60405180826000191660001916815260200191505060405180910390f35b610114600480803590602001909190803560001916906020019091905050610463565b604051808215151515815260200191505060405180910390f35b61015a6004808035906020019091908035906020019091908035600019169060200190919050506104c3565b604051808215151515815260200191505060405180910390f35b6101976004808035906020019091908035600019169060200190919050506105a0565b604051808215151515815260200191505060405180910390f35b6101e1600480803590602001909190803560001916906020019091908035600019169060200190919050506105d5565b604051808215151515815260200191505060405180910390f35b61021e6004808035906020019091908035600019169060200190919050506105fc565b604051808215151515815260200191505060405180910390f35b61024e60048080359060200190919050506106d2565b6040518082815260200191505060405180910390f35b61027a60048080359060200190919050506106e3565b60405180826000191660001916815260200191505060405180910390f35b6102b76004808035906020019091908035906020019091905050610719565b60405180826000191660001916815260200191505060405180910390f35b6102f8600480803590602001909190803560001916906020019091905050610759565b6040518082815260200191505060405180910390f35b61032460048080359060200190919050506107b7565b60405180826000191660001916815260200191505060405180910390f35b6000806000848481600001805490508110151561035e57600080fd5b6103688787610719565b93506001876000018054905003861415156103ed57610386876106e3565b92506000876001016000856000191660001916815260200190815260200160002060006101000a81548160ff0219169083151502179055506103c98787856104c3565b50858760020160008560001916600019168152602001908152602001600020819055505b6001876000018181805490500391508161040791906107e4565b50866002016000856000191660001916815260200190815260200160002060009055866001016000856000191660001916815260200190815260200160002060006101000a81549060ff02191690558394505050505092915050565b600080836001016000846000191660001916815260200190815260200160002060009054906101000a900460ff1615156104a057600091506104bc565b6104aa8484610759565b90506104b68482610342565b50600191505b5092915050565b600083838160000180549050811015156104dc57600080fd5b856001016000856000191660001916815260200190815260200160002060009054906101000a900460ff16156105155760009250610597565b83866000018681548110151561052757fe5b906000526020600020900181600019169055506001866001016000866000191660001916815260200190815260200160002060006101000a81548160ff02191690831515021790555084866002016000866000191660001916815260200190815260200160002081905550600192505b50509392505050565b6000826001016000836000191660001916815260200190815260200160002060009054906101000a900460ff16905092915050565b60006105e18484610463565b80156105f357506105f284836105fc565b5b90509392505050565b6000826001016000836000191660001916815260200190815260200160002060009054906101000a900460ff161561063757600090506106cc565b82600001805490508360020160008460001916600019168152602001908152602001600020819055508260000180548060010182816106769190610810565b9160005260206000209001600084909190915090600019169055506001836001016000846000191660001916815260200190815260200160002060006101000a81548160ff021916908315150217905550600190505b92915050565b600081600001805490509050919050565b60008160008160000180549050141515156106fd57600080fd5b610711836001856000018054905003610719565b915050919050565b6000828281600001805490508110151561073257600080fd5b846000018481548110151561074357fe5b9060005260206000209001549250505092915050565b6000826001016000836000191660001916815260200190815260200160002060009054906101000a900460ff16151561079157600080fd5b826002016000836000191660001916815260200190815260200160002054905092915050565b60008160008160000180549050141515156107d157600080fd5b6107dc836000610719565b915050919050565b81548183558181151161080b5781836000526020600020918201910161080a919061083c565b5b505050565b81548183558181151161083757818360005260206000209182019101610836919061083c565b5b505050565b61085e91905b8082111561085a576000816000905550600101610842565b5090565b905600a165627a7a723058202ae6247c595dce763fc2917998b7146a51f36eaa3178e4c7eeb885b76a4e3b660029",
  "source": "pragma solidity ^0.4.17;\n\n/// @title Library implementing an array type which allows O(1) lookups on values.\n/// @author Piper Merriam <pipermerriam@gmail.com>, Eric Olszewski <eolszewski@gmail.com>\n/// Adapted from https://github.com/ethpm/ethereum-indexed-enumerable-set-lib/blob/master/contracts/IndexedEnumerableSetLib.sol\nlibrary Bytes32SetLib {\n\n  struct Bytes32Set {\n    bytes32[] values;\n    mapping(bytes32 => bool) exists;\n    mapping(bytes32 => uint) indices;\n  }\n\n  modifier inBounds(Bytes32Set storage self, uint index) {\n    require(index < self.values.length);\n    _;\n  }\n\n  modifier notEmpty(Bytes32Set storage self) {\n    require(self.values.length != 0);\n    _;\n  }\n\n  function get(Bytes32Set storage self, uint index) public view inBounds(self, index) returns (bytes32) {\n    return self.values[index];\n  }\n\n  function set(Bytes32Set storage self, uint index, bytes32 value) public inBounds(self, index) returns (bool) {\n    if (self.exists[value])\n      return false;\n    self.values[index] = value;\n    self.exists[value] = true;\n    self.indices[value] = index;\n    return true;\n  }\n\n  function add(Bytes32Set storage self, bytes32 value) public returns (bool) {\n    if (self.exists[value])\n      return false;\n    self.indices[value] = self.values.length;\n    self.values.push(value);\n    self.exists[value] = true;\n    return true;\n  }\n\n  function remove(Bytes32Set storage self, bytes32 value) public returns (bool) {\n    if (!self.exists[value])\n      return false;\n    uint index = indexOf(self, value);\n    pop(self, index);\n    return true;\n  }\n\n  function pop(Bytes32Set storage self, uint index) public inBounds(self, index) returns (bytes32) {\n    bytes32 value = get(self, index);\n\n    if (index != self.values.length - 1) {\n      bytes32 lastValue = last(self);\n      self.exists[lastValue] = false;\n      set(self, index, lastValue);\n      self.indices[lastValue] = index;\n    }\n    self.values.length -= 1;\n\n    delete self.indices[value];\n    delete self.exists[value];\n\n    return value;\n  }\n\n  function replace(Bytes32Set storage self, bytes32 old, bytes32 nu) public returns (bool) {\n    return remove(self, old) && add(self, nu);\n  }\n\n  function first(Bytes32Set storage self) public view notEmpty(self) returns (bytes32) {\n    return get(self, 0);\n  }\n\n  function last(Bytes32Set storage self) public view notEmpty(self) returns (bytes32) {\n    return get(self, self.values.length - 1);\n  }\n\n  function indexOf(Bytes32Set storage self, bytes32 value) public view returns (uint) {\n    require(self.exists[value]);\n    return self.indices[value];\n  }\n\n  function contains(Bytes32Set storage self, bytes32 value) public view returns (bool) {\n    return self.exists[value];\n  }\n\n  function size(Bytes32Set storage self) public view returns (uint) {\n    return self.values.length;\n  }\n}\n",
  "sourcePath": "/Users/orie/OR13/transmute/packages/transmute-contracts/contracts/TransmuteFramework/SetLib/Bytes32Set/Bytes32SetLib.sol",
  "compiler": {
    "name": "solc",
    "version": "0.4.18+commit.9cf6e910.Emscripten.clang"
  },
  "schemaVersion": "1.0.1",
  "updatedAt": "2017-12-30T03:08:20.130Z"
}