{
  "contractName": "Bytes32SetSpec",
  "abi": [
    {
      "constant": true,
      "inputs": [],
      "name": "getValues",
      "outputs": [
        {
          "name": "",
          "type": "bytes32[]"
        }
      ],
      "payable": false,
      "stateMutability": "view",
      "type": "function"
    },
    {
      "constant": true,
      "inputs": [
        {
          "name": "value",
          "type": "bytes32"
        }
      ],
      "name": "contains",
      "outputs": [
        {
          "name": "",
          "type": "bool"
        }
      ],
      "payable": false,
      "stateMutability": "view",
      "type": "function"
    },
    {
      "constant": true,
      "inputs": [],
      "name": "first",
      "outputs": [
        {
          "name": "",
          "type": "bytes32"
        }
      ],
      "payable": false,
      "stateMutability": "view",
      "type": "function"
    },
    {
      "constant": false,
      "inputs": [
        {
          "name": "value",
          "type": "bytes32"
        }
      ],
      "name": "add",
      "outputs": [
        {
          "name": "",
          "type": "bool"
        }
      ],
      "payable": false,
      "stateMutability": "nonpayable",
      "type": "function"
    },
    {
      "constant": true,
      "inputs": [],
      "name": "last",
      "outputs": [
        {
          "name": "",
          "type": "bytes32"
        }
      ],
      "payable": false,
      "stateMutability": "view",
      "type": "function"
    },
    {
      "constant": false,
      "inputs": [
        {
          "name": "index",
          "type": "uint256"
        }
      ],
      "name": "pop",
      "outputs": [
        {
          "name": "",
          "type": "bytes32"
        }
      ],
      "payable": false,
      "stateMutability": "nonpayable",
      "type": "function"
    },
    {
      "constant": false,
      "inputs": [
        {
          "name": "index",
          "type": "uint256"
        },
        {
          "name": "value",
          "type": "bytes32"
        }
      ],
      "name": "set",
      "outputs": [
        {
          "name": "",
          "type": "bool"
        }
      ],
      "payable": false,
      "stateMutability": "nonpayable",
      "type": "function"
    },
    {
      "constant": true,
      "inputs": [
        {
          "name": "value",
          "type": "bytes32"
        }
      ],
      "name": "indexOf",
      "outputs": [
        {
          "name": "",
          "type": "uint256"
        }
      ],
      "payable": false,
      "stateMutability": "view",
      "type": "function"
    },
    {
      "constant": false,
      "inputs": [],
      "name": "destroy",
      "outputs": [],
      "payable": false,
      "stateMutability": "nonpayable",
      "type": "function"
    },
    {
      "constant": true,
      "inputs": [],
      "name": "lastRemove",
      "outputs": [
        {
          "name": "",
          "type": "bool"
        }
      ],
      "payable": false,
      "stateMutability": "view",
      "type": "function"
    },
    {
      "constant": true,
      "inputs": [],
      "name": "owner",
      "outputs": [
        {
          "name": "",
          "type": "address"
        }
      ],
      "payable": false,
      "stateMutability": "view",
      "type": "function"
    },
    {
      "constant": true,
      "inputs": [],
      "name": "lastPop",
      "outputs": [
        {
          "name": "",
          "type": "bytes32"
        }
      ],
      "payable": false,
      "stateMutability": "view",
      "type": "function"
    },
    {
      "constant": true,
      "inputs": [],
      "name": "size",
      "outputs": [
        {
          "name": "",
          "type": "uint256"
        }
      ],
      "payable": false,
      "stateMutability": "view",
      "type": "function"
    },
    {
      "constant": true,
      "inputs": [
        {
          "name": "index",
          "type": "uint256"
        }
      ],
      "name": "get",
      "outputs": [
        {
          "name": "",
          "type": "bytes32"
        }
      ],
      "payable": false,
      "stateMutability": "view",
      "type": "function"
    },
    {
      "constant": false,
      "inputs": [
        {
          "name": "value",
          "type": "bytes32"
        }
      ],
      "name": "remove",
      "outputs": [
        {
          "name": "",
          "type": "bool"
        }
      ],
      "payable": false,
      "stateMutability": "nonpayable",
      "type": "function"
    },
    {
      "constant": false,
      "inputs": [
        {
          "name": "newOwner",
          "type": "address"
        }
      ],
      "name": "transferOwnership",
      "outputs": [],
      "payable": false,
      "stateMutability": "nonpayable",
      "type": "function"
    },
    {
      "constant": false,
      "inputs": [
        {
          "name": "_recipient",
          "type": "address"
        }
      ],
      "name": "destroyAndSend",
      "outputs": [],
      "payable": false,
      "stateMutability": "nonpayable",
      "type": "function"
    },
    {
      "constant": true,
      "inputs": [],
      "name": "lastAdd",
      "outputs": [
        {
          "name": "",
          "type": "bool"
        }
      ],
      "payable": false,
      "stateMutability": "view",
      "type": "function"
    },
    {
      "inputs": [],
      "payable": true,
      "stateMutability": "payable",
      "type": "constructor"
    },
    {
      "payable": true,
      "stateMutability": "payable",
      "type": "fallback"
    },
    {
      "anonymous": false,
      "inputs": [
        {
          "indexed": true,
          "name": "previousOwner",
          "type": "address"
        },
        {
          "indexed": true,
          "name": "newOwner",
          "type": "address"
        }
      ],
      "name": "OwnershipTransferred",
      "type": "event"
    }
  ],
  "bytecode": "0x6060604052336000806101000a81548173ffffffffffffffffffffffffffffffffffffffff021916908373ffffffffffffffffffffffffffffffffffffffff160217905550610f32806100536000396000f3006060604052600436106100fc576000357c0100000000000000000000000000000000000000000000000000000000900463ffffffff16806319eb4a90146100fe5780631d1a696d146101685780633df4ddf4146101a7578063446bffba146101d857806347799da8146102175780635dcfb4fa1461024857806364c4ef1a146102875780636f4ce56a146102cf57806383197ef01461030a578063866797b31461031f5780638da5cb5b1461034c5780638fbcd775146103a1578063949d225d146103d25780639507d39a146103fb57806395bc26731461043a578063f2fde38b14610479578063f5074f41146104b2578063fedab70d146104eb575b005b341561010957600080fd5b610111610518565b6040518080602001828103825283818151815260200191508051906020019060200280838360005b83811015610154578082015181840152602081019050610139565b505050509050019250505060405180910390f35b341561017357600080fd5b61018d60048080356000191690602001909190505061057d565b604051808215151515815260200191505060405180910390f35b34156101b257600080fd5b6101ba610627565b60405180826000191660001916815260200191505060405180910390f35b34156101e357600080fd5b6101fd6004808035600019169060200190919050506106bf565b604051808215151515815260200191505060405180910390f35b341561022257600080fd5b61022a610792565b60405180826000191660001916815260200191505060405180910390f35b341561025357600080fd5b610269600480803590602001909190505061082a565b60405180826000191660001916815260200191505060405180910390f35b341561029257600080fd5b6102b56004808035906020019091908035600019169060200190919050506108d9565b604051808215151515815260200191505060405180910390f35b34156102da57600080fd5b6102f460048080356000191690602001909190505061098c565b6040518082815260200191505060405180910390f35b341561031557600080fd5b61031d610a36565b005b341561032a57600080fd5b610332610acb565b604051808215151515815260200191505060405180910390f35b341561035757600080fd5b61035f610ade565b604051808273ffffffffffffffffffffffffffffffffffffffff1673ffffffffffffffffffffffffffffffffffffffff16815260200191505060405180910390f35b34156103ac57600080fd5b6103b4610b03565b60405180826000191660001916815260200191505060405180910390f35b34156103dd57600080fd5b6103e5610b09565b6040518082815260200191505060405180910390f35b341561040657600080fd5b61041c6004808035906020019091905050610ba1565b60405180826000191660001916815260200191505060405180910390f35b341561044557600080fd5b61045f600480803560001916906020019091905050610c43565b604051808215151515815260200191505060405180910390f35b341561048457600080fd5b6104b0600480803573ffffffffffffffffffffffffffffffffffffffff16906020019091905050610d16565b005b34156104bd57600080fd5b6104e9600480803573ffffffffffffffffffffffffffffffffffffffff16906020019091905050610e6b565b005b34156104f657600080fd5b6104fe610edf565b604051808215151515815260200191505060405180910390f35b610520610ef2565b600160000180548060200260200160405190810160405280929190818152602001828054801561057357602002820191906000526020600020905b8154600019168152602001906001019080831161055b575b5050505050905090565b6000600173__Bytes32SetLib_________________________633fb5a9f39091846000604051602001526040518363ffffffff167c01000000000000000000000000000000000000000000000000000000000281526004018083815260200182600019166000191681526020019250505060206040518083038186803b151561060557600080fd5b6102c65a03f4151561061657600080fd5b505050604051805190509050919050565b6000600173__Bytes32SetLib_________________________63e3cbfc1790916000604051602001526040518263ffffffff167c01000000000000000000000000000000000000000000000000000000000281526004018082815260200191505060206040518083038186803b151561069f57600080fd5b6102c65a03f415156106b057600080fd5b50505060405180519050905090565b6000600173__Bytes32SetLib_________________________6363d4d3359091846000604051602001526040518363ffffffff167c01000000000000000000000000000000000000000000000000000000000281526004018083815260200182600019166000191681526020019250505060206040518083038186803b151561074757600080fd5b6102c65a03f4151561075857600080fd5b50505060405180519050600560006101000a81548160ff021916908315150217905550600560009054906101000a900460ff169050919050565b6000600173__Bytes32SetLib_________________________6385d5ac4790916000604051602001526040518263ffffffff167c01000000000000000000000000000000000000000000000000000000000281526004018082815260200191505060206040518083038186803b151561080a57600080fd5b6102c65a03f4151561081b57600080fd5b50505060405180519050905090565b6000600173__Bytes32SetLib_________________________630bb52bda9091846000604051602001526040518363ffffffff167c0100000000000000000000000000000000000000000000000000000000028152600401808381526020018281526020019250505060206040518083038186803b15156108aa57600080fd5b6102c65a03f415156108bb57600080fd5b50505060405180519050600481600019169055506004549050919050565b6000600173__Bytes32SetLib_________________________6317bf114c909185856000604051602001526040518463ffffffff167c0100000000000000000000000000000000000000000000000000000000028152600401808481526020018381526020018260001916600019168152602001935050505060206040518083038186803b151561096957600080fd5b6102c65a03f4151561097a57600080fd5b50505060405180519050905092915050565b6000600173__Bytes32SetLib_________________________63aef98a629091846000604051602001526040518363ffffffff167c01000000000000000000000000000000000000000000000000000000000281526004018083815260200182600019166000191681526020019250505060206040518083038186803b1515610a1457600080fd5b6102c65a03f41515610a2557600080fd5b505050604051805190509050919050565b6000809054906101000a900473ffffffffffffffffffffffffffffffffffffffff1673ffffffffffffffffffffffffffffffffffffffff163373ffffffffffffffffffffffffffffffffffffffff16141515610a9157600080fd5b6000809054906101000a900473ffffffffffffffffffffffffffffffffffffffff1673ffffffffffffffffffffffffffffffffffffffff16ff5b600560019054906101000a900460ff1681565b6000809054906101000a900473ffffffffffffffffffffffffffffffffffffffff1681565b60045481565b6000600173__Bytes32SetLib_________________________636de9408a90916000604051602001526040518263ffffffff167c01000000000000000000000000000000000000000000000000000000000281526004018082815260200191505060206040518083038186803b1515610b8157600080fd5b6102c65a03f41515610b9257600080fd5b50505060405180519050905090565b6000600173__Bytes32SetLib_________________________639542d9d99091846000604051602001526040518363ffffffff167c0100000000000000000000000000000000000000000000000000000000028152600401808381526020018281526020019250505060206040518083038186803b1515610c2157600080fd5b6102c65a03f41515610c3257600080fd5b505050604051805190509050919050565b6000600173__Bytes32SetLib_________________________63121920bc9091846000604051602001526040518363ffffffff167c01000000000000000000000000000000000000000000000000000000000281526004018083815260200182600019166000191681526020019250505060206040518083038186803b1515610ccb57600080fd5b6102c65a03f41515610cdc57600080fd5b50505060405180519050600560016101000a81548160ff021916908315150217905550600560019054906101000a900460ff169050919050565b6000809054906101000a900473ffffffffffffffffffffffffffffffffffffffff1673ffffffffffffffffffffffffffffffffffffffff163373ffffffffffffffffffffffffffffffffffffffff16141515610d7157600080fd5b600073ffffffffffffffffffffffffffffffffffffffff168173ffffffffffffffffffffffffffffffffffffffff1614151515610dad57600080fd5b8073ffffffffffffffffffffffffffffffffffffffff166000809054906101000a900473ffffffffffffffffffffffffffffffffffffffff1673ffffffffffffffffffffffffffffffffffffffff167f8be0079c531659141344cd1fd0a4f28419497f9722a3daafe3b4186f6b6457e060405160405180910390a3806000806101000a81548173ffffffffffffffffffffffffffffffffffffffff021916908373ffffffffffffffffffffffffffffffffffffffff16021790555050565b6000809054906101000a900473ffffffffffffffffffffffffffffffffffffffff1673ffffffffffffffffffffffffffffffffffffffff163373ffffffffffffffffffffffffffffffffffffffff16141515610ec657600080fd5b8073ffffffffffffffffffffffffffffffffffffffff16ff5b600560009054906101000a900460ff1681565b6020604051908101604052806000815250905600a165627a7a72305820b8d067775d4075db43377ddc53fd6123e774573f9cdc7f40d20efe1d099729b90029",
  "source": "pragma solidity ^0.4.17;\n\nimport './Bytes32SetLib.sol';\nimport '../../Destructible.sol';\n\ncontract Bytes32SetSpec is Destructible {\n  using Bytes32SetLib for Bytes32SetLib.Bytes32Set;\n\n  Bytes32SetLib.Bytes32Set testSet;\n\n  bytes32 public lastPop;\n  bool public lastAdd;\n  bool public lastRemove;\n\n  function () public payable {}\n  function Bytes32SetSpec() public payable {}\n\n  function get(uint index) public view returns (bytes32) {\n    return testSet.get(index);\n  }\n\n  function getValues() public view returns (bytes32[]) {\n    return testSet.values;\n  }\n\n  function set(uint index, bytes32 value) public returns (bool) {\n    return testSet.set(index, value);\n  }\n\n  function add(bytes32 value) public returns (bool) {\n    lastAdd = testSet.add(value);\n    return lastAdd;\n  }\n\n  function remove(bytes32 value) public returns (bool) {\n    lastRemove = testSet.remove(value);\n    return lastRemove;\n  }\n\n  function pop(uint index) public returns (bytes32) {\n    lastPop = testSet.pop(index);\n    return lastPop;\n  }\n\n  function first() public view returns (bytes32) {\n    return testSet.first();\n  }\n\n  function last() public view returns (bytes32) {\n    return testSet.last();\n  }\n\n  function indexOf(bytes32 value) public view returns (uint) {\n    return testSet.indexOf(value);\n  }\n\n  function contains(bytes32 value) public view returns (bool) {\n    return testSet.contains(value);\n  }\n\n  function size() public view returns (uint) {\n    return testSet.size();\n  }\n}\n",
  "sourcePath": "/Users/orie/OR13/transmute/packages/transmute-contracts/contracts/TransmuteFramework/SetLib/Bytes32Set/Bytes32SetSpec.sol",
  "compiler": {
    "name": "solc",
    "version": "0.4.18+commit.9cf6e910.Emscripten.clang"
  },
  "schemaVersion": "1.0.1",
  "updatedAt": "2017-12-30T03:08:20.120Z"
}