{
  "contractName": "EventStore",
  "abi": [
    {
      "constant": false,
      "inputs": [],
      "name": "recycle",
      "outputs": [],
      "payable": false,
      "stateMutability": "nonpayable",
      "type": "function"
    },
    {
      "constant": false,
      "inputs": [
        {
          "name": "_eventType",
          "type": "bytes32"
        },
        {
          "name": "_keyType",
          "type": "bytes1"
        },
        {
          "name": "_valueType",
          "type": "bytes1"
        },
        {
          "name": "_key",
          "type": "bytes32"
        },
        {
          "name": "_value",
          "type": "bytes32"
        }
      ],
      "name": "writeEvent",
      "outputs": [
        {
          "name": "",
          "type": "uint256"
        }
      ],
      "payable": false,
      "stateMutability": "nonpayable",
      "type": "function"
    },
    {
      "constant": true,
      "inputs": [],
      "name": "eventCount",
      "outputs": [
        {
          "name": "",
          "type": "uint256"
        }
      ],
      "payable": false,
      "stateMutability": "view",
      "type": "function"
    },
    {
      "constant": true,
      "inputs": [],
      "name": "owner",
      "outputs": [
        {
          "name": "",
          "type": "address"
        }
      ],
      "payable": false,
      "stateMutability": "view",
      "type": "function"
    },
    {
      "constant": false,
      "inputs": [
        {
          "name": "_recipient",
          "type": "address"
        }
      ],
      "name": "recycleAndSend",
      "outputs": [],
      "payable": false,
      "stateMutability": "nonpayable",
      "type": "function"
    },
    {
      "constant": true,
      "inputs": [],
      "name": "getWhitelist",
      "outputs": [
        {
          "name": "",
          "type": "address[]"
        }
      ],
      "payable": false,
      "stateMutability": "view",
      "type": "function"
    },
    {
      "constant": true,
      "inputs": [
        {
          "name": "_eventId",
          "type": "uint256"
        }
      ],
      "name": "readEvent",
      "outputs": [
        {
          "name": "",
          "type": "uint256"
        },
        {
          "name": "",
          "type": "address"
        },
        {
          "name": "",
          "type": "address"
        },
        {
          "name": "",
          "type": "uint256"
        },
        {
          "name": "",
          "type": "bytes32"
        },
        {
          "name": "",
          "type": "bytes1"
        },
        {
          "name": "",
          "type": "bytes1"
        },
        {
          "name": "",
          "type": "bytes32"
        },
        {
          "name": "",
          "type": "bytes32"
        }
      ],
      "payable": false,
      "stateMutability": "view",
      "type": "function"
    },
    {
      "constant": false,
      "inputs": [
        {
          "name": "newOwner",
          "type": "address"
        }
      ],
      "name": "transferOwnership",
      "outputs": [],
      "payable": false,
      "stateMutability": "nonpayable",
      "type": "function"
    },
    {
      "constant": false,
      "inputs": [
        {
          "name": "_whitelist",
          "type": "address[]"
        }
      ],
      "name": "setWhitelist",
      "outputs": [],
      "payable": false,
      "stateMutability": "nonpayable",
      "type": "function"
    },
    {
      "inputs": [],
      "payable": true,
      "stateMutability": "payable",
      "type": "constructor"
    },
    {
      "payable": true,
      "stateMutability": "payable",
      "type": "fallback"
    },
    {
      "anonymous": false,
      "inputs": [
        {
          "indexed": false,
          "name": "Id",
          "type": "uint256"
        },
        {
          "indexed": false,
          "name": "TxOrigin",
          "type": "address"
        },
        {
          "indexed": false,
          "name": "MsgSender",
          "type": "address"
        },
        {
          "indexed": false,
          "name": "Created",
          "type": "uint256"
        },
        {
          "indexed": false,
          "name": "EventType",
          "type": "bytes32"
        },
        {
          "indexed": false,
          "name": "KeyType",
          "type": "bytes1"
        },
        {
          "indexed": false,
          "name": "ValueType",
          "type": "bytes1"
        },
        {
          "indexed": false,
          "name": "Key",
          "type": "bytes32"
        },
        {
          "indexed": false,
          "name": "Value",
          "type": "bytes32"
        }
      ],
      "name": "EsEvent",
      "type": "event"
    }
  ],
  "bytecode": "0x606060405233600460006101000a81548173ffffffffffffffffffffffffffffffffffffffff021916908373ffffffffffffffffffffffffffffffffffffffff1602179055506101207f4e45575f4f574e455200000000000000000000000000000000000000000000007f53000000000000000000000000000000000000000000000000000000000000007f41000000000000000000000000000000000000000000000000000000000000007f6164647265737300000000000000000000000000000000000000000000000000600460009054906101000a900473ffffffffffffffffffffffffffffffffffffffff1673ffffffffffffffffffffffffffffffffffffffff1660010261012664010000000002610ffd176401000000009004565b5061028a565b600073__EventStoreLib_________________________633bb64203600088888888886000604051602001526040518763ffffffff167c0100000000000000000000000000000000000000000000000000000000028152600401808781526020018660001916600019168152602001857effffffffffffffffffffffffffffffffffffffffffffffffffffffffffffff19167effffffffffffffffffffffffffffffffffffffffffffffffffffffffffffff19168152602001847effffffffffffffffffffffffffffffffffffffffffffffffffffffffffffff19167effffffffffffffffffffffffffffffffffffffffffffffffffffffffffffff1916815260200183600019166000191681526020018260001916600019168152602001965050505050505060206040518083038186803b151561026457600080fd5b6102c65a03f4151561027557600080fd5b50505060405180519050905095945050505050565b6111a1806102996000396000f300606060405260043610610099576000357c0100000000000000000000000000000000000000000000000000000000900463ffffffff1680630f23cbaa1461009b57806335628b38146100b057806371be2e4a1461015b5780638da5cb5b146101845780639b15e252146101d9578063d01f63f514610212578063e1ba30a91461027c578063f2fde38b146103e3578063f42176481461041c575b005b34156100a657600080fd5b6100ae610476565b005b34156100bb57600080fd5b6101456004808035600019169060200190919080357effffffffffffffffffffffffffffffffffffffffffffffffffffffffffffff19169060200190919080357effffffffffffffffffffffffffffffffffffffffffffffffffffffffffffff191690602001909190803560001916906020019091908035600019169060200190919050506105d6565b6040518082815260200191505060405180910390f35b341561016657600080fd5b61016e6108fc565b6040518082815260200191505060405180910390f35b341561018f57600080fd5b61019761090b565b604051808273ffffffffffffffffffffffffffffffffffffffff1673ffffffffffffffffffffffffffffffffffffffff16815260200191505060405180910390f35b34156101e457600080fd5b610210600480803573ffffffffffffffffffffffffffffffffffffffff16906020019091905050610931565b005b341561021d57600080fd5b610225610a4d565b6040518080602001828103825283818151815260200191508051906020019060200280838360005b8381101561026857808201518184015260208101905061024d565b505050509050019250505060405180910390f35b341561028757600080fd5b61029d6004808035906020019091905050610ae4565b604051808a81526020018973ffffffffffffffffffffffffffffffffffffffff1673ffffffffffffffffffffffffffffffffffffffff1681526020018873ffffffffffffffffffffffffffffffffffffffff1673ffffffffffffffffffffffffffffffffffffffff1681526020018781526020018660001916600019168152602001857effffffffffffffffffffffffffffffffffffffffffffffffffffffffffffff19167effffffffffffffffffffffffffffffffffffffffffffffffffffffffffffff19168152602001847effffffffffffffffffffffffffffffffffffffffffffffffffffffffffffff19167effffffffffffffffffffffffffffffffffffffffffffffffffffffffffffff1916815260200183600019166000191681526020018260001916600019168152602001995050505050505050505060405180910390f35b34156103ee57600080fd5b61041a600480803573ffffffffffffffffffffffffffffffffffffffff16906020019091905050610bda565b005b341561042757600080fd5b610474600480803590602001908201803590602001908080602002602001604051908101604052809392919081815260200183836020028082843782019150505050505091905050610d5d565b005b600460009054906101000a900473ffffffffffffffffffffffffffffffffffffffff1673ffffffffffffffffffffffffffffffffffffffff163373ffffffffffffffffffffffffffffffffffffffff161415156104d257600080fd5b61059a7f52454359434c45445f544f0000000000000000000000000000000000000000007f53000000000000000000000000000000000000000000000000000000000000007f41000000000000000000000000000000000000000000000000000000000000007f6164647265737300000000000000000000000000000000000000000000000000600460009054906101000a900473ffffffffffffffffffffffffffffffffffffffff1673ffffffffffffffffffffffffffffffffffffffff16600102610ffd565b50600460009054906101000a900473ffffffffffffffffffffffffffffffffffffffff1673ffffffffffffffffffffffffffffffffffffffff16ff5b600080600173__AddressSetLib_________________________631d4cf6c490916000604051602001526040518263ffffffff167c01000000000000000000000000000000000000000000000000000000000281526004018082815260200191505060206040518083038186803b151561064f57600080fd5b6102c65a03f4151561066057600080fd5b5050506040518051905014806106c357503373ffffffffffffffffffffffffffffffffffffffff16600460009054906101000a900473ffffffffffffffffffffffffffffffffffffffff1673ffffffffffffffffffffffffffffffffffffffff16145b8061078f5750600173__AddressSetLib_________________________63dc02e70d9091336000604051602001526040518363ffffffff167c0100000000000000000000000000000000000000000000000000000000028152600401808381526020018273ffffffffffffffffffffffffffffffffffffffff1673ffffffffffffffffffffffffffffffffffffffff1681526020019250505060206040518083038186803b151561077357600080fd5b6102c65a03f4151561078457600080fd5b505050604051805190505b151561079a57600080fd5b73__EventStoreLib_________________________633bb64203600088888888886000604051602001526040518763ffffffff167c0100000000000000000000000000000000000000000000000000000000028152600401808781526020018660001916600019168152602001857effffffffffffffffffffffffffffffffffffffffffffffffffffffffffffff19167effffffffffffffffffffffffffffffffffffffffffffffffffffffffffffff19168152602001847effffffffffffffffffffffffffffffffffffffffffffffffffffffffffffff19167effffffffffffffffffffffffffffffffffffffffffffffffffffffffffffff1916815260200183600019166000191681526020018260001916600019168152602001965050505050505060206040518083038186803b15156108d657600080fd5b6102c65a03f415156108e757600080fd5b50505060405180519050905095945050505050565b60008060000180549050905090565b600460009054906101000a900473ffffffffffffffffffffffffffffffffffffffff1681565b600460009054906101000a900473ffffffffffffffffffffffffffffffffffffffff1673ffffffffffffffffffffffffffffffffffffffff163373ffffffffffffffffffffffffffffffffffffffff1614151561098d57600080fd5b610a337f52454359434c45445f544f0000000000000000000000000000000000000000007f53000000000000000000000000000000000000000000000000000000000000007f41000000000000000000000000000000000000000000000000000000000000007f61646472657373000000000000000000000000000000000000000000000000008573ffffffffffffffffffffffffffffffffffffffff16600102610ffd565b508073ffffffffffffffffffffffffffffffffffffffff16ff5b610a55611161565b6001600001805480602002602001604051908101604052809291908181526020018280548015610ada57602002820191906000526020600020905b8160009054906101000a900473ffffffffffffffffffffffffffffffffffffffff1673ffffffffffffffffffffffffffffffffffffffff1681526020019060010190808311610a90575b5050505050905090565b600080600080600080600080600073__EventStoreLib_________________________63a057fd5e60008c600060405161012001526040518363ffffffff167c010000000000000000000000000000000000000000000000000000000002815260040180838152602001828152602001925050506101206040518083038186803b1515610b7057600080fd5b6102c65a03f41515610b8157600080fd5b505050604051805190602001805190602001805190602001805190602001805190602001805190602001805190602001805190602001805190509850985098509850985098509850985098509193959799909294969850565b600460009054906101000a900473ffffffffffffffffffffffffffffffffffffffff1673ffffffffffffffffffffffffffffffffffffffff163373ffffffffffffffffffffffffffffffffffffffff16141515610c3657600080fd5b600073ffffffffffffffffffffffffffffffffffffffff168173ffffffffffffffffffffffffffffffffffffffff1614151515610c7257600080fd5b80600460006101000a81548173ffffffffffffffffffffffffffffffffffffffff021916908373ffffffffffffffffffffffffffffffffffffffff160217905550610d597f4e45575f4f574e455200000000000000000000000000000000000000000000007f53000000000000000000000000000000000000000000000000000000000000007f41000000000000000000000000000000000000000000000000000000000000007f61646472657373000000000000000000000000000000000000000000000000008573ffffffffffffffffffffffffffffffffffffffff16600102610ffd565b5050565b6000600460009054906101000a900473ffffffffffffffffffffffffffffffffffffffff1673ffffffffffffffffffffffffffffffffffffffff163373ffffffffffffffffffffffffffffffffffffffff16141515610dbb57600080fd5b6000600173__AddressSetLib_________________________631d4cf6c490916000604051602001526040518263ffffffff167c01000000000000000000000000000000000000000000000000000000000281526004018082815260200191505060206040518083038186803b1515610e3357600080fd5b6102c65a03f41515610e4457600080fd5b50505060405180519050141515610e5a57600080fd5b600090505b8151811015610f5257600173__AddressSetLib_________________________631e40161690918484815181101515610e9457fe5b906020019060200201516000604051602001526040518363ffffffff167c0100000000000000000000000000000000000000000000000000000000028152600401808381526020018273ffffffffffffffffffffffffffffffffffffffff1673ffffffffffffffffffffffffffffffffffffffff1681526020019250505060206040518083038186803b1515610f2957600080fd5b6102c65a03f41515610f3a57600080fd5b50505060405180519050508080600101915050610e5f565b610ff87f574c5f53455400000000000000000000000000000000000000000000000000007f53000000000000000000000000000000000000000000000000000000000000007f41000000000000000000000000000000000000000000000000000000000000007f61646472657373000000000000000000000000000000000000000000000000003373ffffffffffffffffffffffffffffffffffffffff16600102610ffd565b505050565b600073__EventStoreLib_________________________633bb64203600088888888886000604051602001526040518763ffffffff167c0100000000000000000000000000000000000000000000000000000000028152600401808781526020018660001916600019168152602001857effffffffffffffffffffffffffffffffffffffffffffffffffffffffffffff19167effffffffffffffffffffffffffffffffffffffffffffffffffffffffffffff19168152602001847effffffffffffffffffffffffffffffffffffffffffffffffffffffffffffff19167effffffffffffffffffffffffffffffffffffffffffffffffffffffffffffff1916815260200183600019166000191681526020018260001916600019168152602001965050505050505060206040518083038186803b151561113b57600080fd5b6102c65a03f4151561114c57600080fd5b50505060405180519050905095945050505050565b6020604051908101604052806000815250905600a165627a7a723058205451329b4c34cd43878adff647dda26ad48f313fbb7e16705b1244fe04b8d1150029",
  "source": "pragma solidity ^0.4.17;\n\nimport \"./EventStoreLib.sol\";\nimport \"./SetLib/AddressSet/AddressSetLib.sol\";\n\n// never inhertitence\ncontract EventStore {\n\n  using EventStoreLib for EventStoreLib.EsEventStorage;\n  using AddressSetLib for AddressSetLib.AddressSet;\n\n  EventStoreLib.EsEventStorage store;\n  AddressSetLib.AddressSet whitelist;\n\n  address public owner;\n\n  /**\n   * @dev This contract can receive ether.\n   */\n  function () public payable { }\n\n  // Constuctor\n  function EventStore() public payable {\n    owner = msg.sender;\n    internalWriteEvent(\"NEW_OWNER\", \"S\", \"A\", \"address\", bytes32(address(owner)));\n  }\n  \n  /**\n   * @dev Allows the current owner to transfer control of the contract to a newOwner.\n   * @param newOwner The address to transfer ownership to.\n   */\n  function transferOwnership(address newOwner) public {\n    require(msg.sender == owner);\n    require(newOwner != address(0));\n    owner = newOwner;\n    internalWriteEvent(\"NEW_OWNER\", \"S\", \"A\", \"address\", bytes32(address(newOwner)));\n  }\n\n   /**\n   * @dev Transfers the current balance to the owner and terminates the contract.\n   */\n  function recycle() public {\n    require(msg.sender == owner);\n    internalWriteEvent(\"RECYCLED_TO\", \"S\", \"A\", \"address\", bytes32(address(owner)));\n    selfdestruct(owner);\n  }\n\n  function recycleAndSend(address _recipient) public {\n    require(msg.sender == owner);\n    internalWriteEvent(\"RECYCLED_TO\", \"S\", \"A\", \"address\", bytes32(address(_recipient)));\n    selfdestruct(_recipient);\n  }\n\n  function internalWriteEvent(\n    bytes32 _eventType,\n    bytes1 _keyType,\n    bytes1 _valueType,\n    bytes32 _key,\n    bytes32 _value\n  ) \n  private returns (uint)\n  {\n    return EventStoreLib.writeEvent(\n      store,\n      _eventType,\n      _keyType,\n      _valueType,\n      _key,\n      _value\n    );\n  }\n\n  function writeEvent(\n    bytes32 _eventType,\n    bytes1 _keyType,\n    bytes1 _valueType,\n    bytes32 _key,\n    bytes32 _value\n  ) \n  public returns (uint)\n  {\n    // only this contract owner, creator, or a member of the whitelist can write events\n    require(whitelist.size() == 0 || owner == msg.sender || whitelist.contains(msg.sender));\n    return EventStoreLib.writeEvent(\n      store,\n      _eventType,\n      _keyType,\n      _valueType,\n      _key,\n      _value\n    );\n  }\n\n  function readEvent(uint _eventId) \n  public view\n    returns (\n      uint,\n      address,\n      address,\n      uint,\n      bytes32,\n      bytes1,\n      bytes1,\n      bytes32,\n      bytes32\n    ) {\n    return EventStoreLib.readEvent(store, _eventId);\n  }\n\n  // Helper Functions\n  function setWhitelist(address[] _whitelist) public {\n    require(msg.sender == owner);\n    require(whitelist.size() == 0);\n    for (uint index = 0; index < _whitelist.length; index++) {\n      whitelist.add(_whitelist[index]);\n    }\n    internalWriteEvent(\"WL_SET\", \"S\", \"A\", \"address\", bytes32(address(msg.sender)));\n  }\n\n  function getWhitelist() public view returns(address[]) {\n    return whitelist.values;\n  }\n\n  function eventCount() public view returns (uint) {\n    return store.events.length;\n  }\n\n  // Events\n  event EsEvent(\n    uint Id,\n    address TxOrigin,\n    address MsgSender,\n    uint Created,\n\n    bytes32 EventType,\n\n    bytes1 KeyType,\n    bytes1 ValueType,\n\n    bytes32 Key,\n    bytes32 Value\n  );\n}\n",
  "sourcePath": "/Users/orie/OR13/transmute/packages/transmute-contracts/contracts/TransmuteFramework/EventStore.sol",
  "compiler": {
    "name": "solc",
    "version": "0.4.18+commit.9cf6e910.Emscripten.clang"
  },
  "schemaVersion": "1.0.1",
  "updatedAt": "2017-12-31T02:31:40.092Z"
}