{
  "contractName": "EventStoreLib",
  "abi": [
    {
      "constant": false,
      "inputs": [
        {
          "name": "self",
          "type": "EventStoreLib.EsEventStorage storage"
        },
        {
          "name": "_eventType",
          "type": "bytes32"
        },
        {
          "name": "_keyType",
          "type": "bytes1"
        },
        {
          "name": "_valueType",
          "type": "bytes1"
        },
        {
          "name": "_key",
          "type": "bytes32"
        },
        {
          "name": "_value",
          "type": "bytes32"
        }
      ],
      "name": "writeEvent",
      "outputs": [
        {
          "name": "",
          "type": "uint256"
        }
      ],
      "payable": false,
      "stateMutability": "nonpayable",
      "type": "function"
    },
    {
      "constant": true,
      "inputs": [
        {
          "name": "self",
          "type": "EventStoreLib.EsEventStorage storage"
        },
        {
          "name": "_eventId",
          "type": "uint256"
        }
      ],
      "name": "readEvent",
      "outputs": [
        {
          "name": "",
          "type": "uint256"
        },
        {
          "name": "",
          "type": "address"
        },
        {
          "name": "",
          "type": "address"
        },
        {
          "name": "",
          "type": "uint256"
        },
        {
          "name": "",
          "type": "bytes32"
        },
        {
          "name": "",
          "type": "bytes1"
        },
        {
          "name": "",
          "type": "bytes1"
        },
        {
          "name": "",
          "type": "bytes32"
        },
        {
          "name": "",
          "type": "bytes32"
        }
      ],
      "payable": false,
      "stateMutability": "view",
      "type": "function"
    },
    {
      "anonymous": false,
      "inputs": [
        {
          "indexed": false,
          "name": "Id",
          "type": "uint256"
        },
        {
          "indexed": false,
          "name": "TxOrigin",
          "type": "address"
        },
        {
          "indexed": false,
          "name": "MsgSender",
          "type": "address"
        },
        {
          "indexed": false,
          "name": "Created",
          "type": "uint256"
        },
        {
          "indexed": false,
          "name": "EventType",
          "type": "bytes32"
        },
        {
          "indexed": false,
          "name": "KeyType",
          "type": "bytes1"
        },
        {
          "indexed": false,
          "name": "ValueType",
          "type": "bytes1"
        },
        {
          "indexed": false,
          "name": "Key",
          "type": "bytes32"
        },
        {
          "indexed": false,
          "name": "Value",
          "type": "bytes32"
        }
      ],
      "name": "EsEvent",
      "type": "event"
    }
  ],
  "bytecode": "0x6060604052341561000f57600080fd5b610b268061001e6000396000f30060606040526004361061004c576000357c0100000000000000000000000000000000000000000000000000000000900463ffffffff1680633bb6420314610051578063a057fd5e146100fa575b600080fd5b6100e46004808035906020019091908035600019169060200190919080357effffffffffffffffffffffffffffffffffffffffffffffffffffffffffffff19169060200190919080357effffffffffffffffffffffffffffffffffffffffffffffffffffffffffffff1916906020019091908035600019169060200190919080356000191690602001909190505061025f565b6040518082815260200191505060405180910390f35b61011960048080359060200190919080359060200190919050506106e7565b604051808a81526020018973ffffffffffffffffffffffffffffffffffffffff1673ffffffffffffffffffffffffffffffffffffffff1681526020018873ffffffffffffffffffffffffffffffffffffffff1673ffffffffffffffffffffffffffffffffffffffff1681526020018781526020018660001916600019168152602001857effffffffffffffffffffffffffffffffffffffffffffffffffffffffffffff19167effffffffffffffffffffffffffffffffffffffffffffffffffffffffffffff19168152602001847effffffffffffffffffffffffffffffffffffffffffffffffffffffffffffff19167effffffffffffffffffffffffffffffffffffffffffffffffffffffffffffff1916815260200183600019166000191681526020018260001916600019168152602001995050505050505050505060405180910390f35b600080600061026c610954565b4292508960000180549050915032816000019073ffffffffffffffffffffffffffffffffffffffff16908173ffffffffffffffffffffffffffffffffffffffff168152505033816020019073ffffffffffffffffffffffffffffffffffffffff16908173ffffffffffffffffffffffffffffffffffffffff16815250508281604001818152505088816060019060001916908160001916815250508781608001907effffffffffffffffffffffffffffffffffffffffffffffffffffffffffffff191690817effffffffffffffffffffffffffffffffffffffffffffffffffffffffffffff191681525050868160a001907effffffffffffffffffffffffffffffffffffffffffffffffffffffffffffff191690817effffffffffffffffffffffffffffffffffffffffffffffffffffffffffffff191681525050858160c001906000191690816000191681525050848160e0019060001916908160001916815250507f6b3c8873ff9b1c068470039341f6473e929874a38caab2cee207f5a53350416982826000015183602001518460400151856060015186608001518760a001518860c001518960e00151604051808a81526020018973ffffffffffffffffffffffffffffffffffffffff1673ffffffffffffffffffffffffffffffffffffffff1681526020018873ffffffffffffffffffffffffffffffffffffffff1673ffffffffffffffffffffffffffffffffffffffff1681526020018781526020018660001916600019168152602001857effffffffffffffffffffffffffffffffffffffffffffffffffffffffffffff19167effffffffffffffffffffffffffffffffffffffffffffffffffffffffffffff19168152602001847effffffffffffffffffffffffffffffffffffffffffffffffffffffffffffff19167effffffffffffffffffffffffffffffffffffffffffffffffffffffffffffff1916815260200183600019166000191681526020018260001916600019168152602001995050505050505050505060405180910390a18960000180548060010182816105749190610a13565b9160005260206000209060070201600083909190915060008201518160000160006101000a81548173ffffffffffffffffffffffffffffffffffffffff021916908373ffffffffffffffffffffffffffffffffffffffff16021790555060208201518160010160006101000a81548173ffffffffffffffffffffffffffffffffffffffff021916908373ffffffffffffffffffffffffffffffffffffffff160217905550604082015181600201556060820151816003019060001916905560808201518160040160006101000a81548160ff02191690837f01000000000000000000000000000000000000000000000000000000000000009004021790555060a08201518160040160016101000a81548160ff02191690837f01000000000000000000000000000000000000000000000000000000000000009004021790555060c0820151816005019060001916905560e082015181600601906000191690555050508193505050509695505050505050565b60008060008060008060008060006106fd610954565b8b6000018b81548110151561070e57fe5b906000526020600020906007020161010060405190810160405290816000820160009054906101000a900473ffffffffffffffffffffffffffffffffffffffff1673ffffffffffffffffffffffffffffffffffffffff1673ffffffffffffffffffffffffffffffffffffffff1681526020016001820160009054906101000a900473ffffffffffffffffffffffffffffffffffffffff1673ffffffffffffffffffffffffffffffffffffffff1673ffffffffffffffffffffffffffffffffffffffff168152602001600282015481526020016003820154600019166000191681526020016004820160009054906101000a90047f0100000000000000000000000000000000000000000000000000000000000000027effffffffffffffffffffffffffffffffffffffffffffffffffffffffffffff19167effffffffffffffffffffffffffffffffffffffffffffffffffffffffffffff191681526020016004820160019054906101000a90047f0100000000000000000000000000000000000000000000000000000000000000027effffffffffffffffffffffffffffffffffffffffffffffffffffffffffffff19167effffffffffffffffffffffffffffffffffffffffffffffffffffffffffffff19168152602001600582015460001916600019168152602001600682015460001916600019168152505090508a816000015182602001518360400151846060015185608001518660a001518760c001518860e00151995099509950995099509950995099509950509295985092959850929598565b61010060405190810160405280600073ffffffffffffffffffffffffffffffffffffffff168152602001600073ffffffffffffffffffffffffffffffffffffffff168152602001600081526020016000801916815260200160007effffffffffffffffffffffffffffffffffffffffffffffffffffffffffffff1916815260200160007effffffffffffffffffffffffffffffffffffffffffffffffffffffffffffff1916815260200160008019168152602001600080191681525090565b815481835581811511610a4057600702816007028360005260206000209182019101610a3f9190610a45565b5b505050565b610af791905b80821115610af357600080820160006101000a81549073ffffffffffffffffffffffffffffffffffffffff02191690556001820160006101000a81549073ffffffffffffffffffffffffffffffffffffffff0219169055600282016000905560038201600090556004820160006101000a81549060ff02191690556004820160016101000a81549060ff02191690556005820160009055600682016000905550600701610a4b565b5090565b905600a165627a7a72305820a4c3b23df277774e0ff02f487baddf0217df864ce06469856f30efd5a430c03e0029",
  "source": "pragma solidity ^0.4.17;\n\nlibrary EventStoreLib {\n\n    // String Encodings\n    // A - Address,\n    // U - UInt,\n    // B - Hex (bytes32),\n    // X - Bytes32 (ascii)\n    // S - Bytes32 (ascii)\n\n    struct EsEventStruct {\n        address TxOrigin;\n        address MsgSender;\n\n        uint Created;\n\n        bytes32 EventType;  // Event Type +/ Version\n\n        bytes1 KeyType;     // String Encodings\n        bytes1 ValueType;   // String Encodings\n\n        bytes32 Key;        // Key\n        bytes32 Value;      // Value\n    }\n\n    struct EsEventStorage {\n        EsEventStruct[] events;\n    }\n\n    // WRITE EVENT\n    function writeEvent(\n        EsEventStorage storage self,\n        bytes32 _eventType,\n        bytes1 _keyType,\n        bytes1 _valueType,\n        bytes32 _key,\n        bytes32 _value\n    ) public returns (uint) {\n        uint _created = now;\n        uint _eventId = self.events.length;\n\n        EsEventStruct memory esEvent;\n        esEvent.TxOrigin = tx.origin;\n        esEvent.MsgSender = msg.sender;\n        esEvent.Created = _created;\n\n        esEvent.EventType = _eventType;\n\n        esEvent.KeyType = _keyType;\n        esEvent.ValueType = _valueType;\n\n        esEvent.Key = _key;\n        esEvent.Value = _value;\n\n        EsEvent(\n            _eventId,\n            esEvent.TxOrigin,\n            esEvent.MsgSender,\n            esEvent.Created,\n            esEvent.EventType,\n            esEvent.KeyType,\n            esEvent.ValueType,\n            esEvent.Key,\n            esEvent.Value\n        );\n        self.events.push(esEvent);\n        return _eventId;\n    }\n\n    // READ EVENT\n    function readEvent(EsEventStorage storage self, uint _eventId) public constant\n    returns (uint, address, address, uint, bytes32, bytes1, bytes1, bytes32, bytes32) {\n        EsEventStruct memory esEvent = self.events[_eventId];\n        return (\n            _eventId,\n            esEvent.TxOrigin,\n            esEvent.MsgSender,\n            esEvent.Created,\n            esEvent.EventType,\n\n            esEvent.KeyType,\n            esEvent.ValueType,\n\n            esEvent.Key,\n            esEvent.Value\n        );\n    }\n\n    event EsEvent(\n        uint Id,\n        address TxOrigin,\n        address MsgSender,\n        uint Created,\n\n        bytes32 EventType,\n\n        bytes1 KeyType,\n        bytes1 ValueType,\n\n        bytes32 Key,\n        bytes32 Value\n    );\n\n}\n",
  "sourcePath": "/Users/orie/OR13/transmute/packages/transmute-contracts/contracts/TransmuteFramework/EventStoreLib.sol",
  "compiler": {
    "name": "solc",
    "version": "0.4.18+commit.9cf6e910.Emscripten.clang"
  },
  "schemaVersion": "1.0.1",
  "updatedAt": "2017-12-30T21:22:25.862Z"
}