{
  "contractName": "EventStoreFactory",
  "abi": [
    {
      "constant": false,
      "inputs": [],
      "name": "recycle",
      "outputs": [],
      "payable": false,
      "stateMutability": "nonpayable",
      "type": "function"
    },
    {
      "constant": true,
      "inputs": [],
      "name": "eventCount",
      "outputs": [
        {
          "name": "",
          "type": "uint256"
        }
      ],
      "payable": false,
      "stateMutability": "view",
      "type": "function"
    },
    {
      "constant": true,
      "inputs": [],
      "name": "owner",
      "outputs": [
        {
          "name": "",
          "type": "address"
        }
      ],
      "payable": false,
      "stateMutability": "view",
      "type": "function"
    },
    {
      "constant": true,
      "inputs": [],
      "name": "getEventStores",
      "outputs": [
        {
          "name": "",
          "type": "address[]"
        }
      ],
      "payable": false,
      "stateMutability": "view",
      "type": "function"
    },
    {
      "constant": false,
      "inputs": [
        {
          "name": "_recipient",
          "type": "address"
        }
      ],
      "name": "recycleAndSend",
      "outputs": [],
      "payable": false,
      "stateMutability": "nonpayable",
      "type": "function"
    },
    {
      "constant": true,
      "inputs": [
        {
          "name": "_eventId",
          "type": "uint256"
        }
      ],
      "name": "readEvent",
      "outputs": [
        {
          "name": "",
          "type": "uint256"
        },
        {
          "name": "",
          "type": "address"
        },
        {
          "name": "",
          "type": "address"
        },
        {
          "name": "",
          "type": "uint256"
        },
        {
          "name": "",
          "type": "bytes32"
        },
        {
          "name": "",
          "type": "bytes1"
        },
        {
          "name": "",
          "type": "bytes1"
        },
        {
          "name": "",
          "type": "bytes32"
        },
        {
          "name": "",
          "type": "bytes32"
        }
      ],
      "payable": false,
      "stateMutability": "view",
      "type": "function"
    },
    {
      "constant": false,
      "inputs": [
        {
          "name": "_newOwner",
          "type": "address"
        }
      ],
      "name": "transferOwnership",
      "outputs": [],
      "payable": false,
      "stateMutability": "nonpayable",
      "type": "function"
    },
    {
      "constant": false,
      "inputs": [
        {
          "name": "_whitelist",
          "type": "address[]"
        }
      ],
      "name": "createEventStore",
      "outputs": [
        {
          "name": "",
          "type": "address"
        }
      ],
      "payable": false,
      "stateMutability": "nonpayable",
      "type": "function"
    },
    {
      "inputs": [],
      "payable": false,
      "stateMutability": "nonpayable",
      "type": "constructor"
    },
    {
      "payable": true,
      "stateMutability": "payable",
      "type": "fallback"
    },
    {
      "anonymous": false,
      "inputs": [
        {
          "indexed": false,
          "name": "Id",
          "type": "uint256"
        },
        {
          "indexed": false,
          "name": "TxOrigin",
          "type": "address"
        },
        {
          "indexed": false,
          "name": "MsgSender",
          "type": "address"
        },
        {
          "indexed": false,
          "name": "Created",
          "type": "uint256"
        },
        {
          "indexed": false,
          "name": "EventType",
          "type": "bytes32"
        },
        {
          "indexed": false,
          "name": "KeyType",
          "type": "bytes1"
        },
        {
          "indexed": false,
          "name": "ValueType",
          "type": "bytes1"
        },
        {
          "indexed": false,
          "name": "Key",
          "type": "bytes32"
        },
        {
          "indexed": false,
          "name": "Value",
          "type": "bytes32"
        }
      ],
      "name": "EsEvent",
      "type": "event"
    }
  ],
  "bytecode": "0x6060604052341561000f57600080fd5b33600460006101000a81548173ffffffffffffffffffffffffffffffffffffffff021916908373ffffffffffffffffffffffffffffffffffffffff1602179055506121498061005f6000396000f30060606040526004361061008e576000357c0100000000000000000000000000000000000000000000000000000000900463ffffffff1680630f23cbaa1461009057806371be2e4a146100a55780638da5cb5b146100ce5780638dc668d7146101235780639b15e2521461018d578063e1ba30a9146101c6578063f2fde38b1461032d578063ff46356314610366575b005b341561009b57600080fd5b6100a3610400565b005b34156100b057600080fd5b6100b8610560565b6040518082815260200191505060405180910390f35b34156100d957600080fd5b6100e161056f565b604051808273ffffffffffffffffffffffffffffffffffffffff1673ffffffffffffffffffffffffffffffffffffffff16815260200191505060405180910390f35b341561012e57600080fd5b610136610595565b6040518080602001828103825283818151815260200191508051906020019060200280838360005b8381101561017957808201518184015260208101905061015e565b505050509050019250505060405180910390f35b341561019857600080fd5b6101c4600480803573ffffffffffffffffffffffffffffffffffffffff1690602001909190505061062c565b005b34156101d157600080fd5b6101e76004808035906020019091905050610748565b604051808a81526020018973ffffffffffffffffffffffffffffffffffffffff1673ffffffffffffffffffffffffffffffffffffffff1681526020018873ffffffffffffffffffffffffffffffffffffffff1673ffffffffffffffffffffffffffffffffffffffff1681526020018781526020018660001916600019168152602001857effffffffffffffffffffffffffffffffffffffffffffffffffffffffffffff19167effffffffffffffffffffffffffffffffffffffffffffffffffffffffffffff19168152602001847effffffffffffffffffffffffffffffffffffffffffffffffffffffffffffff19167effffffffffffffffffffffffffffffffffffffffffffffffffffffffffffff1916815260200183600019166000191681526020018260001916600019168152602001995050505050505050505060405180910390f35b341561033857600080fd5b610364600480803573ffffffffffffffffffffffffffffffffffffffff1690602001909190505061083e565b005b341561037157600080fd5b6103be6004808035906020019082018035906020019080806020026020016040519081016040528093929190818152602001838360200280828437820191505050505050919050506109c1565b604051808273ffffffffffffffffffffffffffffffffffffffff1673ffffffffffffffffffffffffffffffffffffffff16815260200191505060405180910390f35b600460009054906101000a900473ffffffffffffffffffffffffffffffffffffffff1673ffffffffffffffffffffffffffffffffffffffff163373ffffffffffffffffffffffffffffffffffffffff1614151561045c57600080fd5b6105247f52454359434c45445f544f0000000000000000000000000000000000000000007f53000000000000000000000000000000000000000000000000000000000000007f41000000000000000000000000000000000000000000000000000000000000007f6164647265737300000000000000000000000000000000000000000000000000600460009054906101000a900473ffffffffffffffffffffffffffffffffffffffff1673ffffffffffffffffffffffffffffffffffffffff16600102610ccb565b50600460009054906101000a900473ffffffffffffffffffffffffffffffffffffffff1673ffffffffffffffffffffffffffffffffffffffff16ff5b60008060000180549050905090565b600460009054906101000a900473ffffffffffffffffffffffffffffffffffffffff1681565b61059d610e2f565b600160000180548060200260200160405190810160405280929190818152602001828054801561062257602002820191906000526020600020905b8160009054906101000a900473ffffffffffffffffffffffffffffffffffffffff1673ffffffffffffffffffffffffffffffffffffffff16815260200190600101908083116105d8575b5050505050905090565b600460009054906101000a900473ffffffffffffffffffffffffffffffffffffffff1673ffffffffffffffffffffffffffffffffffffffff163373ffffffffffffffffffffffffffffffffffffffff1614151561068857600080fd5b61072e7f52454359434c45445f544f0000000000000000000000000000000000000000007f53000000000000000000000000000000000000000000000000000000000000007f41000000000000000000000000000000000000000000000000000000000000007f61646472657373000000000000000000000000000000000000000000000000008573ffffffffffffffffffffffffffffffffffffffff16600102610ccb565b508073ffffffffffffffffffffffffffffffffffffffff16ff5b600080600080600080600080600073__EventStoreLib_________________________63a057fd5e60008c600060405161012001526040518363ffffffff167c010000000000000000000000000000000000000000000000000000000002815260040180838152602001828152602001925050506101206040518083038186803b15156107d457600080fd5b6102c65a03f415156107e557600080fd5b505050604051805190602001805190602001805190602001805190602001805190602001805190602001805190602001805190602001805190509850985098509850985098509850985098509193959799909294969850565b600460009054906101000a900473ffffffffffffffffffffffffffffffffffffffff1673ffffffffffffffffffffffffffffffffffffffff163373ffffffffffffffffffffffffffffffffffffffff1614151561089a57600080fd5b600073ffffffffffffffffffffffffffffffffffffffff168173ffffffffffffffffffffffffffffffffffffffff16141515156108d657600080fd5b80600460006101000a81548173ffffffffffffffffffffffffffffffffffffffff021916908373ffffffffffffffffffffffffffffffffffffffff1602179055506109bd7f4e45575f4f574e455200000000000000000000000000000000000000000000007f53000000000000000000000000000000000000000000000000000000000000007f41000000000000000000000000000000000000000000000000000000000000007f61646472657373000000000000000000000000000000000000000000000000008573ffffffffffffffffffffffffffffffffffffffff16600102610ccb565b5050565b6000806109cc610e43565b604051809103906000f08015156109e257600080fd5b9050610a8a7f45535f43524541544544000000000000000000000000000000000000000000007f53000000000000000000000000000000000000000000000000000000000000007f41000000000000000000000000000000000000000000000000000000000000007f61646472657373000000000000000000000000000000000000000000000000008573ffffffffffffffffffffffffffffffffffffffff16600102610ccb565b50600173__AddressSetLib_________________________631e4016169091836000604051602001526040518363ffffffff167c0100000000000000000000000000000000000000000000000000000000028152600401808381526020018273ffffffffffffffffffffffffffffffffffffffff1673ffffffffffffffffffffffffffffffffffffffff1681526020019250505060206040518083038186803b1515610b3557600080fd5b6102c65a03f41515610b4657600080fd5b50505060405180519050508073ffffffffffffffffffffffffffffffffffffffff1663f4217648846040518263ffffffff167c01000000000000000000000000000000000000000000000000000000000281526004018080602001828103825283818151815260200191508051906020019060200280838360005b83811015610bdc578082015181840152602081019050610bc1565b5050505090500192505050600060405180830381600087803b1515610c0057600080fd5b6102c65a03f11515610c1157600080fd5b5050508073ffffffffffffffffffffffffffffffffffffffff1663f2fde38b336040518263ffffffff167c0100000000000000000000000000000000000000000000000000000000028152600401808273ffffffffffffffffffffffffffffffffffffffff1673ffffffffffffffffffffffffffffffffffffffff168152602001915050600060405180830381600087803b1515610cae57600080fd5b6102c65a03f11515610cbf57600080fd5b50505080915050919050565b600073__EventStoreLib_________________________633bb64203600088888888886000604051602001526040518763ffffffff167c0100000000000000000000000000000000000000000000000000000000028152600401808781526020018660001916600019168152602001857effffffffffffffffffffffffffffffffffffffffffffffffffffffffffffff19167effffffffffffffffffffffffffffffffffffffffffffffffffffffffffffff19168152602001847effffffffffffffffffffffffffffffffffffffffffffffffffffffffffffff19167effffffffffffffffffffffffffffffffffffffffffffffffffffffffffffff1916815260200183600019166000191681526020018260001916600019168152602001965050505050505060206040518083038186803b1515610e0957600080fd5b6102c65a03f41515610e1a57600080fd5b50505060405180519050905095945050505050565b602060405190810160405280600081525090565b6040516112ca80610e54833901905600606060405233600460006101000a81548173ffffffffffffffffffffffffffffffffffffffff021916908373ffffffffffffffffffffffffffffffffffffffff1602179055506101207f4e45575f4f574e455200000000000000000000000000000000000000000000007f53000000000000000000000000000000000000000000000000000000000000007f41000000000000000000000000000000000000000000000000000000000000007f6164647265737300000000000000000000000000000000000000000000000000600460009054906101000a900473ffffffffffffffffffffffffffffffffffffffff1673ffffffffffffffffffffffffffffffffffffffff1660010261012664010000000002610e8d176401000000009004565b5061028a565b600073__EventStoreLib_________________________633bb64203600088888888886000604051602001526040518763ffffffff167c0100000000000000000000000000000000000000000000000000000000028152600401808781526020018660001916600019168152602001857effffffffffffffffffffffffffffffffffffffffffffffffffffffffffffff19167effffffffffffffffffffffffffffffffffffffffffffffffffffffffffffff19168152602001847effffffffffffffffffffffffffffffffffffffffffffffffffffffffffffff19167effffffffffffffffffffffffffffffffffffffffffffffffffffffffffffff1916815260200183600019166000191681526020018260001916600019168152602001965050505050505060206040518083038186803b151561026457600080fd5b6102c65a03f4151561027557600080fd5b50505060405180519050905095945050505050565b611031806102996000396000f300606060405260043610610099576000357c0100000000000000000000000000000000000000000000000000000000900463ffffffff16806335628b381461009b57806371be2e4a1461014657806383197ef01461016f5780638da5cb5b14610184578063d01f63f5146101d9578063e1ba30a914610243578063f2fde38b146103aa578063f4217648146103e3578063f5074f411461043d575b005b34156100a657600080fd5b6101306004808035600019169060200190919080357effffffffffffffffffffffffffffffffffffffffffffffffffffffffffffff19169060200190919080357effffffffffffffffffffffffffffffffffffffffffffffffffffffffffffff19169060200190919080356000191690602001909190803560001916906020019091905050610476565b6040518082815260200191505060405180910390f35b341561015157600080fd5b61015961079c565b6040518082815260200191505060405180910390f35b341561017a57600080fd5b6101826107ab565b005b341561018f57600080fd5b610197610842565b604051808273ffffffffffffffffffffffffffffffffffffffff1673ffffffffffffffffffffffffffffffffffffffff16815260200191505060405180910390f35b34156101e457600080fd5b6101ec610868565b6040518080602001828103825283818151815260200191508051906020019060200280838360005b8381101561022f578082015181840152602081019050610214565b505050509050019250505060405180910390f35b341561024e57600080fd5b61026460048080359060200190919050506108ff565b604051808a81526020018973ffffffffffffffffffffffffffffffffffffffff1673ffffffffffffffffffffffffffffffffffffffff1681526020018873ffffffffffffffffffffffffffffffffffffffff1673ffffffffffffffffffffffffffffffffffffffff1681526020018781526020018660001916600019168152602001857effffffffffffffffffffffffffffffffffffffffffffffffffffffffffffff19167effffffffffffffffffffffffffffffffffffffffffffffffffffffffffffff19168152602001847effffffffffffffffffffffffffffffffffffffffffffffffffffffffffffff19167effffffffffffffffffffffffffffffffffffffffffffffffffffffffffffff1916815260200183600019166000191681526020018260001916600019168152602001995050505050505050505060405180910390f35b34156103b557600080fd5b6103e1600480803573ffffffffffffffffffffffffffffffffffffffff169060200190919050506109f5565b005b34156103ee57600080fd5b61043b600480803590602001908201803590602001908080602002602001604051908101604052809392919081815260200183836020028082843782019150505050505091905050610b78565b005b341561044857600080fd5b610474600480803573ffffffffffffffffffffffffffffffffffffffff16906020019091905050610e18565b005b600080600173__AddressSetLib_________________________631d4cf6c490916000604051602001526040518263ffffffff167c01000000000000000000000000000000000000000000000000000000000281526004018082815260200191505060206040518083038186803b15156104ef57600080fd5b6102c65a03f4151561050057600080fd5b50505060405180519050148061056357503373ffffffffffffffffffffffffffffffffffffffff16600460009054906101000a900473ffffffffffffffffffffffffffffffffffffffff1673ffffffffffffffffffffffffffffffffffffffff16145b8061062f5750600173__AddressSetLib_________________________63dc02e70d9091336000604051602001526040518363ffffffff167c0100000000000000000000000000000000000000000000000000000000028152600401808381526020018273ffffffffffffffffffffffffffffffffffffffff1673ffffffffffffffffffffffffffffffffffffffff1681526020019250505060206040518083038186803b151561061357600080fd5b6102c65a03f4151561062457600080fd5b505050604051805190505b151561063a57600080fd5b73__EventStoreLib_________________________633bb64203600088888888886000604051602001526040518763ffffffff167c0100000000000000000000000000000000000000000000000000000000028152600401808781526020018660001916600019168152602001857effffffffffffffffffffffffffffffffffffffffffffffffffffffffffffff19167effffffffffffffffffffffffffffffffffffffffffffffffffffffffffffff19168152602001847effffffffffffffffffffffffffffffffffffffffffffffffffffffffffffff19167effffffffffffffffffffffffffffffffffffffffffffffffffffffffffffff1916815260200183600019166000191681526020018260001916600019168152602001965050505050505060206040518083038186803b151561077657600080fd5b6102c65a03f4151561078757600080fd5b50505060405180519050905095945050505050565b60008060000180549050905090565b600460009054906101000a900473ffffffffffffffffffffffffffffffffffffffff1673ffffffffffffffffffffffffffffffffffffffff163373ffffffffffffffffffffffffffffffffffffffff1614151561080757600080fd5b600460009054906101000a900473ffffffffffffffffffffffffffffffffffffffff1673ffffffffffffffffffffffffffffffffffffffff16ff5b600460009054906101000a900473ffffffffffffffffffffffffffffffffffffffff1681565b610870610ff1565b60016000018054806020026020016040519081016040528092919081815260200182805480156108f557602002820191906000526020600020905b8160009054906101000a900473ffffffffffffffffffffffffffffffffffffffff1673ffffffffffffffffffffffffffffffffffffffff16815260200190600101908083116108ab575b5050505050905090565b600080600080600080600080600073__EventStoreLib_________________________63a057fd5e60008c600060405161012001526040518363ffffffff167c010000000000000000000000000000000000000000000000000000000002815260040180838152602001828152602001925050506101206040518083038186803b151561098b57600080fd5b6102c65a03f4151561099c57600080fd5b505050604051805190602001805190602001805190602001805190602001805190602001805190602001805190602001805190602001805190509850985098509850985098509850985098509193959799909294969850565b600460009054906101000a900473ffffffffffffffffffffffffffffffffffffffff1673ffffffffffffffffffffffffffffffffffffffff163373ffffffffffffffffffffffffffffffffffffffff16141515610a5157600080fd5b600073ffffffffffffffffffffffffffffffffffffffff168173ffffffffffffffffffffffffffffffffffffffff1614151515610a8d57600080fd5b80600460006101000a81548173ffffffffffffffffffffffffffffffffffffffff021916908373ffffffffffffffffffffffffffffffffffffffff160217905550610b747f4e45575f4f574e455200000000000000000000000000000000000000000000007f53000000000000000000000000000000000000000000000000000000000000007f41000000000000000000000000000000000000000000000000000000000000007f61646472657373000000000000000000000000000000000000000000000000008573ffffffffffffffffffffffffffffffffffffffff16600102610e8d565b5050565b6000600460009054906101000a900473ffffffffffffffffffffffffffffffffffffffff1673ffffffffffffffffffffffffffffffffffffffff163373ffffffffffffffffffffffffffffffffffffffff16141515610bd657600080fd5b6000600173__AddressSetLib_________________________631d4cf6c490916000604051602001526040518263ffffffff167c01000000000000000000000000000000000000000000000000000000000281526004018082815260200191505060206040518083038186803b1515610c4e57600080fd5b6102c65a03f41515610c5f57600080fd5b50505060405180519050141515610c7557600080fd5b600090505b8151811015610d6d57600173__AddressSetLib_________________________631e40161690918484815181101515610caf57fe5b906020019060200201516000604051602001526040518363ffffffff167c0100000000000000000000000000000000000000000000000000000000028152600401808381526020018273ffffffffffffffffffffffffffffffffffffffff1673ffffffffffffffffffffffffffffffffffffffff1681526020019250505060206040518083038186803b1515610d4457600080fd5b6102c65a03f41515610d5557600080fd5b50505060405180519050508080600101915050610c7a565b610e137f574c5f53455400000000000000000000000000000000000000000000000000007f53000000000000000000000000000000000000000000000000000000000000007f41000000000000000000000000000000000000000000000000000000000000007f61646472657373000000000000000000000000000000000000000000000000003373ffffffffffffffffffffffffffffffffffffffff16600102610e8d565b505050565b600460009054906101000a900473ffffffffffffffffffffffffffffffffffffffff1673ffffffffffffffffffffffffffffffffffffffff163373ffffffffffffffffffffffffffffffffffffffff16141515610e7457600080fd5b8073ffffffffffffffffffffffffffffffffffffffff16ff5b600073__EventStoreLib_________________________633bb64203600088888888886000604051602001526040518763ffffffff167c0100000000000000000000000000000000000000000000000000000000028152600401808781526020018660001916600019168152602001857effffffffffffffffffffffffffffffffffffffffffffffffffffffffffffff19167effffffffffffffffffffffffffffffffffffffffffffffffffffffffffffff19168152602001847effffffffffffffffffffffffffffffffffffffffffffffffffffffffffffff19167effffffffffffffffffffffffffffffffffffffffffffffffffffffffffffff1916815260200183600019166000191681526020018260001916600019168152602001965050505050505060206040518083038186803b1515610fcb57600080fd5b6102c65a03f41515610fdc57600080fd5b50505060405180519050905095945050505050565b6020604051908101604052806000815250905600a165627a7a7230582041aec945134a7d8fed51635479d64655ab856d52ba98b7f04fda987185f1e5680029a165627a7a723058205a7c271f7c84d278793825ae628ea44f0e79beb268590a118ad748cd2f7470040029",
  "source": "pragma solidity ^0.4.17;\n\nimport \"./EventStoreLib.sol\";\nimport \"./EventStore.sol\";\nimport \"./SetLib/AddressSet/AddressSetLib.sol\";\n\n\n/**\n* @dev NEVER USE inheritance or modifiers\n*/\ncontract EventStoreFactory {\n\n  using EventStoreLib for EventStoreLib.EsEventStorage;\n  using AddressSetLib for AddressSetLib.AddressSet;\n\n  EventStoreLib.EsEventStorage store;\n  AddressSetLib.AddressSet eventStores;\n\n  address public owner;\n\n  /**\n   * @dev This contract can receive ether.\n   */\n  function () public payable {}\n\n  /**\n   * @dev This contract will be owned by the constructor caller.\n   */\n  function EventStoreFactory() public {\n    owner = msg.sender;\n  }\n\n  /**\n   * @dev Allows the current owner to transfer control of the contract to a newOwner.\n   * @param _newOwner The address to transfer ownership to.\n   */\n  function transferOwnership(address _newOwner) public {\n    require(msg.sender == owner);\n    require(_newOwner != address(0));\n    owner = _newOwner;\n    internalWriteEvent(\"NEW_OWNER\", \"S\", \"A\", \"address\", bytes32(address(_newOwner)));\n  }\n\n   /**\n   * @dev Transfers the current balance to the owner and terminates the contract.\n   */\n  function recycle() public {\n    require(msg.sender == owner);\n    internalWriteEvent(\"RECYCLED_TO\", \"S\", \"A\", \"address\", bytes32(address(owner)));\n    selfdestruct(owner);\n  }\n\n  /**\n  * @dev Transfers the current balance to the _recipient and terminates the contract.\n  * @param _recipient The address to transfer balance to.\n  */\n  function recycleAndSend(address _recipient) public {\n    require(msg.sender == owner);\n    internalWriteEvent(\"RECYCLED_TO\", \"S\", \"A\", \"address\", bytes32(address(_recipient)));\n    selfdestruct(_recipient);\n  }\n\n  /**\n  * @dev Creates and initializes an eventStore\n  * @param _whitelist The addresses to which can call internalWriteEvent on the eventStore.\n  */\n  function createEventStore(address[] _whitelist) public returns (address) {\n    EventStore eventStore = new EventStore();\n    internalWriteEvent(\"ES_CREATED\", \"S\", \"A\", \"address\", bytes32(address(eventStore)));\n    eventStores.add(address(eventStore));\n\n    eventStore.setWhitelist(_whitelist);\n    eventStore.transferOwnership(msg.sender);\n    \n    return address(eventStore);\n  }\n\n  function getEventStores() public view returns (address[]) {\n    return eventStores.values;\n  }\n  \n  // internalWriteEvent is private \n  // only the factory contract can write events\n  // the factory event log should only be used to model factory events\n  function internalWriteEvent(\n    bytes32 _eventType,\n    bytes1 _keyType,\n    bytes1 _valueType,\n    bytes32 _key,\n    bytes32 _value\n  ) \n  private returns (uint) \n  {\n\n    return EventStoreLib.writeEvent(\n      store,\n      _eventType,\n      _keyType,\n      _valueType,\n      _key,\n      _value\n    );\n  }\n\n  function readEvent(uint _eventId) \n  public view\n    returns (\n      uint,\n      address,\n      address,\n      uint,\n      bytes32,\n      bytes1,\n      bytes1,\n      bytes32,\n      bytes32\n    ) {\n    return EventStoreLib.readEvent(store, _eventId);\n  }\n\n  function eventCount() \n  public view returns (uint) \n  {\n    return store.events.length;\n  }\n\n  // Events\n  event EsEvent(\n    uint Id,\n    address TxOrigin,\n    address MsgSender,\n    uint Created,\n\n    bytes32 EventType,\n\n    bytes1 KeyType,\n    bytes1 ValueType,\n\n    bytes32 Key,\n    bytes32 Value\n  );\n}\n",
  "sourcePath": "/Users/orie/OR13/transmute/packages/transmute-contracts/contracts/TransmuteFramework/EventStoreFactory.sol",
  "compiler": {
    "name": "solc",
    "version": "0.4.18+commit.9cf6e910.Emscripten.clang"
  },
  "schemaVersion": "1.0.1",
  "updatedAt": "2017-12-31T01:55:16.236Z"
}