{
  "contractName": "EventStoreFactory",
  "abi": [
    {
      "constant": false,
      "inputs": [
        {
          "name": "_eventType",
          "type": "bytes32"
        },
        {
          "name": "_keyType",
          "type": "bytes1"
        },
        {
          "name": "_valueType",
          "type": "bytes1"
        },
        {
          "name": "_key",
          "type": "bytes32"
        },
        {
          "name": "_value",
          "type": "bytes32"
        }
      ],
      "name": "writeEvent",
      "outputs": [
        {
          "name": "",
          "type": "uint256"
        }
      ],
      "payable": false,
      "stateMutability": "nonpayable",
      "type": "function"
    },
    {
      "constant": true,
      "inputs": [],
      "name": "getEventStoresByOwner",
      "outputs": [
        {
          "name": "",
          "type": "address[]"
        }
      ],
      "payable": false,
      "stateMutability": "view",
      "type": "function"
    },
    {
      "constant": false,
      "inputs": [],
      "name": "createEventStore",
      "outputs": [
        {
          "name": "",
          "type": "address"
        }
      ],
      "payable": false,
      "stateMutability": "nonpayable",
      "type": "function"
    },
    {
      "constant": true,
      "inputs": [],
      "name": "eventCount",
      "outputs": [
        {
          "name": "",
          "type": "uint256"
        }
      ],
      "payable": false,
      "stateMutability": "view",
      "type": "function"
    },
    {
      "constant": false,
      "inputs": [],
      "name": "destroy",
      "outputs": [],
      "payable": false,
      "stateMutability": "nonpayable",
      "type": "function"
    },
    {
      "constant": true,
      "inputs": [],
      "name": "owner",
      "outputs": [
        {
          "name": "",
          "type": "address"
        }
      ],
      "payable": false,
      "stateMutability": "view",
      "type": "function"
    },
    {
      "constant": true,
      "inputs": [],
      "name": "getEventStores",
      "outputs": [
        {
          "name": "",
          "type": "address[]"
        }
      ],
      "payable": false,
      "stateMutability": "view",
      "type": "function"
    },
    {
      "constant": false,
      "inputs": [
        {
          "name": "_eventStoreAddress",
          "type": "address"
        },
        {
          "name": "_whitelist",
          "type": "address[]"
        }
      ],
      "name": "setEventStoreWhitelist",
      "outputs": [],
      "payable": false,
      "stateMutability": "nonpayable",
      "type": "function"
    },
    {
      "constant": false,
      "inputs": [
        {
          "name": "_eventStoreAddress",
          "type": "address"
        }
      ],
      "name": "killEventStore",
      "outputs": [],
      "payable": false,
      "stateMutability": "nonpayable",
      "type": "function"
    },
    {
      "constant": true,
      "inputs": [],
      "name": "getWhitelist",
      "outputs": [
        {
          "name": "",
          "type": "address[]"
        }
      ],
      "payable": false,
      "stateMutability": "view",
      "type": "function"
    },
    {
      "constant": true,
      "inputs": [
        {
          "name": "_eventId",
          "type": "uint256"
        }
      ],
      "name": "readEvent",
      "outputs": [
        {
          "name": "",
          "type": "uint256"
        },
        {
          "name": "",
          "type": "address"
        },
        {
          "name": "",
          "type": "uint256"
        },
        {
          "name": "",
          "type": "bytes32"
        },
        {
          "name": "",
          "type": "bytes1"
        },
        {
          "name": "",
          "type": "bytes1"
        },
        {
          "name": "",
          "type": "bytes32"
        },
        {
          "name": "",
          "type": "bytes32"
        }
      ],
      "payable": false,
      "stateMutability": "view",
      "type": "function"
    },
    {
      "constant": false,
      "inputs": [
        {
          "name": "newOwner",
          "type": "address"
        }
      ],
      "name": "transferOwnership",
      "outputs": [],
      "payable": false,
      "stateMutability": "nonpayable",
      "type": "function"
    },
    {
      "constant": false,
      "inputs": [
        {
          "name": "_whitelist",
          "type": "address[]"
        }
      ],
      "name": "setWhitelist",
      "outputs": [],
      "payable": false,
      "stateMutability": "nonpayable",
      "type": "function"
    },
    {
      "constant": false,
      "inputs": [
        {
          "name": "_recipient",
          "type": "address"
        }
      ],
      "name": "destroyAndSend",
      "outputs": [],
      "payable": false,
      "stateMutability": "nonpayable",
      "type": "function"
    },
    {
      "inputs": [],
      "payable": true,
      "stateMutability": "payable",
      "type": "constructor"
    },
    {
      "payable": true,
      "stateMutability": "payable",
      "type": "fallback"
    },
    {
      "anonymous": false,
      "inputs": [
        {
          "indexed": false,
          "name": "Id",
          "type": "uint256"
        },
        {
          "indexed": false,
          "name": "TxOrigin",
          "type": "address"
        },
        {
          "indexed": false,
          "name": "Created",
          "type": "uint256"
        },
        {
          "indexed": false,
          "name": "EventType",
          "type": "bytes32"
        },
        {
          "indexed": false,
          "name": "KeyType",
          "type": "bytes1"
        },
        {
          "indexed": false,
          "name": "ValueType",
          "type": "bytes1"
        },
        {
          "indexed": false,
          "name": "Key",
          "type": "bytes32"
        },
        {
          "indexed": false,
          "name": "Value",
          "type": "bytes32"
        }
      ],
      "name": "EsEvent",
      "type": "event"
    },
    {
      "anonymous": false,
      "inputs": [
        {
          "indexed": true,
          "name": "previousOwner",
          "type": "address"
        },
        {
          "indexed": true,
          "name": "newOwner",
          "type": "address"
        }
      ],
      "name": "OwnershipTransferred",
      "type": "event"
    }
  ],
  "bytecode": "0x6060604052336000806101000a81548173ffffffffffffffffffffffffffffffffffffffff021916908373ffffffffffffffffffffffffffffffffffffffff160217905550326000806101000a81548173ffffffffffffffffffffffffffffffffffffffff021916908373ffffffffffffffffffffffffffffffffffffffff160217905550612daa806100936000396000f3006060604052600436106100d0576000357c0100000000000000000000000000000000000000000000000000000000900463ffffffff16806335628b38146100d5578063410ab5ed14610180578063468d427e146101ea57806371be2e4a1461023f57806383197ef0146102685780638da5cb5b1461027d5780638dc668d7146102d2578063a8d6c6951461033c578063ccac2d75146103b5578063d01f63f5146103ee578063e1ba30a914610458578063f2fde38b1461058c578063f4217648146105c5578063f5074f411461061f575b600080fd5b34156100e057600080fd5b61016a6004808035600019169060200190919080357effffffffffffffffffffffffffffffffffffffffffffffffffffffffffffff19169060200190919080357effffffffffffffffffffffffffffffffffffffffffffffffffffffffffffff19169060200190919080356000191690602001909190803560001916906020019091905050610658565b6040518082815260200191505060405180910390f35b341561018b57600080fd5b61019361088e565b6040518080602001828103825283818151815260200191508051906020019060200280838360005b838110156101d65780820151818401526020810190506101bb565b505050509050019250505060405180910390f35b34156101f557600080fd5b6101fd610962565b604051808273ffffffffffffffffffffffffffffffffffffffff1673ffffffffffffffffffffffffffffffffffffffff16815260200191505060405180910390f35b341561024a57600080fd5b610252610bfc565b6040518082815260200191505060405180910390f35b341561027357600080fd5b61027b610c0c565b005b341561028857600080fd5b610290610ca1565b604051808273ffffffffffffffffffffffffffffffffffffffff1673ffffffffffffffffffffffffffffffffffffffff16815260200191505060405180910390f35b34156102dd57600080fd5b6102e5610cc6565b6040518080602001828103825283818151815260200191508051906020019060200280838360005b8381101561032857808201518184015260208101905061030d565b505050509050019250505060405180910390f35b341561034757600080fd5b6103b3600480803573ffffffffffffffffffffffffffffffffffffffff1690602001909190803590602001908201803590602001908080602002602001604051908101604052809392919081815260200183836020028082843782019150505050505091905050610d5d565b005b34156103c057600080fd5b6103ec600480803573ffffffffffffffffffffffffffffffffffffffff16906020019091905050611063565b005b34156103f957600080fd5b61040161156b565b6040518080602001828103825283818151815260200191508051906020019060200280838360005b83811015610444578082015181840152602081019050610429565b505050509050019250505060405180910390f35b341561046357600080fd5b610479600480803590602001909190505061171b565b604051808981526020018873ffffffffffffffffffffffffffffffffffffffff1673ffffffffffffffffffffffffffffffffffffffff1681526020018781526020018660001916600019168152602001857effffffffffffffffffffffffffffffffffffffffffffffffffffffffffffff19167effffffffffffffffffffffffffffffffffffffffffffffffffffffffffffff19168152602001847effffffffffffffffffffffffffffffffffffffffffffffffffffffffffffff19167effffffffffffffffffffffffffffffffffffffffffffffffffffffffffffff19168152602001836000191660001916815260200182600019166000191681526020019850505050505050505060405180910390f35b341561059757600080fd5b6105c3600480803573ffffffffffffffffffffffffffffffffffffffff169060200190919050506118d7565b005b34156105d057600080fd5b61061d600480803590602001908201803590602001908080602002602001604051908101604052809392919081815260200183836020028082843782019150505050505091905050611a2c565b005b341561062a57600080fd5b610656600480803573ffffffffffffffffffffffffffffffffffffffff16906020019091905050611ce2565b005b600033600273__AddressSetLib_________________________63dc02e70d9091836000604051602001526040518363ffffffff167c0100000000000000000000000000000000000000000000000000000000028152600401808381526020018273ffffffffffffffffffffffffffffffffffffffff1673ffffffffffffffffffffffffffffffffffffffff1681526020019250505060206040518083038186803b151561070557600080fd5b6102c65a03f4151561071657600080fd5b50505060405180519050151561072b57600080fd5b73__EventStoreLib_________________________633bb64203600189898989896000604051602001526040518763ffffffff167c0100000000000000000000000000000000000000000000000000000000028152600401808781526020018660001916600019168152602001857effffffffffffffffffffffffffffffffffffffffffffffffffffffffffffff19167effffffffffffffffffffffffffffffffffffffffffffffffffffffffffffff19168152602001847effffffffffffffffffffffffffffffffffffffffffffffffffffffffffffff19167effffffffffffffffffffffffffffffffffffffffffffffffffffffffffffff1916815260200183600019166000191681526020018260001916600019168152602001965050505050505060206040518083038186803b151561086757600080fd5b6102c65a03f4151561087857600080fd5b5050506040518051905091505095945050505050565b610896611d56565b600560003373ffffffffffffffffffffffffffffffffffffffff1673ffffffffffffffffffffffffffffffffffffffff16815260200190815260200160002060000180548060200260200160405190810160405280929190818152602001828054801561095857602002820191906000526020600020905b8160009054906101000a900473ffffffffffffffffffffffffffffffffffffffff1673ffffffffffffffffffffffffffffffffffffffff168152602001906001019080831161090e575b5050505050905090565b60008061096d611d6a565b604051809103906000f080151561098357600080fd5b9050600673__AddressSetLib_________________________631e4016169091836000604051602001526040518363ffffffff167c0100000000000000000000000000000000000000000000000000000000028152600401808381526020018273ffffffffffffffffffffffffffffffffffffffff1673ffffffffffffffffffffffffffffffffffffffff1681526020019250505060206040518083038186803b1515610a2f57600080fd5b6102c65a03f41515610a4057600080fd5b5050506040518051905050600560003373ffffffffffffffffffffffffffffffffffffffff1673ffffffffffffffffffffffffffffffffffffffff16815260200190815260200160002073__AddressSetLib_________________________631e4016169091836000604051602001526040518363ffffffff167c0100000000000000000000000000000000000000000000000000000000028152600401808381526020018273ffffffffffffffffffffffffffffffffffffffff1673ffffffffffffffffffffffffffffffffffffffff1681526020019250505060206040518083038186803b1515610b3257600080fd5b6102c65a03f41515610b4357600080fd5b5050506040518051905050610bf47f45535f43524541544544000000000000000000000000000000000000000000007f53000000000000000000000000000000000000000000000000000000000000007f41000000000000000000000000000000000000000000000000000000000000007f61646472657373000000000000000000000000000000000000000000000000008573ffffffffffffffffffffffffffffffffffffffff16600102610658565b508091505090565b6000600160000180549050905090565b6000809054906101000a900473ffffffffffffffffffffffffffffffffffffffff1673ffffffffffffffffffffffffffffffffffffffff163373ffffffffffffffffffffffffffffffffffffffff16141515610c6757600080fd5b6000809054906101000a900473ffffffffffffffffffffffffffffffffffffffff1673ffffffffffffffffffffffffffffffffffffffff16ff5b6000809054906101000a900473ffffffffffffffffffffffffffffffffffffffff1681565b610cce611d56565b6006600001805480602002602001604051908101604052809291908181526020018280548015610d5357602002820191906000526020600020905b8160009054906101000a900473ffffffffffffffffffffffffffffffffffffffff1673ffffffffffffffffffffffffffffffffffffffff1681526020019060010190808311610d09575b5050505050905090565b600082600673__AddressSetLib_________________________63dc02e70d9091836000604051602001526040518363ffffffff167c0100000000000000000000000000000000000000000000000000000000028152600401808381526020018273ffffffffffffffffffffffffffffffffffffffff1673ffffffffffffffffffffffffffffffffffffffff1681526020019250505060206040518083038186803b1515610e0a57600080fd5b6102c65a03f41515610e1b57600080fd5b505050604051805190501515610e3057600080fd5b8391503373ffffffffffffffffffffffffffffffffffffffff168273ffffffffffffffffffffffffffffffffffffffff16638da5cb5b6000604051602001526040518163ffffffff167c0100000000000000000000000000000000000000000000000000000000028152600401602060405180830381600087803b1515610eb657600080fd5b6102c65a03f11515610ec757600080fd5b5050506040518051905073ffffffffffffffffffffffffffffffffffffffff16141515610ef357600080fd5b8173ffffffffffffffffffffffffffffffffffffffff1663f4217648846040518263ffffffff167c01000000000000000000000000000000000000000000000000000000000281526004018080602001828103825283818151815260200191508051906020019060200280838360005b83811015610f7e578082015181840152602081019050610f63565b5050505090500192505050600060405180830381600087803b1515610fa257600080fd5b6102c65a03f11515610fb357600080fd5b50505061105c7f45535f574c5f53455400000000000000000000000000000000000000000000007f53000000000000000000000000000000000000000000000000000000000000007f41000000000000000000000000000000000000000000000000000000000000007f61646472657373000000000000000000000000000000000000000000000000008873ffffffffffffffffffffffffffffffffffffffff16600102610658565b5050505050565b600081600673__AddressSetLib_________________________63dc02e70d9091836000604051602001526040518363ffffffff167c0100000000000000000000000000000000000000000000000000000000028152600401808381526020018273ffffffffffffffffffffffffffffffffffffffff1673ffffffffffffffffffffffffffffffffffffffff1681526020019250505060206040518083038186803b151561111057600080fd5b6102c65a03f4151561112157600080fd5b50505060405180519050151561113657600080fd5b8291503373ffffffffffffffffffffffffffffffffffffffff168273ffffffffffffffffffffffffffffffffffffffff16638da5cb5b6000604051602001526040518163ffffffff167c0100000000000000000000000000000000000000000000000000000000028152600401602060405180830381600087803b15156111bc57600080fd5b6102c65a03f115156111cd57600080fd5b5050506040518051905073ffffffffffffffffffffffffffffffffffffffff161415156111f957600080fd5b600560008373ffffffffffffffffffffffffffffffffffffffff16638da5cb5b6000604051602001526040518163ffffffff167c0100000000000000000000000000000000000000000000000000000000028152600401602060405180830381600087803b151561126957600080fd5b6102c65a03f1151561127a57600080fd5b5050506040518051905073ffffffffffffffffffffffffffffffffffffffff1673ffffffffffffffffffffffffffffffffffffffff16815260200190815260200160002073__AddressSetLib_________________________63499b67d99091856000604051602001526040518363ffffffff167c0100000000000000000000000000000000000000000000000000000000028152600401808381526020018273ffffffffffffffffffffffffffffffffffffffff1673ffffffffffffffffffffffffffffffffffffffff1681526020019250505060206040518083038186803b151561136657600080fd5b6102c65a03f4151561137757600080fd5b5050506040518051905050600673__AddressSetLib_________________________63499b67d99091856000604051602001526040518363ffffffff167c0100000000000000000000000000000000000000000000000000000000028152600401808381526020018273ffffffffffffffffffffffffffffffffffffffff1673ffffffffffffffffffffffffffffffffffffffff1681526020019250505060206040518083038186803b151561142c57600080fd5b6102c65a03f4151561143d57600080fd5b50505060405180519050508173ffffffffffffffffffffffffffffffffffffffff166383197ef06040518163ffffffff167c0100000000000000000000000000000000000000000000000000000000028152600401600060405180830381600087803b15156114ab57600080fd5b6102c65a03f115156114bc57600080fd5b5050506115657f45535f44455354524f59454400000000000000000000000000000000000000007f53000000000000000000000000000000000000000000000000000000000000007f41000000000000000000000000000000000000000000000000000000000000007f61646472657373000000000000000000000000000000000000000000000000008773ffffffffffffffffffffffffffffffffffffffff16600102610658565b50505050565b611573611d56565b333073ffffffffffffffffffffffffffffffffffffffff16638da5cb5b6000604051602001526040518163ffffffff167c0100000000000000000000000000000000000000000000000000000000028152600401602060405180830381600087803b15156115e057600080fd5b6102c65a03f115156115f157600080fd5b5050506040518051905073ffffffffffffffffffffffffffffffffffffffff168173ffffffffffffffffffffffffffffffffffffffff16148061168057506000809054906101000a900473ffffffffffffffffffffffffffffffffffffffff1673ffffffffffffffffffffffffffffffffffffffff168173ffffffffffffffffffffffffffffffffffffffff16145b151561168b57600080fd5b600260000180548060200260200160405190810160405280929190818152602001828054801561171057602002820191906000526020600020905b8160009054906101000a900473ffffffffffffffffffffffffffffffffffffffff1673ffffffffffffffffffffffffffffffffffffffff16815260200190600101908083116116c6575b505050505091505090565b60008060008060008060008033600273__AddressSetLib_________________________63dc02e70d9091836000604051602001526040518363ffffffff167c0100000000000000000000000000000000000000000000000000000000028152600401808381526020018273ffffffffffffffffffffffffffffffffffffffff1673ffffffffffffffffffffffffffffffffffffffff1681526020019250505060206040518083038186803b15156117d257600080fd5b6102c65a03f415156117e357600080fd5b5050506040518051905015156117f857600080fd5b73__EventStoreLib_________________________63a057fd5e60018c600060405161010001526040518363ffffffff167c010000000000000000000000000000000000000000000000000000000002815260040180838152602001828152602001925050506101006040518083038186803b151561187657600080fd5b6102c65a03f4151561188757600080fd5b505050604051805190602001805190602001805190602001805190602001805190602001805190602001805190602001805190509850985098509850985098509850985050919395975091939597565b6000809054906101000a900473ffffffffffffffffffffffffffffffffffffffff1673ffffffffffffffffffffffffffffffffffffffff163373ffffffffffffffffffffffffffffffffffffffff1614151561193257600080fd5b600073ffffffffffffffffffffffffffffffffffffffff168173ffffffffffffffffffffffffffffffffffffffff161415151561196e57600080fd5b8073ffffffffffffffffffffffffffffffffffffffff166000809054906101000a900473ffffffffffffffffffffffffffffffffffffffff1673ffffffffffffffffffffffffffffffffffffffff167f8be0079c531659141344cd1fd0a4f28419497f9722a3daafe3b4186f6b6457e060405160405180910390a3806000806101000a81548173ffffffffffffffffffffffffffffffffffffffff021916908373ffffffffffffffffffffffffffffffffffffffff16021790555050565b6000333073ffffffffffffffffffffffffffffffffffffffff16638da5cb5b6000604051602001526040518163ffffffff167c0100000000000000000000000000000000000000000000000000000000028152600401602060405180830381600087803b1515611a9b57600080fd5b6102c65a03f11515611aac57600080fd5b5050506040518051905073ffffffffffffffffffffffffffffffffffffffff168173ffffffffffffffffffffffffffffffffffffffff161480611b3b57506000809054906101000a900473ffffffffffffffffffffffffffffffffffffffff1673ffffffffffffffffffffffffffffffffffffffff168173ffffffffffffffffffffffffffffffffffffffff16145b1515611b4657600080fd5b6000600273__AddressSetLib_________________________631d4cf6c490916000604051602001526040518263ffffffff167c01000000000000000000000000000000000000000000000000000000000281526004018082815260200191505060206040518083038186803b1515611bbe57600080fd5b6102c65a03f41515611bcf57600080fd5b50505060405180519050141515611be557600080fd5b600091505b8251821015611cdd57600273__AddressSetLib_________________________631e40161690918585815181101515611c1f57fe5b906020019060200201516000604051602001526040518363ffffffff167c0100000000000000000000000000000000000000000000000000000000028152600401808381526020018273ffffffffffffffffffffffffffffffffffffffff1673ffffffffffffffffffffffffffffffffffffffff1681526020019250505060206040518083038186803b1515611cb457600080fd5b6102c65a03f41515611cc557600080fd5b50505060405180519050508180600101925050611bea565b505050565b6000809054906101000a900473ffffffffffffffffffffffffffffffffffffffff1673ffffffffffffffffffffffffffffffffffffffff163373ffffffffffffffffffffffffffffffffffffffff16141515611d3d57600080fd5b8073ffffffffffffffffffffffffffffffffffffffff16ff5b602060405190810160405280600081525090565b60405161100480611d7b8339019056006060604052336000806101000a81548173ffffffffffffffffffffffffffffffffffffffff021916908373ffffffffffffffffffffffffffffffffffffffff160217905550326000806101000a81548173ffffffffffffffffffffffffffffffffffffffff021916908373ffffffffffffffffffffffffffffffffffffffff160217905550610f71806100936000396000f300606060405260043610610099576000357c0100000000000000000000000000000000000000000000000000000000900463ffffffff16806335628b381461009e57806371be2e4a1461014957806383197ef0146101725780638da5cb5b14610187578063d01f63f5146101dc578063e1ba30a914610246578063f2fde38b1461037a578063f4217648146103b3578063f5074f411461040d575b600080fd5b34156100a957600080fd5b6101336004808035600019169060200190919080357effffffffffffffffffffffffffffffffffffffffffffffffffffffffffffff19169060200190919080357effffffffffffffffffffffffffffffffffffffffffffffffffffffffffffff19169060200190919080356000191690602001909190803560001916906020019091905050610446565b6040518082815260200191505060405180910390f35b341561015457600080fd5b61015c61067c565b6040518082815260200191505060405180910390f35b341561017d57600080fd5b61018561068c565b005b341561019257600080fd5b61019a610721565b604051808273ffffffffffffffffffffffffffffffffffffffff1673ffffffffffffffffffffffffffffffffffffffff16815260200191505060405180910390f35b34156101e757600080fd5b6101ef610746565b6040518080602001828103825283818151815260200191508051906020019060200280838360005b83811015610232578082015181840152602081019050610217565b505050509050019250505060405180910390f35b341561025157600080fd5b61026760048080359060200190919050506108f6565b604051808981526020018873ffffffffffffffffffffffffffffffffffffffff1673ffffffffffffffffffffffffffffffffffffffff1681526020018781526020018660001916600019168152602001857effffffffffffffffffffffffffffffffffffffffffffffffffffffffffffff19167effffffffffffffffffffffffffffffffffffffffffffffffffffffffffffff19168152602001847effffffffffffffffffffffffffffffffffffffffffffffffffffffffffffff19167effffffffffffffffffffffffffffffffffffffffffffffffffffffffffffff19168152602001836000191660001916815260200182600019166000191681526020019850505050505050505060405180910390f35b341561038557600080fd5b6103b1600480803573ffffffffffffffffffffffffffffffffffffffff16906020019091905050610ab2565b005b34156103be57600080fd5b61040b600480803590602001908201803590602001908080602002602001604051908101604052809392919081815260200183836020028082843782019150505050505091905050610c07565b005b341561041857600080fd5b610444600480803573ffffffffffffffffffffffffffffffffffffffff16906020019091905050610ebd565b005b600033600273__AddressSetLib_________________________63dc02e70d9091836000604051602001526040518363ffffffff167c0100000000000000000000000000000000000000000000000000000000028152600401808381526020018273ffffffffffffffffffffffffffffffffffffffff1673ffffffffffffffffffffffffffffffffffffffff1681526020019250505060206040518083038186803b15156104f357600080fd5b6102c65a03f4151561050457600080fd5b50505060405180519050151561051957600080fd5b73__EventStoreLib_________________________633bb64203600189898989896000604051602001526040518763ffffffff167c0100000000000000000000000000000000000000000000000000000000028152600401808781526020018660001916600019168152602001857effffffffffffffffffffffffffffffffffffffffffffffffffffffffffffff19167effffffffffffffffffffffffffffffffffffffffffffffffffffffffffffff19168152602001847effffffffffffffffffffffffffffffffffffffffffffffffffffffffffffff19167effffffffffffffffffffffffffffffffffffffffffffffffffffffffffffff1916815260200183600019166000191681526020018260001916600019168152602001965050505050505060206040518083038186803b151561065557600080fd5b6102c65a03f4151561066657600080fd5b5050506040518051905091505095945050505050565b6000600160000180549050905090565b6000809054906101000a900473ffffffffffffffffffffffffffffffffffffffff1673ffffffffffffffffffffffffffffffffffffffff163373ffffffffffffffffffffffffffffffffffffffff161415156106e757600080fd5b6000809054906101000a900473ffffffffffffffffffffffffffffffffffffffff1673ffffffffffffffffffffffffffffffffffffffff16ff5b6000809054906101000a900473ffffffffffffffffffffffffffffffffffffffff1681565b61074e610f31565b333073ffffffffffffffffffffffffffffffffffffffff16638da5cb5b6000604051602001526040518163ffffffff167c0100000000000000000000000000000000000000000000000000000000028152600401602060405180830381600087803b15156107bb57600080fd5b6102c65a03f115156107cc57600080fd5b5050506040518051905073ffffffffffffffffffffffffffffffffffffffff168173ffffffffffffffffffffffffffffffffffffffff16148061085b57506000809054906101000a900473ffffffffffffffffffffffffffffffffffffffff1673ffffffffffffffffffffffffffffffffffffffff168173ffffffffffffffffffffffffffffffffffffffff16145b151561086657600080fd5b60026000018054806020026020016040519081016040528092919081815260200182805480156108eb57602002820191906000526020600020905b8160009054906101000a900473ffffffffffffffffffffffffffffffffffffffff1673ffffffffffffffffffffffffffffffffffffffff16815260200190600101908083116108a1575b505050505091505090565b60008060008060008060008033600273__AddressSetLib_________________________63dc02e70d9091836000604051602001526040518363ffffffff167c0100000000000000000000000000000000000000000000000000000000028152600401808381526020018273ffffffffffffffffffffffffffffffffffffffff1673ffffffffffffffffffffffffffffffffffffffff1681526020019250505060206040518083038186803b15156109ad57600080fd5b6102c65a03f415156109be57600080fd5b5050506040518051905015156109d357600080fd5b73__EventStoreLib_________________________63a057fd5e60018c600060405161010001526040518363ffffffff167c010000000000000000000000000000000000000000000000000000000002815260040180838152602001828152602001925050506101006040518083038186803b1515610a5157600080fd5b6102c65a03f41515610a6257600080fd5b505050604051805190602001805190602001805190602001805190602001805190602001805190602001805190602001805190509850985098509850985098509850985050919395975091939597565b6000809054906101000a900473ffffffffffffffffffffffffffffffffffffffff1673ffffffffffffffffffffffffffffffffffffffff163373ffffffffffffffffffffffffffffffffffffffff16141515610b0d57600080fd5b600073ffffffffffffffffffffffffffffffffffffffff168173ffffffffffffffffffffffffffffffffffffffff1614151515610b4957600080fd5b8073ffffffffffffffffffffffffffffffffffffffff166000809054906101000a900473ffffffffffffffffffffffffffffffffffffffff1673ffffffffffffffffffffffffffffffffffffffff167f8be0079c531659141344cd1fd0a4f28419497f9722a3daafe3b4186f6b6457e060405160405180910390a3806000806101000a81548173ffffffffffffffffffffffffffffffffffffffff021916908373ffffffffffffffffffffffffffffffffffffffff16021790555050565b6000333073ffffffffffffffffffffffffffffffffffffffff16638da5cb5b6000604051602001526040518163ffffffff167c0100000000000000000000000000000000000000000000000000000000028152600401602060405180830381600087803b1515610c7657600080fd5b6102c65a03f11515610c8757600080fd5b5050506040518051905073ffffffffffffffffffffffffffffffffffffffff168173ffffffffffffffffffffffffffffffffffffffff161480610d1657506000809054906101000a900473ffffffffffffffffffffffffffffffffffffffff1673ffffffffffffffffffffffffffffffffffffffff168173ffffffffffffffffffffffffffffffffffffffff16145b1515610d2157600080fd5b6000600273__AddressSetLib_________________________631d4cf6c490916000604051602001526040518263ffffffff167c01000000000000000000000000000000000000000000000000000000000281526004018082815260200191505060206040518083038186803b1515610d9957600080fd5b6102c65a03f41515610daa57600080fd5b50505060405180519050141515610dc057600080fd5b600091505b8251821015610eb857600273__AddressSetLib_________________________631e40161690918585815181101515610dfa57fe5b906020019060200201516000604051602001526040518363ffffffff167c0100000000000000000000000000000000000000000000000000000000028152600401808381526020018273ffffffffffffffffffffffffffffffffffffffff1673ffffffffffffffffffffffffffffffffffffffff1681526020019250505060206040518083038186803b1515610e8f57600080fd5b6102c65a03f41515610ea057600080fd5b50505060405180519050508180600101925050610dc5565b505050565b6000809054906101000a900473ffffffffffffffffffffffffffffffffffffffff1673ffffffffffffffffffffffffffffffffffffffff163373ffffffffffffffffffffffffffffffffffffffff16141515610f1857600080fd5b8073ffffffffffffffffffffffffffffffffffffffff16ff5b6020604051908101604052806000815250905600a165627a7a72305820285a83e14c3b03bd426fa6c0863c74849201ae9506e69255a17939cbcfb60ec20029a165627a7a723058209fd1e51ecbc7907ebe0de7d3fedc1b8e069b1a2aa78dd0067762826e1dcba1bf0029",
  "source": "pragma solidity ^0.4.17;\n\nimport \"./EventStore.sol\";\nimport \"./SetLib/AddressSet/AddressSetLib.sol\";\n\ncontract EventStoreFactory is EventStore {\n\n  using AddressSetLib for AddressSetLib.AddressSet;\n\n  mapping (address => AddressSetLib.AddressSet) creatorEventStoreMapping;\n  AddressSetLib.AddressSet EventStoreAddresses;\n\n  // Modifiers\n  modifier eventStoreExists(address _eventStoreAddress) {\n    require(EventStoreAddresses.contains(_eventStoreAddress));\n    _;\n  }\n\n  // Fallback Function\n  function () public payable { revert(); }\n\n  // Constructor\n  function EventStoreFactory() public payable { }\n\n  // Interface\n  function createEventStore() public returns (address) {\n    EventStore newEventStore = new EventStore();\n\n    EventStoreAddresses.add(address(newEventStore));\n    creatorEventStoreMapping[msg.sender].add(address(newEventStore));\n\n    writeEvent(\"ES_CREATED\", \"S\", \"A\", \"address\", bytes32(address(newEventStore)));\n    return address(newEventStore);\n  }\n\n  function setEventStoreWhitelist(address _eventStoreAddress, address[] _whitelist) public eventStoreExists(_eventStoreAddress) {\n    EventStore eventStore = EventStore(_eventStoreAddress);\n    require(eventStore.owner() == msg.sender);\n\n    eventStore.setWhitelist(_whitelist);\n\n    writeEvent(\"ES_WL_SET\", \"S\", \"A\", \"address\", bytes32(address(_eventStoreAddress)));\n  }\n\n  function killEventStore(address _eventStoreAddress) public eventStoreExists(_eventStoreAddress) {\n    EventStore eventStore = EventStore(_eventStoreAddress);\n    require(eventStore.owner() == msg.sender);\n    creatorEventStoreMapping[eventStore.owner()].remove(_eventStoreAddress);\n    EventStoreAddresses.remove(_eventStoreAddress);\n\n    eventStore.destroy();\n    writeEvent(\"ES_DESTROYED\", \"S\", \"A\", \"address\", bytes32(_eventStoreAddress));\n  }\n\n  // Helper Functions\n  function getEventStoresByOwner() public view returns (address[]) {\n    return creatorEventStoreMapping[msg.sender].values;\n  }\n\n  function getEventStores() public view returns (address[]) {\n    return EventStoreAddresses.values;\n  }\n}\n",
  "sourcePath": "/Users/orie/OR13/transmute/packages/transmute-contracts/contracts/TransmuteFramework/EventStoreFactory.sol",
  "compiler": {
    "name": "solc",
    "version": "0.4.18+commit.9cf6e910.Emscripten.clang"
  },
  "schemaVersion": "1.0.1",
  "updatedAt": "2017-12-30T03:08:20.158Z"
}