{
  "contractName": "EventStoreFactory",
  "abi": [
    {
      "constant": true,
      "inputs": [],
      "name": "getInternalEventTypes",
      "outputs": [
        {
          "name": "",
          "type": "bytes32[]"
        }
      ],
      "payable": false,
      "stateMutability": "view",
      "type": "function"
    },
    {
      "constant": false,
      "inputs": [],
      "name": "recycle",
      "outputs": [],
      "payable": false,
      "stateMutability": "nonpayable",
      "type": "function"
    },
    {
      "constant": true,
      "inputs": [],
      "name": "eventCount",
      "outputs": [
        {
          "name": "",
          "type": "uint256"
        }
      ],
      "payable": false,
      "stateMutability": "view",
      "type": "function"
    },
    {
      "constant": true,
      "inputs": [],
      "name": "owner",
      "outputs": [
        {
          "name": "",
          "type": "address"
        }
      ],
      "payable": false,
      "stateMutability": "view",
      "type": "function"
    },
    {
      "constant": true,
      "inputs": [],
      "name": "getEventStores",
      "outputs": [
        {
          "name": "",
          "type": "address[]"
        }
      ],
      "payable": false,
      "stateMutability": "view",
      "type": "function"
    },
    {
      "constant": false,
      "inputs": [
        {
          "name": "_recipient",
          "type": "address"
        }
      ],
      "name": "recycleAndSend",
      "outputs": [],
      "payable": false,
      "stateMutability": "nonpayable",
      "type": "function"
    },
    {
      "constant": true,
      "inputs": [
        {
          "name": "_eventId",
          "type": "uint256"
        }
      ],
      "name": "readEvent",
      "outputs": [
        {
          "name": "",
          "type": "uint256"
        },
        {
          "name": "",
          "type": "address"
        },
        {
          "name": "",
          "type": "address"
        },
        {
          "name": "",
          "type": "uint256"
        },
        {
          "name": "",
          "type": "bytes32"
        },
        {
          "name": "",
          "type": "bytes1"
        },
        {
          "name": "",
          "type": "bytes1"
        },
        {
          "name": "",
          "type": "bytes32"
        },
        {
          "name": "",
          "type": "bytes32"
        }
      ],
      "payable": false,
      "stateMutability": "view",
      "type": "function"
    },
    {
      "constant": false,
      "inputs": [
        {
          "name": "_newOwner",
          "type": "address"
        }
      ],
      "name": "transferOwnership",
      "outputs": [],
      "payable": false,
      "stateMutability": "nonpayable",
      "type": "function"
    },
    {
      "constant": false,
      "inputs": [
        {
          "name": "_whitelist",
          "type": "address[]"
        }
      ],
      "name": "createEventStore",
      "outputs": [
        {
          "name": "",
          "type": "address"
        }
      ],
      "payable": false,
      "stateMutability": "nonpayable",
      "type": "function"
    },
    {
      "inputs": [],
      "payable": false,
      "stateMutability": "nonpayable",
      "type": "constructor"
    },
    {
      "payable": true,
      "stateMutability": "payable",
      "type": "fallback"
    },
    {
      "anonymous": false,
      "inputs": [
        {
          "indexed": false,
          "name": "Id",
          "type": "uint256"
        },
        {
          "indexed": false,
          "name": "TxOrigin",
          "type": "address"
        },
        {
          "indexed": false,
          "name": "MsgSender",
          "type": "address"
        },
        {
          "indexed": false,
          "name": "Created",
          "type": "uint256"
        },
        {
          "indexed": false,
          "name": "EventType",
          "type": "bytes32"
        },
        {
          "indexed": false,
          "name": "KeyType",
          "type": "bytes1"
        },
        {
          "indexed": false,
          "name": "ValueType",
          "type": "bytes1"
        },
        {
          "indexed": false,
          "name": "Key",
          "type": "bytes32"
        },
        {
          "indexed": false,
          "name": "Value",
          "type": "bytes32"
        }
      ],
      "name": "EsEvent",
      "type": "event"
    }
  ],
  "bytecode": "0x6060604052341561000f57600080fd5b33600760006101000a81548173ffffffffffffffffffffffffffffffffffffffff021916908373ffffffffffffffffffffffffffffffffffffffff160217905550600073__Bytes32SetLib_________________________6363d4d33590917f45535f43524541544544000000000000000000000000000000000000000000006000604051602001526040518363ffffffff167c01000000000000000000000000000000000000000000000000000000000281526004018083815260200182600019166000191681526020019250505060206040518083038186803b15156100f657600080fd5b6102c65a03f4151561010757600080fd5b5050506040518051905050600073__Bytes32SetLib_________________________6363d4d33590917f4e45575f4f574e455200000000000000000000000000000000000000000000006000604051602001526040518363ffffffff167c01000000000000000000000000000000000000000000000000000000000281526004018083815260200182600019166000191681526020019250505060206040518083038186803b15156101b857600080fd5b6102c65a03f415156101c957600080fd5b5050506040518051905050600073__Bytes32SetLib_________________________6363d4d33590917f52454359434c45445f544f0000000000000000000000000000000000000000006000604051602001526040518363ffffffff167c01000000000000000000000000000000000000000000000000000000000281526004018083815260200182600019166000191681526020019250505060206040518083038186803b151561027a57600080fd5b6102c65a03f4151561028b57600080fd5b505050604051805190505061268e806102a56000396000f300606060405260043610620000a3576000357c0100000000000000000000000000000000000000000000000000000000900463ffffffff1680630b53fac114620000a55780630f23cbaa146200011457806371be2e4a146200012c5780638da5cb5b14620001585780638dc668d714620001b05780639b15e252146200021f578063e1ba30a9146200025b578063f2fde38b14620003c5578063ff4635631462000401575b005b3415620000b157600080fd5b620000bb6200049e565b6040518080602001828103825283818151815260200191508051906020019060200280838360005b8381101562000100578082015181840152602081019050620000e3565b505050509050019250505060405180910390f35b34156200012057600080fd5b6200012a62000506565b005b34156200013857600080fd5b6200014262000669565b6040518082815260200191505060405180910390f35b34156200016457600080fd5b6200016e62000679565b604051808273ffffffffffffffffffffffffffffffffffffffff1673ffffffffffffffffffffffffffffffffffffffff16815260200191505060405180910390f35b3415620001bc57600080fd5b620001c66200069f565b6040518080602001828103825283818151815260200191508051906020019060200280838360005b838110156200020b578082015181840152602081019050620001ee565b505050509050019250505060405180910390f35b34156200022b57600080fd5b62000259600480803573ffffffffffffffffffffffffffffffffffffffff169060200190919050506200073a565b005b34156200026757600080fd5b6200027f600480803590602001909190505062000859565b604051808a81526020018973ffffffffffffffffffffffffffffffffffffffff1673ffffffffffffffffffffffffffffffffffffffff1681526020018873ffffffffffffffffffffffffffffffffffffffff1673ffffffffffffffffffffffffffffffffffffffff1681526020018781526020018660001916600019168152602001857effffffffffffffffffffffffffffffffffffffffffffffffffffffffffffff19167effffffffffffffffffffffffffffffffffffffffffffffffffffffffffffff19168152602001847effffffffffffffffffffffffffffffffffffffffffffffffffffffffffffff19167effffffffffffffffffffffffffffffffffffffffffffffffffffffffffffff1916815260200183600019166000191681526020018260001916600019168152602001995050505050505050505060405180910390f35b3415620003d157600080fd5b620003ff600480803573ffffffffffffffffffffffffffffffffffffffff1690602001909190505062000951565b005b34156200040d57600080fd5b6200045c60048080359060200190820180359060200190808060200260200160405190810160405280939291908181526020018383602002808284378201915050505050509190505062000ad8565b604051808273ffffffffffffffffffffffffffffffffffffffff1673ffffffffffffffffffffffffffffffffffffffff16815260200191505060405180910390f35b620004a862000f55565b60008001805480602002602001604051908101604052809291908181526020018280548015620004fc57602002820191906000526020600020905b81546000191681526020019060010190808311620004e3575b5050505050905090565b600760009054906101000a900473ffffffffffffffffffffffffffffffffffffffff1673ffffffffffffffffffffffffffffffffffffffff163373ffffffffffffffffffffffffffffffffffffffff161415156200056357600080fd5b6200062d7f52454359434c45445f544f0000000000000000000000000000000000000000007f53000000000000000000000000000000000000000000000000000000000000007f41000000000000000000000000000000000000000000000000000000000000007f6164647265737300000000000000000000000000000000000000000000000000600760009054906101000a900473ffffffffffffffffffffffffffffffffffffffff1673ffffffffffffffffffffffffffffffffffffffff1660010262000def565b50600760009054906101000a900473ffffffffffffffffffffffffffffffffffffffff1673ffffffffffffffffffffffffffffffffffffffff16ff5b6000600360000180549050905090565b600760009054906101000a900473ffffffffffffffffffffffffffffffffffffffff1681565b620006a962000f69565b60046000018054806020026020016040519081016040528092919081815260200182805480156200073057602002820191906000526020600020905b8160009054906101000a900473ffffffffffffffffffffffffffffffffffffffff1673ffffffffffffffffffffffffffffffffffffffff1681526020019060010190808311620006e5575b5050505050905090565b600760009054906101000a900473ffffffffffffffffffffffffffffffffffffffff1673ffffffffffffffffffffffffffffffffffffffff163373ffffffffffffffffffffffffffffffffffffffff161415156200079757600080fd5b6200083f7f52454359434c45445f544f0000000000000000000000000000000000000000007f53000000000000000000000000000000000000000000000000000000000000007f41000000000000000000000000000000000000000000000000000000000000007f61646472657373000000000000000000000000000000000000000000000000008573ffffffffffffffffffffffffffffffffffffffff1660010262000def565b508073ffffffffffffffffffffffffffffffffffffffff16ff5b600080600080600080600080600073__EventStoreLib_________________________63a057fd5e60038c600060405161012001526040518363ffffffff167c010000000000000000000000000000000000000000000000000000000002815260040180838152602001828152602001925050506101206040518083038186803b1515620008e657600080fd5b6102c65a03f41515620008f857600080fd5b505050604051805190602001805190602001805190602001805190602001805190602001805190602001805190602001805190602001805190509850985098509850985098509850985098509193959799909294969850565b600760009054906101000a900473ffffffffffffffffffffffffffffffffffffffff1673ffffffffffffffffffffffffffffffffffffffff163373ffffffffffffffffffffffffffffffffffffffff16141515620009ae57600080fd5b600073ffffffffffffffffffffffffffffffffffffffff168173ffffffffffffffffffffffffffffffffffffffff1614151515620009eb57600080fd5b80600760006101000a81548173ffffffffffffffffffffffffffffffffffffffff021916908373ffffffffffffffffffffffffffffffffffffffff16021790555062000ad47f4e45575f4f574e455200000000000000000000000000000000000000000000007f53000000000000000000000000000000000000000000000000000000000000007f41000000000000000000000000000000000000000000000000000000000000007f61646472657373000000000000000000000000000000000000000000000000008573ffffffffffffffffffffffffffffffffffffffff1660010262000def565b5050565b60008062000ae562000f7d565b604051809103906000f080151562000afc57600080fd5b905062000ba67f45535f43524541544544000000000000000000000000000000000000000000007f53000000000000000000000000000000000000000000000000000000000000007f41000000000000000000000000000000000000000000000000000000000000007f61646472657373000000000000000000000000000000000000000000000000008573ffffffffffffffffffffffffffffffffffffffff1660010262000def565b50600473__AddressSetLib_________________________631e4016169091836000604051602001526040518363ffffffff167c0100000000000000000000000000000000000000000000000000000000028152600401808381526020018273ffffffffffffffffffffffffffffffffffffffff1673ffffffffffffffffffffffffffffffffffffffff1681526020019250505060206040518083038186803b151562000c5257600080fd5b6102c65a03f4151562000c6457600080fd5b50505060405180519050508073ffffffffffffffffffffffffffffffffffffffff1663f4217648846040518263ffffffff167c01000000000000000000000000000000000000000000000000000000000281526004018080602001828103825283818151815260200191508051906020019060200280838360005b8381101562000cfc57808201518184015260208101905062000cdf565b5050505090500192505050600060405180830381600087803b151562000d2157600080fd5b6102c65a03f1151562000d3357600080fd5b5050508073ffffffffffffffffffffffffffffffffffffffff1663f2fde38b336040518263ffffffff167c0100000000000000000000000000000000000000000000000000000000028152600401808273ffffffffffffffffffffffffffffffffffffffff1673ffffffffffffffffffffffffffffffffffffffff168152602001915050600060405180830381600087803b151562000dd157600080fd5b6102c65a03f1151562000de357600080fd5b50505080915050919050565b600073__EventStoreLib_________________________633bb64203600388888888886000604051602001526040518763ffffffff167c0100000000000000000000000000000000000000000000000000000000028152600401808781526020018660001916600019168152602001857effffffffffffffffffffffffffffffffffffffffffffffffffffffffffffff19167effffffffffffffffffffffffffffffffffffffffffffffffffffffffffffff19168152602001847effffffffffffffffffffffffffffffffffffffffffffffffffffffffffffff19167effffffffffffffffffffffffffffffffffffffffffffffffffffffffffffff1916815260200183600019166000191681526020018260001916600019168152602001965050505050505060206040518083038186803b151562000f2e57600080fd5b6102c65a03f4151562000f4057600080fd5b50505060405180519050905095945050505050565b602060405190810160405280600081525090565b602060405190810160405280600081525090565b6040516116d48062000f8f833901905600606060405233600760006101000a81548173ffffffffffffffffffffffffffffffffffffffff021916908373ffffffffffffffffffffffffffffffffffffffff160217905550600073__Bytes32SetLib_________________________6363d4d33590917f4e45575f4f574e455200000000000000000000000000000000000000000000006000604051602001526040518363ffffffff167c01000000000000000000000000000000000000000000000000000000000281526004018083815260200182600019166000191681526020019250505060206040518083038186803b15156100eb57600080fd5b6102c65a03f415156100fc57600080fd5b5050506040518051905050600073__Bytes32SetLib_________________________6363d4d33590917f52454359434c45445f544f0000000000000000000000000000000000000000006000604051602001526040518363ffffffff167c01000000000000000000000000000000000000000000000000000000000281526004018083815260200182600019166000191681526020019250505060206040518083038186803b15156101ad57600080fd5b6102c65a03f415156101be57600080fd5b5050506040518051905050600073__Bytes32SetLib_________________________6363d4d33590917f574c5f53455400000000000000000000000000000000000000000000000000006000604051602001526040518363ffffffff167c01000000000000000000000000000000000000000000000000000000000281526004018083815260200182600019166000191681526020019250505060206040518083038186803b151561026f57600080fd5b6102c65a03f4151561028057600080fd5b50505060405180519050506103667f4e45575f4f574e455200000000000000000000000000000000000000000000007f53000000000000000000000000000000000000000000000000000000000000007f41000000000000000000000000000000000000000000000000000000000000007f6164647265737300000000000000000000000000000000000000000000000000600760009054906101000a900473ffffffffffffffffffffffffffffffffffffffff1673ffffffffffffffffffffffffffffffffffffffff1660010261036c6401000000000261103d176401000000009004565b506104d0565b600073__EventStoreLib_________________________633bb64203600388888888886000604051602001526040518763ffffffff167c0100000000000000000000000000000000000000000000000000000000028152600401808781526020018660001916600019168152602001857effffffffffffffffffffffffffffffffffffffffffffffffffffffffffffff19167effffffffffffffffffffffffffffffffffffffffffffffffffffffffffffff19168152602001847effffffffffffffffffffffffffffffffffffffffffffffffffffffffffffff19167effffffffffffffffffffffffffffffffffffffffffffffffffffffffffffff1916815260200183600019166000191681526020018260001916600019168152602001965050505050505060206040518083038186803b15156104aa57600080fd5b6102c65a03f415156104bb57600080fd5b50505060405180519050905095945050505050565b6111f5806104df6000396000f3006060604052600436106100a4576000357c0100000000000000000000000000000000000000000000000000000000900463ffffffff1680630b53fac1146100a65780630f23cbaa1461011057806335628b381461012557806371be2e4a146101d05780638da5cb5b146101f95780639b15e2521461024e578063d01f63f514610287578063e1ba30a9146102f1578063f2fde38b14610458578063f421764814610491575b005b34156100b157600080fd5b6100b96104eb565b6040518080602001828103825283818151815260200191508051906020019060200280838360005b838110156100fc5780820151818401526020810190506100e1565b505050509050019250505060405180910390f35b341561011b57600080fd5b61012361054f565b005b341561013057600080fd5b6101ba6004808035600019169060200190919080357effffffffffffffffffffffffffffffffffffffffffffffffffffffffffffff19169060200190919080357effffffffffffffffffffffffffffffffffffffffffffffffffffffffffffff191690602001909190803560001916906020019091908035600019169060200190919050506106af565b6040518082815260200191505060405180910390f35b34156101db57600080fd5b6101e361093b565b6040518082815260200191505060405180910390f35b341561020457600080fd5b61020c61094b565b604051808273ffffffffffffffffffffffffffffffffffffffff1673ffffffffffffffffffffffffffffffffffffffff16815260200191505060405180910390f35b341561025957600080fd5b610285600480803573ffffffffffffffffffffffffffffffffffffffff16906020019091905050610971565b005b341561029257600080fd5b61029a610a8d565b6040518080602001828103825283818151815260200191508051906020019060200280838360005b838110156102dd5780820151818401526020810190506102c2565b505050509050019250505060405180910390f35b34156102fc57600080fd5b6103126004808035906020019091905050610b24565b604051808a81526020018973ffffffffffffffffffffffffffffffffffffffff1673ffffffffffffffffffffffffffffffffffffffff1681526020018873ffffffffffffffffffffffffffffffffffffffff1673ffffffffffffffffffffffffffffffffffffffff1681526020018781526020018660001916600019168152602001857effffffffffffffffffffffffffffffffffffffffffffffffffffffffffffff19167effffffffffffffffffffffffffffffffffffffffffffffffffffffffffffff19168152602001847effffffffffffffffffffffffffffffffffffffffffffffffffffffffffffff19167effffffffffffffffffffffffffffffffffffffffffffffffffffffffffffff1916815260200183600019166000191681526020018260001916600019168152602001995050505050505050505060405180910390f35b341561046357600080fd5b61048f600480803573ffffffffffffffffffffffffffffffffffffffff16906020019091905050610c1a565b005b341561049c57600080fd5b6104e9600480803590602001908201803590602001908080602002602001604051908101604052809392919081815260200183836020028082843782019150505050505091905050610d9d565b005b6104f36111a1565b6000800180548060200260200160405190810160405280929190818152602001828054801561054557602002820191906000526020600020905b8154600019168152602001906001019080831161052d575b5050505050905090565b600760009054906101000a900473ffffffffffffffffffffffffffffffffffffffff1673ffffffffffffffffffffffffffffffffffffffff163373ffffffffffffffffffffffffffffffffffffffff161415156105ab57600080fd5b6106737f52454359434c45445f544f0000000000000000000000000000000000000000007f53000000000000000000000000000000000000000000000000000000000000007f41000000000000000000000000000000000000000000000000000000000000007f6164647265737300000000000000000000000000000000000000000000000000600760009054906101000a900473ffffffffffffffffffffffffffffffffffffffff1673ffffffffffffffffffffffffffffffffffffffff1660010261103d565b50600760009054906101000a900473ffffffffffffffffffffffffffffffffffffffff1673ffffffffffffffffffffffffffffffffffffffff16ff5b60003373ffffffffffffffffffffffffffffffffffffffff16600760009054906101000a900473ffffffffffffffffffffffffffffffffffffffff1673ffffffffffffffffffffffffffffffffffffffff1614806107ce5750600473__AddressSetLib_________________________63dc02e70d9091336000604051602001526040518363ffffffff167c0100000000000000000000000000000000000000000000000000000000028152600401808381526020018273ffffffffffffffffffffffffffffffffffffffff1673ffffffffffffffffffffffffffffffffffffffff1681526020019250505060206040518083038186803b15156107b257600080fd5b6102c65a03f415156107c357600080fd5b505050604051805190505b15156107d957600080fd5b73__EventStoreLib_________________________633bb64203600388888888886000604051602001526040518763ffffffff167c0100000000000000000000000000000000000000000000000000000000028152600401808781526020018660001916600019168152602001857effffffffffffffffffffffffffffffffffffffffffffffffffffffffffffff19167effffffffffffffffffffffffffffffffffffffffffffffffffffffffffffff19168152602001847effffffffffffffffffffffffffffffffffffffffffffffffffffffffffffff19167effffffffffffffffffffffffffffffffffffffffffffffffffffffffffffff1916815260200183600019166000191681526020018260001916600019168152602001965050505050505060206040518083038186803b151561091557600080fd5b6102c65a03f4151561092657600080fd5b50505060405180519050905095945050505050565b6000600360000180549050905090565b600760009054906101000a900473ffffffffffffffffffffffffffffffffffffffff1681565b600760009054906101000a900473ffffffffffffffffffffffffffffffffffffffff1673ffffffffffffffffffffffffffffffffffffffff163373ffffffffffffffffffffffffffffffffffffffff161415156109cd57600080fd5b610a737f52454359434c45445f544f0000000000000000000000000000000000000000007f53000000000000000000000000000000000000000000000000000000000000007f41000000000000000000000000000000000000000000000000000000000000007f61646472657373000000000000000000000000000000000000000000000000008573ffffffffffffffffffffffffffffffffffffffff1660010261103d565b508073ffffffffffffffffffffffffffffffffffffffff16ff5b610a956111b5565b6004600001805480602002602001604051908101604052809291908181526020018280548015610b1a57602002820191906000526020600020905b8160009054906101000a900473ffffffffffffffffffffffffffffffffffffffff1673ffffffffffffffffffffffffffffffffffffffff1681526020019060010190808311610ad0575b5050505050905090565b600080600080600080600080600073__EventStoreLib_________________________63a057fd5e60038c600060405161012001526040518363ffffffff167c010000000000000000000000000000000000000000000000000000000002815260040180838152602001828152602001925050506101206040518083038186803b1515610bb057600080fd5b6102c65a03f41515610bc157600080fd5b505050604051805190602001805190602001805190602001805190602001805190602001805190602001805190602001805190602001805190509850985098509850985098509850985098509193959799909294969850565b600760009054906101000a900473ffffffffffffffffffffffffffffffffffffffff1673ffffffffffffffffffffffffffffffffffffffff163373ffffffffffffffffffffffffffffffffffffffff16141515610c7657600080fd5b600073ffffffffffffffffffffffffffffffffffffffff168173ffffffffffffffffffffffffffffffffffffffff1614151515610cb257600080fd5b80600760006101000a81548173ffffffffffffffffffffffffffffffffffffffff021916908373ffffffffffffffffffffffffffffffffffffffff160217905550610d997f4e45575f4f574e455200000000000000000000000000000000000000000000007f53000000000000000000000000000000000000000000000000000000000000007f41000000000000000000000000000000000000000000000000000000000000007f61646472657373000000000000000000000000000000000000000000000000008573ffffffffffffffffffffffffffffffffffffffff1660010261103d565b5050565b6000600760009054906101000a900473ffffffffffffffffffffffffffffffffffffffff1673ffffffffffffffffffffffffffffffffffffffff163373ffffffffffffffffffffffffffffffffffffffff16141515610dfb57600080fd5b6000600473__AddressSetLib_________________________631d4cf6c490916000604051602001526040518263ffffffff167c01000000000000000000000000000000000000000000000000000000000281526004018082815260200191505060206040518083038186803b1515610e7357600080fd5b6102c65a03f41515610e8457600080fd5b50505060405180519050141515610e9a57600080fd5b600090505b8151811015610f9257600473__AddressSetLib_________________________631e40161690918484815181101515610ed457fe5b906020019060200201516000604051602001526040518363ffffffff167c0100000000000000000000000000000000000000000000000000000000028152600401808381526020018273ffffffffffffffffffffffffffffffffffffffff1673ffffffffffffffffffffffffffffffffffffffff1681526020019250505060206040518083038186803b1515610f6957600080fd5b6102c65a03f41515610f7a57600080fd5b50505060405180519050508080600101915050610e9f565b6110387f574c5f53455400000000000000000000000000000000000000000000000000007f53000000000000000000000000000000000000000000000000000000000000007f41000000000000000000000000000000000000000000000000000000000000007f61646472657373000000000000000000000000000000000000000000000000003373ffffffffffffffffffffffffffffffffffffffff1660010261103d565b505050565b600073__EventStoreLib_________________________633bb64203600388888888886000604051602001526040518763ffffffff167c0100000000000000000000000000000000000000000000000000000000028152600401808781526020018660001916600019168152602001857effffffffffffffffffffffffffffffffffffffffffffffffffffffffffffff19167effffffffffffffffffffffffffffffffffffffffffffffffffffffffffffff19168152602001847effffffffffffffffffffffffffffffffffffffffffffffffffffffffffffff19167effffffffffffffffffffffffffffffffffffffffffffffffffffffffffffff1916815260200183600019166000191681526020018260001916600019168152602001965050505050505060206040518083038186803b151561117b57600080fd5b6102c65a03f4151561118c57600080fd5b50505060405180519050905095945050505050565b602060405190810160405280600081525090565b6020604051908101604052806000815250905600a165627a7a723058200704955b04e0b4d2e5628a7a4138807a969cbaa3f488a3423f743d943a1bddd30029a165627a7a723058208df4d71fa1d0b5eac48dd2c52c609759e0fc79b093e017b19cf18a385d5d86840029",
  "deployedBytecode": "0x606060405260043610620000a3576000357c0100000000000000000000000000000000000000000000000000000000900463ffffffff1680630b53fac114620000a55780630f23cbaa146200011457806371be2e4a146200012c5780638da5cb5b14620001585780638dc668d714620001b05780639b15e252146200021f578063e1ba30a9146200025b578063f2fde38b14620003c5578063ff4635631462000401575b005b3415620000b157600080fd5b620000bb6200049e565b6040518080602001828103825283818151815260200191508051906020019060200280838360005b8381101562000100578082015181840152602081019050620000e3565b505050509050019250505060405180910390f35b34156200012057600080fd5b6200012a62000506565b005b34156200013857600080fd5b6200014262000669565b6040518082815260200191505060405180910390f35b34156200016457600080fd5b6200016e62000679565b604051808273ffffffffffffffffffffffffffffffffffffffff1673ffffffffffffffffffffffffffffffffffffffff16815260200191505060405180910390f35b3415620001bc57600080fd5b620001c66200069f565b6040518080602001828103825283818151815260200191508051906020019060200280838360005b838110156200020b578082015181840152602081019050620001ee565b505050509050019250505060405180910390f35b34156200022b57600080fd5b62000259600480803573ffffffffffffffffffffffffffffffffffffffff169060200190919050506200073a565b005b34156200026757600080fd5b6200027f600480803590602001909190505062000859565b604051808a81526020018973ffffffffffffffffffffffffffffffffffffffff1673ffffffffffffffffffffffffffffffffffffffff1681526020018873ffffffffffffffffffffffffffffffffffffffff1673ffffffffffffffffffffffffffffffffffffffff1681526020018781526020018660001916600019168152602001857effffffffffffffffffffffffffffffffffffffffffffffffffffffffffffff19167effffffffffffffffffffffffffffffffffffffffffffffffffffffffffffff19168152602001847effffffffffffffffffffffffffffffffffffffffffffffffffffffffffffff19167effffffffffffffffffffffffffffffffffffffffffffffffffffffffffffff1916815260200183600019166000191681526020018260001916600019168152602001995050505050505050505060405180910390f35b3415620003d157600080fd5b620003ff600480803573ffffffffffffffffffffffffffffffffffffffff1690602001909190505062000951565b005b34156200040d57600080fd5b6200045c60048080359060200190820180359060200190808060200260200160405190810160405280939291908181526020018383602002808284378201915050505050509190505062000ad8565b604051808273ffffffffffffffffffffffffffffffffffffffff1673ffffffffffffffffffffffffffffffffffffffff16815260200191505060405180910390f35b620004a862000f55565b60008001805480602002602001604051908101604052809291908181526020018280548015620004fc57602002820191906000526020600020905b81546000191681526020019060010190808311620004e3575b5050505050905090565b600760009054906101000a900473ffffffffffffffffffffffffffffffffffffffff1673ffffffffffffffffffffffffffffffffffffffff163373ffffffffffffffffffffffffffffffffffffffff161415156200056357600080fd5b6200062d7f52454359434c45445f544f0000000000000000000000000000000000000000007f53000000000000000000000000000000000000000000000000000000000000007f41000000000000000000000000000000000000000000000000000000000000007f6164647265737300000000000000000000000000000000000000000000000000600760009054906101000a900473ffffffffffffffffffffffffffffffffffffffff1673ffffffffffffffffffffffffffffffffffffffff1660010262000def565b50600760009054906101000a900473ffffffffffffffffffffffffffffffffffffffff1673ffffffffffffffffffffffffffffffffffffffff16ff5b6000600360000180549050905090565b600760009054906101000a900473ffffffffffffffffffffffffffffffffffffffff1681565b620006a962000f69565b60046000018054806020026020016040519081016040528092919081815260200182805480156200073057602002820191906000526020600020905b8160009054906101000a900473ffffffffffffffffffffffffffffffffffffffff1673ffffffffffffffffffffffffffffffffffffffff1681526020019060010190808311620006e5575b5050505050905090565b600760009054906101000a900473ffffffffffffffffffffffffffffffffffffffff1673ffffffffffffffffffffffffffffffffffffffff163373ffffffffffffffffffffffffffffffffffffffff161415156200079757600080fd5b6200083f7f52454359434c45445f544f0000000000000000000000000000000000000000007f53000000000000000000000000000000000000000000000000000000000000007f41000000000000000000000000000000000000000000000000000000000000007f61646472657373000000000000000000000000000000000000000000000000008573ffffffffffffffffffffffffffffffffffffffff1660010262000def565b508073ffffffffffffffffffffffffffffffffffffffff16ff5b600080600080600080600080600073__EventStoreLib_________________________63a057fd5e60038c600060405161012001526040518363ffffffff167c010000000000000000000000000000000000000000000000000000000002815260040180838152602001828152602001925050506101206040518083038186803b1515620008e657600080fd5b6102c65a03f41515620008f857600080fd5b505050604051805190602001805190602001805190602001805190602001805190602001805190602001805190602001805190602001805190509850985098509850985098509850985098509193959799909294969850565b600760009054906101000a900473ffffffffffffffffffffffffffffffffffffffff1673ffffffffffffffffffffffffffffffffffffffff163373ffffffffffffffffffffffffffffffffffffffff16141515620009ae57600080fd5b600073ffffffffffffffffffffffffffffffffffffffff168173ffffffffffffffffffffffffffffffffffffffff1614151515620009eb57600080fd5b80600760006101000a81548173ffffffffffffffffffffffffffffffffffffffff021916908373ffffffffffffffffffffffffffffffffffffffff16021790555062000ad47f4e45575f4f574e455200000000000000000000000000000000000000000000007f53000000000000000000000000000000000000000000000000000000000000007f41000000000000000000000000000000000000000000000000000000000000007f61646472657373000000000000000000000000000000000000000000000000008573ffffffffffffffffffffffffffffffffffffffff1660010262000def565b5050565b60008062000ae562000f7d565b604051809103906000f080151562000afc57600080fd5b905062000ba67f45535f43524541544544000000000000000000000000000000000000000000007f53000000000000000000000000000000000000000000000000000000000000007f41000000000000000000000000000000000000000000000000000000000000007f61646472657373000000000000000000000000000000000000000000000000008573ffffffffffffffffffffffffffffffffffffffff1660010262000def565b50600473__AddressSetLib_________________________631e4016169091836000604051602001526040518363ffffffff167c0100000000000000000000000000000000000000000000000000000000028152600401808381526020018273ffffffffffffffffffffffffffffffffffffffff1673ffffffffffffffffffffffffffffffffffffffff1681526020019250505060206040518083038186803b151562000c5257600080fd5b6102c65a03f4151562000c6457600080fd5b50505060405180519050508073ffffffffffffffffffffffffffffffffffffffff1663f4217648846040518263ffffffff167c01000000000000000000000000000000000000000000000000000000000281526004018080602001828103825283818151815260200191508051906020019060200280838360005b8381101562000cfc57808201518184015260208101905062000cdf565b5050505090500192505050600060405180830381600087803b151562000d2157600080fd5b6102c65a03f1151562000d3357600080fd5b5050508073ffffffffffffffffffffffffffffffffffffffff1663f2fde38b336040518263ffffffff167c0100000000000000000000000000000000000000000000000000000000028152600401808273ffffffffffffffffffffffffffffffffffffffff1673ffffffffffffffffffffffffffffffffffffffff168152602001915050600060405180830381600087803b151562000dd157600080fd5b6102c65a03f1151562000de357600080fd5b50505080915050919050565b600073__EventStoreLib_________________________633bb64203600388888888886000604051602001526040518763ffffffff167c0100000000000000000000000000000000000000000000000000000000028152600401808781526020018660001916600019168152602001857effffffffffffffffffffffffffffffffffffffffffffffffffffffffffffff19167effffffffffffffffffffffffffffffffffffffffffffffffffffffffffffff19168152602001847effffffffffffffffffffffffffffffffffffffffffffffffffffffffffffff19167effffffffffffffffffffffffffffffffffffffffffffffffffffffffffffff1916815260200183600019166000191681526020018260001916600019168152602001965050505050505060206040518083038186803b151562000f2e57600080fd5b6102c65a03f4151562000f4057600080fd5b50505060405180519050905095945050505050565b602060405190810160405280600081525090565b602060405190810160405280600081525090565b6040516116d48062000f8f833901905600606060405233600760006101000a81548173ffffffffffffffffffffffffffffffffffffffff021916908373ffffffffffffffffffffffffffffffffffffffff160217905550600073__Bytes32SetLib_________________________6363d4d33590917f4e45575f4f574e455200000000000000000000000000000000000000000000006000604051602001526040518363ffffffff167c01000000000000000000000000000000000000000000000000000000000281526004018083815260200182600019166000191681526020019250505060206040518083038186803b15156100eb57600080fd5b6102c65a03f415156100fc57600080fd5b5050506040518051905050600073__Bytes32SetLib_________________________6363d4d33590917f52454359434c45445f544f0000000000000000000000000000000000000000006000604051602001526040518363ffffffff167c01000000000000000000000000000000000000000000000000000000000281526004018083815260200182600019166000191681526020019250505060206040518083038186803b15156101ad57600080fd5b6102c65a03f415156101be57600080fd5b5050506040518051905050600073__Bytes32SetLib_________________________6363d4d33590917f574c5f53455400000000000000000000000000000000000000000000000000006000604051602001526040518363ffffffff167c01000000000000000000000000000000000000000000000000000000000281526004018083815260200182600019166000191681526020019250505060206040518083038186803b151561026f57600080fd5b6102c65a03f4151561028057600080fd5b50505060405180519050506103667f4e45575f4f574e455200000000000000000000000000000000000000000000007f53000000000000000000000000000000000000000000000000000000000000007f41000000000000000000000000000000000000000000000000000000000000007f6164647265737300000000000000000000000000000000000000000000000000600760009054906101000a900473ffffffffffffffffffffffffffffffffffffffff1673ffffffffffffffffffffffffffffffffffffffff1660010261036c6401000000000261103d176401000000009004565b506104d0565b600073__EventStoreLib_________________________633bb64203600388888888886000604051602001526040518763ffffffff167c0100000000000000000000000000000000000000000000000000000000028152600401808781526020018660001916600019168152602001857effffffffffffffffffffffffffffffffffffffffffffffffffffffffffffff19167effffffffffffffffffffffffffffffffffffffffffffffffffffffffffffff19168152602001847effffffffffffffffffffffffffffffffffffffffffffffffffffffffffffff19167effffffffffffffffffffffffffffffffffffffffffffffffffffffffffffff1916815260200183600019166000191681526020018260001916600019168152602001965050505050505060206040518083038186803b15156104aa57600080fd5b6102c65a03f415156104bb57600080fd5b50505060405180519050905095945050505050565b6111f5806104df6000396000f3006060604052600436106100a4576000357c0100000000000000000000000000000000000000000000000000000000900463ffffffff1680630b53fac1146100a65780630f23cbaa1461011057806335628b381461012557806371be2e4a146101d05780638da5cb5b146101f95780639b15e2521461024e578063d01f63f514610287578063e1ba30a9146102f1578063f2fde38b14610458578063f421764814610491575b005b34156100b157600080fd5b6100b96104eb565b6040518080602001828103825283818151815260200191508051906020019060200280838360005b838110156100fc5780820151818401526020810190506100e1565b505050509050019250505060405180910390f35b341561011b57600080fd5b61012361054f565b005b341561013057600080fd5b6101ba6004808035600019169060200190919080357effffffffffffffffffffffffffffffffffffffffffffffffffffffffffffff19169060200190919080357effffffffffffffffffffffffffffffffffffffffffffffffffffffffffffff191690602001909190803560001916906020019091908035600019169060200190919050506106af565b6040518082815260200191505060405180910390f35b34156101db57600080fd5b6101e361093b565b6040518082815260200191505060405180910390f35b341561020457600080fd5b61020c61094b565b604051808273ffffffffffffffffffffffffffffffffffffffff1673ffffffffffffffffffffffffffffffffffffffff16815260200191505060405180910390f35b341561025957600080fd5b610285600480803573ffffffffffffffffffffffffffffffffffffffff16906020019091905050610971565b005b341561029257600080fd5b61029a610a8d565b6040518080602001828103825283818151815260200191508051906020019060200280838360005b838110156102dd5780820151818401526020810190506102c2565b505050509050019250505060405180910390f35b34156102fc57600080fd5b6103126004808035906020019091905050610b24565b604051808a81526020018973ffffffffffffffffffffffffffffffffffffffff1673ffffffffffffffffffffffffffffffffffffffff1681526020018873ffffffffffffffffffffffffffffffffffffffff1673ffffffffffffffffffffffffffffffffffffffff1681526020018781526020018660001916600019168152602001857effffffffffffffffffffffffffffffffffffffffffffffffffffffffffffff19167effffffffffffffffffffffffffffffffffffffffffffffffffffffffffffff19168152602001847effffffffffffffffffffffffffffffffffffffffffffffffffffffffffffff19167effffffffffffffffffffffffffffffffffffffffffffffffffffffffffffff1916815260200183600019166000191681526020018260001916600019168152602001995050505050505050505060405180910390f35b341561046357600080fd5b61048f600480803573ffffffffffffffffffffffffffffffffffffffff16906020019091905050610c1a565b005b341561049c57600080fd5b6104e9600480803590602001908201803590602001908080602002602001604051908101604052809392919081815260200183836020028082843782019150505050505091905050610d9d565b005b6104f36111a1565b6000800180548060200260200160405190810160405280929190818152602001828054801561054557602002820191906000526020600020905b8154600019168152602001906001019080831161052d575b5050505050905090565b600760009054906101000a900473ffffffffffffffffffffffffffffffffffffffff1673ffffffffffffffffffffffffffffffffffffffff163373ffffffffffffffffffffffffffffffffffffffff161415156105ab57600080fd5b6106737f52454359434c45445f544f0000000000000000000000000000000000000000007f53000000000000000000000000000000000000000000000000000000000000007f41000000000000000000000000000000000000000000000000000000000000007f6164647265737300000000000000000000000000000000000000000000000000600760009054906101000a900473ffffffffffffffffffffffffffffffffffffffff1673ffffffffffffffffffffffffffffffffffffffff1660010261103d565b50600760009054906101000a900473ffffffffffffffffffffffffffffffffffffffff1673ffffffffffffffffffffffffffffffffffffffff16ff5b60003373ffffffffffffffffffffffffffffffffffffffff16600760009054906101000a900473ffffffffffffffffffffffffffffffffffffffff1673ffffffffffffffffffffffffffffffffffffffff1614806107ce5750600473__AddressSetLib_________________________63dc02e70d9091336000604051602001526040518363ffffffff167c0100000000000000000000000000000000000000000000000000000000028152600401808381526020018273ffffffffffffffffffffffffffffffffffffffff1673ffffffffffffffffffffffffffffffffffffffff1681526020019250505060206040518083038186803b15156107b257600080fd5b6102c65a03f415156107c357600080fd5b505050604051805190505b15156107d957600080fd5b73__EventStoreLib_________________________633bb64203600388888888886000604051602001526040518763ffffffff167c0100000000000000000000000000000000000000000000000000000000028152600401808781526020018660001916600019168152602001857effffffffffffffffffffffffffffffffffffffffffffffffffffffffffffff19167effffffffffffffffffffffffffffffffffffffffffffffffffffffffffffff19168152602001847effffffffffffffffffffffffffffffffffffffffffffffffffffffffffffff19167effffffffffffffffffffffffffffffffffffffffffffffffffffffffffffff1916815260200183600019166000191681526020018260001916600019168152602001965050505050505060206040518083038186803b151561091557600080fd5b6102c65a03f4151561092657600080fd5b50505060405180519050905095945050505050565b6000600360000180549050905090565b600760009054906101000a900473ffffffffffffffffffffffffffffffffffffffff1681565b600760009054906101000a900473ffffffffffffffffffffffffffffffffffffffff1673ffffffffffffffffffffffffffffffffffffffff163373ffffffffffffffffffffffffffffffffffffffff161415156109cd57600080fd5b610a737f52454359434c45445f544f0000000000000000000000000000000000000000007f53000000000000000000000000000000000000000000000000000000000000007f41000000000000000000000000000000000000000000000000000000000000007f61646472657373000000000000000000000000000000000000000000000000008573ffffffffffffffffffffffffffffffffffffffff1660010261103d565b508073ffffffffffffffffffffffffffffffffffffffff16ff5b610a956111b5565b6004600001805480602002602001604051908101604052809291908181526020018280548015610b1a57602002820191906000526020600020905b8160009054906101000a900473ffffffffffffffffffffffffffffffffffffffff1673ffffffffffffffffffffffffffffffffffffffff1681526020019060010190808311610ad0575b5050505050905090565b600080600080600080600080600073__EventStoreLib_________________________63a057fd5e60038c600060405161012001526040518363ffffffff167c010000000000000000000000000000000000000000000000000000000002815260040180838152602001828152602001925050506101206040518083038186803b1515610bb057600080fd5b6102c65a03f41515610bc157600080fd5b505050604051805190602001805190602001805190602001805190602001805190602001805190602001805190602001805190602001805190509850985098509850985098509850985098509193959799909294969850565b600760009054906101000a900473ffffffffffffffffffffffffffffffffffffffff1673ffffffffffffffffffffffffffffffffffffffff163373ffffffffffffffffffffffffffffffffffffffff16141515610c7657600080fd5b600073ffffffffffffffffffffffffffffffffffffffff168173ffffffffffffffffffffffffffffffffffffffff1614151515610cb257600080fd5b80600760006101000a81548173ffffffffffffffffffffffffffffffffffffffff021916908373ffffffffffffffffffffffffffffffffffffffff160217905550610d997f4e45575f4f574e455200000000000000000000000000000000000000000000007f53000000000000000000000000000000000000000000000000000000000000007f41000000000000000000000000000000000000000000000000000000000000007f61646472657373000000000000000000000000000000000000000000000000008573ffffffffffffffffffffffffffffffffffffffff1660010261103d565b5050565b6000600760009054906101000a900473ffffffffffffffffffffffffffffffffffffffff1673ffffffffffffffffffffffffffffffffffffffff163373ffffffffffffffffffffffffffffffffffffffff16141515610dfb57600080fd5b6000600473__AddressSetLib_________________________631d4cf6c490916000604051602001526040518263ffffffff167c01000000000000000000000000000000000000000000000000000000000281526004018082815260200191505060206040518083038186803b1515610e7357600080fd5b6102c65a03f41515610e8457600080fd5b50505060405180519050141515610e9a57600080fd5b600090505b8151811015610f9257600473__AddressSetLib_________________________631e40161690918484815181101515610ed457fe5b906020019060200201516000604051602001526040518363ffffffff167c0100000000000000000000000000000000000000000000000000000000028152600401808381526020018273ffffffffffffffffffffffffffffffffffffffff1673ffffffffffffffffffffffffffffffffffffffff1681526020019250505060206040518083038186803b1515610f6957600080fd5b6102c65a03f41515610f7a57600080fd5b50505060405180519050508080600101915050610e9f565b6110387f574c5f53455400000000000000000000000000000000000000000000000000007f53000000000000000000000000000000000000000000000000000000000000007f41000000000000000000000000000000000000000000000000000000000000007f61646472657373000000000000000000000000000000000000000000000000003373ffffffffffffffffffffffffffffffffffffffff1660010261103d565b505050565b600073__EventStoreLib_________________________633bb64203600388888888886000604051602001526040518763ffffffff167c0100000000000000000000000000000000000000000000000000000000028152600401808781526020018660001916600019168152602001857effffffffffffffffffffffffffffffffffffffffffffffffffffffffffffff19167effffffffffffffffffffffffffffffffffffffffffffffffffffffffffffff19168152602001847effffffffffffffffffffffffffffffffffffffffffffffffffffffffffffff19167effffffffffffffffffffffffffffffffffffffffffffffffffffffffffffff1916815260200183600019166000191681526020018260001916600019168152602001965050505050505060206040518083038186803b151561117b57600080fd5b6102c65a03f4151561118c57600080fd5b50505060405180519050905095945050505050565b602060405190810160405280600081525090565b6020604051908101604052806000815250905600a165627a7a723058200704955b04e0b4d2e5628a7a4138807a969cbaa3f488a3423f743d943a1bddd30029a165627a7a723058208df4d71fa1d0b5eac48dd2c52c609759e0fc79b093e017b19cf18a385d5d86840029",
  "source": "pragma solidity ^0.4.17;\n\nimport \"./EventStoreLib.sol\";\nimport \"./EventStore.sol\";\nimport \"./SetLib/AddressSet/AddressSetLib.sol\";\nimport \"./SetLib/Bytes32Set/Bytes32SetLib.sol\";\n\n/**\n* @dev NEVER USE inheritance or modifiers\n*/\ncontract EventStoreFactory {\n\n  using EventStoreLib for EventStoreLib.EsEventStorage;\n  using AddressSetLib for AddressSetLib.AddressSet;\n  using Bytes32SetLib for Bytes32SetLib.Bytes32Set;\n\n  // TODO: Add security CHECKS!!!!\n  bytes32 private constant ES_CREATED = bytes32(\"ES_CREATED\");\n  bytes32 private constant NEW_OWNER = bytes32(\"NEW_OWNER\");\n  bytes32 private constant RECYCLED_TO = bytes32(\"RECYCLED_TO\");\n  Bytes32SetLib.Bytes32Set private INTERNAL_EVENT_TYPES;\n\n  EventStoreLib.EsEventStorage private store;\n  AddressSetLib.AddressSet private eventStores;\n\n  address public owner;\n\n  /**\n   * @dev This contract can receive ether.\n   */\n  function () public payable {}\n\n  /**\n   * @dev This contract will be owned by the constructor caller.\n   */\n  function EventStoreFactory() public {\n    owner = msg.sender;\n    INTERNAL_EVENT_TYPES.add(ES_CREATED);\n    INTERNAL_EVENT_TYPES.add(NEW_OWNER);\n    INTERNAL_EVENT_TYPES.add(RECYCLED_TO);\n  }\n\n  /**\n   * @dev Allows the current owner to transfer control of the contract to a newOwner.\n   * @param _newOwner The address to transfer ownership to.\n   */\n  function transferOwnership(address _newOwner) public {\n    require(msg.sender == owner);\n    require(_newOwner != address(0));\n    owner = _newOwner;\n    internalWriteEvent(NEW_OWNER, \"S\", \"A\", \"address\", bytes32(address(_newOwner)));\n  }\n\n   /**\n   * @dev Transfers the current balance to the owner and terminates the contract.\n   */\n  function recycle() public {\n    require(msg.sender == owner);\n    internalWriteEvent(RECYCLED_TO, \"S\", \"A\", \"address\", bytes32(address(owner)));\n    selfdestruct(owner);\n  }\n\n  /**\n  * @dev Transfers the current balance to the _recipient and terminates the contract.\n  * @param _recipient The address to transfer balance to.\n  */\n  function recycleAndSend(address _recipient) public {\n    require(msg.sender == owner);\n    internalWriteEvent(RECYCLED_TO, \"S\", \"A\", \"address\", bytes32(address(_recipient)));\n    selfdestruct(_recipient);\n  }\n\n  /**\n  * @dev Creates and initializes an eventStore\n  * @param _whitelist The addresses to which can call internalWriteEvent on the eventStore.\n  */\n  function createEventStore(address[] _whitelist) public returns (address) {\n    EventStore eventStore = new EventStore();\n    internalWriteEvent(ES_CREATED, \"S\", \"A\", \"address\", bytes32(address(eventStore)));\n    eventStores.add(address(eventStore));\n\n    eventStore.setWhitelist(_whitelist);\n    eventStore.transferOwnership(msg.sender);\n    \n    return address(eventStore);\n  }\n\n  function getEventStores() public view returns (address[]) {\n    return eventStores.values;\n  }\n\n  function getInternalEventTypes() public view returns (bytes32[]) {\n    return INTERNAL_EVENT_TYPES.values;\n  }\n  \n  /**\n  * @dev internalWriteEvent is private, only the factory contract can write events, the factory event log should only be used to model factory events\n  * @param _eventType The type of this event\n  * @param _keyType The type of this event's key\n  * @param _valueType The type of this event's value\n  * @param _key This event's key\n  * @param _value This event's value\n  */\n  function internalWriteEvent(\n    bytes32 _eventType,\n    bytes1 _keyType,\n    bytes1 _valueType,\n    bytes32 _key,\n    bytes32 _value\n  ) \n  private returns (uint) \n  {\n    // require(this[_eventType]);\n    return EventStoreLib.writeEvent(\n      store,\n      _eventType,\n      _keyType,\n      _valueType,\n      _key,\n      _value\n    );\n  }\n\n  function readEvent(uint _eventId) \n  public view\n    returns (\n      uint,\n      address,\n      address,\n      uint,\n      bytes32,\n      bytes1,\n      bytes1,\n      bytes32,\n      bytes32\n    ) {\n    return EventStoreLib.readEvent(store, _eventId);\n  }\n\n  function eventCount() \n  public view returns (uint) \n  {\n    return store.events.length;\n  }\n\n  // Events\n  event EsEvent(\n    uint Id,\n    address TxOrigin,\n    address MsgSender,\n    uint Created,\n\n    bytes32 EventType,\n\n    bytes1 KeyType,\n    bytes1 ValueType,\n\n    bytes32 Key,\n    bytes32 Value\n  );\n}\n",
  "sourcePath": "/Users/orie/OR13/transmute/packages/transmute-contracts/contracts/TransmuteFramework/EventStoreFactory.sol",
  "compiler": {
    "name": "solc",
    "version": "0.4.18+commit.9cf6e910.Emscripten.clang"
  },
  "schemaVersion": "1.0.1",
  "updatedAt": "2017-12-31T03:27:09.776Z"
}