{
  "contractName": "EventStore",
  "abi": [
    {
      "constant": false,
      "inputs": [
        {
          "name": "_eventType",
          "type": "bytes32"
        },
        {
          "name": "_keyType",
          "type": "bytes1"
        },
        {
          "name": "_valueType",
          "type": "bytes1"
        },
        {
          "name": "_key",
          "type": "bytes32"
        },
        {
          "name": "_value",
          "type": "bytes32"
        }
      ],
      "name": "writeEvent",
      "outputs": [
        {
          "name": "",
          "type": "uint256"
        }
      ],
      "payable": false,
      "stateMutability": "nonpayable",
      "type": "function"
    },
    {
      "constant": true,
      "inputs": [],
      "name": "eventCount",
      "outputs": [
        {
          "name": "",
          "type": "uint256"
        }
      ],
      "payable": false,
      "stateMutability": "view",
      "type": "function"
    },
    {
      "constant": false,
      "inputs": [],
      "name": "destroy",
      "outputs": [],
      "payable": false,
      "stateMutability": "nonpayable",
      "type": "function"
    },
    {
      "constant": true,
      "inputs": [],
      "name": "owner",
      "outputs": [
        {
          "name": "",
          "type": "address"
        }
      ],
      "payable": false,
      "stateMutability": "view",
      "type": "function"
    },
    {
      "constant": true,
      "inputs": [],
      "name": "getWhitelist",
      "outputs": [
        {
          "name": "",
          "type": "address[]"
        }
      ],
      "payable": false,
      "stateMutability": "view",
      "type": "function"
    },
    {
      "constant": true,
      "inputs": [
        {
          "name": "_eventId",
          "type": "uint256"
        }
      ],
      "name": "readEvent",
      "outputs": [
        {
          "name": "",
          "type": "uint256"
        },
        {
          "name": "",
          "type": "address"
        },
        {
          "name": "",
          "type": "uint256"
        },
        {
          "name": "",
          "type": "bytes32"
        },
        {
          "name": "",
          "type": "bytes1"
        },
        {
          "name": "",
          "type": "bytes1"
        },
        {
          "name": "",
          "type": "bytes32"
        },
        {
          "name": "",
          "type": "bytes32"
        }
      ],
      "payable": false,
      "stateMutability": "view",
      "type": "function"
    },
    {
      "constant": false,
      "inputs": [
        {
          "name": "newOwner",
          "type": "address"
        }
      ],
      "name": "transferOwnership",
      "outputs": [],
      "payable": false,
      "stateMutability": "nonpayable",
      "type": "function"
    },
    {
      "constant": false,
      "inputs": [
        {
          "name": "_whitelist",
          "type": "address[]"
        }
      ],
      "name": "setWhitelist",
      "outputs": [],
      "payable": false,
      "stateMutability": "nonpayable",
      "type": "function"
    },
    {
      "constant": false,
      "inputs": [
        {
          "name": "_recipient",
          "type": "address"
        }
      ],
      "name": "destroyAndSend",
      "outputs": [],
      "payable": false,
      "stateMutability": "nonpayable",
      "type": "function"
    },
    {
      "inputs": [],
      "payable": true,
      "stateMutability": "payable",
      "type": "constructor"
    },
    {
      "payable": true,
      "stateMutability": "payable",
      "type": "fallback"
    },
    {
      "anonymous": false,
      "inputs": [
        {
          "indexed": false,
          "name": "Id",
          "type": "uint256"
        },
        {
          "indexed": false,
          "name": "TxOrigin",
          "type": "address"
        },
        {
          "indexed": false,
          "name": "Created",
          "type": "uint256"
        },
        {
          "indexed": false,
          "name": "EventType",
          "type": "bytes32"
        },
        {
          "indexed": false,
          "name": "KeyType",
          "type": "bytes1"
        },
        {
          "indexed": false,
          "name": "ValueType",
          "type": "bytes1"
        },
        {
          "indexed": false,
          "name": "Key",
          "type": "bytes32"
        },
        {
          "indexed": false,
          "name": "Value",
          "type": "bytes32"
        }
      ],
      "name": "EsEvent",
      "type": "event"
    },
    {
      "anonymous": false,
      "inputs": [
        {
          "indexed": true,
          "name": "previousOwner",
          "type": "address"
        },
        {
          "indexed": true,
          "name": "newOwner",
          "type": "address"
        }
      ],
      "name": "OwnershipTransferred",
      "type": "event"
    }
  ],
  "bytecode": "0x6060604052336000806101000a81548173ffffffffffffffffffffffffffffffffffffffff021916908373ffffffffffffffffffffffffffffffffffffffff160217905550326000806101000a81548173ffffffffffffffffffffffffffffffffffffffff021916908373ffffffffffffffffffffffffffffffffffffffff160217905550610f71806100936000396000f300606060405260043610610099576000357c0100000000000000000000000000000000000000000000000000000000900463ffffffff16806335628b381461009e57806371be2e4a1461014957806383197ef0146101725780638da5cb5b14610187578063d01f63f5146101dc578063e1ba30a914610246578063f2fde38b1461037a578063f4217648146103b3578063f5074f411461040d575b600080fd5b34156100a957600080fd5b6101336004808035600019169060200190919080357effffffffffffffffffffffffffffffffffffffffffffffffffffffffffffff19169060200190919080357effffffffffffffffffffffffffffffffffffffffffffffffffffffffffffff19169060200190919080356000191690602001909190803560001916906020019091905050610446565b6040518082815260200191505060405180910390f35b341561015457600080fd5b61015c61067c565b6040518082815260200191505060405180910390f35b341561017d57600080fd5b61018561068c565b005b341561019257600080fd5b61019a610721565b604051808273ffffffffffffffffffffffffffffffffffffffff1673ffffffffffffffffffffffffffffffffffffffff16815260200191505060405180910390f35b34156101e757600080fd5b6101ef610746565b6040518080602001828103825283818151815260200191508051906020019060200280838360005b83811015610232578082015181840152602081019050610217565b505050509050019250505060405180910390f35b341561025157600080fd5b61026760048080359060200190919050506108f6565b604051808981526020018873ffffffffffffffffffffffffffffffffffffffff1673ffffffffffffffffffffffffffffffffffffffff1681526020018781526020018660001916600019168152602001857effffffffffffffffffffffffffffffffffffffffffffffffffffffffffffff19167effffffffffffffffffffffffffffffffffffffffffffffffffffffffffffff19168152602001847effffffffffffffffffffffffffffffffffffffffffffffffffffffffffffff19167effffffffffffffffffffffffffffffffffffffffffffffffffffffffffffff19168152602001836000191660001916815260200182600019166000191681526020019850505050505050505060405180910390f35b341561038557600080fd5b6103b1600480803573ffffffffffffffffffffffffffffffffffffffff16906020019091905050610ab2565b005b34156103be57600080fd5b61040b600480803590602001908201803590602001908080602002602001604051908101604052809392919081815260200183836020028082843782019150505050505091905050610c07565b005b341561041857600080fd5b610444600480803573ffffffffffffffffffffffffffffffffffffffff16906020019091905050610ebd565b005b600033600273__AddressSetLib_________________________63dc02e70d9091836000604051602001526040518363ffffffff167c0100000000000000000000000000000000000000000000000000000000028152600401808381526020018273ffffffffffffffffffffffffffffffffffffffff1673ffffffffffffffffffffffffffffffffffffffff1681526020019250505060206040518083038186803b15156104f357600080fd5b6102c65a03f4151561050457600080fd5b50505060405180519050151561051957600080fd5b73__EventStoreLib_________________________633bb64203600189898989896000604051602001526040518763ffffffff167c0100000000000000000000000000000000000000000000000000000000028152600401808781526020018660001916600019168152602001857effffffffffffffffffffffffffffffffffffffffffffffffffffffffffffff19167effffffffffffffffffffffffffffffffffffffffffffffffffffffffffffff19168152602001847effffffffffffffffffffffffffffffffffffffffffffffffffffffffffffff19167effffffffffffffffffffffffffffffffffffffffffffffffffffffffffffff1916815260200183600019166000191681526020018260001916600019168152602001965050505050505060206040518083038186803b151561065557600080fd5b6102c65a03f4151561066657600080fd5b5050506040518051905091505095945050505050565b6000600160000180549050905090565b6000809054906101000a900473ffffffffffffffffffffffffffffffffffffffff1673ffffffffffffffffffffffffffffffffffffffff163373ffffffffffffffffffffffffffffffffffffffff161415156106e757600080fd5b6000809054906101000a900473ffffffffffffffffffffffffffffffffffffffff1673ffffffffffffffffffffffffffffffffffffffff16ff5b6000809054906101000a900473ffffffffffffffffffffffffffffffffffffffff1681565b61074e610f31565b333073ffffffffffffffffffffffffffffffffffffffff16638da5cb5b6000604051602001526040518163ffffffff167c0100000000000000000000000000000000000000000000000000000000028152600401602060405180830381600087803b15156107bb57600080fd5b6102c65a03f115156107cc57600080fd5b5050506040518051905073ffffffffffffffffffffffffffffffffffffffff168173ffffffffffffffffffffffffffffffffffffffff16148061085b57506000809054906101000a900473ffffffffffffffffffffffffffffffffffffffff1673ffffffffffffffffffffffffffffffffffffffff168173ffffffffffffffffffffffffffffffffffffffff16145b151561086657600080fd5b60026000018054806020026020016040519081016040528092919081815260200182805480156108eb57602002820191906000526020600020905b8160009054906101000a900473ffffffffffffffffffffffffffffffffffffffff1673ffffffffffffffffffffffffffffffffffffffff16815260200190600101908083116108a1575b505050505091505090565b60008060008060008060008033600273__AddressSetLib_________________________63dc02e70d9091836000604051602001526040518363ffffffff167c0100000000000000000000000000000000000000000000000000000000028152600401808381526020018273ffffffffffffffffffffffffffffffffffffffff1673ffffffffffffffffffffffffffffffffffffffff1681526020019250505060206040518083038186803b15156109ad57600080fd5b6102c65a03f415156109be57600080fd5b5050506040518051905015156109d357600080fd5b73__EventStoreLib_________________________63a057fd5e60018c600060405161010001526040518363ffffffff167c010000000000000000000000000000000000000000000000000000000002815260040180838152602001828152602001925050506101006040518083038186803b1515610a5157600080fd5b6102c65a03f41515610a6257600080fd5b505050604051805190602001805190602001805190602001805190602001805190602001805190602001805190602001805190509850985098509850985098509850985050919395975091939597565b6000809054906101000a900473ffffffffffffffffffffffffffffffffffffffff1673ffffffffffffffffffffffffffffffffffffffff163373ffffffffffffffffffffffffffffffffffffffff16141515610b0d57600080fd5b600073ffffffffffffffffffffffffffffffffffffffff168173ffffffffffffffffffffffffffffffffffffffff1614151515610b4957600080fd5b8073ffffffffffffffffffffffffffffffffffffffff166000809054906101000a900473ffffffffffffffffffffffffffffffffffffffff1673ffffffffffffffffffffffffffffffffffffffff167f8be0079c531659141344cd1fd0a4f28419497f9722a3daafe3b4186f6b6457e060405160405180910390a3806000806101000a81548173ffffffffffffffffffffffffffffffffffffffff021916908373ffffffffffffffffffffffffffffffffffffffff16021790555050565b6000333073ffffffffffffffffffffffffffffffffffffffff16638da5cb5b6000604051602001526040518163ffffffff167c0100000000000000000000000000000000000000000000000000000000028152600401602060405180830381600087803b1515610c7657600080fd5b6102c65a03f11515610c8757600080fd5b5050506040518051905073ffffffffffffffffffffffffffffffffffffffff168173ffffffffffffffffffffffffffffffffffffffff161480610d1657506000809054906101000a900473ffffffffffffffffffffffffffffffffffffffff1673ffffffffffffffffffffffffffffffffffffffff168173ffffffffffffffffffffffffffffffffffffffff16145b1515610d2157600080fd5b6000600273__AddressSetLib_________________________631d4cf6c490916000604051602001526040518263ffffffff167c01000000000000000000000000000000000000000000000000000000000281526004018082815260200191505060206040518083038186803b1515610d9957600080fd5b6102c65a03f41515610daa57600080fd5b50505060405180519050141515610dc057600080fd5b600091505b8251821015610eb857600273__AddressSetLib_________________________631e40161690918585815181101515610dfa57fe5b906020019060200201516000604051602001526040518363ffffffff167c0100000000000000000000000000000000000000000000000000000000028152600401808381526020018273ffffffffffffffffffffffffffffffffffffffff1673ffffffffffffffffffffffffffffffffffffffff1681526020019250505060206040518083038186803b1515610e8f57600080fd5b6102c65a03f41515610ea057600080fd5b50505060405180519050508180600101925050610dc5565b505050565b6000809054906101000a900473ffffffffffffffffffffffffffffffffffffffff1673ffffffffffffffffffffffffffffffffffffffff163373ffffffffffffffffffffffffffffffffffffffff16141515610f1857600080fd5b8073ffffffffffffffffffffffffffffffffffffffff16ff5b6020604051908101604052806000815250905600a165627a7a72305820285a83e14c3b03bd426fa6c0863c74849201ae9506e69255a17939cbcfb60ec20029",
  "source": "pragma solidity ^0.4.17;\n\nimport \"./EventStoreLib.sol\";\nimport './Destructible.sol';\nimport \"./SetLib/AddressSet/AddressSetLib.sol\";\n\ncontract EventStore is Destructible {\n\n  using EventStoreLib for EventStoreLib.EsEventStorage;\n  using AddressSetLib for AddressSetLib.AddressSet;\n\n  EventStoreLib.EsEventStorage store;\n  AddressSetLib.AddressSet whitelist;\n\n  // Modifiers\n  modifier onlyWhitelist(address _caller) {\n    require(whitelist.contains(_caller));\n    _;\n  }\n\n  modifier onlyCreatorOrOwner(address _caller) {\n    require(_caller == this.owner() || _caller == owner);\n    _;\n  }\n\n  // Fallback Function\n  function () public payable { revert(); }\n\n  // Constuctor\n  function EventStore() public payable {\n    owner = tx.origin;\n  }\n\n  // Interface\n  function writeEvent(\n    bytes32 _eventType,\n    bytes1 _keyType,\n    bytes1 _valueType,\n    bytes32 _key,\n    bytes32 _value\n  ) public onlyWhitelist(msg.sender) returns (uint) {\n    return EventStoreLib.writeEvent(\n      store,\n      _eventType,\n      _keyType,\n      _valueType,\n      _key,\n      _value\n    );\n  }\n\n  function readEvent(uint _eventId) public view onlyWhitelist(msg.sender)\n    returns (\n      uint,\n      address,\n      uint,\n      bytes32,\n      bytes1,\n      bytes1,\n      bytes32,\n      bytes32\n    ) {\n    return EventStoreLib.readEvent(store, _eventId);\n  }\n\n  // Helper Functions\n  function setWhitelist(address[] _whitelist) public onlyCreatorOrOwner(msg.sender) {\n    require(whitelist.size() == 0);\n    for (uint index = 0; index < _whitelist.length; index++) {\n      whitelist.add(_whitelist[index]);\n    }\n  }\n\n  function getWhitelist() public view onlyCreatorOrOwner(msg.sender) returns(address[]) {\n    return whitelist.values;\n  }\n\n  function eventCount() public view returns (uint) {\n    return store.events.length;\n  }\n\n  // Events\n  event EsEvent(\n    uint Id,\n    address TxOrigin,\n    uint Created,\n\n    bytes32 EventType,\n\n    bytes1 KeyType,\n    bytes1 ValueType,\n\n    bytes32 Key,\n    bytes32 Value\n  );\n}\n",
  "sourcePath": "/Users/orie/OR13/transmute/packages/transmute-contracts/contracts/TransmuteFramework/EventStore.sol",
  "compiler": {
    "name": "solc",
    "version": "0.4.18+commit.9cf6e910.Emscripten.clang"
  },
  "schemaVersion": "1.0.1",
  "updatedAt": "2017-12-30T03:08:20.153Z"
}