{
  "contractName": "EventStore",
  "abi": [
    {
      "constant": false,
      "inputs": [
        {
          "name": "_eventType",
          "type": "bytes32"
        },
        {
          "name": "_keyType",
          "type": "bytes1"
        },
        {
          "name": "_valueType",
          "type": "bytes1"
        },
        {
          "name": "_key",
          "type": "bytes32"
        },
        {
          "name": "_value",
          "type": "bytes32"
        }
      ],
      "name": "writeEvent",
      "outputs": [
        {
          "name": "",
          "type": "uint256"
        }
      ],
      "payable": false,
      "stateMutability": "nonpayable",
      "type": "function"
    },
    {
      "constant": true,
      "inputs": [],
      "name": "eventCount",
      "outputs": [
        {
          "name": "",
          "type": "uint256"
        }
      ],
      "payable": false,
      "stateMutability": "view",
      "type": "function"
    },
    {
      "constant": false,
      "inputs": [],
      "name": "destroy",
      "outputs": [],
      "payable": false,
      "stateMutability": "nonpayable",
      "type": "function"
    },
    {
      "constant": true,
      "inputs": [],
      "name": "owner",
      "outputs": [
        {
          "name": "",
          "type": "address"
        }
      ],
      "payable": false,
      "stateMutability": "view",
      "type": "function"
    },
    {
      "constant": true,
      "inputs": [],
      "name": "creatorTxOrigin",
      "outputs": [
        {
          "name": "",
          "type": "address"
        }
      ],
      "payable": false,
      "stateMutability": "view",
      "type": "function"
    },
    {
      "constant": true,
      "inputs": [],
      "name": "getWhitelist",
      "outputs": [
        {
          "name": "",
          "type": "address[]"
        }
      ],
      "payable": false,
      "stateMutability": "view",
      "type": "function"
    },
    {
      "constant": true,
      "inputs": [
        {
          "name": "_eventId",
          "type": "uint256"
        }
      ],
      "name": "readEvent",
      "outputs": [
        {
          "name": "",
          "type": "uint256"
        },
        {
          "name": "",
          "type": "address"
        },
        {
          "name": "",
          "type": "uint256"
        },
        {
          "name": "",
          "type": "bytes32"
        },
        {
          "name": "",
          "type": "bytes1"
        },
        {
          "name": "",
          "type": "bytes1"
        },
        {
          "name": "",
          "type": "bytes32"
        },
        {
          "name": "",
          "type": "bytes32"
        }
      ],
      "payable": false,
      "stateMutability": "view",
      "type": "function"
    },
    {
      "constant": false,
      "inputs": [
        {
          "name": "newOwner",
          "type": "address"
        }
      ],
      "name": "transferOwnership",
      "outputs": [],
      "payable": false,
      "stateMutability": "nonpayable",
      "type": "function"
    },
    {
      "constant": false,
      "inputs": [
        {
          "name": "_whitelist",
          "type": "address[]"
        }
      ],
      "name": "setWhitelist",
      "outputs": [],
      "payable": false,
      "stateMutability": "nonpayable",
      "type": "function"
    },
    {
      "constant": false,
      "inputs": [
        {
          "name": "_recipient",
          "type": "address"
        }
      ],
      "name": "destroyAndSend",
      "outputs": [],
      "payable": false,
      "stateMutability": "nonpayable",
      "type": "function"
    },
    {
      "inputs": [],
      "payable": true,
      "stateMutability": "payable",
      "type": "constructor"
    },
    {
      "payable": true,
      "stateMutability": "payable",
      "type": "fallback"
    },
    {
      "anonymous": false,
      "inputs": [
        {
          "indexed": false,
          "name": "Id",
          "type": "uint256"
        },
        {
          "indexed": false,
          "name": "TxOrigin",
          "type": "address"
        },
        {
          "indexed": false,
          "name": "Created",
          "type": "uint256"
        },
        {
          "indexed": false,
          "name": "EventType",
          "type": "bytes32"
        },
        {
          "indexed": false,
          "name": "KeyType",
          "type": "bytes1"
        },
        {
          "indexed": false,
          "name": "ValueType",
          "type": "bytes1"
        },
        {
          "indexed": false,
          "name": "Key",
          "type": "bytes32"
        },
        {
          "indexed": false,
          "name": "Value",
          "type": "bytes32"
        }
      ],
      "name": "EsEvent",
      "type": "event"
    }
  ],
  "bytecode": "0x606060405233600560006101000a81548173ffffffffffffffffffffffffffffffffffffffff021916908373ffffffffffffffffffffffffffffffffffffffff16021790555032600460006101000a81548173ffffffffffffffffffffffffffffffffffffffff021916908373ffffffffffffffffffffffffffffffffffffffff16021790555061106b806100956000396000f3006060604052600436106100a4576000357c0100000000000000000000000000000000000000000000000000000000900463ffffffff16806335628b38146100a957806371be2e4a1461015457806383197ef01461017d5780638da5cb5b146101925780639efc9a8c146101e7578063d01f63f51461023c578063e1ba30a9146102a6578063f2fde38b146103da578063f421764814610413578063f5074f411461046d575b600080fd5b34156100b457600080fd5b61013e6004808035600019169060200190919080357effffffffffffffffffffffffffffffffffffffffffffffffffffffffffffff19169060200190919080357effffffffffffffffffffffffffffffffffffffffffffffffffffffffffffff191690602001909190803560001916906020019091908035600019169060200190919050506104a6565b6040518082815260200191505060405180910390f35b341561015f57600080fd5b61016761060a565b6040518082815260200191505060405180910390f35b341561018857600080fd5b610190610619565b005b341561019d57600080fd5b6101a56106b0565b604051808273ffffffffffffffffffffffffffffffffffffffff1673ffffffffffffffffffffffffffffffffffffffff16815260200191505060405180910390f35b34156101f257600080fd5b6101fa6106d6565b604051808273ffffffffffffffffffffffffffffffffffffffff1673ffffffffffffffffffffffffffffffffffffffff16815260200191505060405180910390f35b341561024757600080fd5b61024f6106fc565b6040518080602001828103825283818151815260200191508051906020019060200280838360005b83811015610292578082015181840152602081019050610277565b505050509050019250505060405180910390f35b34156102b157600080fd5b6102c76004808035906020019091905050610911565b604051808981526020018873ffffffffffffffffffffffffffffffffffffffff1673ffffffffffffffffffffffffffffffffffffffff1681526020018781526020018660001916600019168152602001857effffffffffffffffffffffffffffffffffffffffffffffffffffffffffffff19167effffffffffffffffffffffffffffffffffffffffffffffffffffffffffffff19168152602001847effffffffffffffffffffffffffffffffffffffffffffffffffffffffffffff19167effffffffffffffffffffffffffffffffffffffffffffffffffffffffffffff19168152602001836000191660001916815260200182600019166000191681526020019850505050505050505060405180910390f35b34156103e557600080fd5b610411600480803573ffffffffffffffffffffffffffffffffffffffff16906020019091905050610acd565b005b341561041e57600080fd5b61046b600480803590602001908201803590602001908080602002602001604051908101604052809392919081815260200183836020028082843782019150505050505091905050610bf4565b005b341561047857600080fd5b6104a4600480803573ffffffffffffffffffffffffffffffffffffffff16906020019091905050610fb6565b005b600073__EventStoreLib_________________________633bb64203600088888888886000604051602001526040518763ffffffff167c0100000000000000000000000000000000000000000000000000000000028152600401808781526020018660001916600019168152602001857effffffffffffffffffffffffffffffffffffffffffffffffffffffffffffff19167effffffffffffffffffffffffffffffffffffffffffffffffffffffffffffff19168152602001847effffffffffffffffffffffffffffffffffffffffffffffffffffffffffffff19167effffffffffffffffffffffffffffffffffffffffffffffffffffffffffffff1916815260200183600019166000191681526020018260001916600019168152602001965050505050505060206040518083038186803b15156105e457600080fd5b6102c65a03f415156105f557600080fd5b50505060405180519050905095945050505050565b60008060000180549050905090565b600560009054906101000a900473ffffffffffffffffffffffffffffffffffffffff1673ffffffffffffffffffffffffffffffffffffffff163373ffffffffffffffffffffffffffffffffffffffff1614151561067557600080fd5b600560009054906101000a900473ffffffffffffffffffffffffffffffffffffffff1673ffffffffffffffffffffffffffffffffffffffff16ff5b600560009054906101000a900473ffffffffffffffffffffffffffffffffffffffff1681565b600460009054906101000a900473ffffffffffffffffffffffffffffffffffffffff1681565b61070461102b565b333073ffffffffffffffffffffffffffffffffffffffff16638da5cb5b6000604051602001526040518163ffffffff167c0100000000000000000000000000000000000000000000000000000000028152600401602060405180830381600087803b151561077157600080fd5b6102c65a03f1151561078257600080fd5b5050506040518051905073ffffffffffffffffffffffffffffffffffffffff168173ffffffffffffffffffffffffffffffffffffffff16148061087657503073ffffffffffffffffffffffffffffffffffffffff16639efc9a8c6000604051602001526040518163ffffffff167c0100000000000000000000000000000000000000000000000000000000028152600401602060405180830381600087803b151561082c57600080fd5b6102c65a03f1151561083d57600080fd5b5050506040518051905073ffffffffffffffffffffffffffffffffffffffff168173ffffffffffffffffffffffffffffffffffffffff16145b151561088157600080fd5b600160000180548060200260200160405190810160405280929190818152602001828054801561090657602002820191906000526020600020905b8160009054906101000a900473ffffffffffffffffffffffffffffffffffffffff1673ffffffffffffffffffffffffffffffffffffffff16815260200190600101908083116108bc575b505050505091505090565b60008060008060008060008033600173__AddressSetLib_________________________63dc02e70d9091836000604051602001526040518363ffffffff167c0100000000000000000000000000000000000000000000000000000000028152600401808381526020018273ffffffffffffffffffffffffffffffffffffffff1673ffffffffffffffffffffffffffffffffffffffff1681526020019250505060206040518083038186803b15156109c857600080fd5b6102c65a03f415156109d957600080fd5b5050506040518051905015156109ee57600080fd5b73__EventStoreLib_________________________63a057fd5e60008c600060405161010001526040518363ffffffff167c010000000000000000000000000000000000000000000000000000000002815260040180838152602001828152602001925050506101006040518083038186803b1515610a6c57600080fd5b6102c65a03f41515610a7d57600080fd5b505050604051805190602001805190602001805190602001805190602001805190602001805190602001805190602001805190509850985098509850985098509850985050919395975091939597565b600073ffffffffffffffffffffffffffffffffffffffff168173ffffffffffffffffffffffffffffffffffffffff1614151515610b0957600080fd5b80600560006101000a81548173ffffffffffffffffffffffffffffffffffffffff021916908373ffffffffffffffffffffffffffffffffffffffff160217905550610bf07f45535f4f574e45520000000000000000000000000000000000000000000000007f53000000000000000000000000000000000000000000000000000000000000007f41000000000000000000000000000000000000000000000000000000000000007f61646472657373000000000000000000000000000000000000000000000000008573ffffffffffffffffffffffffffffffffffffffff166001026104a6565b5050565b6000333073ffffffffffffffffffffffffffffffffffffffff16638da5cb5b6000604051602001526040518163ffffffff167c0100000000000000000000000000000000000000000000000000000000028152600401602060405180830381600087803b1515610c6357600080fd5b6102c65a03f11515610c7457600080fd5b5050506040518051905073ffffffffffffffffffffffffffffffffffffffff168173ffffffffffffffffffffffffffffffffffffffff161480610d6857503073ffffffffffffffffffffffffffffffffffffffff16639efc9a8c6000604051602001526040518163ffffffff167c0100000000000000000000000000000000000000000000000000000000028152600401602060405180830381600087803b1515610d1e57600080fd5b6102c65a03f11515610d2f57600080fd5b5050506040518051905073ffffffffffffffffffffffffffffffffffffffff168173ffffffffffffffffffffffffffffffffffffffff16145b1515610d7357600080fd5b6000600173__AddressSetLib_________________________631d4cf6c490916000604051602001526040518263ffffffff167c01000000000000000000000000000000000000000000000000000000000281526004018082815260200191505060206040518083038186803b1515610deb57600080fd5b6102c65a03f41515610dfc57600080fd5b50505060405180519050141515610e1257600080fd5b600091505b8251821015610f0a57600173__AddressSetLib_________________________631e40161690918585815181101515610e4c57fe5b906020019060200201516000604051602001526040518363ffffffff167c0100000000000000000000000000000000000000000000000000000000028152600401808381526020018273ffffffffffffffffffffffffffffffffffffffff1673ffffffffffffffffffffffffffffffffffffffff1681526020019250505060206040518083038186803b1515610ee157600080fd5b6102c65a03f41515610ef257600080fd5b50505060405180519050508180600101925050610e17565b610fb07f45535f574c5f53455400000000000000000000000000000000000000000000007f53000000000000000000000000000000000000000000000000000000000000007f41000000000000000000000000000000000000000000000000000000000000007f61646472657373000000000000000000000000000000000000000000000000003373ffffffffffffffffffffffffffffffffffffffff166001026104a6565b50505050565b600560009054906101000a900473ffffffffffffffffffffffffffffffffffffffff1673ffffffffffffffffffffffffffffffffffffffff163373ffffffffffffffffffffffffffffffffffffffff1614151561101257600080fd5b8073ffffffffffffffffffffffffffffffffffffffff16ff5b6020604051908101604052806000815250905600a165627a7a72305820cab631aa284d01978efeee275fe465ef09d8411917ce2b04914ec1a7824f1d4c0029",
  "source": "pragma solidity ^0.4.17;\n\nimport \"./EventStoreLib.sol\";\nimport \"./SetLib/AddressSet/AddressSetLib.sol\";\n\n// never inhertitence\ncontract EventStore {\n\n  using EventStoreLib for EventStoreLib.EsEventStorage;\n  using AddressSetLib for AddressSetLib.AddressSet;\n\n  EventStoreLib.EsEventStorage store;\n  AddressSetLib.AddressSet whitelist;\n\n  address public creatorTxOrigin;\n  address public owner;\n\n  // Fallback Function\n  function () public payable { revert(); }\n\n  // Constuctor\n  function EventStore() public payable {\n    owner = msg.sender;\n    creatorTxOrigin = tx.origin;\n  }\n  \n  /**\n   * @dev Throws if called by any account other than the owner.\n   */\n  modifier onlyOwner() {\n    require(msg.sender == owner);\n    _;\n  }\n\n   // Modifiers\n  modifier onlyWhitelist(address _caller) {\n    require(whitelist.contains(_caller));\n    _;\n  }\n\n  modifier onlyCreatorOrOwner(address _caller) {\n    require(_caller == this.owner() || _caller == this.creatorTxOrigin());\n    _;\n  }\n\n  modifier onlyWhitelistOrOwner(address _caller) {\n    require(whitelist.contains(_caller) || _caller == this.owner() || _caller == this.creatorTxOrigin());\n    _;\n  }\n\n  /**\n   * @dev Allows the current owner to transfer control of the contract to a newOwner.\n   * @param newOwner The address to transfer ownership to.\n   */\n  function transferOwnership(address newOwner) public {\n    require(newOwner != address(0));\n    owner = newOwner;\n    writeEvent(\"ES_OWNER\", \"S\", \"A\", \"address\", bytes32(address(newOwner)));\n  }\n\n   /**\n   * @dev Transfers the current balance to the owner and terminates the contract.\n   */\n  function destroy() onlyOwner public {\n    selfdestruct(owner);\n  }\n\n  function destroyAndSend(address _recipient) onlyOwner public {\n    selfdestruct(_recipient);\n  }\n\n  // Interface\n  function writeEvent(\n    bytes32 _eventType,\n    bytes1 _keyType,\n    bytes1 _valueType,\n    bytes32 _key,\n    bytes32 _value\n  ) public returns (uint) {\n    return EventStoreLib.writeEvent(\n      store,\n      _eventType,\n      _keyType,\n      _valueType,\n      _key,\n      _value\n    );\n  }\n\n  function readEvent(uint _eventId) public view onlyWhitelist(msg.sender)\n    returns (\n      uint,\n      address,\n      uint,\n      bytes32,\n      bytes1,\n      bytes1,\n      bytes32,\n      bytes32\n    ) {\n    return EventStoreLib.readEvent(store, _eventId);\n  }\n\n  // Helper Functions\n  function setWhitelist(address[] _whitelist) public onlyCreatorOrOwner(msg.sender) {\n    require(whitelist.size() == 0);\n    for (uint index = 0; index < _whitelist.length; index++) {\n      whitelist.add(_whitelist[index]);\n    }\n    writeEvent(\"ES_WL_SET\", \"S\", \"A\", \"address\", bytes32(address(msg.sender)));\n  }\n\n  function getWhitelist() public view onlyCreatorOrOwner(msg.sender) returns(address[]) {\n    return whitelist.values;\n  }\n\n  function eventCount() public view returns (uint) {\n    return store.events.length;\n  }\n\n  // Events\n  event EsEvent(\n    uint Id,\n    address TxOrigin,\n    uint Created,\n\n    bytes32 EventType,\n\n    bytes1 KeyType,\n    bytes1 ValueType,\n\n    bytes32 Key,\n    bytes32 Value\n  );\n}\n",
  "sourcePath": "/Users/orie/OR13/transmute/packages/transmute-contracts/contracts/TransmuteFramework/EventStore.sol",
  "compiler": {
    "name": "solc",
    "version": "0.4.18+commit.9cf6e910.Emscripten.clang"
  },
  "schemaVersion": "1.0.1",
  "updatedAt": "2017-12-30T20:06:56.684Z"
}