{
  "contractName": "RBACEventStore",
  "abi": [
    {
      "constant": true,
      "inputs": [
        {
          "name": "target",
          "type": "address"
        }
      ],
      "name": "getAddressRole",
      "outputs": [
        {
          "name": "",
          "type": "bytes32"
        }
      ],
      "payable": false,
      "stateMutability": "view",
      "type": "function"
    },
    {
      "constant": false,
      "inputs": [
        {
          "name": "_eventType",
          "type": "bytes32"
        },
        {
          "name": "_keyType",
          "type": "bytes1"
        },
        {
          "name": "_valueType",
          "type": "bytes1"
        },
        {
          "name": "_key",
          "type": "bytes32"
        },
        {
          "name": "_value",
          "type": "bytes32"
        }
      ],
      "name": "writeEvent",
      "outputs": [
        {
          "name": "",
          "type": "uint256"
        }
      ],
      "payable": false,
      "stateMutability": "nonpayable",
      "type": "function"
    },
    {
      "constant": true,
      "inputs": [],
      "name": "eventCount",
      "outputs": [
        {
          "name": "",
          "type": "uint256"
        }
      ],
      "payable": false,
      "stateMutability": "view",
      "type": "function"
    },
    {
      "constant": false,
      "inputs": [
        {
          "name": "role",
          "type": "bytes32"
        },
        {
          "name": "resource",
          "type": "bytes32"
        },
        {
          "name": "action",
          "type": "bytes32"
        },
        {
          "name": "attributes",
          "type": "bytes32[]"
        }
      ],
      "name": "setGrant",
      "outputs": [],
      "payable": false,
      "stateMutability": "nonpayable",
      "type": "function"
    },
    {
      "constant": true,
      "inputs": [
        {
          "name": "role",
          "type": "bytes32"
        },
        {
          "name": "action",
          "type": "bytes32"
        },
        {
          "name": "resource",
          "type": "bytes32"
        }
      ],
      "name": "canRoleActionResource",
      "outputs": [
        {
          "name": "granted",
          "type": "bool"
        },
        {
          "name": "_role",
          "type": "bytes32"
        },
        {
          "name": "_resource",
          "type": "bytes32"
        }
      ],
      "payable": false,
      "stateMutability": "view",
      "type": "function"
    },
    {
      "constant": false,
      "inputs": [],
      "name": "destroy",
      "outputs": [],
      "payable": false,
      "stateMutability": "nonpayable",
      "type": "function"
    },
    {
      "constant": true,
      "inputs": [],
      "name": "owner",
      "outputs": [
        {
          "name": "",
          "type": "address"
        }
      ],
      "payable": false,
      "stateMutability": "view",
      "type": "function"
    },
    {
      "constant": true,
      "inputs": [
        {
          "name": "index",
          "type": "uint256"
        }
      ],
      "name": "getGrant",
      "outputs": [
        {
          "name": "role",
          "type": "bytes32"
        },
        {
          "name": "resource",
          "type": "bytes32"
        },
        {
          "name": "action",
          "type": "bytes32"
        },
        {
          "name": "attributes",
          "type": "bytes32[]"
        }
      ],
      "payable": false,
      "stateMutability": "view",
      "type": "function"
    },
    {
      "constant": true,
      "inputs": [],
      "name": "grantCount",
      "outputs": [
        {
          "name": "",
          "type": "uint256"
        }
      ],
      "payable": false,
      "stateMutability": "view",
      "type": "function"
    },
    {
      "constant": false,
      "inputs": [
        {
          "name": "target",
          "type": "address"
        },
        {
          "name": "role",
          "type": "bytes32"
        }
      ],
      "name": "setAddressRole",
      "outputs": [],
      "payable": false,
      "stateMutability": "nonpayable",
      "type": "function"
    },
    {
      "constant": true,
      "inputs": [
        {
          "name": "_eventId",
          "type": "uint256"
        }
      ],
      "name": "readEvent",
      "outputs": [
        {
          "name": "",
          "type": "uint256"
        },
        {
          "name": "",
          "type": "address"
        },
        {
          "name": "",
          "type": "uint256"
        },
        {
          "name": "",
          "type": "bytes32"
        },
        {
          "name": "",
          "type": "bytes1"
        },
        {
          "name": "",
          "type": "bytes1"
        },
        {
          "name": "",
          "type": "bytes32"
        },
        {
          "name": "",
          "type": "bytes32"
        }
      ],
      "payable": false,
      "stateMutability": "view",
      "type": "function"
    },
    {
      "constant": false,
      "inputs": [
        {
          "name": "newOwner",
          "type": "address"
        }
      ],
      "name": "transferOwnership",
      "outputs": [],
      "payable": false,
      "stateMutability": "nonpayable",
      "type": "function"
    },
    {
      "constant": false,
      "inputs": [
        {
          "name": "_recipient",
          "type": "address"
        }
      ],
      "name": "destroyAndSend",
      "outputs": [],
      "payable": false,
      "stateMutability": "nonpayable",
      "type": "function"
    },
    {
      "inputs": [],
      "payable": true,
      "stateMutability": "payable",
      "type": "constructor"
    },
    {
      "payable": true,
      "stateMutability": "payable",
      "type": "fallback"
    },
    {
      "anonymous": false,
      "inputs": [
        {
          "indexed": false,
          "name": "Id",
          "type": "uint256"
        },
        {
          "indexed": false,
          "name": "TxOrigin",
          "type": "address"
        },
        {
          "indexed": false,
          "name": "Created",
          "type": "uint256"
        },
        {
          "indexed": false,
          "name": "EventType",
          "type": "bytes32"
        },
        {
          "indexed": false,
          "name": "KeyType",
          "type": "bytes1"
        },
        {
          "indexed": false,
          "name": "ValueType",
          "type": "bytes1"
        },
        {
          "indexed": false,
          "name": "Key",
          "type": "bytes32"
        },
        {
          "indexed": false,
          "name": "Value",
          "type": "bytes32"
        }
      ],
      "name": "EsEvent",
      "type": "event"
    },
    {
      "anonymous": false,
      "inputs": [
        {
          "indexed": false,
          "name": "role",
          "type": "bytes32"
        },
        {
          "indexed": false,
          "name": "resource",
          "type": "bytes32"
        },
        {
          "indexed": false,
          "name": "action",
          "type": "bytes32"
        },
        {
          "indexed": false,
          "name": "attributes",
          "type": "bytes32[]"
        }
      ],
      "name": "GrantEvent",
      "type": "event"
    },
    {
      "anonymous": false,
      "inputs": [
        {
          "indexed": true,
          "name": "previousOwner",
          "type": "address"
        },
        {
          "indexed": true,
          "name": "newOwner",
          "type": "address"
        }
      ],
      "name": "OwnershipTransferred",
      "type": "event"
    }
  ],
  "bytecode": "0x6060604052336000806101000a81548173ffffffffffffffffffffffffffffffffffffffff021916908373ffffffffffffffffffffffffffffffffffffffff160217905550600373__Bytes32SetLib_________________________6363d4d33590917f41435f524f4c455f41535349474e4544000000000000000000000000000000006000604051602001526040518363ffffffff167c01000000000000000000000000000000000000000000000000000000000281526004018083815260200182600019166000191681526020019250505060206040518083038186803b15156100ea57600080fd5b6102c65a03f415156100fb57600080fd5b5050506040518051905050600373__Bytes32SetLib_________________________6363d4d33590917f41435f4752414e545f5752495454454e000000000000000000000000000000006000604051602001526040518363ffffffff167c01000000000000000000000000000000000000000000000000000000000281526004018083815260200182600019166000191681526020019250505060206040518083038186803b15156101ac57600080fd5b6102c65a03f415156101bd57600080fd5b5050506040518051905050326000806101000a81548173ffffffffffffffffffffffffffffffffffffffff021916908373ffffffffffffffffffffffffffffffffffffffff16021790555061188d806102176000396000f3006060604052600436106100c5576000357c0100000000000000000000000000000000000000000000000000000000900463ffffffff1680630577a595146100ca57806335628b381461011f57806371be2e4a146101ca5780637e4f395c146101f35780637e7d387f1461027457806383197ef0146102eb5780638da5cb5b14610300578063b8cc6c9314610355578063cab42672146103fa578063d1ac2c2014610423578063e1ba30a914610469578063f2fde38b1461059d578063f5074f41146105d6575b600080fd5b34156100d557600080fd5b610101600480803573ffffffffffffffffffffffffffffffffffffffff1690602001909190505061060f565b60405180826000191660001916815260200191505060405180910390f35b341561012a57600080fd5b6101b46004808035600019169060200190919080357effffffffffffffffffffffffffffffffffffffffffffffffffffffffffffff19169060200190919080357effffffffffffffffffffffffffffffffffffffffffffffffffffffffffffff191690602001909190803560001916906020019091908035600019169060200190919050506106e9565b6040518082815260200191505060405180910390f35b34156101d557600080fd5b6101dd610911565b6040518082815260200191505060405180910390f35b34156101fe57600080fd5b610272600480803560001916906020019091908035600019169060200190919080356000191690602001909190803590602001908201803590602001908080602002602001604051908101604052809392919081815260200183836020028082843782019150505050505091905050610921565b005b341561027f57600080fd5b6102b36004808035600019169060200190919080356000191690602001909190803560001916906020019091905050610f6e565b604051808415151515815260200183600019166000191681526020018260001916600019168152602001935050505060405180910390f35b34156102f657600080fd5b6102fe610fea565b005b341561030b57600080fd5b61031361107f565b604051808273ffffffffffffffffffffffffffffffffffffffff1673ffffffffffffffffffffffffffffffffffffffff16815260200191505060405180910390f35b341561036057600080fd5b61037660048080359060200190919050506110a4565b6040518085600019166000191681526020018460001916600019168152602001836000191660001916815260200180602001828103825283818151815260200191508051906020019060200280838360005b838110156103e35780820151818401526020810190506103c8565b505050509050019550505050505060405180910390f35b341561040557600080fd5b61040d61119d565b6040518082815260200191505060405180910390f35b341561042e57600080fd5b610467600480803573ffffffffffffffffffffffffffffffffffffffff16906020019091908035600019169060200190919050506111aa565b005b341561047457600080fd5b61048a60048080359060200190919050506112d8565b604051808981526020018873ffffffffffffffffffffffffffffffffffffffff1673ffffffffffffffffffffffffffffffffffffffff1681526020018781526020018660001916600019168152602001857effffffffffffffffffffffffffffffffffffffffffffffffffffffffffffff19167effffffffffffffffffffffffffffffffffffffffffffffffffffffffffffff19168152602001847effffffffffffffffffffffffffffffffffffffffffffffffffffffffffffff19167effffffffffffffffffffffffffffffffffffffffffffffffffffffffffffff19168152602001836000191660001916815260200182600019166000191681526020019850505050505050505060405180910390f35b34156105a857600080fd5b6105d4600480803573ffffffffffffffffffffffffffffffffffffffff169060200190919050506113c2565b005b34156105e157600080fd5b61060d600480803573ffffffffffffffffffffffffffffffffffffffff16906020019091905050611517565b005b60008060009054906101000a900473ffffffffffffffffffffffffffffffffffffffff1673ffffffffffffffffffffffffffffffffffffffff163373ffffffffffffffffffffffffffffffffffffffff16148061069757508173ffffffffffffffffffffffffffffffffffffffff163373ffffffffffffffffffffffffffffffffffffffff16145b15156106a257600080fd5b600660008373ffffffffffffffffffffffffffffffffffffffff1673ffffffffffffffffffffffffffffffffffffffff168152602001908152602001600020549050919050565b60008060006106f73361060f565b9150610744827f6372656174653a616e79000000000000000000000000000000000000000000007f6576656e74000000000000000000000000000000000000000000000000000000610f6e565b505090506000809054906101000a900473ffffffffffffffffffffffffffffffffffffffff1673ffffffffffffffffffffffffffffffffffffffff163373ffffffffffffffffffffffffffffffffffffffff16141580156107a3575080155b156107ad57600080fd5b73__EventStoreLib_________________________633bb6420360018a8a8a8a8a6000604051602001526040518763ffffffff167c0100000000000000000000000000000000000000000000000000000000028152600401808781526020018660001916600019168152602001857effffffffffffffffffffffffffffffffffffffffffffffffffffffffffffff19167effffffffffffffffffffffffffffffffffffffffffffffffffffffffffffff19168152602001847effffffffffffffffffffffffffffffffffffffffffffffffffffffffffffff19167effffffffffffffffffffffffffffffffffffffffffffffffffffffffffffff1916815260200183600019166000191681526020018260001916600019168152602001965050505050505060206040518083038186803b15156108e957600080fd5b6102c65a03f415156108fa57600080fd5b505050604051805190509250505095945050505050565b6000600160000180549050905090565b6109296116ef565b83836000806000807f6772616e74000000000000000000000000000000000000000000000000000000866000191614156109b9576000809054906101000a900473ffffffffffffffffffffffffffffffffffffffff1673ffffffffffffffffffffffffffffffffffffffff163373ffffffffffffffffffffffffffffffffffffffff161415156109b857600080fd5b5b6000809054906101000a900473ffffffffffffffffffffffffffffffffffffffff1673ffffffffffffffffffffffffffffffffffffffff163373ffffffffffffffffffffffffffffffffffffffff161415610c88578a876000019060001916908160001916815250508987602001906000191690816000191681525050888760400190600019169081600019168152505087876060018190525060028054806001018281610a679190611727565b916000526020600020906004020160008990919091506000820151816000019060001916905560208201518160010190600019169055604082015181600201906000191690556060820151816003019080519060200190610ac9929190611759565b505050507f02266b19b7dc2c60e47fd601ca798e7e7cc9e6ec65f1d26a77b1bb93885508af8b8b8b8b6040518085600019166000191681526020018460001916600019168152602001836000191660001916815260200180602001828103825283818151815260200191508051906020019060200280838360005b83811015610b5f578082015181840152602081019050610b44565b505050509050019550505050505060405180910390a1600088511415600760008d8c8e60405180846000191660001916815260200183600019166000191681526020018260001916600019168152602001935050505060405180910390206000191660001916815260200190815260200160002060006101000a81548160ff021916908315150217905550610c827f41435f4752414e545f5752495454454e000000000000000000000000000000007f53000000000000000000000000000000000000000000000000000000000000007f55000000000000000000000000000000000000000000000000000000000000007f696e64657800000000000000000000000000000000000000000000000000000060016002805490500360010261158b565b50610f61565b600660003373ffffffffffffffffffffffffffffffffffffffff1673ffffffffffffffffffffffffffffffffffffffff168152602001908152602001600020549350610cd5848688610f6e565b9250925092508215610f5b578a876000019060001916908160001916815250508987602001906000191690816000191681525050888760400190600019169081600019168152505087876060018190525060028054806001018281610d3a9190611727565b916000526020600020906004020160008990919091506000820151816000019060001916905560208201518160010190600019169055604082015181600201906000191690556060820151816003019080519060200190610d9c929190611759565b505050507f02266b19b7dc2c60e47fd601ca798e7e7cc9e6ec65f1d26a77b1bb93885508af8b8b8b8b6040518085600019166000191681526020018460001916600019168152602001836000191660001916815260200180602001828103825283818151815260200191508051906020019060200280838360005b83811015610e32578082015181840152602081019050610e17565b505050509050019550505050505060405180910390a1600088511415600760008d8c8e60405180846000191660001916815260200183600019166000191681526020018260001916600019168152602001935050505060405180910390206000191660001916815260200190815260200160002060006101000a81548160ff021916908315150217905550610f557f41435f4752414e545f5752495454454e000000000000000000000000000000007f53000000000000000000000000000000000000000000000000000000000000007f55000000000000000000000000000000000000000000000000000000000000007f696e64657800000000000000000000000000000000000000000000000000000060016002805490500360010261158b565b50610f60565b600080fd5b5b5050505050505050505050565b60008060006007600087878760405180846000191660001916815260200183600019166000191681526020018260001916600019168152602001935050505060405180910390206000191660001916815260200190815260200160002060009054906101000a900460ff16925085915083905093509350939050565b6000809054906101000a900473ffffffffffffffffffffffffffffffffffffffff1673ffffffffffffffffffffffffffffffffffffffff163373ffffffffffffffffffffffffffffffffffffffff1614151561104557600080fd5b6000809054906101000a900473ffffffffffffffffffffffffffffffffffffffff1673ffffffffffffffffffffffffffffffffffffffff16ff5b6000809054906101000a900473ffffffffffffffffffffffffffffffffffffffff1681565b60008060006110b16117ac565b6110b96116ef565b6002868154811015156110c857fe5b9060005260206000209060040201608060405190810160405290816000820154600019166000191681526020016001820154600019166000191681526020016002820154600019166000191681526020016003820180548060200260200160405190810160405280929190818152602001828054801561116b57602002820191906000526020600020905b81546000191681526020019060010190808311611153575b505050505081525050905080600001518160200151826040015183606001518090509450945094509450509193509193565b6000600280549050905090565b6000809054906101000a900473ffffffffffffffffffffffffffffffffffffffff1673ffffffffffffffffffffffffffffffffffffffff163373ffffffffffffffffffffffffffffffffffffffff1614151561120557600080fd5b80600660008473ffffffffffffffffffffffffffffffffffffffff1673ffffffffffffffffffffffffffffffffffffffff16815260200190815260200160002081600019169055506112d37f41435f524f4c455f41535349474e4544000000000000000000000000000000007f41000000000000000000000000000000000000000000000000000000000000007f53000000000000000000000000000000000000000000000000000000000000008573ffffffffffffffffffffffffffffffffffffffff166001028561158b565b505050565b60008060008060008060008073__EventStoreLib_________________________63a057fd5e60018b600060405161010001526040518363ffffffff167c010000000000000000000000000000000000000000000000000000000002815260040180838152602001828152602001925050506101006040518083038186803b151561136257600080fd5b6102c65a03f4151561137357600080fd5b5050506040518051906020018051906020018051906020018051906020018051906020018051906020018051906020018051905097509750975097509750975097509750919395975091939597565b6000809054906101000a900473ffffffffffffffffffffffffffffffffffffffff1673ffffffffffffffffffffffffffffffffffffffff163373ffffffffffffffffffffffffffffffffffffffff1614151561141d57600080fd5b600073ffffffffffffffffffffffffffffffffffffffff168173ffffffffffffffffffffffffffffffffffffffff161415151561145957600080fd5b8073ffffffffffffffffffffffffffffffffffffffff166000809054906101000a900473ffffffffffffffffffffffffffffffffffffffff1673ffffffffffffffffffffffffffffffffffffffff167f8be0079c531659141344cd1fd0a4f28419497f9722a3daafe3b4186f6b6457e060405160405180910390a3806000806101000a81548173ffffffffffffffffffffffffffffffffffffffff021916908373ffffffffffffffffffffffffffffffffffffffff16021790555050565b6000809054906101000a900473ffffffffffffffffffffffffffffffffffffffff1673ffffffffffffffffffffffffffffffffffffffff163373ffffffffffffffffffffffffffffffffffffffff1614151561157257600080fd5b8073ffffffffffffffffffffffffffffffffffffffff16ff5b600073__EventStoreLib_________________________633bb64203600188888888886000604051602001526040518763ffffffff167c0100000000000000000000000000000000000000000000000000000000028152600401808781526020018660001916600019168152602001857effffffffffffffffffffffffffffffffffffffffffffffffffffffffffffff19167effffffffffffffffffffffffffffffffffffffffffffffffffffffffffffff19168152602001847effffffffffffffffffffffffffffffffffffffffffffffffffffffffffffff19167effffffffffffffffffffffffffffffffffffffffffffffffffffffffffffff1916815260200183600019166000191681526020018260001916600019168152602001965050505050505060206040518083038186803b15156116c957600080fd5b6102c65a03f415156116da57600080fd5b50505060405180519050905095945050505050565b6080604051908101604052806000801916815260200160008019168152602001600080191681526020016117216117c0565b81525090565b8154818355818115116117545760040281600402836000526020600020918201910161175391906117d4565b5b505050565b82805482825590600052602060002090810192821561179b579160200282015b8281111561179a578251829060001916905591602001919060010190611779565b5b5090506117a8919061181b565b5090565b602060405190810160405280600081525090565b602060405190810160405280600081525090565b61181891905b80821115611814576000808201600090556001820160009055600282016000905560038201600061180b9190611840565b506004016117da565b5090565b90565b61183d91905b80821115611839576000816000905550600101611821565b5090565b90565b508054600082559060005260206000209081019061185e919061181b565b505600a165627a7a72305820399ee93e811ef63edb4c45f6f96fa362b4ecb06c2e1ba2046fb5503cd93313220029",
  "deployedBytecode": "0x6060604052600436106100c5576000357c0100000000000000000000000000000000000000000000000000000000900463ffffffff1680630577a595146100ca57806335628b381461011f57806371be2e4a146101ca5780637e4f395c146101f35780637e7d387f1461027457806383197ef0146102eb5780638da5cb5b14610300578063b8cc6c9314610355578063cab42672146103fa578063d1ac2c2014610423578063e1ba30a914610469578063f2fde38b1461059d578063f5074f41146105d6575b600080fd5b34156100d557600080fd5b610101600480803573ffffffffffffffffffffffffffffffffffffffff1690602001909190505061060f565b60405180826000191660001916815260200191505060405180910390f35b341561012a57600080fd5b6101b46004808035600019169060200190919080357effffffffffffffffffffffffffffffffffffffffffffffffffffffffffffff19169060200190919080357effffffffffffffffffffffffffffffffffffffffffffffffffffffffffffff191690602001909190803560001916906020019091908035600019169060200190919050506106e9565b6040518082815260200191505060405180910390f35b34156101d557600080fd5b6101dd610911565b6040518082815260200191505060405180910390f35b34156101fe57600080fd5b610272600480803560001916906020019091908035600019169060200190919080356000191690602001909190803590602001908201803590602001908080602002602001604051908101604052809392919081815260200183836020028082843782019150505050505091905050610921565b005b341561027f57600080fd5b6102b36004808035600019169060200190919080356000191690602001909190803560001916906020019091905050610f6e565b604051808415151515815260200183600019166000191681526020018260001916600019168152602001935050505060405180910390f35b34156102f657600080fd5b6102fe610fea565b005b341561030b57600080fd5b61031361107f565b604051808273ffffffffffffffffffffffffffffffffffffffff1673ffffffffffffffffffffffffffffffffffffffff16815260200191505060405180910390f35b341561036057600080fd5b61037660048080359060200190919050506110a4565b6040518085600019166000191681526020018460001916600019168152602001836000191660001916815260200180602001828103825283818151815260200191508051906020019060200280838360005b838110156103e35780820151818401526020810190506103c8565b505050509050019550505050505060405180910390f35b341561040557600080fd5b61040d61119d565b6040518082815260200191505060405180910390f35b341561042e57600080fd5b610467600480803573ffffffffffffffffffffffffffffffffffffffff16906020019091908035600019169060200190919050506111aa565b005b341561047457600080fd5b61048a60048080359060200190919050506112d8565b604051808981526020018873ffffffffffffffffffffffffffffffffffffffff1673ffffffffffffffffffffffffffffffffffffffff1681526020018781526020018660001916600019168152602001857effffffffffffffffffffffffffffffffffffffffffffffffffffffffffffff19167effffffffffffffffffffffffffffffffffffffffffffffffffffffffffffff19168152602001847effffffffffffffffffffffffffffffffffffffffffffffffffffffffffffff19167effffffffffffffffffffffffffffffffffffffffffffffffffffffffffffff19168152602001836000191660001916815260200182600019166000191681526020019850505050505050505060405180910390f35b34156105a857600080fd5b6105d4600480803573ffffffffffffffffffffffffffffffffffffffff169060200190919050506113c2565b005b34156105e157600080fd5b61060d600480803573ffffffffffffffffffffffffffffffffffffffff16906020019091905050611517565b005b60008060009054906101000a900473ffffffffffffffffffffffffffffffffffffffff1673ffffffffffffffffffffffffffffffffffffffff163373ffffffffffffffffffffffffffffffffffffffff16148061069757508173ffffffffffffffffffffffffffffffffffffffff163373ffffffffffffffffffffffffffffffffffffffff16145b15156106a257600080fd5b600660008373ffffffffffffffffffffffffffffffffffffffff1673ffffffffffffffffffffffffffffffffffffffff168152602001908152602001600020549050919050565b60008060006106f73361060f565b9150610744827f6372656174653a616e79000000000000000000000000000000000000000000007f6576656e74000000000000000000000000000000000000000000000000000000610f6e565b505090506000809054906101000a900473ffffffffffffffffffffffffffffffffffffffff1673ffffffffffffffffffffffffffffffffffffffff163373ffffffffffffffffffffffffffffffffffffffff16141580156107a3575080155b156107ad57600080fd5b73__EventStoreLib_________________________633bb6420360018a8a8a8a8a6000604051602001526040518763ffffffff167c0100000000000000000000000000000000000000000000000000000000028152600401808781526020018660001916600019168152602001857effffffffffffffffffffffffffffffffffffffffffffffffffffffffffffff19167effffffffffffffffffffffffffffffffffffffffffffffffffffffffffffff19168152602001847effffffffffffffffffffffffffffffffffffffffffffffffffffffffffffff19167effffffffffffffffffffffffffffffffffffffffffffffffffffffffffffff1916815260200183600019166000191681526020018260001916600019168152602001965050505050505060206040518083038186803b15156108e957600080fd5b6102c65a03f415156108fa57600080fd5b505050604051805190509250505095945050505050565b6000600160000180549050905090565b6109296116ef565b83836000806000807f6772616e74000000000000000000000000000000000000000000000000000000866000191614156109b9576000809054906101000a900473ffffffffffffffffffffffffffffffffffffffff1673ffffffffffffffffffffffffffffffffffffffff163373ffffffffffffffffffffffffffffffffffffffff161415156109b857600080fd5b5b6000809054906101000a900473ffffffffffffffffffffffffffffffffffffffff1673ffffffffffffffffffffffffffffffffffffffff163373ffffffffffffffffffffffffffffffffffffffff161415610c88578a876000019060001916908160001916815250508987602001906000191690816000191681525050888760400190600019169081600019168152505087876060018190525060028054806001018281610a679190611727565b916000526020600020906004020160008990919091506000820151816000019060001916905560208201518160010190600019169055604082015181600201906000191690556060820151816003019080519060200190610ac9929190611759565b505050507f02266b19b7dc2c60e47fd601ca798e7e7cc9e6ec65f1d26a77b1bb93885508af8b8b8b8b6040518085600019166000191681526020018460001916600019168152602001836000191660001916815260200180602001828103825283818151815260200191508051906020019060200280838360005b83811015610b5f578082015181840152602081019050610b44565b505050509050019550505050505060405180910390a1600088511415600760008d8c8e60405180846000191660001916815260200183600019166000191681526020018260001916600019168152602001935050505060405180910390206000191660001916815260200190815260200160002060006101000a81548160ff021916908315150217905550610c827f41435f4752414e545f5752495454454e000000000000000000000000000000007f53000000000000000000000000000000000000000000000000000000000000007f55000000000000000000000000000000000000000000000000000000000000007f696e64657800000000000000000000000000000000000000000000000000000060016002805490500360010261158b565b50610f61565b600660003373ffffffffffffffffffffffffffffffffffffffff1673ffffffffffffffffffffffffffffffffffffffff168152602001908152602001600020549350610cd5848688610f6e565b9250925092508215610f5b578a876000019060001916908160001916815250508987602001906000191690816000191681525050888760400190600019169081600019168152505087876060018190525060028054806001018281610d3a9190611727565b916000526020600020906004020160008990919091506000820151816000019060001916905560208201518160010190600019169055604082015181600201906000191690556060820151816003019080519060200190610d9c929190611759565b505050507f02266b19b7dc2c60e47fd601ca798e7e7cc9e6ec65f1d26a77b1bb93885508af8b8b8b8b6040518085600019166000191681526020018460001916600019168152602001836000191660001916815260200180602001828103825283818151815260200191508051906020019060200280838360005b83811015610e32578082015181840152602081019050610e17565b505050509050019550505050505060405180910390a1600088511415600760008d8c8e60405180846000191660001916815260200183600019166000191681526020018260001916600019168152602001935050505060405180910390206000191660001916815260200190815260200160002060006101000a81548160ff021916908315150217905550610f557f41435f4752414e545f5752495454454e000000000000000000000000000000007f53000000000000000000000000000000000000000000000000000000000000007f55000000000000000000000000000000000000000000000000000000000000007f696e64657800000000000000000000000000000000000000000000000000000060016002805490500360010261158b565b50610f60565b600080fd5b5b5050505050505050505050565b60008060006007600087878760405180846000191660001916815260200183600019166000191681526020018260001916600019168152602001935050505060405180910390206000191660001916815260200190815260200160002060009054906101000a900460ff16925085915083905093509350939050565b6000809054906101000a900473ffffffffffffffffffffffffffffffffffffffff1673ffffffffffffffffffffffffffffffffffffffff163373ffffffffffffffffffffffffffffffffffffffff1614151561104557600080fd5b6000809054906101000a900473ffffffffffffffffffffffffffffffffffffffff1673ffffffffffffffffffffffffffffffffffffffff16ff5b6000809054906101000a900473ffffffffffffffffffffffffffffffffffffffff1681565b60008060006110b16117ac565b6110b96116ef565b6002868154811015156110c857fe5b9060005260206000209060040201608060405190810160405290816000820154600019166000191681526020016001820154600019166000191681526020016002820154600019166000191681526020016003820180548060200260200160405190810160405280929190818152602001828054801561116b57602002820191906000526020600020905b81546000191681526020019060010190808311611153575b505050505081525050905080600001518160200151826040015183606001518090509450945094509450509193509193565b6000600280549050905090565b6000809054906101000a900473ffffffffffffffffffffffffffffffffffffffff1673ffffffffffffffffffffffffffffffffffffffff163373ffffffffffffffffffffffffffffffffffffffff1614151561120557600080fd5b80600660008473ffffffffffffffffffffffffffffffffffffffff1673ffffffffffffffffffffffffffffffffffffffff16815260200190815260200160002081600019169055506112d37f41435f524f4c455f41535349474e4544000000000000000000000000000000007f41000000000000000000000000000000000000000000000000000000000000007f53000000000000000000000000000000000000000000000000000000000000008573ffffffffffffffffffffffffffffffffffffffff166001028561158b565b505050565b60008060008060008060008073__EventStoreLib_________________________63a057fd5e60018b600060405161010001526040518363ffffffff167c010000000000000000000000000000000000000000000000000000000002815260040180838152602001828152602001925050506101006040518083038186803b151561136257600080fd5b6102c65a03f4151561137357600080fd5b5050506040518051906020018051906020018051906020018051906020018051906020018051906020018051906020018051905097509750975097509750975097509750919395975091939597565b6000809054906101000a900473ffffffffffffffffffffffffffffffffffffffff1673ffffffffffffffffffffffffffffffffffffffff163373ffffffffffffffffffffffffffffffffffffffff1614151561141d57600080fd5b600073ffffffffffffffffffffffffffffffffffffffff168173ffffffffffffffffffffffffffffffffffffffff161415151561145957600080fd5b8073ffffffffffffffffffffffffffffffffffffffff166000809054906101000a900473ffffffffffffffffffffffffffffffffffffffff1673ffffffffffffffffffffffffffffffffffffffff167f8be0079c531659141344cd1fd0a4f28419497f9722a3daafe3b4186f6b6457e060405160405180910390a3806000806101000a81548173ffffffffffffffffffffffffffffffffffffffff021916908373ffffffffffffffffffffffffffffffffffffffff16021790555050565b6000809054906101000a900473ffffffffffffffffffffffffffffffffffffffff1673ffffffffffffffffffffffffffffffffffffffff163373ffffffffffffffffffffffffffffffffffffffff1614151561157257600080fd5b8073ffffffffffffffffffffffffffffffffffffffff16ff5b600073__EventStoreLib_________________________633bb64203600188888888886000604051602001526040518763ffffffff167c0100000000000000000000000000000000000000000000000000000000028152600401808781526020018660001916600019168152602001857effffffffffffffffffffffffffffffffffffffffffffffffffffffffffffff19167effffffffffffffffffffffffffffffffffffffffffffffffffffffffffffff19168152602001847effffffffffffffffffffffffffffffffffffffffffffffffffffffffffffff19167effffffffffffffffffffffffffffffffffffffffffffffffffffffffffffff1916815260200183600019166000191681526020018260001916600019168152602001965050505050505060206040518083038186803b15156116c957600080fd5b6102c65a03f415156116da57600080fd5b50505060405180519050905095945050505050565b6080604051908101604052806000801916815260200160008019168152602001600080191681526020016117216117c0565b81525090565b8154818355818115116117545760040281600402836000526020600020918201910161175391906117d4565b5b505050565b82805482825590600052602060002090810192821561179b579160200282015b8281111561179a578251829060001916905591602001919060010190611779565b5b5090506117a8919061181b565b5090565b602060405190810160405280600081525090565b602060405190810160405280600081525090565b61181891905b80821115611814576000808201600090556001820160009055600282016000905560038201600061180b9190611840565b506004016117da565b5090565b90565b61183d91905b80821115611839576000816000905550600101611821565b5090565b90565b508054600082559060005260206000209081019061185e919061181b565b505600a165627a7a72305820399ee93e811ef63edb4c45f6f96fa362b4ecb06c2e1ba2046fb5503cd93313220029",
  "source": "pragma solidity ^0.4.17;\n\nimport './Destructible.sol';\nimport './RBAC.sol';\n\ncontract RBACEventStore is RBAC {\n\n  // Fallback Function\n  function () public payable { revert(); }\n\n  // Constructor\n  function RBACEventStore() public payable {\n    owner = tx.origin;\n  }\n\n  // Interface\n  function writeEvent(\n    bytes32 _eventType,\n    bytes1 _keyType,\n    bytes1 _valueType,\n    bytes32 _key,\n    bytes32 _value\n  ) public returns (uint) {\n    bytes32 txOriginRole = getAddressRole(msg.sender);\n    var (granted,,) = canRoleActionResource(txOriginRole, bytes32(\"create:any\"), bytes32(\"event\"));\n\n    if (msg.sender != owner && !granted) {\n      revert();\n    }\n\n    return EventStoreLib.writeEvent(\n      store,\n      _eventType,\n      _keyType,\n      _valueType,\n      _key,\n      _value\n    );\n  }\n\n  function readEvent(uint _eventId) public view\n    returns (\n      uint,\n      address,\n      uint,\n      bytes32,\n      bytes1,\n      bytes1,\n      bytes32,\n      bytes32\n    ) {\n    return EventStoreLib.readEvent(store, _eventId);\n  }\n\n  // Helper Functions\n  function eventCount() public view returns (uint) {\n    return store.events.length;\n  }\n\n  // Events\n  event EsEvent(\n    uint Id,\n    address TxOrigin,\n    uint Created,\n\n    bytes32 EventType,\n\n    bytes1 KeyType,\n    bytes1 ValueType,\n\n    bytes32 Key,\n    bytes32 Value\n  );\n}\n",
  "sourcePath": "/Users/orie/OR13/transmute/packages/transmute-contracts/contracts/TransmuteFramework/RBACEventStore.sol",
  "compiler": {
    "name": "solc",
    "version": "0.4.18+commit.9cf6e910.Emscripten.clang"
  },
  "schemaVersion": "1.0.1",
  "updatedAt": "2017-12-30T20:06:56.677Z"
}