{
  "contractName": "RBAC",
  "abi": [
    {
      "constant": true,
      "inputs": [
        {
          "name": "target",
          "type": "address"
        }
      ],
      "name": "getAddressRole",
      "outputs": [
        {
          "name": "",
          "type": "bytes32"
        }
      ],
      "payable": false,
      "stateMutability": "view",
      "type": "function"
    },
    {
      "constant": true,
      "inputs": [],
      "name": "eventCount",
      "outputs": [
        {
          "name": "",
          "type": "uint256"
        }
      ],
      "payable": false,
      "stateMutability": "view",
      "type": "function"
    },
    {
      "constant": false,
      "inputs": [
        {
          "name": "role",
          "type": "bytes32"
        },
        {
          "name": "resource",
          "type": "bytes32"
        },
        {
          "name": "action",
          "type": "bytes32"
        },
        {
          "name": "attributes",
          "type": "bytes32[]"
        }
      ],
      "name": "setGrant",
      "outputs": [],
      "payable": false,
      "stateMutability": "nonpayable",
      "type": "function"
    },
    {
      "constant": true,
      "inputs": [
        {
          "name": "role",
          "type": "bytes32"
        },
        {
          "name": "action",
          "type": "bytes32"
        },
        {
          "name": "resource",
          "type": "bytes32"
        }
      ],
      "name": "canRoleActionResource",
      "outputs": [
        {
          "name": "granted",
          "type": "bool"
        },
        {
          "name": "_role",
          "type": "bytes32"
        },
        {
          "name": "_resource",
          "type": "bytes32"
        }
      ],
      "payable": false,
      "stateMutability": "view",
      "type": "function"
    },
    {
      "constant": false,
      "inputs": [],
      "name": "destroy",
      "outputs": [],
      "payable": false,
      "stateMutability": "nonpayable",
      "type": "function"
    },
    {
      "constant": true,
      "inputs": [],
      "name": "owner",
      "outputs": [
        {
          "name": "",
          "type": "address"
        }
      ],
      "payable": false,
      "stateMutability": "view",
      "type": "function"
    },
    {
      "constant": true,
      "inputs": [
        {
          "name": "index",
          "type": "uint256"
        }
      ],
      "name": "getGrant",
      "outputs": [
        {
          "name": "role",
          "type": "bytes32"
        },
        {
          "name": "resource",
          "type": "bytes32"
        },
        {
          "name": "action",
          "type": "bytes32"
        },
        {
          "name": "attributes",
          "type": "bytes32[]"
        }
      ],
      "payable": false,
      "stateMutability": "view",
      "type": "function"
    },
    {
      "constant": true,
      "inputs": [],
      "name": "grantCount",
      "outputs": [
        {
          "name": "",
          "type": "uint256"
        }
      ],
      "payable": false,
      "stateMutability": "view",
      "type": "function"
    },
    {
      "constant": false,
      "inputs": [
        {
          "name": "target",
          "type": "address"
        },
        {
          "name": "role",
          "type": "bytes32"
        }
      ],
      "name": "setAddressRole",
      "outputs": [],
      "payable": false,
      "stateMutability": "nonpayable",
      "type": "function"
    },
    {
      "constant": true,
      "inputs": [
        {
          "name": "_eventId",
          "type": "uint256"
        }
      ],
      "name": "readEvent",
      "outputs": [
        {
          "name": "",
          "type": "uint256"
        },
        {
          "name": "",
          "type": "address"
        },
        {
          "name": "",
          "type": "uint256"
        },
        {
          "name": "",
          "type": "bytes32"
        },
        {
          "name": "",
          "type": "bytes1"
        },
        {
          "name": "",
          "type": "bytes1"
        },
        {
          "name": "",
          "type": "bytes32"
        },
        {
          "name": "",
          "type": "bytes32"
        }
      ],
      "payable": false,
      "stateMutability": "view",
      "type": "function"
    },
    {
      "constant": false,
      "inputs": [
        {
          "name": "newOwner",
          "type": "address"
        }
      ],
      "name": "transferOwnership",
      "outputs": [],
      "payable": false,
      "stateMutability": "nonpayable",
      "type": "function"
    },
    {
      "constant": false,
      "inputs": [
        {
          "name": "_recipient",
          "type": "address"
        }
      ],
      "name": "destroyAndSend",
      "outputs": [],
      "payable": false,
      "stateMutability": "nonpayable",
      "type": "function"
    },
    {
      "inputs": [],
      "payable": true,
      "stateMutability": "payable",
      "type": "constructor"
    },
    {
      "payable": true,
      "stateMutability": "payable",
      "type": "fallback"
    },
    {
      "anonymous": false,
      "inputs": [
        {
          "indexed": false,
          "name": "Id",
          "type": "uint256"
        },
        {
          "indexed": false,
          "name": "TxOrigin",
          "type": "address"
        },
        {
          "indexed": false,
          "name": "Created",
          "type": "uint256"
        },
        {
          "indexed": false,
          "name": "EventType",
          "type": "bytes32"
        },
        {
          "indexed": false,
          "name": "KeyType",
          "type": "bytes1"
        },
        {
          "indexed": false,
          "name": "ValueType",
          "type": "bytes1"
        },
        {
          "indexed": false,
          "name": "Key",
          "type": "bytes32"
        },
        {
          "indexed": false,
          "name": "Value",
          "type": "bytes32"
        }
      ],
      "name": "EsEvent",
      "type": "event"
    },
    {
      "anonymous": false,
      "inputs": [
        {
          "indexed": false,
          "name": "role",
          "type": "bytes32"
        },
        {
          "indexed": false,
          "name": "resource",
          "type": "bytes32"
        },
        {
          "indexed": false,
          "name": "action",
          "type": "bytes32"
        },
        {
          "indexed": false,
          "name": "attributes",
          "type": "bytes32[]"
        }
      ],
      "name": "GrantEvent",
      "type": "event"
    },
    {
      "anonymous": false,
      "inputs": [
        {
          "indexed": true,
          "name": "previousOwner",
          "type": "address"
        },
        {
          "indexed": true,
          "name": "newOwner",
          "type": "address"
        }
      ],
      "name": "OwnershipTransferred",
      "type": "event"
    }
  ],
  "bytecode": "0x6060604052336000806101000a81548173ffffffffffffffffffffffffffffffffffffffff021916908373ffffffffffffffffffffffffffffffffffffffff160217905550600373__Bytes32SetLib_________________________6363d4d33590917f41435f524f4c455f41535349474e4544000000000000000000000000000000006000604051602001526040518363ffffffff167c01000000000000000000000000000000000000000000000000000000000281526004018083815260200182600019166000191681526020019250505060206040518083038186803b15156100ea57600080fd5b6102c65a03f415156100fb57600080fd5b5050506040518051905050600373__Bytes32SetLib_________________________6363d4d33590917f41435f4752414e545f5752495454454e000000000000000000000000000000006000604051602001526040518363ffffffff167c01000000000000000000000000000000000000000000000000000000000281526004018083815260200182600019166000191681526020019250505060206040518083038186803b15156101ac57600080fd5b6102c65a03f415156101bd57600080fd5b50505060405180519050506115af806101d76000396000f3006060604052600436106100ba576000357c0100000000000000000000000000000000000000000000000000000000900463ffffffff1680630577a595146100bf57806371be2e4a146101145780637e4f395c1461013d5780637e7d387f146101be57806383197ef0146102355780638da5cb5b1461024a578063b8cc6c931461029f578063cab4267214610344578063d1ac2c201461036d578063e1ba30a9146103b3578063f2fde38b146104e7578063f5074f4114610520575b600080fd5b34156100ca57600080fd5b6100f6600480803573ffffffffffffffffffffffffffffffffffffffff16906020019091905050610559565b60405180826000191660001916815260200191505060405180910390f35b341561011f57600080fd5b610127610633565b6040518082815260200191505060405180910390f35b341561014857600080fd5b6101bc600480803560001916906020019091908035600019169060200190919080356000191690602001909190803590602001908201803590602001908080602002602001604051908101604052809392919081815260200183836020028082843782019150505050505091905050610643565b005b34156101c957600080fd5b6101fd6004808035600019169060200190919080356000191690602001909190803560001916906020019091905050610c90565b604051808415151515815260200183600019166000191681526020018260001916600019168152602001935050505060405180910390f35b341561024057600080fd5b610248610d0c565b005b341561025557600080fd5b61025d610da1565b604051808273ffffffffffffffffffffffffffffffffffffffff1673ffffffffffffffffffffffffffffffffffffffff16815260200191505060405180910390f35b34156102aa57600080fd5b6102c06004808035906020019091905050610dc6565b6040518085600019166000191681526020018460001916600019168152602001836000191660001916815260200180602001828103825283818151815260200191508051906020019060200280838360005b8381101561032d578082015181840152602081019050610312565b505050509050019550505050505060405180910390f35b341561034f57600080fd5b610357610ebf565b6040518082815260200191505060405180910390f35b341561037857600080fd5b6103b1600480803573ffffffffffffffffffffffffffffffffffffffff1690602001909190803560001916906020019091905050610ecc565b005b34156103be57600080fd5b6103d46004808035906020019091905050610ffa565b604051808981526020018873ffffffffffffffffffffffffffffffffffffffff1673ffffffffffffffffffffffffffffffffffffffff1681526020018781526020018660001916600019168152602001857effffffffffffffffffffffffffffffffffffffffffffffffffffffffffffff19167effffffffffffffffffffffffffffffffffffffffffffffffffffffffffffff19168152602001847effffffffffffffffffffffffffffffffffffffffffffffffffffffffffffff19167effffffffffffffffffffffffffffffffffffffffffffffffffffffffffffff19168152602001836000191660001916815260200182600019166000191681526020019850505050505050505060405180910390f35b34156104f257600080fd5b61051e600480803573ffffffffffffffffffffffffffffffffffffffff169060200190919050506110e4565b005b341561052b57600080fd5b610557600480803573ffffffffffffffffffffffffffffffffffffffff16906020019091905050611239565b005b60008060009054906101000a900473ffffffffffffffffffffffffffffffffffffffff1673ffffffffffffffffffffffffffffffffffffffff163373ffffffffffffffffffffffffffffffffffffffff1614806105e157508173ffffffffffffffffffffffffffffffffffffffff163373ffffffffffffffffffffffffffffffffffffffff16145b15156105ec57600080fd5b600660008373ffffffffffffffffffffffffffffffffffffffff1673ffffffffffffffffffffffffffffffffffffffff168152602001908152602001600020549050919050565b6000600160000180549050905090565b61064b611411565b83836000806000807f6772616e74000000000000000000000000000000000000000000000000000000866000191614156106db576000809054906101000a900473ffffffffffffffffffffffffffffffffffffffff1673ffffffffffffffffffffffffffffffffffffffff163373ffffffffffffffffffffffffffffffffffffffff161415156106da57600080fd5b5b6000809054906101000a900473ffffffffffffffffffffffffffffffffffffffff1673ffffffffffffffffffffffffffffffffffffffff163373ffffffffffffffffffffffffffffffffffffffff1614156109aa578a8760000190600019169081600019168152505089876020019060001916908160001916815250508887604001906000191690816000191681525050878760600181905250600280548060010182816107899190611449565b9160005260206000209060040201600089909190915060008201518160000190600019169055602082015181600101906000191690556040820151816002019060001916905560608201518160030190805190602001906107eb92919061147b565b505050507f02266b19b7dc2c60e47fd601ca798e7e7cc9e6ec65f1d26a77b1bb93885508af8b8b8b8b6040518085600019166000191681526020018460001916600019168152602001836000191660001916815260200180602001828103825283818151815260200191508051906020019060200280838360005b83811015610881578082015181840152602081019050610866565b505050509050019550505050505060405180910390a1600088511415600760008d8c8e60405180846000191660001916815260200183600019166000191681526020018260001916600019168152602001935050505060405180910390206000191660001916815260200190815260200160002060006101000a81548160ff0219169083151502179055506109a47f41435f4752414e545f5752495454454e000000000000000000000000000000007f53000000000000000000000000000000000000000000000000000000000000007f55000000000000000000000000000000000000000000000000000000000000007f696e6465780000000000000000000000000000000000000000000000000000006001600280549050036001026112ad565b50610c83565b600660003373ffffffffffffffffffffffffffffffffffffffff1673ffffffffffffffffffffffffffffffffffffffff1681526020019081526020016000205493506109f7848688610c90565b9250925092508215610c7d578a876000019060001916908160001916815250508987602001906000191690816000191681525050888760400190600019169081600019168152505087876060018190525060028054806001018281610a5c9190611449565b916000526020600020906004020160008990919091506000820151816000019060001916905560208201518160010190600019169055604082015181600201906000191690556060820151816003019080519060200190610abe92919061147b565b505050507f02266b19b7dc2c60e47fd601ca798e7e7cc9e6ec65f1d26a77b1bb93885508af8b8b8b8b6040518085600019166000191681526020018460001916600019168152602001836000191660001916815260200180602001828103825283818151815260200191508051906020019060200280838360005b83811015610b54578082015181840152602081019050610b39565b505050509050019550505050505060405180910390a1600088511415600760008d8c8e60405180846000191660001916815260200183600019166000191681526020018260001916600019168152602001935050505060405180910390206000191660001916815260200190815260200160002060006101000a81548160ff021916908315150217905550610c777f41435f4752414e545f5752495454454e000000000000000000000000000000007f53000000000000000000000000000000000000000000000000000000000000007f55000000000000000000000000000000000000000000000000000000000000007f696e6465780000000000000000000000000000000000000000000000000000006001600280549050036001026112ad565b50610c82565b600080fd5b5b5050505050505050505050565b60008060006007600087878760405180846000191660001916815260200183600019166000191681526020018260001916600019168152602001935050505060405180910390206000191660001916815260200190815260200160002060009054906101000a900460ff16925085915083905093509350939050565b6000809054906101000a900473ffffffffffffffffffffffffffffffffffffffff1673ffffffffffffffffffffffffffffffffffffffff163373ffffffffffffffffffffffffffffffffffffffff16141515610d6757600080fd5b6000809054906101000a900473ffffffffffffffffffffffffffffffffffffffff1673ffffffffffffffffffffffffffffffffffffffff16ff5b6000809054906101000a900473ffffffffffffffffffffffffffffffffffffffff1681565b6000806000610dd36114ce565b610ddb611411565b600286815481101515610dea57fe5b90600052602060002090600402016080604051908101604052908160008201546000191660001916815260200160018201546000191660001916815260200160028201546000191660001916815260200160038201805480602002602001604051908101604052809291908181526020018280548015610e8d57602002820191906000526020600020905b81546000191681526020019060010190808311610e75575b505050505081525050905080600001518160200151826040015183606001518090509450945094509450509193509193565b6000600280549050905090565b6000809054906101000a900473ffffffffffffffffffffffffffffffffffffffff1673ffffffffffffffffffffffffffffffffffffffff163373ffffffffffffffffffffffffffffffffffffffff16141515610f2757600080fd5b80600660008473ffffffffffffffffffffffffffffffffffffffff1673ffffffffffffffffffffffffffffffffffffffff1681526020019081526020016000208160001916905550610ff57f41435f524f4c455f41535349474e4544000000000000000000000000000000007f41000000000000000000000000000000000000000000000000000000000000007f53000000000000000000000000000000000000000000000000000000000000008573ffffffffffffffffffffffffffffffffffffffff16600102856112ad565b505050565b60008060008060008060008073__EventStoreLib_________________________63a057fd5e60018b600060405161010001526040518363ffffffff167c010000000000000000000000000000000000000000000000000000000002815260040180838152602001828152602001925050506101006040518083038186803b151561108457600080fd5b6102c65a03f4151561109557600080fd5b5050506040518051906020018051906020018051906020018051906020018051906020018051906020018051906020018051905097509750975097509750975097509750919395975091939597565b6000809054906101000a900473ffffffffffffffffffffffffffffffffffffffff1673ffffffffffffffffffffffffffffffffffffffff163373ffffffffffffffffffffffffffffffffffffffff1614151561113f57600080fd5b600073ffffffffffffffffffffffffffffffffffffffff168173ffffffffffffffffffffffffffffffffffffffff161415151561117b57600080fd5b8073ffffffffffffffffffffffffffffffffffffffff166000809054906101000a900473ffffffffffffffffffffffffffffffffffffffff1673ffffffffffffffffffffffffffffffffffffffff167f8be0079c531659141344cd1fd0a4f28419497f9722a3daafe3b4186f6b6457e060405160405180910390a3806000806101000a81548173ffffffffffffffffffffffffffffffffffffffff021916908373ffffffffffffffffffffffffffffffffffffffff16021790555050565b6000809054906101000a900473ffffffffffffffffffffffffffffffffffffffff1673ffffffffffffffffffffffffffffffffffffffff163373ffffffffffffffffffffffffffffffffffffffff1614151561129457600080fd5b8073ffffffffffffffffffffffffffffffffffffffff16ff5b600073__EventStoreLib_________________________633bb64203600188888888886000604051602001526040518763ffffffff167c0100000000000000000000000000000000000000000000000000000000028152600401808781526020018660001916600019168152602001857effffffffffffffffffffffffffffffffffffffffffffffffffffffffffffff19167effffffffffffffffffffffffffffffffffffffffffffffffffffffffffffff19168152602001847effffffffffffffffffffffffffffffffffffffffffffffffffffffffffffff19167effffffffffffffffffffffffffffffffffffffffffffffffffffffffffffff1916815260200183600019166000191681526020018260001916600019168152602001965050505050505060206040518083038186803b15156113eb57600080fd5b6102c65a03f415156113fc57600080fd5b50505060405180519050905095945050505050565b6080604051908101604052806000801916815260200160008019168152602001600080191681526020016114436114e2565b81525090565b8154818355818115116114765760040281600402836000526020600020918201910161147591906114f6565b5b505050565b8280548282559060005260206000209081019282156114bd579160200282015b828111156114bc57825182906000191690559160200191906001019061149b565b5b5090506114ca919061153d565b5090565b602060405190810160405280600081525090565b602060405190810160405280600081525090565b61153a91905b80821115611536576000808201600090556001820160009055600282016000905560038201600061152d9190611562565b506004016114fc565b5090565b90565b61155f91905b8082111561155b576000816000905550600101611543565b5090565b90565b5080546000825590600052602060002090810190611580919061153d565b505600a165627a7a7230582097cc39c1fab2d558cf8ccabb35287202eb35ca2647dcc6bd3b6873b306ca89dd0029",
  "deployedBytecode": "0x6060604052600436106100ba576000357c0100000000000000000000000000000000000000000000000000000000900463ffffffff1680630577a595146100bf57806371be2e4a146101145780637e4f395c1461013d5780637e7d387f146101be57806383197ef0146102355780638da5cb5b1461024a578063b8cc6c931461029f578063cab4267214610344578063d1ac2c201461036d578063e1ba30a9146103b3578063f2fde38b146104e7578063f5074f4114610520575b600080fd5b34156100ca57600080fd5b6100f6600480803573ffffffffffffffffffffffffffffffffffffffff16906020019091905050610559565b60405180826000191660001916815260200191505060405180910390f35b341561011f57600080fd5b610127610633565b6040518082815260200191505060405180910390f35b341561014857600080fd5b6101bc600480803560001916906020019091908035600019169060200190919080356000191690602001909190803590602001908201803590602001908080602002602001604051908101604052809392919081815260200183836020028082843782019150505050505091905050610643565b005b34156101c957600080fd5b6101fd6004808035600019169060200190919080356000191690602001909190803560001916906020019091905050610c90565b604051808415151515815260200183600019166000191681526020018260001916600019168152602001935050505060405180910390f35b341561024057600080fd5b610248610d0c565b005b341561025557600080fd5b61025d610da1565b604051808273ffffffffffffffffffffffffffffffffffffffff1673ffffffffffffffffffffffffffffffffffffffff16815260200191505060405180910390f35b34156102aa57600080fd5b6102c06004808035906020019091905050610dc6565b6040518085600019166000191681526020018460001916600019168152602001836000191660001916815260200180602001828103825283818151815260200191508051906020019060200280838360005b8381101561032d578082015181840152602081019050610312565b505050509050019550505050505060405180910390f35b341561034f57600080fd5b610357610ebf565b6040518082815260200191505060405180910390f35b341561037857600080fd5b6103b1600480803573ffffffffffffffffffffffffffffffffffffffff1690602001909190803560001916906020019091905050610ecc565b005b34156103be57600080fd5b6103d46004808035906020019091905050610ffa565b604051808981526020018873ffffffffffffffffffffffffffffffffffffffff1673ffffffffffffffffffffffffffffffffffffffff1681526020018781526020018660001916600019168152602001857effffffffffffffffffffffffffffffffffffffffffffffffffffffffffffff19167effffffffffffffffffffffffffffffffffffffffffffffffffffffffffffff19168152602001847effffffffffffffffffffffffffffffffffffffffffffffffffffffffffffff19167effffffffffffffffffffffffffffffffffffffffffffffffffffffffffffff19168152602001836000191660001916815260200182600019166000191681526020019850505050505050505060405180910390f35b34156104f257600080fd5b61051e600480803573ffffffffffffffffffffffffffffffffffffffff169060200190919050506110e4565b005b341561052b57600080fd5b610557600480803573ffffffffffffffffffffffffffffffffffffffff16906020019091905050611239565b005b60008060009054906101000a900473ffffffffffffffffffffffffffffffffffffffff1673ffffffffffffffffffffffffffffffffffffffff163373ffffffffffffffffffffffffffffffffffffffff1614806105e157508173ffffffffffffffffffffffffffffffffffffffff163373ffffffffffffffffffffffffffffffffffffffff16145b15156105ec57600080fd5b600660008373ffffffffffffffffffffffffffffffffffffffff1673ffffffffffffffffffffffffffffffffffffffff168152602001908152602001600020549050919050565b6000600160000180549050905090565b61064b611411565b83836000806000807f6772616e74000000000000000000000000000000000000000000000000000000866000191614156106db576000809054906101000a900473ffffffffffffffffffffffffffffffffffffffff1673ffffffffffffffffffffffffffffffffffffffff163373ffffffffffffffffffffffffffffffffffffffff161415156106da57600080fd5b5b6000809054906101000a900473ffffffffffffffffffffffffffffffffffffffff1673ffffffffffffffffffffffffffffffffffffffff163373ffffffffffffffffffffffffffffffffffffffff1614156109aa578a8760000190600019169081600019168152505089876020019060001916908160001916815250508887604001906000191690816000191681525050878760600181905250600280548060010182816107899190611449565b9160005260206000209060040201600089909190915060008201518160000190600019169055602082015181600101906000191690556040820151816002019060001916905560608201518160030190805190602001906107eb92919061147b565b505050507f02266b19b7dc2c60e47fd601ca798e7e7cc9e6ec65f1d26a77b1bb93885508af8b8b8b8b6040518085600019166000191681526020018460001916600019168152602001836000191660001916815260200180602001828103825283818151815260200191508051906020019060200280838360005b83811015610881578082015181840152602081019050610866565b505050509050019550505050505060405180910390a1600088511415600760008d8c8e60405180846000191660001916815260200183600019166000191681526020018260001916600019168152602001935050505060405180910390206000191660001916815260200190815260200160002060006101000a81548160ff0219169083151502179055506109a47f41435f4752414e545f5752495454454e000000000000000000000000000000007f53000000000000000000000000000000000000000000000000000000000000007f55000000000000000000000000000000000000000000000000000000000000007f696e6465780000000000000000000000000000000000000000000000000000006001600280549050036001026112ad565b50610c83565b600660003373ffffffffffffffffffffffffffffffffffffffff1673ffffffffffffffffffffffffffffffffffffffff1681526020019081526020016000205493506109f7848688610c90565b9250925092508215610c7d578a876000019060001916908160001916815250508987602001906000191690816000191681525050888760400190600019169081600019168152505087876060018190525060028054806001018281610a5c9190611449565b916000526020600020906004020160008990919091506000820151816000019060001916905560208201518160010190600019169055604082015181600201906000191690556060820151816003019080519060200190610abe92919061147b565b505050507f02266b19b7dc2c60e47fd601ca798e7e7cc9e6ec65f1d26a77b1bb93885508af8b8b8b8b6040518085600019166000191681526020018460001916600019168152602001836000191660001916815260200180602001828103825283818151815260200191508051906020019060200280838360005b83811015610b54578082015181840152602081019050610b39565b505050509050019550505050505060405180910390a1600088511415600760008d8c8e60405180846000191660001916815260200183600019166000191681526020018260001916600019168152602001935050505060405180910390206000191660001916815260200190815260200160002060006101000a81548160ff021916908315150217905550610c777f41435f4752414e545f5752495454454e000000000000000000000000000000007f53000000000000000000000000000000000000000000000000000000000000007f55000000000000000000000000000000000000000000000000000000000000007f696e6465780000000000000000000000000000000000000000000000000000006001600280549050036001026112ad565b50610c82565b600080fd5b5b5050505050505050505050565b60008060006007600087878760405180846000191660001916815260200183600019166000191681526020018260001916600019168152602001935050505060405180910390206000191660001916815260200190815260200160002060009054906101000a900460ff16925085915083905093509350939050565b6000809054906101000a900473ffffffffffffffffffffffffffffffffffffffff1673ffffffffffffffffffffffffffffffffffffffff163373ffffffffffffffffffffffffffffffffffffffff16141515610d6757600080fd5b6000809054906101000a900473ffffffffffffffffffffffffffffffffffffffff1673ffffffffffffffffffffffffffffffffffffffff16ff5b6000809054906101000a900473ffffffffffffffffffffffffffffffffffffffff1681565b6000806000610dd36114ce565b610ddb611411565b600286815481101515610dea57fe5b90600052602060002090600402016080604051908101604052908160008201546000191660001916815260200160018201546000191660001916815260200160028201546000191660001916815260200160038201805480602002602001604051908101604052809291908181526020018280548015610e8d57602002820191906000526020600020905b81546000191681526020019060010190808311610e75575b505050505081525050905080600001518160200151826040015183606001518090509450945094509450509193509193565b6000600280549050905090565b6000809054906101000a900473ffffffffffffffffffffffffffffffffffffffff1673ffffffffffffffffffffffffffffffffffffffff163373ffffffffffffffffffffffffffffffffffffffff16141515610f2757600080fd5b80600660008473ffffffffffffffffffffffffffffffffffffffff1673ffffffffffffffffffffffffffffffffffffffff1681526020019081526020016000208160001916905550610ff57f41435f524f4c455f41535349474e4544000000000000000000000000000000007f41000000000000000000000000000000000000000000000000000000000000007f53000000000000000000000000000000000000000000000000000000000000008573ffffffffffffffffffffffffffffffffffffffff16600102856112ad565b505050565b60008060008060008060008073__EventStoreLib_________________________63a057fd5e60018b600060405161010001526040518363ffffffff167c010000000000000000000000000000000000000000000000000000000002815260040180838152602001828152602001925050506101006040518083038186803b151561108457600080fd5b6102c65a03f4151561109557600080fd5b5050506040518051906020018051906020018051906020018051906020018051906020018051906020018051906020018051905097509750975097509750975097509750919395975091939597565b6000809054906101000a900473ffffffffffffffffffffffffffffffffffffffff1673ffffffffffffffffffffffffffffffffffffffff163373ffffffffffffffffffffffffffffffffffffffff1614151561113f57600080fd5b600073ffffffffffffffffffffffffffffffffffffffff168173ffffffffffffffffffffffffffffffffffffffff161415151561117b57600080fd5b8073ffffffffffffffffffffffffffffffffffffffff166000809054906101000a900473ffffffffffffffffffffffffffffffffffffffff1673ffffffffffffffffffffffffffffffffffffffff167f8be0079c531659141344cd1fd0a4f28419497f9722a3daafe3b4186f6b6457e060405160405180910390a3806000806101000a81548173ffffffffffffffffffffffffffffffffffffffff021916908373ffffffffffffffffffffffffffffffffffffffff16021790555050565b6000809054906101000a900473ffffffffffffffffffffffffffffffffffffffff1673ffffffffffffffffffffffffffffffffffffffff163373ffffffffffffffffffffffffffffffffffffffff1614151561129457600080fd5b8073ffffffffffffffffffffffffffffffffffffffff16ff5b600073__EventStoreLib_________________________633bb64203600188888888886000604051602001526040518763ffffffff167c0100000000000000000000000000000000000000000000000000000000028152600401808781526020018660001916600019168152602001857effffffffffffffffffffffffffffffffffffffffffffffffffffffffffffff19167effffffffffffffffffffffffffffffffffffffffffffffffffffffffffffff19168152602001847effffffffffffffffffffffffffffffffffffffffffffffffffffffffffffff19167effffffffffffffffffffffffffffffffffffffffffffffffffffffffffffff1916815260200183600019166000191681526020018260001916600019168152602001965050505050505060206040518083038186803b15156113eb57600080fd5b6102c65a03f415156113fc57600080fd5b50505060405180519050905095945050505050565b6080604051908101604052806000801916815260200160008019168152602001600080191681526020016114436114e2565b81525090565b8154818355818115116114765760040281600402836000526020600020918201910161147591906114f6565b5b505050565b8280548282559060005260206000209081019282156114bd579160200282015b828111156114bc57825182906000191690559160200191906001019061149b565b5b5090506114ca919061153d565b5090565b602060405190810160405280600081525090565b602060405190810160405280600081525090565b61153a91905b80821115611536576000808201600090556001820160009055600282016000905560038201600061152d9190611562565b506004016114fc565b5090565b90565b61155f91905b8082111561155b576000816000905550600101611543565b5090565b90565b5080546000825590600052602060002090810190611580919061153d565b505600a165627a7a7230582097cc39c1fab2d558cf8ccabb35287202eb35ca2647dcc6bd3b6873b306ca89dd0029",
  "source": "pragma solidity ^0.4.17;\n\nimport \"./EventStoreLib.sol\";\nimport \"./SetLib/Bytes32Set/Bytes32SetLib.sol\";\nimport \"./Destructible.sol\";\n\ncontract RBAC is Destructible {\n\n  using Bytes32SetLib for Bytes32SetLib.Bytes32Set;\n  using EventStoreLib for EventStoreLib.EsEventStorage;\n\n  EventStoreLib.EsEventStorage store;\n\n  struct Grant {\n    bytes32 role;\n    bytes32 resource;\n    bytes32 action;\n    bytes32[] attributes;\n  }\n\n  Grant[] grants;\n\n  Bytes32SetLib.Bytes32Set internalEventTypes;\n\n  mapping(address => bytes32) addressRole;\n  mapping(bytes32 => bool) isHashOfRoleActionResourceGranted;\n\n  // Modifiers\n  modifier canSetGrant(bytes32 resource, bytes32 action) {\n    // only the owner can setGrants for the grant resource (no write up)\n    // just because an account can setGrants does not mean they can give that ability to others...\n    if (resource == \"grant\") {\n      require(msg.sender == owner);\n    }\n    if (msg.sender == owner) {\n      _;\n    } else {\n      bytes32 role = addressRole[msg.sender];\n      var (granted, _role, _resource) = canRoleActionResource(role, action, resource);\n      // DEBUG(granted);\n      if(granted){\n        _;\n      } else {\n        revert();\n      }\n    }\n    // revert();\n    // require(msg.sender == owner);\n    // _;\n  }\n\n  // Fallback Function\n  function () public payable { revert(); }\n\n  // Constructor\n  function RBAC() public payable {\n    internalEventTypes.add(bytes32(\"AC_ROLE_ASSIGNED\"));\n    internalEventTypes.add(bytes32(\"AC_GRANT_WRITTEN\"));\n  }\n\n  function setAddressRole(address target, bytes32 role) public onlyOwner {\n    addressRole[target] = role;\n    writeInternalEvent(\"AC_ROLE_ASSIGNED\", \"A\", \"S\", bytes32(target), role);\n  }\n\n  function getAddressRole(address target) public view returns (bytes32) {\n    // if not the owner or the requesting address, do not return the role for the given address\n    // EVENT SOURCING DESTOYS THIS PRIVACY\n    // IS IT OK THAT ANY ADDRESS ROLE CAN BE KNOWN?\n    require(msg.sender == owner || msg.sender == target);\n    return addressRole[target];\n  }\n\n  function setGrant(\n    bytes32 role,\n    bytes32 resource,\n    bytes32 action,\n    bytes32[] attributes\n  ) public canSetGrant(resource, action) {\n    Grant memory grant;\n    grant.role = role;\n    grant.resource = resource;\n    grant.action = action;\n    grant.attributes = attributes;\n\n    grants.push(grant);\n    GrantEvent(role, resource, action, attributes);\n    isHashOfRoleActionResourceGranted[keccak256(role, action, resource)] = attributes.length != 0;\n    writeInternalEvent(\"AC_GRANT_WRITTEN\", \"S\", \"U\", \"index\", bytes32(grants.length-1));\n  }\n\n  function getGrant(uint index) public view returns (\n    bytes32 role,\n    bytes32 resource,\n    bytes32 action,\n    bytes32[] attributes\n  ) {\n    Grant memory grant = grants[index];\n    return (grant.role, grant.resource, grant.action, grant.attributes);\n  }\n\n  // Helper Functions\n\n  // The client interprets attributes = granted ? [\"*\"] : []\n  // so no need to return a bytes32 array here...\n  function canRoleActionResource(\n    bytes32 role,\n    bytes32 action,\n    bytes32 resource\n  ) public view returns (\n    bool granted,\n    bytes32 _role,\n    bytes32 _resource\n  ) {\n    granted = isHashOfRoleActionResourceGranted[keccak256(role, action, resource)];\n    _role = role;\n    _resource = resource;\n  }\n\n  function grantCount() public view returns (uint) {\n    return grants.length;\n  }\n\n  function writeInternalEvent(\n    bytes32 _eventType,\n    bytes1 _keyType,\n    bytes1 _valueType,\n    bytes32 _key,\n    bytes32 _value\n  ) internal returns (uint) {\n    return EventStoreLib.writeEvent(\n      store,\n      _eventType,\n      _keyType,\n      _valueType,\n      _key,\n      _value\n    );\n  }\n\n  function eventCount() public view returns (uint) {\n    return store.events.length;\n  }\n\n  function readEvent(uint _eventId) public view returns (\n    uint,\n    address,\n    uint,\n    bytes32,\n    bytes1,\n    bytes1,\n    bytes32,\n    bytes32\n  ) {\n    return EventStoreLib.readEvent(store, _eventId);\n  }\n\n  // Events\n  event EsEvent(\n    uint Id,\n    address TxOrigin,\n    uint Created,\n\n    bytes32 EventType,\n\n    bytes1 KeyType,\n    bytes1 ValueType,\n\n    bytes32 Key,\n    bytes32 Value\n  );\n\n  event GrantEvent (\n    bytes32 role,\n    bytes32 resource,\n    bytes32 action,\n    bytes32[] attributes\n  );\n\n}\n",
  "sourcePath": "/Users/orie/OR13/transmute/packages/transmute-contracts/contracts/TransmuteFramework/RBAC.sol",
  "compiler": {
    "name": "solc",
    "version": "0.4.18+commit.9cf6e910.Emscripten.clang"
  },
  "schemaVersion": "1.0.1",
  "updatedAt": "2017-12-30T03:08:20.145Z"
}