{
  "contractName": "StringUtils",
  "abi": [
    {
      "constant": true,
      "inputs": [
        {
          "name": "v",
          "type": "bytes32"
        }
      ],
      "name": "bytesToUInt",
      "outputs": [
        {
          "name": "ret",
          "type": "uint256"
        }
      ],
      "payable": false,
      "stateMutability": "pure",
      "type": "function"
    },
    {
      "constant": true,
      "inputs": [
        {
          "name": "v",
          "type": "uint256"
        }
      ],
      "name": "uintToBytes",
      "outputs": [
        {
          "name": "ret",
          "type": "bytes32"
        }
      ],
      "payable": false,
      "stateMutability": "pure",
      "type": "function"
    }
  ],
  "bytecode": "0x6060604052341561000f57600080fd5b6102218061001e6000396000f30060606040526004361061004c576000357c0100000000000000000000000000000000000000000000000000000000900463ffffffff16806381a33a6f1461005157806394e8767d14610081575b600080fd5b61006b6004808035600019169060200190919050506100b5565b6040518082815260200191505060405180910390f35b610097600480803590602001909190505061014c565b60405180826000191660001916815260200191505060405180910390f35b6000806000806001028460001916141515156100d057600080fd5b600090505b60208110156101425760ff81601f0360080260020a85600190048115156100f857fe5b04169150600082141561010a57610142565b6030821015801561011c575060398211155b151561012757600080fd5b600a83029250603082038301925080806001019150506100d5565b8292505050919050565b60008082141561017e577f300000000000000000000000000000000000000000000000000000000000000090506101ed565b5b60008211156101ec57610100816001900481151561019957fe5b0460010290507f01000000000000000000000000000000000000000000000000000000000000006030600a848115156101ce57fe5b06010260010281179050600a828115156101e457fe5b04915061017f565b5b8090509190505600a165627a7a72305820a9f59d5eafa9ab08724a41171aea3cf0089dc2e596554e576a8f944bac655f3f0029",
  "source": "pragma solidity ^0.4.17;\n// String Utils v0.1\n\n/// @title String Utils - String utility functions\n/// @author Piper Merriam - <pipermerriam@gmail.com>\nlibrary StringUtils {\n  /// @dev Converts an unsigned integer to its string representation.\n  /// @param v The number to be converted.\n  function uintToBytes(uint v) public pure\n    returns (bytes32 ret) {\n    if (v == 0) {\n      ret = '0';\n    }\n    else {\n      while (v > 0) {\n        ret = bytes32(uint(ret) / (2 ** 8));\n        ret |= bytes32(((v % 10) + 48) * 2 ** (8 * 31));\n        v /= 10;\n      }\n    }\n    return ret;\n  }\n\n  /// @dev Converts a numeric string to its unsigned integer representation.\n  /// @param v The string to be converted.\n  function bytesToUInt(bytes32 v) public pure\n    returns (uint ret) {\n    require(v != 0x0);\n\n    uint digit;\n\n    for (uint i = 0; i < 32; i++) {\n      digit = uint((uint(v) / (2 ** (8 * (31 - i)))) & 0xff);\n      if (digit == 0) {\n        break;\n      }\n      require(digit >= 48 && digit <= 57);\n      ret *= 10;\n      ret += (digit - 48);\n    }\n    return ret;\n  }\n}\n",
  "sourcePath": "/Users/orie/OR13/transmute/packages/transmute-contracts/contracts/TransmuteFramework/StringUtils.sol",
  "compiler": {
    "name": "solc",
    "version": "0.4.18+commit.9cf6e910.Emscripten.clang"
  },
  "schemaVersion": "1.0.1",
  "updatedAt": "2017-12-30T23:13:55.479Z"
}