{
  "contractName": "UIntSetLib",
  "abi": [
    {
      "constant": false,
      "inputs": [
        {
          "name": "self",
          "type": "UIntSetLib.UIntSet storage"
        },
        {
          "name": "old",
          "type": "uint256"
        },
        {
          "name": "nu",
          "type": "uint256"
        }
      ],
      "name": "replace",
      "outputs": [
        {
          "name": "",
          "type": "bool"
        }
      ],
      "payable": false,
      "stateMutability": "nonpayable",
      "type": "function"
    },
    {
      "constant": false,
      "inputs": [
        {
          "name": "self",
          "type": "UIntSetLib.UIntSet storage"
        },
        {
          "name": "value",
          "type": "uint256"
        }
      ],
      "name": "add",
      "outputs": [
        {
          "name": "",
          "type": "bool"
        }
      ],
      "payable": false,
      "stateMutability": "nonpayable",
      "type": "function"
    },
    {
      "constant": true,
      "inputs": [
        {
          "name": "self",
          "type": "UIntSetLib.UIntSet storage"
        },
        {
          "name": "value",
          "type": "uint256"
        }
      ],
      "name": "indexOf",
      "outputs": [
        {
          "name": "",
          "type": "uint256"
        }
      ],
      "payable": false,
      "stateMutability": "view",
      "type": "function"
    },
    {
      "constant": false,
      "inputs": [
        {
          "name": "self",
          "type": "UIntSetLib.UIntSet storage"
        },
        {
          "name": "value",
          "type": "uint256"
        }
      ],
      "name": "remove",
      "outputs": [
        {
          "name": "",
          "type": "bool"
        }
      ],
      "payable": false,
      "stateMutability": "nonpayable",
      "type": "function"
    },
    {
      "constant": true,
      "inputs": [
        {
          "name": "self",
          "type": "UIntSetLib.UIntSet storage"
        },
        {
          "name": "value",
          "type": "uint256"
        }
      ],
      "name": "contains",
      "outputs": [
        {
          "name": "",
          "type": "bool"
        }
      ],
      "payable": false,
      "stateMutability": "view",
      "type": "function"
    },
    {
      "constant": true,
      "inputs": [
        {
          "name": "self",
          "type": "UIntSetLib.UIntSet storage"
        }
      ],
      "name": "size",
      "outputs": [
        {
          "name": "",
          "type": "uint256"
        }
      ],
      "payable": false,
      "stateMutability": "view",
      "type": "function"
    },
    {
      "constant": true,
      "inputs": [
        {
          "name": "self",
          "type": "UIntSetLib.UIntSet storage"
        },
        {
          "name": "index",
          "type": "uint256"
        }
      ],
      "name": "get",
      "outputs": [
        {
          "name": "",
          "type": "uint256"
        }
      ],
      "payable": false,
      "stateMutability": "view",
      "type": "function"
    },
    {
      "constant": true,
      "inputs": [
        {
          "name": "self",
          "type": "UIntSetLib.UIntSet storage"
        }
      ],
      "name": "last",
      "outputs": [
        {
          "name": "",
          "type": "uint256"
        }
      ],
      "payable": false,
      "stateMutability": "view",
      "type": "function"
    },
    {
      "constant": false,
      "inputs": [
        {
          "name": "self",
          "type": "UIntSetLib.UIntSet storage"
        },
        {
          "name": "index",
          "type": "uint256"
        }
      ],
      "name": "pop",
      "outputs": [
        {
          "name": "",
          "type": "uint256"
        }
      ],
      "payable": false,
      "stateMutability": "nonpayable",
      "type": "function"
    },
    {
      "constant": true,
      "inputs": [
        {
          "name": "self",
          "type": "UIntSetLib.UIntSet storage"
        }
      ],
      "name": "first",
      "outputs": [
        {
          "name": "",
          "type": "uint256"
        }
      ],
      "payable": false,
      "stateMutability": "view",
      "type": "function"
    },
    {
      "constant": false,
      "inputs": [
        {
          "name": "self",
          "type": "UIntSetLib.UIntSet storage"
        },
        {
          "name": "index",
          "type": "uint256"
        },
        {
          "name": "value",
          "type": "uint256"
        }
      ],
      "name": "set",
      "outputs": [
        {
          "name": "",
          "type": "bool"
        }
      ],
      "payable": false,
      "stateMutability": "nonpayable",
      "type": "function"
    }
  ],
  "bytecode": "0x6060604052341561000f57600080fd5b6107d78061001e6000396000f3006060604052600436106100af576000357c0100000000000000000000000000000000000000000000000000000000900463ffffffff1680630529a92a146100b457806348d8aa13146100f657806353b42b591461012f5780636bebc35a146101645780637f562d881461019d578063a69be3d7146101d6578063c25ce2c114610202578063cce5114414610237578063d5f9475814610263578063e1ef740514610298578063f9c4ccd8146102c4575b600080fd5b6100dc6004808035906020019091908035906020019091908035906020019091905050610306565b604051808215151515815260200191505060405180910390f35b610115600480803590602001909190803590602001909190505061032d565b604051808215151515815260200191505060405180910390f35b61014e60048080359060200190919080359060200190919050506103e5565b6040518082815260200191505060405180910390f35b6101836004808035906020019091908035906020019091905050610433565b604051808215151515815260200191505060405180910390f35b6101bc600480803590602001909190803590602001909190505061048b565b604051808215151515815260200191505060405180910390f35b6101ec60048080359060200190919050506104b8565b6040518082815260200191505060405180910390f35b61022160048080359060200190919080359060200190919050506104c9565b6040518082815260200191505060405180910390f35b61024d6004808035906020019091905050610509565b6040518082815260200191505060405180910390f35b610282600480803590602001909190803590602001909190505061053f565b6040518082815260200191505060405180910390f35b6102ae6004808035906020019091905050610640565b6040518082815260200191505060405180910390f35b6102ec600480803590602001909190803590602001909190803590602001909190505061066d565b604051808215151515815260200191505060405180910390f35b60006103128484610433565b80156103245750610323848361032d565b5b90509392505050565b600082600101600083815260200190815260200160002060009054906101000a900460ff161561036057600090506103df565b826000018054905083600201600084815260200190815260200160002081905550826000018054806001018281610397919061072e565b916000526020600020900160008490919091505550600183600101600084815260200190815260200160002060006101000a81548160ff021916908315150217905550600190505b92915050565b600082600101600083815260200190815260200160002060009054906101000a900460ff16151561041557600080fd5b82600201600083815260200190815260200160002054905092915050565b60008083600101600084815260200190815260200160002060009054906101000a900460ff1615156104685760009150610484565b61047284846103e5565b905061047e848261053f565b50600191505b5092915050565b600082600101600083815260200190815260200160002060009054906101000a900460ff16905092915050565b600081600001805490509050919050565b600082828160000180549050811015156104e257600080fd5b84600001848154811015156104f357fe5b9060005260206000209001549250505092915050565b600081600081600001805490501415151561052357600080fd5b6105378360018560000180549050036104c9565b915050919050565b6000806000848481600001805490508110151561055b57600080fd5b61056587876104c9565b93506001876000018054905003861415156105da5761058387610509565b9250600087600101600085815260200190815260200160002060006101000a81548160ff0219169083151502179055506105be87878561066d565b5085876002016000858152602001908152602001600020819055505b600187600001818180549050039150816105f4919061075a565b508660020160008581526020019081526020016000206000905586600101600085815260200190815260200160002060006101000a81549060ff02191690558394505050505092915050565b600081600081600001805490501415151561065a57600080fd5b6106658360006104c9565b915050919050565b6000838381600001805490508110151561068657600080fd5b85600101600085815260200190815260200160002060009054906101000a900460ff16156106b75760009250610725565b8386600001868154811015156106c957fe5b906000526020600020900181905550600186600101600086815260200190815260200160002060006101000a81548160ff0219169083151502179055508486600201600086815260200190815260200160002081905550600192505b50509392505050565b815481835581811511610755578183600052602060002091820191016107549190610786565b5b505050565b815481835581811511610781578183600052602060002091820191016107809190610786565b5b505050565b6107a891905b808211156107a457600081600090555060010161078c565b5090565b905600a165627a7a72305820381d03e34f059c5098d92ce6aba93b49faaf2a5e8e3bd216a34a1f3c83ab09ee0029",
  "source": "pragma solidity ^0.4.17;\n\n/// @title Library implementing an array type which allows O(1) lookups on values.\n/// @author Piper Merriam <pipermerriam@gmail.com>, Eric Olszewski <eolszewski@gmail.com>\n/// Adapted from https://github.com/ethpm/ethereum-indexed-enumerable-set-lib/blob/master/contracts/IndexedEnumerableSetLib.sol\nlibrary UIntSetLib {\n\n  struct UIntSet {\n    uint[] values;\n    mapping(uint => bool) exists;\n    mapping(uint => uint) indices;\n  }\n\n  modifier inBounds(UIntSet storage self, uint index) {\n    require(index < self.values.length);\n    _;\n  }\n\n  modifier notEmpty(UIntSet storage self) {\n    require(self.values.length != 0);\n    _;\n  }\n\n  function get(UIntSet storage self, uint index) public view inBounds(self, index) returns (uint) {\n    return self.values[index];\n  }\n\n  function set(UIntSet storage self, uint index, uint value) public inBounds(self, index) returns (bool) {\n    if (self.exists[value])\n      return false;\n    self.values[index] = value;\n    self.exists[value] = true;\n    self.indices[value] = index;\n    return true;\n  }\n\n  function add(UIntSet storage self, uint value) public returns (bool) {\n    if (self.exists[value])\n      return false;\n    self.indices[value] = self.values.length;\n    self.values.push(value);\n    self.exists[value] = true;\n    return true;\n  }\n\n  function remove(UIntSet storage self, uint value) public returns (bool) {\n    if (!self.exists[value])\n      return false;\n    uint index = indexOf(self, value);\n    pop(self, index);\n    return true;\n  }\n\n  function pop(UIntSet storage self, uint index) public inBounds(self, index) returns (uint) {\n    uint value = get(self, index);\n\n    if (index != self.values.length - 1) {\n      uint lastValue = last(self);\n      self.exists[lastValue] = false;\n      set(self, index, lastValue);\n      self.indices[lastValue] = index;\n    }\n    self.values.length -= 1;\n\n    delete self.indices[value];\n    delete self.exists[value];\n\n    return value;\n  }\n\n  function replace(UIntSet storage self, uint old, uint nu) public returns (bool) {\n    return remove(self, old) && add(self, nu);\n  }\n\n  function first(UIntSet storage self) public view notEmpty(self) returns (uint) {\n    return get(self, 0);\n  }\n\n  function last(UIntSet storage self) public view notEmpty(self) returns (uint) {\n    return get(self, self.values.length - 1);\n  }\n\n  function indexOf(UIntSet storage self, uint value) public view returns (uint) {\n    require(self.exists[value]);\n    return self.indices[value];\n  }\n\n  function contains(UIntSet storage self, uint value) public view returns (bool) {\n    return self.exists[value];\n  }\n\n  function size(UIntSet storage self) public view returns (uint) {\n    return self.values.length;\n  }\n}\n",
  "sourcePath": "/Users/orie/OR13/transmute/packages/transmute-contracts/contracts/TransmuteFramework/SetLib/UIntSet/UIntSetLib.sol",
  "compiler": {
    "name": "solc",
    "version": "0.4.18+commit.9cf6e910.Emscripten.clang"
  },
  "schemaVersion": "1.0.1",
  "updatedAt": "2017-12-30T21:22:25.943Z"
}