{
  "contractName": "UIntSetSpec",
  "abi": [
    {
      "constant": false,
      "inputs": [
        {
          "name": "value",
          "type": "uint256"
        }
      ],
      "name": "add",
      "outputs": [
        {
          "name": "",
          "type": "bool"
        }
      ],
      "payable": false,
      "stateMutability": "nonpayable",
      "type": "function"
    },
    {
      "constant": true,
      "inputs": [],
      "name": "getValues",
      "outputs": [
        {
          "name": "",
          "type": "uint256[]"
        }
      ],
      "payable": false,
      "stateMutability": "view",
      "type": "function"
    },
    {
      "constant": false,
      "inputs": [
        {
          "name": "index",
          "type": "uint256"
        },
        {
          "name": "value",
          "type": "uint256"
        }
      ],
      "name": "set",
      "outputs": [
        {
          "name": "",
          "type": "bool"
        }
      ],
      "payable": false,
      "stateMutability": "nonpayable",
      "type": "function"
    },
    {
      "constant": true,
      "inputs": [],
      "name": "first",
      "outputs": [
        {
          "name": "",
          "type": "uint256"
        }
      ],
      "payable": false,
      "stateMutability": "view",
      "type": "function"
    },
    {
      "constant": true,
      "inputs": [],
      "name": "last",
      "outputs": [
        {
          "name": "",
          "type": "uint256"
        }
      ],
      "payable": false,
      "stateMutability": "view",
      "type": "function"
    },
    {
      "constant": false,
      "inputs": [
        {
          "name": "value",
          "type": "uint256"
        }
      ],
      "name": "remove",
      "outputs": [
        {
          "name": "",
          "type": "bool"
        }
      ],
      "payable": false,
      "stateMutability": "nonpayable",
      "type": "function"
    },
    {
      "constant": false,
      "inputs": [
        {
          "name": "index",
          "type": "uint256"
        }
      ],
      "name": "pop",
      "outputs": [
        {
          "name": "",
          "type": "uint256"
        }
      ],
      "payable": false,
      "stateMutability": "nonpayable",
      "type": "function"
    },
    {
      "constant": false,
      "inputs": [],
      "name": "destroy",
      "outputs": [],
      "payable": false,
      "stateMutability": "nonpayable",
      "type": "function"
    },
    {
      "constant": true,
      "inputs": [],
      "name": "lastRemove",
      "outputs": [
        {
          "name": "",
          "type": "bool"
        }
      ],
      "payable": false,
      "stateMutability": "view",
      "type": "function"
    },
    {
      "constant": true,
      "inputs": [],
      "name": "owner",
      "outputs": [
        {
          "name": "",
          "type": "address"
        }
      ],
      "payable": false,
      "stateMutability": "view",
      "type": "function"
    },
    {
      "constant": true,
      "inputs": [],
      "name": "lastPop",
      "outputs": [
        {
          "name": "",
          "type": "uint256"
        }
      ],
      "payable": false,
      "stateMutability": "view",
      "type": "function"
    },
    {
      "constant": true,
      "inputs": [
        {
          "name": "value",
          "type": "uint256"
        }
      ],
      "name": "indexOf",
      "outputs": [
        {
          "name": "",
          "type": "uint256"
        }
      ],
      "payable": false,
      "stateMutability": "view",
      "type": "function"
    },
    {
      "constant": true,
      "inputs": [],
      "name": "size",
      "outputs": [
        {
          "name": "",
          "type": "uint256"
        }
      ],
      "payable": false,
      "stateMutability": "view",
      "type": "function"
    },
    {
      "constant": true,
      "inputs": [
        {
          "name": "index",
          "type": "uint256"
        }
      ],
      "name": "get",
      "outputs": [
        {
          "name": "",
          "type": "uint256"
        }
      ],
      "payable": false,
      "stateMutability": "view",
      "type": "function"
    },
    {
      "constant": true,
      "inputs": [
        {
          "name": "value",
          "type": "uint256"
        }
      ],
      "name": "contains",
      "outputs": [
        {
          "name": "",
          "type": "bool"
        }
      ],
      "payable": false,
      "stateMutability": "view",
      "type": "function"
    },
    {
      "constant": false,
      "inputs": [
        {
          "name": "newOwner",
          "type": "address"
        }
      ],
      "name": "transferOwnership",
      "outputs": [],
      "payable": false,
      "stateMutability": "nonpayable",
      "type": "function"
    },
    {
      "constant": false,
      "inputs": [
        {
          "name": "_recipient",
          "type": "address"
        }
      ],
      "name": "destroyAndSend",
      "outputs": [],
      "payable": false,
      "stateMutability": "nonpayable",
      "type": "function"
    },
    {
      "constant": true,
      "inputs": [],
      "name": "lastAdd",
      "outputs": [
        {
          "name": "",
          "type": "bool"
        }
      ],
      "payable": false,
      "stateMutability": "view",
      "type": "function"
    },
    {
      "inputs": [],
      "payable": true,
      "stateMutability": "payable",
      "type": "constructor"
    },
    {
      "payable": true,
      "stateMutability": "payable",
      "type": "fallback"
    },
    {
      "anonymous": false,
      "inputs": [
        {
          "indexed": true,
          "name": "previousOwner",
          "type": "address"
        },
        {
          "indexed": true,
          "name": "newOwner",
          "type": "address"
        }
      ],
      "name": "OwnershipTransferred",
      "type": "event"
    }
  ],
  "bytecode": "0x6060604052336000806101000a81548173ffffffffffffffffffffffffffffffffffffffff021916908373ffffffffffffffffffffffffffffffffffffffff160217905550610ec6806100536000396000f3006060604052600436106100fc576000357c0100000000000000000000000000000000000000000000000000000000900463ffffffff1680631003e2d2146100fe57806319eb4a90146101395780631ab06ee5146101a35780633df4ddf4146101e757806347799da8146102105780634cc82215146102395780635dcfb4fa1461027457806383197ef0146102ab578063866797b3146102c05780638da5cb5b146102ed5780638fbcd7751461034257806391ac7e651461036b578063949d225d146103a25780639507d39a146103cb578063c34052e014610402578063f2fde38b1461043d578063f5074f4114610476578063fedab70d146104af575b005b341561010957600080fd5b61011f60048080359060200190919050506104dc565b604051808215151515815260200191505060405180910390f35b341561014457600080fd5b61014c6105a7565b6040518080602001828103825283818151815260200191508051906020019060200280838360005b8381101561018f578082015181840152602081019050610174565b505050509050019250505060405180910390f35b34156101ae57600080fd5b6101cd6004808035906020019091908035906020019091905050610608565b604051808215151515815260200191505060405180910390f35b34156101f257600080fd5b6101fa6106b3565b6040518082815260200191505060405180910390f35b341561021b57600080fd5b61022361074b565b6040518082815260200191505060405180910390f35b341561024457600080fd5b61025a60048080359060200190919050506107e3565b604051808215151515815260200191505060405180910390f35b341561027f57600080fd5b61029560048080359060200190919050506108ae565b6040518082815260200191505060405180910390f35b34156102b657600080fd5b6102be610959565b005b34156102cb57600080fd5b6102d36109ee565b604051808215151515815260200191505060405180910390f35b34156102f857600080fd5b610300610a01565b604051808273ffffffffffffffffffffffffffffffffffffffff1673ffffffffffffffffffffffffffffffffffffffff16815260200191505060405180910390f35b341561034d57600080fd5b610355610a26565b6040518082815260200191505060405180910390f35b341561037657600080fd5b61038c6004808035906020019091905050610a2c565b6040518082815260200191505060405180910390f35b34156103ad57600080fd5b6103b5610ace565b6040518082815260200191505060405180910390f35b34156103d657600080fd5b6103ec6004808035906020019091905050610b66565b6040518082815260200191505060405180910390f35b341561040d57600080fd5b6104236004808035906020019091905050610c08565b604051808215151515815260200191505060405180910390f35b341561044857600080fd5b610474600480803573ffffffffffffffffffffffffffffffffffffffff16906020019091905050610caa565b005b341561048157600080fd5b6104ad600480803573ffffffffffffffffffffffffffffffffffffffff16906020019091905050610dff565b005b34156104ba57600080fd5b6104c2610e73565b604051808215151515815260200191505060405180910390f35b6000600173__UIntSetLib____________________________6348d8aa139091846000604051602001526040518363ffffffff167c0100000000000000000000000000000000000000000000000000000000028152600401808381526020018281526020019250505060206040518083038186803b151561055c57600080fd5b6102c65a03f4151561056d57600080fd5b50505060405180519050600560006101000a81548160ff021916908315150217905550600560009054906101000a900460ff169050919050565b6105af610e86565b60016000018054806020026020016040519081016040528092919081815260200182805480156105fe57602002820191906000526020600020905b8154815260200190600101908083116105ea575b5050505050905090565b6000600173__UIntSetLib____________________________63f9c4ccd8909185856000604051602001526040518463ffffffff167c010000000000000000000000000000000000000000000000000000000002815260040180848152602001838152602001828152602001935050505060206040518083038186803b151561069057600080fd5b6102c65a03f415156106a157600080fd5b50505060405180519050905092915050565b6000600173__UIntSetLib____________________________63e1ef740590916000604051602001526040518263ffffffff167c01000000000000000000000000000000000000000000000000000000000281526004018082815260200191505060206040518083038186803b151561072b57600080fd5b6102c65a03f4151561073c57600080fd5b50505060405180519050905090565b6000600173__UIntSetLib____________________________63cce5114490916000604051602001526040518263ffffffff167c01000000000000000000000000000000000000000000000000000000000281526004018082815260200191505060206040518083038186803b15156107c357600080fd5b6102c65a03f415156107d457600080fd5b50505060405180519050905090565b6000600173__UIntSetLib____________________________636bebc35a9091846000604051602001526040518363ffffffff167c0100000000000000000000000000000000000000000000000000000000028152600401808381526020018281526020019250505060206040518083038186803b151561086357600080fd5b6102c65a03f4151561087457600080fd5b50505060405180519050600560016101000a81548160ff021916908315150217905550600560019054906101000a900460ff169050919050565b6000600173__UIntSetLib____________________________63d5f947589091846000604051602001526040518363ffffffff167c0100000000000000000000000000000000000000000000000000000000028152600401808381526020018281526020019250505060206040518083038186803b151561092e57600080fd5b6102c65a03f4151561093f57600080fd5b505050604051805190506004819055506004549050919050565b6000809054906101000a900473ffffffffffffffffffffffffffffffffffffffff1673ffffffffffffffffffffffffffffffffffffffff163373ffffffffffffffffffffffffffffffffffffffff161415156109b457600080fd5b6000809054906101000a900473ffffffffffffffffffffffffffffffffffffffff1673ffffffffffffffffffffffffffffffffffffffff16ff5b600560019054906101000a900460ff1681565b6000809054906101000a900473ffffffffffffffffffffffffffffffffffffffff1681565b60045481565b6000600173__UIntSetLib____________________________6353b42b599091846000604051602001526040518363ffffffff167c0100000000000000000000000000000000000000000000000000000000028152600401808381526020018281526020019250505060206040518083038186803b1515610aac57600080fd5b6102c65a03f41515610abd57600080fd5b505050604051805190509050919050565b6000600173__UIntSetLib____________________________63a69be3d790916000604051602001526040518263ffffffff167c01000000000000000000000000000000000000000000000000000000000281526004018082815260200191505060206040518083038186803b1515610b4657600080fd5b6102c65a03f41515610b5757600080fd5b50505060405180519050905090565b6000600173__UIntSetLib____________________________63c25ce2c19091846000604051602001526040518363ffffffff167c0100000000000000000000000000000000000000000000000000000000028152600401808381526020018281526020019250505060206040518083038186803b1515610be657600080fd5b6102c65a03f41515610bf757600080fd5b505050604051805190509050919050565b6000600173__UIntSetLib____________________________637f562d889091846000604051602001526040518363ffffffff167c0100000000000000000000000000000000000000000000000000000000028152600401808381526020018281526020019250505060206040518083038186803b1515610c8857600080fd5b6102c65a03f41515610c9957600080fd5b505050604051805190509050919050565b6000809054906101000a900473ffffffffffffffffffffffffffffffffffffffff1673ffffffffffffffffffffffffffffffffffffffff163373ffffffffffffffffffffffffffffffffffffffff16141515610d0557600080fd5b600073ffffffffffffffffffffffffffffffffffffffff168173ffffffffffffffffffffffffffffffffffffffff1614151515610d4157600080fd5b8073ffffffffffffffffffffffffffffffffffffffff166000809054906101000a900473ffffffffffffffffffffffffffffffffffffffff1673ffffffffffffffffffffffffffffffffffffffff167f8be0079c531659141344cd1fd0a4f28419497f9722a3daafe3b4186f6b6457e060405160405180910390a3806000806101000a81548173ffffffffffffffffffffffffffffffffffffffff021916908373ffffffffffffffffffffffffffffffffffffffff16021790555050565b6000809054906101000a900473ffffffffffffffffffffffffffffffffffffffff1673ffffffffffffffffffffffffffffffffffffffff163373ffffffffffffffffffffffffffffffffffffffff16141515610e5a57600080fd5b8073ffffffffffffffffffffffffffffffffffffffff16ff5b600560009054906101000a900460ff1681565b6020604051908101604052806000815250905600a165627a7a723058205192f4996382ee3826ee58254e523dbb286712ee412d5d315e741e2fe544541f0029",
  "source": "pragma solidity ^0.4.17;\n\nimport './UIntSetLib.sol';\nimport '../../Destructible.sol';\n\ncontract UIntSetSpec is Destructible {\n  using UIntSetLib for UIntSetLib.UIntSet;\n\n  UIntSetLib.UIntSet testSet;\n\n  uint public lastPop;\n  bool public lastAdd;\n  bool public lastRemove;\n\n  function () public payable {}\n  function UIntSetSpec() public payable {}\n\n  function get(uint index) public view returns (uint) {\n    return testSet.get(index);\n  }\n\n  function getValues() public view returns (uint[]) {\n    return testSet.values;\n  }\n\n  function set(uint index, uint value) public returns (bool) {\n    return testSet.set(index, value);\n  }\n\n  function add(uint value) public returns (bool) {\n    lastAdd = testSet.add(value);\n    return lastAdd;\n  }\n\n  function remove(uint value) public returns (bool) {\n    lastRemove = testSet.remove(value);\n    return lastRemove;\n  }\n\n  function pop(uint index) public returns (uint) {\n    lastPop = testSet.pop(index);\n    return lastPop;\n  }\n\n  function first() public view returns (uint) {\n    return testSet.first();\n  }\n\n  function last() public view returns (uint) {\n    return testSet.last();\n  }\n\n  function indexOf(uint value) public view returns (uint) {\n    return testSet.indexOf(value);\n  }\n\n  function contains(uint value) public view returns (bool) {\n    return testSet.contains(value);\n  }\n\n  function size() public view returns (uint) {\n    return testSet.size();\n  }\n}\n",
  "sourcePath": "/Users/orie/OR13/transmute/packages/transmute-contracts/contracts/TransmuteFramework/SetLib/UIntSet/UIntSetSpec.sol",
  "compiler": {
    "name": "solc",
    "version": "0.4.18+commit.9cf6e910.Emscripten.clang"
  },
  "schemaVersion": "1.0.1",
  "updatedAt": "2017-12-30T21:22:25.860Z"
}