{
  "contractName": "UnsafeEventStoreFactory",
  "abi": [
    {
      "constant": false,
      "inputs": [
        {
          "name": "_eventType",
          "type": "bytes32"
        },
        {
          "name": "_keyType",
          "type": "bytes1"
        },
        {
          "name": "_valueType",
          "type": "bytes1"
        },
        {
          "name": "_key",
          "type": "bytes32"
        },
        {
          "name": "_value",
          "type": "bytes32"
        }
      ],
      "name": "writeEvent",
      "outputs": [
        {
          "name": "",
          "type": "uint256"
        }
      ],
      "payable": false,
      "stateMutability": "nonpayable",
      "type": "function"
    },
    {
      "constant": true,
      "inputs": [],
      "name": "getEventStoresByOwner",
      "outputs": [
        {
          "name": "",
          "type": "address[]"
        }
      ],
      "payable": false,
      "stateMutability": "view",
      "type": "function"
    },
    {
      "constant": false,
      "inputs": [],
      "name": "createEventStore",
      "outputs": [
        {
          "name": "",
          "type": "address"
        }
      ],
      "payable": false,
      "stateMutability": "nonpayable",
      "type": "function"
    },
    {
      "constant": true,
      "inputs": [],
      "name": "eventCount",
      "outputs": [
        {
          "name": "",
          "type": "uint256"
        }
      ],
      "payable": false,
      "stateMutability": "view",
      "type": "function"
    },
    {
      "constant": false,
      "inputs": [],
      "name": "destroy",
      "outputs": [],
      "payable": false,
      "stateMutability": "nonpayable",
      "type": "function"
    },
    {
      "constant": true,
      "inputs": [],
      "name": "owner",
      "outputs": [
        {
          "name": "",
          "type": "address"
        }
      ],
      "payable": false,
      "stateMutability": "view",
      "type": "function"
    },
    {
      "constant": true,
      "inputs": [],
      "name": "getEventStores",
      "outputs": [
        {
          "name": "",
          "type": "address[]"
        }
      ],
      "payable": false,
      "stateMutability": "view",
      "type": "function"
    },
    {
      "constant": false,
      "inputs": [
        {
          "name": "_address",
          "type": "address"
        }
      ],
      "name": "killEventStore",
      "outputs": [],
      "payable": false,
      "stateMutability": "nonpayable",
      "type": "function"
    },
    {
      "constant": true,
      "inputs": [
        {
          "name": "_eventId",
          "type": "uint256"
        }
      ],
      "name": "readEvent",
      "outputs": [
        {
          "name": "",
          "type": "uint256"
        },
        {
          "name": "",
          "type": "address"
        },
        {
          "name": "",
          "type": "uint256"
        },
        {
          "name": "",
          "type": "bytes32"
        },
        {
          "name": "",
          "type": "bytes1"
        },
        {
          "name": "",
          "type": "bytes1"
        },
        {
          "name": "",
          "type": "bytes32"
        },
        {
          "name": "",
          "type": "bytes32"
        }
      ],
      "payable": false,
      "stateMutability": "view",
      "type": "function"
    },
    {
      "constant": false,
      "inputs": [
        {
          "name": "newOwner",
          "type": "address"
        }
      ],
      "name": "transferOwnership",
      "outputs": [],
      "payable": false,
      "stateMutability": "nonpayable",
      "type": "function"
    },
    {
      "constant": false,
      "inputs": [
        {
          "name": "_recipient",
          "type": "address"
        }
      ],
      "name": "destroyAndSend",
      "outputs": [],
      "payable": false,
      "stateMutability": "nonpayable",
      "type": "function"
    },
    {
      "inputs": [],
      "payable": true,
      "stateMutability": "payable",
      "type": "constructor"
    },
    {
      "payable": true,
      "stateMutability": "payable",
      "type": "fallback"
    },
    {
      "anonymous": false,
      "inputs": [
        {
          "indexed": false,
          "name": "Id",
          "type": "uint256"
        },
        {
          "indexed": false,
          "name": "TxOrigin",
          "type": "address"
        },
        {
          "indexed": false,
          "name": "Created",
          "type": "uint256"
        },
        {
          "indexed": false,
          "name": "EventType",
          "type": "bytes32"
        },
        {
          "indexed": false,
          "name": "KeyType",
          "type": "bytes1"
        },
        {
          "indexed": false,
          "name": "ValueType",
          "type": "bytes1"
        },
        {
          "indexed": false,
          "name": "Key",
          "type": "bytes32"
        },
        {
          "indexed": false,
          "name": "Value",
          "type": "bytes32"
        }
      ],
      "name": "EsEvent",
      "type": "event"
    },
    {
      "anonymous": false,
      "inputs": [
        {
          "indexed": true,
          "name": "previousOwner",
          "type": "address"
        },
        {
          "indexed": true,
          "name": "newOwner",
          "type": "address"
        }
      ],
      "name": "OwnershipTransferred",
      "type": "event"
    }
  ],
  "bytecode": "0x6060604052336000806101000a81548173ffffffffffffffffffffffffffffffffffffffff021916908373ffffffffffffffffffffffffffffffffffffffff160217905550611bfe806100536000396000f3006060604052600436106100af576000357c0100000000000000000000000000000000000000000000000000000000900463ffffffff16806335628b38146100b1578063410ab5ed1461015c578063468d427e146101c657806371be2e4a1461021b57806383197ef0146102445780638da5cb5b146102595780638dc668d7146102ae578063ccac2d7514610318578063e1ba30a914610351578063f2fde38b14610485578063f5074f41146104be575b005b34156100bc57600080fd5b6101466004808035600019169060200190919080357effffffffffffffffffffffffffffffffffffffffffffffffffffffffffffff19169060200190919080357effffffffffffffffffffffffffffffffffffffffffffffffffffffffffffff191690602001909190803560001916906020019091908035600019169060200190919050506104f7565b6040518082815260200191505060405180910390f35b341561016757600080fd5b61016f61065b565b6040518080602001828103825283818151815260200191508051906020019060200280838360005b838110156101b2578082015181840152602081019050610197565b505050509050019250505060405180910390f35b34156101d157600080fd5b6101d961072f565b604051808273ffffffffffffffffffffffffffffffffffffffff1673ffffffffffffffffffffffffffffffffffffffff16815260200191505060405180910390f35b341561022657600080fd5b61022e6109c9565b6040518082815260200191505060405180910390f35b341561024f57600080fd5b6102576109d9565b005b341561026457600080fd5b61026c610a6e565b604051808273ffffffffffffffffffffffffffffffffffffffff1673ffffffffffffffffffffffffffffffffffffffff16815260200191505060405180910390f35b34156102b957600080fd5b6102c1610a93565b6040518080602001828103825283818151815260200191508051906020019060200280838360005b838110156103045780820151818401526020810190506102e9565b505050509050019250505060405180910390f35b341561032357600080fd5b61034f600480803573ffffffffffffffffffffffffffffffffffffffff16906020019091905050610b2a565b005b341561035c57600080fd5b6103726004808035906020019091905050611032565b604051808981526020018873ffffffffffffffffffffffffffffffffffffffff1673ffffffffffffffffffffffffffffffffffffffff1681526020018781526020018660001916600019168152602001857effffffffffffffffffffffffffffffffffffffffffffffffffffffffffffff19167effffffffffffffffffffffffffffffffffffffffffffffffffffffffffffff19168152602001847effffffffffffffffffffffffffffffffffffffffffffffffffffffffffffff19167effffffffffffffffffffffffffffffffffffffffffffffffffffffffffffff19168152602001836000191660001916815260200182600019166000191681526020019850505050505050505060405180910390f35b341561049057600080fd5b6104bc600480803573ffffffffffffffffffffffffffffffffffffffff1690602001909190505061111c565b005b34156104c957600080fd5b6104f5600480803573ffffffffffffffffffffffffffffffffffffffff16906020019091905050611271565b005b600073__EventStoreLib_________________________633bb64203600188888888886000604051602001526040518763ffffffff167c0100000000000000000000000000000000000000000000000000000000028152600401808781526020018660001916600019168152602001857effffffffffffffffffffffffffffffffffffffffffffffffffffffffffffff19167effffffffffffffffffffffffffffffffffffffffffffffffffffffffffffff19168152602001847effffffffffffffffffffffffffffffffffffffffffffffffffffffffffffff19167effffffffffffffffffffffffffffffffffffffffffffffffffffffffffffff1916815260200183600019166000191681526020018260001916600019168152602001965050505050505060206040518083038186803b151561063557600080fd5b6102c65a03f4151561064657600080fd5b50505060405180519050905095945050505050565b6106636112e5565b600260003373ffffffffffffffffffffffffffffffffffffffff1673ffffffffffffffffffffffffffffffffffffffff16815260200190815260200160002060000180548060200260200160405190810160405280929190818152602001828054801561072557602002820191906000526020600020905b8160009054906101000a900473ffffffffffffffffffffffffffffffffffffffff1673ffffffffffffffffffffffffffffffffffffffff16815260200190600101908083116106db575b5050505050905090565b60008061073a6112f9565b604051809103906000f080151561075057600080fd5b9050600373__AddressSetLib_________________________631e4016169091836000604051602001526040518363ffffffff167c0100000000000000000000000000000000000000000000000000000000028152600401808381526020018273ffffffffffffffffffffffffffffffffffffffff1673ffffffffffffffffffffffffffffffffffffffff1681526020019250505060206040518083038186803b15156107fc57600080fd5b6102c65a03f4151561080d57600080fd5b5050506040518051905050600260003373ffffffffffffffffffffffffffffffffffffffff1673ffffffffffffffffffffffffffffffffffffffff16815260200190815260200160002073__AddressSetLib_________________________631e4016169091836000604051602001526040518363ffffffff167c0100000000000000000000000000000000000000000000000000000000028152600401808381526020018273ffffffffffffffffffffffffffffffffffffffff1673ffffffffffffffffffffffffffffffffffffffff1681526020019250505060206040518083038186803b15156108ff57600080fd5b6102c65a03f4151561091057600080fd5b50505060405180519050506109c17f45535f43524541544544000000000000000000000000000000000000000000007f53000000000000000000000000000000000000000000000000000000000000007f41000000000000000000000000000000000000000000000000000000000000007f61646472657373000000000000000000000000000000000000000000000000008573ffffffffffffffffffffffffffffffffffffffff166001026104f7565b508091505090565b6000600160000180549050905090565b6000809054906101000a900473ffffffffffffffffffffffffffffffffffffffff1673ffffffffffffffffffffffffffffffffffffffff163373ffffffffffffffffffffffffffffffffffffffff16141515610a3457600080fd5b6000809054906101000a900473ffffffffffffffffffffffffffffffffffffffff1673ffffffffffffffffffffffffffffffffffffffff16ff5b6000809054906101000a900473ffffffffffffffffffffffffffffffffffffffff1681565b610a9b6112e5565b6003600001805480602002602001604051908101604052809291908181526020018280548015610b2057602002820191906000526020600020905b8160009054906101000a900473ffffffffffffffffffffffffffffffffffffffff1673ffffffffffffffffffffffffffffffffffffffff1681526020019060010190808311610ad6575b5050505050905090565b600081600373__AddressSetLib_________________________63dc02e70d9091836000604051602001526040518363ffffffff167c0100000000000000000000000000000000000000000000000000000000028152600401808381526020018273ffffffffffffffffffffffffffffffffffffffff1673ffffffffffffffffffffffffffffffffffffffff1681526020019250505060206040518083038186803b1515610bd757600080fd5b6102c65a03f41515610be857600080fd5b505050604051805190501515610bfd57600080fd5b3373ffffffffffffffffffffffffffffffffffffffff163073ffffffffffffffffffffffffffffffffffffffff16638da5cb5b6000604051602001526040518163ffffffff167c0100000000000000000000000000000000000000000000000000000000028152600401602060405180830381600087803b1515610c8057600080fd5b6102c65a03f11515610c9157600080fd5b5050506040518051905073ffffffffffffffffffffffffffffffffffffffff16141515610cbd57600080fd5b829150600260008373ffffffffffffffffffffffffffffffffffffffff16638da5cb5b6000604051602001526040518163ffffffff167c0100000000000000000000000000000000000000000000000000000000028152600401602060405180830381600087803b1515610d3057600080fd5b6102c65a03f11515610d4157600080fd5b5050506040518051905073ffffffffffffffffffffffffffffffffffffffff1673ffffffffffffffffffffffffffffffffffffffff16815260200190815260200160002073__AddressSetLib_________________________63499b67d99091856000604051602001526040518363ffffffff167c0100000000000000000000000000000000000000000000000000000000028152600401808381526020018273ffffffffffffffffffffffffffffffffffffffff1673ffffffffffffffffffffffffffffffffffffffff1681526020019250505060206040518083038186803b1515610e2d57600080fd5b6102c65a03f41515610e3e57600080fd5b5050506040518051905050600373__AddressSetLib_________________________63499b67d99091856000604051602001526040518363ffffffff167c0100000000000000000000000000000000000000000000000000000000028152600401808381526020018273ffffffffffffffffffffffffffffffffffffffff1673ffffffffffffffffffffffffffffffffffffffff1681526020019250505060206040518083038186803b1515610ef357600080fd5b6102c65a03f41515610f0457600080fd5b50505060405180519050508173ffffffffffffffffffffffffffffffffffffffff166383197ef06040518163ffffffff167c0100000000000000000000000000000000000000000000000000000000028152600401600060405180830381600087803b1515610f7257600080fd5b6102c65a03f11515610f8357600080fd5b50505061102c7f45535f44455354524f59454400000000000000000000000000000000000000007f53000000000000000000000000000000000000000000000000000000000000007f41000000000000000000000000000000000000000000000000000000000000007f61646472657373000000000000000000000000000000000000000000000000008773ffffffffffffffffffffffffffffffffffffffff166001026104f7565b50505050565b60008060008060008060008073__EventStoreLib_________________________63a057fd5e60018b600060405161010001526040518363ffffffff167c010000000000000000000000000000000000000000000000000000000002815260040180838152602001828152602001925050506101006040518083038186803b15156110bc57600080fd5b6102c65a03f415156110cd57600080fd5b5050506040518051906020018051906020018051906020018051906020018051906020018051906020018051906020018051905097509750975097509750975097509750919395975091939597565b6000809054906101000a900473ffffffffffffffffffffffffffffffffffffffff1673ffffffffffffffffffffffffffffffffffffffff163373ffffffffffffffffffffffffffffffffffffffff1614151561117757600080fd5b600073ffffffffffffffffffffffffffffffffffffffff168173ffffffffffffffffffffffffffffffffffffffff16141515156111b357600080fd5b8073ffffffffffffffffffffffffffffffffffffffff166000809054906101000a900473ffffffffffffffffffffffffffffffffffffffff1673ffffffffffffffffffffffffffffffffffffffff167f8be0079c531659141344cd1fd0a4f28419497f9722a3daafe3b4186f6b6457e060405160405180910390a3806000806101000a81548173ffffffffffffffffffffffffffffffffffffffff021916908373ffffffffffffffffffffffffffffffffffffffff16021790555050565b6000809054906101000a900473ffffffffffffffffffffffffffffffffffffffff1673ffffffffffffffffffffffffffffffffffffffff163373ffffffffffffffffffffffffffffffffffffffff161415156112cc57600080fd5b8073ffffffffffffffffffffffffffffffffffffffff16ff5b602060405190810160405280600081525090565b6040516108c98061130a8339019056006060604052336000806101000a81548173ffffffffffffffffffffffffffffffffffffffff021916908373ffffffffffffffffffffffffffffffffffffffff160217905550610876806100536000396000f300606060405260043610610083576000357c0100000000000000000000000000000000000000000000000000000000900463ffffffff16806335628b381461008557806371be2e4a1461013057806383197ef0146101595780638da5cb5b1461016e578063e1ba30a9146101c3578063f2fde38b146102f7578063f5074f4114610330575b005b341561009057600080fd5b61011a6004808035600019169060200190919080357effffffffffffffffffffffffffffffffffffffffffffffffffffffffffffff19169060200190919080357effffffffffffffffffffffffffffffffffffffffffffffffffffffffffffff19169060200190919080356000191690602001909190803560001916906020019091905050610369565b6040518082815260200191505060405180910390f35b341561013b57600080fd5b6101436104cd565b6040518082815260200191505060405180910390f35b341561016457600080fd5b61016c6104dd565b005b341561017957600080fd5b610181610572565b604051808273ffffffffffffffffffffffffffffffffffffffff1673ffffffffffffffffffffffffffffffffffffffff16815260200191505060405180910390f35b34156101ce57600080fd5b6101e46004808035906020019091905050610597565b604051808981526020018873ffffffffffffffffffffffffffffffffffffffff1673ffffffffffffffffffffffffffffffffffffffff1681526020018781526020018660001916600019168152602001857effffffffffffffffffffffffffffffffffffffffffffffffffffffffffffff19167effffffffffffffffffffffffffffffffffffffffffffffffffffffffffffff19168152602001847effffffffffffffffffffffffffffffffffffffffffffffffffffffffffffff19167effffffffffffffffffffffffffffffffffffffffffffffffffffffffffffff19168152602001836000191660001916815260200182600019166000191681526020019850505050505050505060405180910390f35b341561030257600080fd5b61032e600480803573ffffffffffffffffffffffffffffffffffffffff16906020019091905050610681565b005b341561033b57600080fd5b610367600480803573ffffffffffffffffffffffffffffffffffffffff169060200190919050506107d6565b005b600073__EventStoreLib_________________________633bb64203600188888888886000604051602001526040518763ffffffff167c0100000000000000000000000000000000000000000000000000000000028152600401808781526020018660001916600019168152602001857effffffffffffffffffffffffffffffffffffffffffffffffffffffffffffff19167effffffffffffffffffffffffffffffffffffffffffffffffffffffffffffff19168152602001847effffffffffffffffffffffffffffffffffffffffffffffffffffffffffffff19167effffffffffffffffffffffffffffffffffffffffffffffffffffffffffffff1916815260200183600019166000191681526020018260001916600019168152602001965050505050505060206040518083038186803b15156104a757600080fd5b6102c65a03f415156104b857600080fd5b50505060405180519050905095945050505050565b6000600160000180549050905090565b6000809054906101000a900473ffffffffffffffffffffffffffffffffffffffff1673ffffffffffffffffffffffffffffffffffffffff163373ffffffffffffffffffffffffffffffffffffffff1614151561053857600080fd5b6000809054906101000a900473ffffffffffffffffffffffffffffffffffffffff1673ffffffffffffffffffffffffffffffffffffffff16ff5b6000809054906101000a900473ffffffffffffffffffffffffffffffffffffffff1681565b60008060008060008060008073__EventStoreLib_________________________63a057fd5e60018b600060405161010001526040518363ffffffff167c010000000000000000000000000000000000000000000000000000000002815260040180838152602001828152602001925050506101006040518083038186803b151561062157600080fd5b6102c65a03f4151561063257600080fd5b5050506040518051906020018051906020018051906020018051906020018051906020018051906020018051906020018051905097509750975097509750975097509750919395975091939597565b6000809054906101000a900473ffffffffffffffffffffffffffffffffffffffff1673ffffffffffffffffffffffffffffffffffffffff163373ffffffffffffffffffffffffffffffffffffffff161415156106dc57600080fd5b600073ffffffffffffffffffffffffffffffffffffffff168173ffffffffffffffffffffffffffffffffffffffff161415151561071857600080fd5b8073ffffffffffffffffffffffffffffffffffffffff166000809054906101000a900473ffffffffffffffffffffffffffffffffffffffff1673ffffffffffffffffffffffffffffffffffffffff167f8be0079c531659141344cd1fd0a4f28419497f9722a3daafe3b4186f6b6457e060405160405180910390a3806000806101000a81548173ffffffffffffffffffffffffffffffffffffffff021916908373ffffffffffffffffffffffffffffffffffffffff16021790555050565b6000809054906101000a900473ffffffffffffffffffffffffffffffffffffffff1673ffffffffffffffffffffffffffffffffffffffff163373ffffffffffffffffffffffffffffffffffffffff1614151561083157600080fd5b8073ffffffffffffffffffffffffffffffffffffffff16ff00a165627a7a72305820d3478c9dfd50fa9d6f19705799e4fe16c7fd91e14c63c167b53a864e929620920029a165627a7a72305820f128f15620e24a50a4fd777f947ca9d85ea1b4464ccc772b03d82bf0bb57f5460029",
  "source": "pragma solidity ^0.4.17;\n\nimport \"./UnsafeEventStore.sol\";\nimport \"./SetLib/AddressSet/AddressSetLib.sol\";\n\ncontract UnsafeEventStoreFactory is UnsafeEventStore {\n\n  using AddressSetLib for AddressSetLib.AddressSet;\n\n  mapping (address => AddressSetLib.AddressSet) creatorEventStoreMapping;\n  AddressSetLib.AddressSet EventStoreAddresses;\n\n  // Modifiers\n  modifier checkExistence(address _address) {\n    require(EventStoreAddresses.contains(_address));\n    _;\n  }\n\n  // Fallback Function\n  function () public payable { }\n\n  // Constructor\n  function UnsafeEventStoreFactory() public payable {}\n\n  // Interface\n\tfunction createEventStore() public returns (address) {\n\t\tUnsafeEventStore newEventStore = new UnsafeEventStore();\n    EventStoreAddresses.add(address(newEventStore));\n    creatorEventStoreMapping[msg.sender].add(address(newEventStore));\n\n    writeEvent(\"ES_CREATED\", \"S\", \"A\", \"address\", bytes32(address(newEventStore)));\n    return address(newEventStore);\n\t}\n\n  function killEventStore(address _address) public checkExistence(_address) {\n    require(this.owner() == msg.sender);\n    UnsafeEventStore eventStore = UnsafeEventStore(_address);\n    creatorEventStoreMapping[eventStore.owner()].remove(_address);\n    EventStoreAddresses.remove(_address);\n\n    eventStore.destroy();\n    writeEvent(\"ES_DESTROYED\", \"S\", \"A\", \"address\", bytes32(_address));\n  \n  }\n\n  // Helper Functions\n  function getEventStoresByOwner() public view returns (address[]) {\n    return creatorEventStoreMapping[msg.sender].values;\n  }\n\n  function getEventStores() public constant returns (address[]) {\n    return EventStoreAddresses.values;\n  }\n}\n",
  "sourcePath": "/Users/orie/OR13/transmute/packages/transmute-contracts/contracts/TransmuteFramework/UnsafeEventStoreFactory.sol",
  "compiler": {
    "name": "solc",
    "version": "0.4.18+commit.9cf6e910.Emscripten.clang"
  },
  "schemaVersion": "1.0.1",
  "updatedAt": "2017-12-30T03:08:20.151Z"
}