{
  "contractName": "OracleCaller",
  "abi": [
    {
      "constant": false,
      "inputs": [
        {
          "name": "oracleAddress",
          "type": "address"
        }
      ],
      "name": "callOracle",
      "outputs": [],
      "payable": false,
      "stateMutability": "nonpayable",
      "type": "function"
    },
    {
      "inputs": [],
      "payable": false,
      "stateMutability": "nonpayable",
      "type": "constructor"
    },
    {
      "payable": false,
      "stateMutability": "nonpayable",
      "type": "fallback"
    },
    {
      "anonymous": false,
      "inputs": [
        {
          "indexed": false,
          "name": "data",
          "type": "bytes32"
        }
      ],
      "name": "OracleRequest",
      "type": "event"
    }
  ],
  "bytecode": "0x6060604052341561000f57600080fd5b6101128061001e6000396000f300606060405260043610603f576000357c0100000000000000000000000000000000000000000000000000000000900463ffffffff1680630d7efd5314604e575b3415604957600080fd5b600080fd5b3415605857600080fd5b6082600480803573ffffffffffffffffffffffffffffffffffffffff169060200190919050506084565b005b7f2d53a31b8b7fba2f7879e4b1b37cbeaf0902a9eb387c6b83aee6c1271041b43f7f626f62000000000000000000000000000000000000000000000000000000000060405180826000191660001916815260200191505060405180910390a1505600a165627a7a72305820ff3742d18f46bf45c78ce788cba4ce9b281dccecf15633423e15cafbf50c84150029",
  "source": "pragma solidity ^0.4.11;\n\nimport \"./Oracle.sol\";\n\ncontract OracleCaller {\n\n\n  // FALLBACK\n  function () public { revert(); }\n  \n  // CONSTRUCTOR  \n  function OracleCaller() public {\n  }\n\n  event OracleRequest(\n    bytes32 data\n  );\n\n  function callOracle(address oracleAddress) public {\n      // Oracle orc = Oracle(oracleAddress);\n      // bytes32 requestIndex = keccak256(0x616263);\n      // 0x4e03657aea45a94fc7d47ba826c8d667c0d1e6e33a64a036ec44f58fa12d6c45\n\n      // bytes32 data = orc.testData();\n\n      // \n\n      OracleRequest(\n        bytes32(\"bob\")\n      );\n  \n  }\n\n}",
  "sourcePath": "/Users/orie/Code/lerna-transmute/packages/transmute-services/contracts/OracleCaller.sol",
  "compiler": {
    "name": "solc",
    "version": "0.4.18+commit.9cf6e910.Emscripten.clang"
  },
  "schemaVersion": "1.0.1",
  "updatedAt": "2017-11-25T19:39:04.086Z"
}