{
  "contractName": "ESigner",
  "abi": [
    {
      "constant": false,
      "inputs": [
        {
          "name": "target",
          "type": "address"
        }
      ],
      "name": "destroy",
      "outputs": [],
      "payable": false,
      "stateMutability": "nonpayable",
      "type": "function"
    },
    {
      "constant": true,
      "inputs": [],
      "name": "count",
      "outputs": [
        {
          "name": "",
          "type": "uint256"
        }
      ],
      "payable": false,
      "stateMutability": "view",
      "type": "function"
    },
    {
      "constant": true,
      "inputs": [],
      "name": "owner",
      "outputs": [
        {
          "name": "",
          "type": "address"
        }
      ],
      "payable": false,
      "stateMutability": "view",
      "type": "function"
    },
    {
      "constant": false,
      "inputs": [
        {
          "name": "key",
          "type": "bytes32"
        },
        {
          "name": "value",
          "type": "bytes32"
        }
      ],
      "name": "write",
      "outputs": [],
      "payable": false,
      "stateMutability": "nonpayable",
      "type": "function"
    },
    {
      "constant": true,
      "inputs": [
        {
          "name": "index",
          "type": "uint256"
        }
      ],
      "name": "read",
      "outputs": [
        {
          "name": "",
          "type": "uint256"
        },
        {
          "name": "",
          "type": "address"
        },
        {
          "name": "",
          "type": "bytes32"
        },
        {
          "name": "",
          "type": "bytes32"
        }
      ],
      "payable": false,
      "stateMutability": "view",
      "type": "function"
    }
  ],
  "bytecode": "0x606060405233600160006101000a81548173ffffffffffffffffffffffffffffffffffffffff021916908373ffffffffffffffffffffffffffffffffffffffff160217905550610488806100546000396000f30060606040526004361061006c576000357c0100000000000000000000000000000000000000000000000000000000900463ffffffff168062f55d9d1461007157806306661abd146100aa5780638da5cb5b146100d3578063e2e52ec114610128578063ed2e5a971461015c575b600080fd5b341561007c57600080fd5b6100a8600480803573ffffffffffffffffffffffffffffffffffffffff169060200190919050506101e4565b005b34156100b557600080fd5b6100bd610259565b6040518082815260200191505060405180910390f35b34156100de57600080fd5b6100e6610268565b604051808273ffffffffffffffffffffffffffffffffffffffff1673ffffffffffffffffffffffffffffffffffffffff16815260200191505060405180910390f35b341561013357600080fd5b61015a6004808035600019169060200190919080356000191690602001909190505061028e565b005b341561016757600080fd5b61017d600480803590602001909190505061039e565b604051808581526020018473ffffffffffffffffffffffffffffffffffffffff1673ffffffffffffffffffffffffffffffffffffffff1681526020018360001916600019168152602001826000191660001916815260200194505050505060405180910390f35b600160009054906101000a900473ffffffffffffffffffffffffffffffffffffffff1673ffffffffffffffffffffffffffffffffffffffff163373ffffffffffffffffffffffffffffffffffffffff1614151561024057600080fd5b8073ffffffffffffffffffffffffffffffffffffffff16ff5b60008060000180549050905090565b600160009054906101000a900473ffffffffffffffffffffffffffffffffffffffff1681565b600160009054906101000a900473ffffffffffffffffffffffffffffffffffffffff1673ffffffffffffffffffffffffffffffffffffffff163373ffffffffffffffffffffffffffffffffffffffff161415156102ea57600080fd5b73__EventStoreLib_________________________630d93ee9c600084846000604051602001526040518463ffffffff167c01000000000000000000000000000000000000000000000000000000000281526004018084815260200183600019166000191681526020018260001916600019168152602001935050505060206040518083038186803b151561037e57600080fd5b6102c65a03f4151561038f57600080fd5b50505060405180519050505050565b60008060008073__EventStoreLib_________________________631b68f0916000876000604051608001526040518363ffffffff167c0100000000000000000000000000000000000000000000000000000000028152600401808381526020018281526020019250505060806040518083038186803b151561042057600080fd5b6102c65a03f4151561043157600080fd5b50505060405180519060200180519060200180519060200180519050935093509350935091935091935600a165627a7a7230582076e99be02e246e84dcde966bb4c9c177501cc7dd58e1ea7ad813358f82a764150029",
  "source": "pragma solidity ^0.4.19;\n\nimport \"transmute-eventstore/contracts/EventStore.sol\";\n\ncontract ESigner is EventStore {\n\n   \n}",
  "sourcePath": "/Users/orie/OR13/transmute/packages/transmute-dashboard/contracts/ESigner.sol",
  "compiler": {
    "name": "solc",
    "version": "0.4.19+commit.c4cbbb05.Emscripten.clang"
  },
  "schemaVersion": "2.0.0",
  "updatedAt": "2018-03-28T14:53:54.802Z"
}