{
  "contractName": "EventStoreLib",
  "abi": [
    {
      "anonymous": false,
      "inputs": [
        {
          "indexed": false,
          "name": "index",
          "type": "uint256"
        },
        {
          "indexed": false,
          "name": "sender",
          "type": "address"
        },
        {
          "indexed": false,
          "name": "key",
          "type": "bytes32"
        },
        {
          "indexed": false,
          "name": "value",
          "type": "bytes32"
        }
      ],
      "name": "TransmuteEvent",
      "type": "event"
    },
    {
      "constant": false,
      "inputs": [
        {
          "name": "self",
          "type": "EventStoreLib.TransmuteStorage storage"
        },
        {
          "name": "key",
          "type": "bytes32"
        },
        {
          "name": "value",
          "type": "bytes32"
        }
      ],
      "name": "write",
      "outputs": [
        {
          "name": "",
          "type": "uint256"
        }
      ],
      "payable": false,
      "stateMutability": "nonpayable",
      "type": "function"
    },
    {
      "constant": true,
      "inputs": [
        {
          "name": "self",
          "type": "EventStoreLib.TransmuteStorage storage"
        },
        {
          "name": "index",
          "type": "uint256"
        }
      ],
      "name": "read",
      "outputs": [
        {
          "name": "",
          "type": "uint256"
        },
        {
          "name": "",
          "type": "address"
        },
        {
          "name": "",
          "type": "bytes32"
        },
        {
          "name": "",
          "type": "bytes32"
        }
      ],
      "payable": false,
      "stateMutability": "view",
      "type": "function"
    }
  ],
  "bytecode": "0x6060604052341561000f57600080fd5b6104c88061001e6000396000f30060606040526004361061004c576000357c0100000000000000000000000000000000000000000000000000000000900463ffffffff1680630d93ee9c146100515780631b68f09114610097575b600080fd5b6100816004808035906020019091908035600019169060200190919080356000191690602001909190505061011d565b6040518082815260200191505060405180910390f35b6100b660048080359060200190919080359060200190919050506102e2565b604051808581526020018473ffffffffffffffffffffffffffffffffffffffff1673ffffffffffffffffffffffffffffffffffffffff1681526020018360001916600019168152602001826000191660001916815260200194505050505060405180910390f35b60006101276103c7565b846000018054905081600001818152505033816020019073ffffffffffffffffffffffffffffffffffffffff16908173ffffffffffffffffffffffffffffffffffffffff1681525050838160400190600019169081600019168152505082816060019060001916908160001916815250507f4c7900e30963aa4aed068e34036112a44f45ef40623e8892337b84316e5fcb648160000151826020015183604001518460600151604051808581526020018473ffffffffffffffffffffffffffffffffffffffff1673ffffffffffffffffffffffffffffffffffffffff1681526020018360001916600019168152602001826000191660001916815260200194505050505060405180910390a1846000018054806001018281610249919061040c565b916000526020600020906004020160008390919091506000820151816000015560208201518160010160006101000a81548173ffffffffffffffffffffffffffffffffffffffff021916908373ffffffffffffffffffffffffffffffffffffffff160217905550604082015181600201906000191690556060820151816003019060001916905550505080600001519150509392505050565b6000806000806102f06103c7565b866000018681548110151561030157fe5b906000526020600020906004020160806040519081016040529081600082015481526020016001820160009054906101000a900473ffffffffffffffffffffffffffffffffffffffff1673ffffffffffffffffffffffffffffffffffffffff1673ffffffffffffffffffffffffffffffffffffffff16815260200160028201546000191660001916815260200160038201546000191660001916815250509050806000015181602001518260400151836060015194509450945094505092959194509250565b60806040519081016040528060008152602001600073ffffffffffffffffffffffffffffffffffffffff16815260200160008019168152602001600080191681525090565b81548183558181151161043957600402816004028360005260206000209182019101610438919061043e565b5b505050565b61049991905b80821115610495576000808201600090556001820160006101000a81549073ffffffffffffffffffffffffffffffffffffffff02191690556002820160009055600382016000905550600401610444565b5090565b905600a165627a7a723058204583aa15a74d55001b80c1640b92e2fd22f303ba6c2ec39e59df3f8632e64fc80029",
  "source": "pragma solidity ^0.4.19;\n\nlibrary EventStoreLib {\n\n    event TransmuteEvent(\n        uint index,\n        address sender,\n        bytes32 key,\n        bytes32 value\n    );\n\n    struct TransmuteEventStruct {\n        uint index;\n        address sender;\n        bytes32 key;  \n        bytes32 value; \n    }\n\n    struct TransmuteStorage {\n        TransmuteEventStruct[] events;\n    }\n\n    function write(\n        TransmuteStorage storage self,\n        bytes32 key,\n        bytes32 value\n    ) public returns (uint) {\n        TransmuteEventStruct memory evt;\n        evt.index = self.events.length;\n        evt.sender = msg.sender;\n        evt.key = key;\n        evt.value = value;\n        TransmuteEvent(evt.index, evt.sender, evt.key, evt.value);\n        self.events.push(evt);\n        return evt.index;\n    }\n\n    function read(TransmuteStorage storage self, uint index) public constant\n    returns (uint, address, bytes32, bytes32 ) {\n        TransmuteEventStruct memory evt = self.events[index];\n        return (\n            evt.index,\n            evt.sender,\n            evt.key,\n            evt.value\n        );\n    }\n\n   \n}\n",
  "sourcePath": "/Users/ericolszewski/Developer/Transmute/projects/sandbox/transmute/packages/transmute-eventstore/contracts/EventStoreLib.sol",
  "compiler": {
    "name": "solc",
    "version": "0.4.19+commit.c4cbbb05.Emscripten.clang"
  },
  "schemaVersion": "2.0.0",
  "updatedAt": "2018-04-03T21:13:37.552Z"
}