{
  "contractName": "EventStore",
  "abi": [
    {
      "constant": true,
      "inputs": [],
      "name": "owner",
      "outputs": [
        {
          "name": "",
          "type": "address"
        }
      ],
      "payable": false,
      "stateMutability": "view",
      "type": "function"
    },
    {
      "inputs": [],
      "payable": false,
      "stateMutability": "nonpayable",
      "type": "constructor"
    },
    {
      "constant": false,
      "inputs": [
        {
          "name": "key",
          "type": "bytes32"
        },
        {
          "name": "value",
          "type": "bytes32"
        }
      ],
      "name": "write",
      "outputs": [],
      "payable": false,
      "stateMutability": "nonpayable",
      "type": "function"
    },
    {
      "constant": true,
      "inputs": [
        {
          "name": "index",
          "type": "uint256"
        }
      ],
      "name": "read",
      "outputs": [
        {
          "name": "",
          "type": "address"
        },
        {
          "name": "",
          "type": "bytes32"
        },
        {
          "name": "",
          "type": "bytes32"
        }
      ],
      "payable": false,
      "stateMutability": "view",
      "type": "function"
    },
    {
      "constant": false,
      "inputs": [
        {
          "name": "target",
          "type": "address"
        }
      ],
      "name": "destroy",
      "outputs": [],
      "payable": false,
      "stateMutability": "nonpayable",
      "type": "function"
    }
  ],
  "bytecode": "0x6060604052341561000f57600080fd5b60018054600160a060020a03191633600160a060020a031617905561033a806100396000396000f3006060604052600436106100605763ffffffff7c0100000000000000000000000000000000000000000000000000000000600035041662f55d9d81146100655780638da5cb5b14610093578063e2e52ec1146100cf578063ed2e5a97146100e8575b600080fd5b341561007057600080fd5b61009173ffffffffffffffffffffffffffffffffffffffff60043516610139565b005b341561009e57600080fd5b6100a661017a565b60405173ffffffffffffffffffffffffffffffffffffffff909116815260200160405180910390f35b34156100da57600080fd5b610091600435602435610196565b34156100f357600080fd5b6100fe60043561025e565b60405173ffffffffffffffffffffffffffffffffffffffff909316835260208301919091526040808301919091526060909101905180910390f35b6001543373ffffffffffffffffffffffffffffffffffffffff90811691161461016157600080fd5b8073ffffffffffffffffffffffffffffffffffffffff16ff5b60015473ffffffffffffffffffffffffffffffffffffffff1681565b6001543373ffffffffffffffffffffffffffffffffffffffff9081169116146101be57600080fd5b73__EventStoreLib_________________________630d93ee9c600084846000604051602001526040517c010000000000000000000000000000000000000000000000000000000063ffffffff861602815260048101939093526024830191909152604482015260640160206040518083038186803b151561023f57600080fd5b6102c65a03f4151561025057600080fd5b505050604051805150505050565b600080600073__EventStoreLib_________________________631b68f0916000866000604051606001526040517c010000000000000000000000000000000000000000000000000000000063ffffffff85160281526004810192909252602482015260440160606040518083038186803b15156102db57600080fd5b6102c65a03f415156102ec57600080fd5b50505060405180519060200180519060200180519297919650919450925050505600a165627a7a723058207a5c7b4b6cb6e1ce2e537d4acff63056ad0eab18772a1b91fb41193dbd6d1a1e0029",
  "source": "pragma solidity ^0.4.17;\n\nimport \"./EventStoreLib.sol\";\n\ncontract EventStore {\n\n    EventStoreLib.TransmuteStorage store;\n\n    address public owner;\n \n    function EventStore() public {\n        owner = msg.sender;\n    }\n\n    function write(bytes32 key, bytes32 value) public {\n        require(msg.sender == owner);\n        EventStoreLib.write(\n            store,\n            key,\n            value\n        );\n    }\n\n    function read(uint index) public view\n    returns (address, bytes32, bytes32 ){\n        return EventStoreLib.read(store, index);\n    }\n\n    function destroy(address target) public {\n        require(msg.sender == owner);\n        selfdestruct(target);\n    }\n}",
  "sourcePath": "/Users/orie/OR13/transmute/packages/transmute-eventstore/contracts/EventStore.sol",
  "compiler": {
    "name": "solc",
    "version": "0.4.19+commit.c4cbbb05.Emscripten.clang"
  },
  "schemaVersion": "2.0.0",
  "updatedAt": "2018-03-22T20:25:26.859Z"
}