{
  "contractName": "EventStoreLib",
  "abi": [
    {
      "anonymous": false,
      "inputs": [
        {
          "indexed": false,
          "name": "sender",
          "type": "address"
        },
        {
          "indexed": false,
          "name": "key",
          "type": "bytes32"
        },
        {
          "indexed": false,
          "name": "value",
          "type": "bytes32"
        }
      ],
      "name": "TransmuteEvent",
      "type": "event"
    },
    {
      "constant": false,
      "inputs": [
        {
          "name": "self",
          "type": "EventStoreLib.TransmuteStorage storage"
        },
        {
          "name": "key",
          "type": "bytes32"
        },
        {
          "name": "value",
          "type": "bytes32"
        }
      ],
      "name": "write",
      "outputs": [
        {
          "name": "",
          "type": "uint256"
        }
      ],
      "payable": false,
      "stateMutability": "nonpayable",
      "type": "function"
    },
    {
      "constant": true,
      "inputs": [
        {
          "name": "self",
          "type": "EventStoreLib.TransmuteStorage storage"
        },
        {
          "name": "index",
          "type": "uint256"
        }
      ],
      "name": "read",
      "outputs": [
        {
          "name": "",
          "type": "address"
        },
        {
          "name": "",
          "type": "bytes32"
        },
        {
          "name": "",
          "type": "bytes32"
        }
      ],
      "payable": false,
      "stateMutability": "view",
      "type": "function"
    }
  ],
  "bytecode": "0x6060604052341561000f57600080fd5b61031a8061001e6000396000f30060606040526004361061004b5763ffffffff7c01000000000000000000000000000000000000000000000000000000006000350416630d93ee9c81146100505780631b68f09114610073575b600080fd5b6100616004356024356044356100bc565b60405190815260200160405180910390f35b6100816004356024356101d4565b60405173ffffffffffffffffffffffffffffffffffffffff909316835260208301919091526040808301919091526060909101905180910390f35b6000806100c7610257565b855473ffffffffffffffffffffffffffffffffffffffff33168252602082018690526040820185905291507f4d08348077fe794dec3ab11e93085b66ad3819948d4ad99634821039b675c56181518260200151836040015160405173ffffffffffffffffffffffffffffffffffffffff909316835260208301919091526040808301919091526060909101905180910390a1855486906001810161016b8382610277565b600092835260209092208391600302018151815473ffffffffffffffffffffffffffffffffffffffff191673ffffffffffffffffffffffffffffffffffffffff919091161781556020820151600182015560408201516002919091015550919695505050505050565b60008060006101e1610257565b85548690869081106101ef57fe5b906000526020600020906003020160606040519081016040908152825473ffffffffffffffffffffffffffffffffffffffff16825260018301546020830152600290920154918101919091529050805181602001518260400151935093509350509250925092565b606060405190810160409081526000808352602083018190529082015290565b8154818355818115116102a3576003028160030283600052602060002091820191016102a391906102a8565b505050565b6102eb91905b808211156102e757805473ffffffffffffffffffffffffffffffffffffffff1916815560006001820181905560028201556003016102ae565b5090565b905600a165627a7a72305820e50f2983456f5d456af4d77d897e6ff3116247e1bd3690667f14928b7391d1ea0029",
  "source": "pragma solidity ^0.4.17;\n\nlibrary EventStoreLib {\n\n    event TransmuteEvent(\n        address sender,\n        bytes32 key,\n        bytes32 value\n    );\n\n    struct TransmuteEventStruct {\n        address sender;\n        bytes32 key;  \n        bytes32 value; \n    }\n\n    struct TransmuteStorage {\n        TransmuteEventStruct[] events;\n    }\n\n    function write(\n        TransmuteStorage storage self,\n        bytes32 key,\n        bytes32 value\n    ) public returns (uint) {\n        uint index = self.events.length;\n        TransmuteEventStruct memory evt;\n        evt.sender = msg.sender;\n        evt.key = key;\n        evt.value = value;\n        TransmuteEvent(evt.sender, evt.key, evt.value);\n        self.events.push(evt);\n        return index;\n    }\n\n    function read(TransmuteStorage storage self, uint index) public constant\n    returns (address, bytes32, bytes32 ) {\n        TransmuteEventStruct memory evt = self.events[index];\n        return (\n            evt.sender,\n            evt.key,\n            evt.value\n        );\n    }\n\n   \n}\n",
  "sourcePath": "/Users/orie/OR13/transmute/packages/transmute-eventstore/contracts/EventStoreLib.sol",
  "compiler": {
    "name": "solc",
    "version": "0.4.19+commit.c4cbbb05.Emscripten.clang"
  },
  "schemaVersion": "2.0.0",
  "updatedAt": "2018-03-22T20:25:26.858Z"
}