{
  "contractName": "ArtifactDeployerFactory",
  "abi": [
    {
      "constant": true,
      "inputs": [],
      "name": "creator",
      "outputs": [
        {
          "name": "",
          "type": "address"
        }
      ],
      "payable": false,
      "stateMutability": "view",
      "type": "function"
    },
    {
      "constant": false,
      "inputs": [
        {
          "name": "_eventType",
          "type": "bytes32"
        },
        {
          "name": "_keyType",
          "type": "bytes1"
        },
        {
          "name": "_valueType",
          "type": "bytes1"
        },
        {
          "name": "_key",
          "type": "bytes32"
        },
        {
          "name": "_value",
          "type": "bytes32"
        }
      ],
      "name": "writeEvent",
      "outputs": [
        {
          "name": "",
          "type": "uint256"
        }
      ],
      "payable": false,
      "stateMutability": "nonpayable",
      "type": "function"
    },
    {
      "constant": false,
      "inputs": [],
      "name": "createEventStore",
      "outputs": [
        {
          "name": "",
          "type": "address"
        }
      ],
      "payable": false,
      "stateMutability": "nonpayable",
      "type": "function"
    },
    {
      "constant": true,
      "inputs": [],
      "name": "eventCount",
      "outputs": [
        {
          "name": "",
          "type": "uint256"
        }
      ],
      "payable": false,
      "stateMutability": "view",
      "type": "function"
    },
    {
      "constant": false,
      "inputs": [],
      "name": "destroy",
      "outputs": [
        {
          "name": "",
          "type": "uint256"
        }
      ],
      "payable": false,
      "stateMutability": "nonpayable",
      "type": "function"
    },
    {
      "constant": true,
      "inputs": [],
      "name": "owner",
      "outputs": [
        {
          "name": "",
          "type": "address"
        }
      ],
      "payable": false,
      "stateMutability": "view",
      "type": "function"
    },
    {
      "constant": true,
      "inputs": [],
      "name": "getEventStores",
      "outputs": [
        {
          "name": "",
          "type": "address[]"
        }
      ],
      "payable": false,
      "stateMutability": "view",
      "type": "function"
    },
    {
      "constant": false,
      "inputs": [
        {
          "name": "_address",
          "type": "address"
        }
      ],
      "name": "killEventStore",
      "outputs": [],
      "payable": false,
      "stateMutability": "nonpayable",
      "type": "function"
    },
    {
      "constant": true,
      "inputs": [],
      "name": "getEventStoresByCreator",
      "outputs": [
        {
          "name": "",
          "type": "address[]"
        }
      ],
      "payable": false,
      "stateMutability": "view",
      "type": "function"
    },
    {
      "constant": true,
      "inputs": [
        {
          "name": "_eventId",
          "type": "uint256"
        }
      ],
      "name": "readEvent",
      "outputs": [
        {
          "name": "",
          "type": "uint256"
        },
        {
          "name": "",
          "type": "address"
        },
        {
          "name": "",
          "type": "uint256"
        },
        {
          "name": "",
          "type": "bytes32"
        },
        {
          "name": "",
          "type": "bytes1"
        },
        {
          "name": "",
          "type": "bytes1"
        },
        {
          "name": "",
          "type": "bytes32"
        },
        {
          "name": "",
          "type": "bytes32"
        }
      ],
      "payable": false,
      "stateMutability": "view",
      "type": "function"
    },
    {
      "constant": false,
      "inputs": [
        {
          "name": "newOwner",
          "type": "address"
        }
      ],
      "name": "transferOwnership",
      "outputs": [],
      "payable": false,
      "stateMutability": "nonpayable",
      "type": "function"
    },
    {
      "inputs": [
        {
          "name": "_recipient",
          "type": "address"
        }
      ],
      "payable": false,
      "stateMutability": "nonpayable",
      "type": "function",
      "constant": false,
      "name": "destroyAndSend",
      "outputs": []
    },
    {
      "payable": true,
      "stateMutability": "payable",
      "type": "constructor",
      "inputs": []
    },
    {
      "anonymous": false,
      "inputs": [
        {
          "indexed": false,
          "name": "Id",
          "type": "uint256"
        },
        {
          "indexed": false,
          "name": "TxOrigin",
          "type": "address"
        },
        {
          "indexed": false,
          "name": "Created",
          "type": "uint256"
        },
        {
          "indexed": false,
          "name": "EventType",
          "type": "bytes32"
        },
        {
          "indexed": false,
          "name": "KeyType",
          "type": "bytes1"
        },
        {
          "indexed": false,
          "name": "ValueType",
          "type": "bytes1"
        },
        {
          "indexed": false,
          "name": "Key",
          "type": "bytes32"
        },
        {
          "indexed": false,
          "name": "Value",
          "type": "bytes32"
        }
      ],
      "name": "EsEvent",
      "type": "fallback",
      "payable": true,
      "stateMutability": "payable"
    },
    {
      "anonymous": false,
      "inputs": [
        {
          "indexed": false,
          "name": "Id",
          "type": "uint256"
        },
        {
          "indexed": false,
          "name": "TxOrigin",
          "type": "address"
        },
        {
          "indexed": false,
          "name": "Created",
          "type": "uint256"
        },
        {
          "indexed": false,
          "name": "EventType",
          "type": "bytes32"
        },
        {
          "indexed": false,
          "name": "KeyType",
          "type": "bytes1"
        },
        {
          "indexed": false,
          "name": "ValueType",
          "type": "bytes1"
        },
        {
          "indexed": false,
          "name": "Key",
          "type": "bytes32"
        },
        {
          "indexed": false,
          "name": "Value",
          "type": "bytes32"
        }
      ],
      "name": "EsEvent",
      "type": "event"
    },
    {
      "anonymous": false,
      "inputs": [
        {
          "indexed": true,
          "name": "previousOwner",
          "type": "address"
        },
        {
          "indexed": true,
          "name": "newOwner",
          "type": "address"
        }
      ],
      "name": "OwnershipTransferred",
      "type": "event"
    }
  ],
  "bytecode": "0x6060604052336000806101000a81548173ffffffffffffffffffffffffffffffffffffffff021916908373ffffffffffffffffffffffffffffffffffffffff16021790555032600260006101000a81548173ffffffffffffffffffffffffffffffffffffffff021916908373ffffffffffffffffffffffffffffffffffffffff160217905550611d51806100946000396000f3006060604052600436106100ba576000357c0100000000000000000000000000000000000000000000000000000000900463ffffffff16806302d05d3f146100bf57806335628b3814610114578063468d427e146101bf57806371be2e4a1461021457806383197ef01461023d5780638da5cb5b146102525780638dc668d7146102a7578063ccac2d7514610311578063ce844b5a1461034a578063e1ba30a9146103b4578063f2fde38b146104e8578063f5074f4114610521575b600080fd5b34156100ca57600080fd5b6100d261055a565b604051808273ffffffffffffffffffffffffffffffffffffffff1673ffffffffffffffffffffffffffffffffffffffff16815260200191505060405180910390f35b341561011f57600080fd5b6101a96004808035600019169060200190919080357effffffffffffffffffffffffffffffffffffffffffffffffffffffffffffff19169060200190919080357effffffffffffffffffffffffffffffffffffffffffffffffffffffffffffff19169060200190919080356000191690602001909190803560001916906020019091905050610580565b6040518082815260200191505060405180910390f35b34156101ca57600080fd5b6101d26106e4565b604051808273ffffffffffffffffffffffffffffffffffffffff1673ffffffffffffffffffffffffffffffffffffffff16815260200191505060405180910390f35b341561021f57600080fd5b61022761097e565b6040518082815260200191505060405180910390f35b341561024857600080fd5b61025061098e565b005b341561025d57600080fd5b610265610a23565b604051808273ffffffffffffffffffffffffffffffffffffffff1673ffffffffffffffffffffffffffffffffffffffff16815260200191505060405180910390f35b34156102b257600080fd5b6102ba610a48565b6040518080602001828103825283818151815260200191508051906020019060200280838360005b838110156102fd5780820151818401526020810190506102e2565b505050509050019250505060405180910390f35b341561031c57600080fd5b610348600480803573ffffffffffffffffffffffffffffffffffffffff16906020019091905050610adf565b005b341561035557600080fd5b61035d610fe7565b6040518080602001828103825283818151815260200191508051906020019060200280838360005b838110156103a0578082015181840152602081019050610385565b505050509050019250505060405180910390f35b34156103bf57600080fd5b6103d560048080359060200190919050506110bb565b604051808981526020018873ffffffffffffffffffffffffffffffffffffffff1673ffffffffffffffffffffffffffffffffffffffff1681526020018781526020018660001916600019168152602001857effffffffffffffffffffffffffffffffffffffffffffffffffffffffffffff19167effffffffffffffffffffffffffffffffffffffffffffffffffffffffffffff19168152602001847effffffffffffffffffffffffffffffffffffffffffffffffffffffffffffff19167effffffffffffffffffffffffffffffffffffffffffffffffffffffffffffff19168152602001836000191660001916815260200182600019166000191681526020019850505050505050505060405180910390f35b34156104f357600080fd5b61051f600480803573ffffffffffffffffffffffffffffffffffffffff169060200190919050506111a5565b005b341561052c57600080fd5b610558600480803573ffffffffffffffffffffffffffffffffffffffff169060200190919050506112fa565b005b600260009054906101000a900473ffffffffffffffffffffffffffffffffffffffff1681565b600073__EventStoreLib_________________________633bb64203600188888888886000604051602001526040518763ffffffff167c0100000000000000000000000000000000000000000000000000000000028152600401808781526020018660001916600019168152602001857effffffffffffffffffffffffffffffffffffffffffffffffffffffffffffff19167effffffffffffffffffffffffffffffffffffffffffffffffffffffffffffff19168152602001847effffffffffffffffffffffffffffffffffffffffffffffffffffffffffffff19167effffffffffffffffffffffffffffffffffffffffffffffffffffffffffffff1916815260200183600019166000191681526020018260001916600019168152602001965050505050505060206040518083038186803b15156106be57600080fd5b6102c65a03f415156106cf57600080fd5b50505060405180519050905095945050505050565b6000806106ef61136e565b604051809103906000f080151561070557600080fd5b9050600473__AddressSetLib_________________________631e4016169091836000604051602001526040518363ffffffff167c0100000000000000000000000000000000000000000000000000000000028152600401808381526020018273ffffffffffffffffffffffffffffffffffffffff1673ffffffffffffffffffffffffffffffffffffffff1681526020019250505060206040518083038186803b15156107b157600080fd5b6102c65a03f415156107c257600080fd5b5050506040518051905050600360003373ffffffffffffffffffffffffffffffffffffffff1673ffffffffffffffffffffffffffffffffffffffff16815260200190815260200160002073__AddressSetLib_________________________631e4016169091836000604051602001526040518363ffffffff167c0100000000000000000000000000000000000000000000000000000000028152600401808381526020018273ffffffffffffffffffffffffffffffffffffffff1673ffffffffffffffffffffffffffffffffffffffff1681526020019250505060206040518083038186803b15156108b457600080fd5b6102c65a03f415156108c557600080fd5b50505060405180519050506109767f45535f43524541544544000000000000000000000000000000000000000000007f53000000000000000000000000000000000000000000000000000000000000007f41000000000000000000000000000000000000000000000000000000000000007f61646472657373000000000000000000000000000000000000000000000000008573ffffffffffffffffffffffffffffffffffffffff16600102610580565b508091505090565b6000600160000180549050905090565b6000809054906101000a900473ffffffffffffffffffffffffffffffffffffffff1673ffffffffffffffffffffffffffffffffffffffff163373ffffffffffffffffffffffffffffffffffffffff161415156109e957600080fd5b6000809054906101000a900473ffffffffffffffffffffffffffffffffffffffff1673ffffffffffffffffffffffffffffffffffffffff16ff5b6000809054906101000a900473ffffffffffffffffffffffffffffffffffffffff1681565b610a5061137e565b6004600001805480602002602001604051908101604052809291908181526020018280548015610ad557602002820191906000526020600020905b8160009054906101000a900473ffffffffffffffffffffffffffffffffffffffff1673ffffffffffffffffffffffffffffffffffffffff1681526020019060010190808311610a8b575b5050505050905090565b600081600473__AddressSetLib_________________________63dc02e70d9091836000604051602001526040518363ffffffff167c0100000000000000000000000000000000000000000000000000000000028152600401808381526020018273ffffffffffffffffffffffffffffffffffffffff1673ffffffffffffffffffffffffffffffffffffffff1681526020019250505060206040518083038186803b1515610b8c57600080fd5b6102c65a03f41515610b9d57600080fd5b505050604051805190501515610bb257600080fd5b3373ffffffffffffffffffffffffffffffffffffffff163073ffffffffffffffffffffffffffffffffffffffff16638da5cb5b6000604051602001526040518163ffffffff167c0100000000000000000000000000000000000000000000000000000000028152600401602060405180830381600087803b1515610c3557600080fd5b6102c65a03f11515610c4657600080fd5b5050506040518051905073ffffffffffffffffffffffffffffffffffffffff16141515610c7257600080fd5b829150600360008373ffffffffffffffffffffffffffffffffffffffff16638da5cb5b6000604051602001526040518163ffffffff167c0100000000000000000000000000000000000000000000000000000000028152600401602060405180830381600087803b1515610ce557600080fd5b6102c65a03f11515610cf657600080fd5b5050506040518051905073ffffffffffffffffffffffffffffffffffffffff1673ffffffffffffffffffffffffffffffffffffffff16815260200190815260200160002073__AddressSetLib_________________________63499b67d99091856000604051602001526040518363ffffffff167c0100000000000000000000000000000000000000000000000000000000028152600401808381526020018273ffffffffffffffffffffffffffffffffffffffff1673ffffffffffffffffffffffffffffffffffffffff1681526020019250505060206040518083038186803b1515610de257600080fd5b6102c65a03f41515610df357600080fd5b5050506040518051905050600473__AddressSetLib_________________________63499b67d99091856000604051602001526040518363ffffffff167c0100000000000000000000000000000000000000000000000000000000028152600401808381526020018273ffffffffffffffffffffffffffffffffffffffff1673ffffffffffffffffffffffffffffffffffffffff1681526020019250505060206040518083038186803b1515610ea857600080fd5b6102c65a03f41515610eb957600080fd5b50505060405180519050508173ffffffffffffffffffffffffffffffffffffffff166383197ef06040518163ffffffff167c0100000000000000000000000000000000000000000000000000000000028152600401600060405180830381600087803b1515610f2757600080fd5b6102c65a03f11515610f3857600080fd5b505050610fe17f45535f44455354524f59454400000000000000000000000000000000000000007f53000000000000000000000000000000000000000000000000000000000000007f41000000000000000000000000000000000000000000000000000000000000007f61646472657373000000000000000000000000000000000000000000000000008773ffffffffffffffffffffffffffffffffffffffff16600102610580565b50505050565b610fef61137e565b600360003373ffffffffffffffffffffffffffffffffffffffff1673ffffffffffffffffffffffffffffffffffffffff1681526020019081526020016000206000018054806020026020016040519081016040528092919081815260200182805480156110b157602002820191906000526020600020905b8160009054906101000a900473ffffffffffffffffffffffffffffffffffffffff1673ffffffffffffffffffffffffffffffffffffffff1681526020019060010190808311611067575b5050505050905090565b60008060008060008060008073__EventStoreLib_________________________63a057fd5e60018b600060405161010001526040518363ffffffff167c010000000000000000000000000000000000000000000000000000000002815260040180838152602001828152602001925050506101006040518083038186803b151561114557600080fd5b6102c65a03f4151561115657600080fd5b5050506040518051906020018051906020018051906020018051906020018051906020018051906020018051906020018051905097509750975097509750975097509750919395975091939597565b6000809054906101000a900473ffffffffffffffffffffffffffffffffffffffff1673ffffffffffffffffffffffffffffffffffffffff163373ffffffffffffffffffffffffffffffffffffffff1614151561120057600080fd5b600073ffffffffffffffffffffffffffffffffffffffff168173ffffffffffffffffffffffffffffffffffffffff161415151561123c57600080fd5b8073ffffffffffffffffffffffffffffffffffffffff166000809054906101000a900473ffffffffffffffffffffffffffffffffffffffff1673ffffffffffffffffffffffffffffffffffffffff167f8be0079c531659141344cd1fd0a4f28419497f9722a3daafe3b4186f6b6457e060405160405180910390a3806000806101000a81548173ffffffffffffffffffffffffffffffffffffffff021916908373ffffffffffffffffffffffffffffffffffffffff16021790555050565b6000809054906101000a900473ffffffffffffffffffffffffffffffffffffffff1673ffffffffffffffffffffffffffffffffffffffff163373ffffffffffffffffffffffffffffffffffffffff1614151561135557600080fd5b8073ffffffffffffffffffffffffffffffffffffffff16ff5b6040516109938061139383390190565b60206040519081016040528060008152509056006060604052336000806101000a81548173ffffffffffffffffffffffffffffffffffffffff021916908373ffffffffffffffffffffffffffffffffffffffff16021790555032600260006101000a81548173ffffffffffffffffffffffffffffffffffffffff021916908373ffffffffffffffffffffffffffffffffffffffff1602179055506108ff806100946000396000f30060606040526004361061008e576000357c0100000000000000000000000000000000000000000000000000000000900463ffffffff16806302d05d3f1461009357806335628b38146100e857806371be2e4a1461019357806383197ef0146101bc5780638da5cb5b146101d1578063e1ba30a914610226578063f2fde38b1461035a578063f5074f4114610393575b600080fd5b341561009e57600080fd5b6100a66103cc565b604051808273ffffffffffffffffffffffffffffffffffffffff1673ffffffffffffffffffffffffffffffffffffffff16815260200191505060405180910390f35b34156100f357600080fd5b61017d6004808035600019169060200190919080357effffffffffffffffffffffffffffffffffffffffffffffffffffffffffffff19169060200190919080357effffffffffffffffffffffffffffffffffffffffffffffffffffffffffffff191690602001909190803560001916906020019091908035600019169060200190919050506103f2565b6040518082815260200191505060405180910390f35b341561019e57600080fd5b6101a6610556565b6040518082815260200191505060405180910390f35b34156101c757600080fd5b6101cf610566565b005b34156101dc57600080fd5b6101e46105fb565b604051808273ffffffffffffffffffffffffffffffffffffffff1673ffffffffffffffffffffffffffffffffffffffff16815260200191505060405180910390f35b341561023157600080fd5b6102476004808035906020019091905050610620565b604051808981526020018873ffffffffffffffffffffffffffffffffffffffff1673ffffffffffffffffffffffffffffffffffffffff1681526020018781526020018660001916600019168152602001857effffffffffffffffffffffffffffffffffffffffffffffffffffffffffffff19167effffffffffffffffffffffffffffffffffffffffffffffffffffffffffffff19168152602001847effffffffffffffffffffffffffffffffffffffffffffffffffffffffffffff19167effffffffffffffffffffffffffffffffffffffffffffffffffffffffffffff19168152602001836000191660001916815260200182600019166000191681526020019850505050505050505060405180910390f35b341561036557600080fd5b610391600480803573ffffffffffffffffffffffffffffffffffffffff1690602001909190505061070a565b005b341561039e57600080fd5b6103ca600480803573ffffffffffffffffffffffffffffffffffffffff1690602001909190505061085f565b005b600260009054906101000a900473ffffffffffffffffffffffffffffffffffffffff1681565b600073__EventStoreLib_________________________633bb64203600188888888886000604051602001526040518763ffffffff167c0100000000000000000000000000000000000000000000000000000000028152600401808781526020018660001916600019168152602001857effffffffffffffffffffffffffffffffffffffffffffffffffffffffffffff19167effffffffffffffffffffffffffffffffffffffffffffffffffffffffffffff19168152602001847effffffffffffffffffffffffffffffffffffffffffffffffffffffffffffff19167effffffffffffffffffffffffffffffffffffffffffffffffffffffffffffff1916815260200183600019166000191681526020018260001916600019168152602001965050505050505060206040518083038186803b151561053057600080fd5b6102c65a03f4151561054157600080fd5b50505060405180519050905095945050505050565b6000600160000180549050905090565b6000809054906101000a900473ffffffffffffffffffffffffffffffffffffffff1673ffffffffffffffffffffffffffffffffffffffff163373ffffffffffffffffffffffffffffffffffffffff161415156105c157600080fd5b6000809054906101000a900473ffffffffffffffffffffffffffffffffffffffff1673ffffffffffffffffffffffffffffffffffffffff16ff5b6000809054906101000a900473ffffffffffffffffffffffffffffffffffffffff1681565b60008060008060008060008073__EventStoreLib_________________________63a057fd5e60018b600060405161010001526040518363ffffffff167c010000000000000000000000000000000000000000000000000000000002815260040180838152602001828152602001925050506101006040518083038186803b15156106aa57600080fd5b6102c65a03f415156106bb57600080fd5b5050506040518051906020018051906020018051906020018051906020018051906020018051906020018051906020018051905097509750975097509750975097509750919395975091939597565b6000809054906101000a900473ffffffffffffffffffffffffffffffffffffffff1673ffffffffffffffffffffffffffffffffffffffff163373ffffffffffffffffffffffffffffffffffffffff1614151561076557600080fd5b600073ffffffffffffffffffffffffffffffffffffffff168173ffffffffffffffffffffffffffffffffffffffff16141515156107a157600080fd5b8073ffffffffffffffffffffffffffffffffffffffff166000809054906101000a900473ffffffffffffffffffffffffffffffffffffffff1673ffffffffffffffffffffffffffffffffffffffff167f8be0079c531659141344cd1fd0a4f28419497f9722a3daafe3b4186f6b6457e060405160405180910390a3806000806101000a81548173ffffffffffffffffffffffffffffffffffffffff021916908373ffffffffffffffffffffffffffffffffffffffff16021790555050565b6000809054906101000a900473ffffffffffffffffffffffffffffffffffffffff1673ffffffffffffffffffffffffffffffffffffffff163373ffffffffffffffffffffffffffffffffffffffff161415156108ba57600080fd5b8073ffffffffffffffffffffffffffffffffffffffff16ff00a165627a7a7230582084b8a726de9716363f112889107c04b5563409c583b78afd34bf5ca24b8027c30029a165627a7a72305820d1785cfd36ee66bec0aef379eab26100be6355a22f8fc98670b40dbce5afc27c0029",
  "source": "pragma solidity ^0.4.11;\n\nimport \"../node_modules/transmute-framework/contracts/TransmuteFramework/UnsafeEventStoreFactory.sol\";\n\ncontract ArtifactDeployerFactory is UnsafeEventStoreFactory {\n\n  function () public payable { revert(); }\n\n  function ArtifactDeployerFactory() public payable {}\n\n  event EsEvent(\n    uint Id,\n    address TxOrigin,\n    uint Created,\n\n    bytes32 EventType,\n\n    bytes1 KeyType,\n    bytes1 ValueType,\n\n    bytes32 Key,\n    bytes32 Value\n  );\n}\n",
  "sourcePath": "/Users/orie/Code/lerna-transmute/packages/transmute-services/contracts/ArtifactDeployerFactory.sol",
  "compiler": {
    "name": "solc",
    "version": "0.4.18+commit.9cf6e910.Emscripten.clang"
  },
  "schemaVersion": "1.0.1",
  "updatedAt": "2017-12-02T02:01:39.599Z"
}