{
  "contractName": "EventStoreLib",
  "abi": [
    {
      "constant": false,
      "inputs": [
        {
          "name": "self",
          "type": "EventStoreLib.EsEventStorage storage"
        },
        {
          "name": "_eventType",
          "type": "bytes32"
        },
        {
          "name": "_keyType",
          "type": "bytes1"
        },
        {
          "name": "_valueType",
          "type": "bytes1"
        },
        {
          "name": "_key",
          "type": "bytes32"
        },
        {
          "name": "_value",
          "type": "bytes32"
        }
      ],
      "name": "writeEvent",
      "outputs": [
        {
          "name": "",
          "type": "uint256"
        }
      ],
      "payable": false,
      "stateMutability": "nonpayable",
      "type": "function"
    },
    {
      "constant": true,
      "inputs": [
        {
          "name": "self",
          "type": "EventStoreLib.EsEventStorage storage"
        },
        {
          "name": "_eventId",
          "type": "uint256"
        }
      ],
      "name": "readEvent",
      "outputs": [
        {
          "name": "",
          "type": "uint256"
        },
        {
          "name": "",
          "type": "address"
        },
        {
          "name": "",
          "type": "uint256"
        },
        {
          "name": "",
          "type": "bytes32"
        },
        {
          "name": "",
          "type": "bytes1"
        },
        {
          "name": "",
          "type": "bytes1"
        },
        {
          "name": "",
          "type": "bytes32"
        },
        {
          "name": "",
          "type": "bytes32"
        }
      ],
      "payable": false,
      "stateMutability": "view",
      "type": "function"
    },
    {
      "anonymous": false,
      "inputs": [
        {
          "indexed": false,
          "name": "Id",
          "type": "uint256"
        },
        {
          "indexed": false,
          "name": "TxOrigin",
          "type": "address"
        },
        {
          "indexed": false,
          "name": "Created",
          "type": "uint256"
        },
        {
          "indexed": false,
          "name": "EventType",
          "type": "bytes32"
        },
        {
          "indexed": false,
          "name": "KeyType",
          "type": "bytes1"
        },
        {
          "indexed": false,
          "name": "ValueType",
          "type": "bytes1"
        },
        {
          "indexed": false,
          "name": "Key",
          "type": "bytes32"
        },
        {
          "indexed": false,
          "name": "Value",
          "type": "bytes32"
        }
      ],
      "name": "EsEvent",
      "type": "event"
    }
  ],
  "bytecode": "0x6060604052341561000f57600080fd5b6109978061001e6000396000f30060606040526004361061004c576000357c0100000000000000000000000000000000000000000000000000000000900463ffffffff1680633bb6420314610051578063a057fd5e146100fa575b600080fd5b6100e46004808035906020019091908035600019169060200190919080357effffffffffffffffffffffffffffffffffffffffffffffffffffffffffffff19169060200190919080357effffffffffffffffffffffffffffffffffffffffffffffffffffffffffffff1916906020019091908035600019169060200190919080356000191690602001909190505061022c565b6040518082815260200191505060405180910390f35b61011960048080359060200190919080359060200190919050506105fd565b604051808981526020018873ffffffffffffffffffffffffffffffffffffffff1673ffffffffffffffffffffffffffffffffffffffff1681526020018781526020018660001916600019168152602001857effffffffffffffffffffffffffffffffffffffffffffffffffffffffffffff19167effffffffffffffffffffffffffffffffffffffffffffffffffffffffffffff19168152602001847effffffffffffffffffffffffffffffffffffffffffffffffffffffffffffff19167effffffffffffffffffffffffffffffffffffffffffffffffffffffffffffff19168152602001836000191660001916815260200182600019166000191681526020019850505050505050505060405180910390f35b600080600061023961080a565b4292508960000180549050915033816000019073ffffffffffffffffffffffffffffffffffffffff16908173ffffffffffffffffffffffffffffffffffffffff16815250508281602001818152505088816040019060001916908160001916815250508781606001907effffffffffffffffffffffffffffffffffffffffffffffffffffffffffffff191690817effffffffffffffffffffffffffffffffffffffffffffffffffffffffffffff1916815250508681608001907effffffffffffffffffffffffffffffffffffffffffffffffffffffffffffff191690817effffffffffffffffffffffffffffffffffffffffffffffffffffffffffffff191681525050858160a001906000191690816000191681525050848160c0019060001916908160001916815250507f34fda208d95da3b89ce2ca6e488201282198f339ef139dd80138a430c8d03a2482826000015183602001518460400151856060015186608001518760a001518860c00151604051808981526020018873ffffffffffffffffffffffffffffffffffffffff1673ffffffffffffffffffffffffffffffffffffffff1681526020018781526020018660001916600019168152602001857effffffffffffffffffffffffffffffffffffffffffffffffffffffffffffff19167effffffffffffffffffffffffffffffffffffffffffffffffffffffffffffff19168152602001847effffffffffffffffffffffffffffffffffffffffffffffffffffffffffffff19167effffffffffffffffffffffffffffffffffffffffffffffffffffffffffffff19168152602001836000191660001916815260200182600019166000191681526020019850505050505050505060405180910390a18960000180548060010182816104d191906108ab565b9160005260206000209060060201600083909190915060008201518160000160006101000a81548173ffffffffffffffffffffffffffffffffffffffff021916908373ffffffffffffffffffffffffffffffffffffffff160217905550602082015181600101556040820151816002019060001916905560608201518160030160006101000a81548160ff02191690837f01000000000000000000000000000000000000000000000000000000000000009004021790555060808201518160030160016101000a81548160ff02191690837f01000000000000000000000000000000000000000000000000000000000000009004021790555060a0820151816004019060001916905560c082015181600501906000191690555050508193505050509695505050505050565b60008060008060008060008061061161080a565b8a6000018a81548110151561062257fe5b906000526020600020906006020160e060405190810160405290816000820160009054906101000a900473ffffffffffffffffffffffffffffffffffffffff1673ffffffffffffffffffffffffffffffffffffffff1673ffffffffffffffffffffffffffffffffffffffff168152602001600182015481526020016002820154600019166000191681526020016003820160009054906101000a90047f0100000000000000000000000000000000000000000000000000000000000000027effffffffffffffffffffffffffffffffffffffffffffffffffffffffffffff19167effffffffffffffffffffffffffffffffffffffffffffffffffffffffffffff191681526020016003820160019054906101000a90047f0100000000000000000000000000000000000000000000000000000000000000027effffffffffffffffffffffffffffffffffffffffffffffffffffffffffffff19167effffffffffffffffffffffffffffffffffffffffffffffffffffffffffffff191681526020016004820154600019166000191681526020016005820154600019166000191681525050905089816000015182602001518360400151846060015185608001518660a001518760c0015198509850985098509850985098509850509295985092959890939650565b60e060405190810160405280600073ffffffffffffffffffffffffffffffffffffffff168152602001600081526020016000801916815260200160007effffffffffffffffffffffffffffffffffffffffffffffffffffffffffffff1916815260200160007effffffffffffffffffffffffffffffffffffffffffffffffffffffffffffff1916815260200160008019168152602001600080191681525090565b8154818355818115116108d8576006028160060283600052602060002091820191016108d791906108dd565b5b505050565b61096891905b8082111561096457600080820160006101000a81549073ffffffffffffffffffffffffffffffffffffffff0219169055600182016000905560028201600090556003820160006101000a81549060ff02191690556003820160016101000a81549060ff021916905560048201600090556005820160009055506006016108e3565b5090565b905600a165627a7a723058203247b1918e5b006100bfd2595493fae337b3771e04b5eecdf1666fa64baeb6db0029",
  "source": "pragma solidity ^0.4.11;\n\nlibrary EventStoreLib{\n\n    // String Encodings\n    // A - Address,\n    // U - UInt,\n    // B - Hex (bytes32),\n    // X - Bytes32 (ascii)\n    // S - Bytes32 (ascii)\n\n    struct EsEventStruct {\n        address TxOrigin;\n        uint Created;\n\n        bytes32 EventType; // Event Type + Version\n\n        bytes1 KeyType; // String Encodings\n        bytes1 ValueType; // String Encodings\n\n        bytes32 Key; // Key\n        bytes32 Value; // Value\n    }\n\n    struct EsEventStorage {\n        EsEventStruct[] events;\n    }\n\n    // WRITE EVENT\n    function writeEvent(\n        EsEventStorage storage self,\n        bytes32 _eventType,\n        bytes1 _keyType,\n        bytes1 _valueType,\n        bytes32 _key,\n        bytes32 _value\n    ) public returns (uint) {\n        uint _created = now;\n        uint _eventId = self.events.length;\n\n        EsEventStruct memory esEvent;\n        esEvent.TxOrigin = msg.sender;\n        esEvent.Created = _created;\n\n        esEvent.EventType = _eventType;\n\n        esEvent.KeyType = _keyType;\n        esEvent.ValueType = _valueType;\n\n        esEvent.Key = _key;\n        esEvent.Value = _value;\n\n        EsEvent(\n            _eventId,\n            esEvent.TxOrigin,\n            esEvent.Created,\n            esEvent.EventType,\n            esEvent.KeyType,\n            esEvent.ValueType,\n            esEvent.Key,\n            esEvent.Value\n        );\n        self.events.push(esEvent);\n        return _eventId;\n    }\n\n    // READ EVENT\n    function readEvent(EsEventStorage storage self, uint _eventId) public view\n    returns (uint, address, uint, bytes32, bytes1, bytes1, bytes32, bytes32) {\n        EsEventStruct memory esEvent = self.events[_eventId];\n        return (\n            _eventId,\n            esEvent.TxOrigin,\n            esEvent.Created,\n            esEvent.EventType,\n\n            esEvent.KeyType,\n            esEvent.ValueType,\n\n            esEvent.Key,\n            esEvent.Value\n        );\n    }\n\n    event EsEvent(\n        uint Id,\n        address TxOrigin,\n        uint Created,\n\n        bytes32 EventType,\n\n        bytes1 KeyType,\n        bytes1 ValueType,\n\n        bytes32 Key,\n        bytes32 Value\n    );\n\n}\n",
  "sourcePath": "/Users/orie/Code/lerna-transmute/packages/transmute-services/node_modules/transmute-framework/contracts/TransmuteFramework/EventStoreLib.sol",
  "compiler": {
    "name": "solc",
    "version": "0.4.18+commit.9cf6e910.Emscripten.clang"
  },
  "schemaVersion": "1.0.1",
  "updatedAt": "2017-11-26T20:45:25.374Z"
}