{
  "contractName": "Oracle",
  "abi": [
    {
      "constant": true,
      "inputs": [],
      "name": "creator",
      "outputs": [
        {
          "name": "",
          "type": "address"
        }
      ],
      "payable": false,
      "stateMutability": "view",
      "type": "function"
    },
    {
      "constant": false,
      "inputs": [
        {
          "name": "_guid",
          "type": "bytes32"
        },
        {
          "name": "_request",
          "type": "bytes32"
        },
        {
          "name": "_callback",
          "type": "function"
        }
      ],
      "name": "requestBytes32",
      "outputs": [],
      "payable": false,
      "stateMutability": "nonpayable",
      "type": "function"
    },
    {
      "constant": false,
      "inputs": [
        {
          "name": "_eventType",
          "type": "bytes32"
        },
        {
          "name": "_keyType",
          "type": "bytes1"
        },
        {
          "name": "_valueType",
          "type": "bytes1"
        },
        {
          "name": "_key",
          "type": "bytes32"
        },
        {
          "name": "_value",
          "type": "bytes32"
        }
      ],
      "name": "writeEvent",
      "outputs": [
        {
          "name": "",
          "type": "uint256"
        }
      ],
      "payable": false,
      "stateMutability": "nonpayable",
      "type": "function"
    },
    {
      "constant": false,
      "inputs": [],
      "name": "kill",
      "outputs": [],
      "payable": false,
      "stateMutability": "nonpayable",
      "type": "function"
    },
    {
      "constant": true,
      "inputs": [],
      "name": "eventCount",
      "outputs": [
        {
          "name": "",
          "type": "uint256"
        }
      ],
      "payable": false,
      "stateMutability": "view",
      "type": "function"
    },
    {
      "constant": true,
      "inputs": [],
      "name": "owner",
      "outputs": [
        {
          "name": "",
          "type": "address"
        }
      ],
      "payable": false,
      "stateMutability": "view",
      "type": "function"
    },
    {
      "constant": false,
      "inputs": [
        {
          "name": "_guid",
          "type": "bytes32"
        },
        {
          "name": "_data",
          "type": "bytes32"
        }
      ],
      "name": "respondBytes32",
      "outputs": [],
      "payable": false,
      "stateMutability": "nonpayable",
      "type": "function"
    },
    {
      "constant": true,
      "inputs": [
        {
          "name": "_eventId",
          "type": "uint256"
        }
      ],
      "name": "readEvent",
      "outputs": [
        {
          "name": "",
          "type": "uint256"
        },
        {
          "name": "",
          "type": "address"
        },
        {
          "name": "",
          "type": "uint256"
        },
        {
          "name": "",
          "type": "bytes32"
        },
        {
          "name": "",
          "type": "bytes1"
        },
        {
          "name": "",
          "type": "bytes1"
        },
        {
          "name": "",
          "type": "bytes32"
        },
        {
          "name": "",
          "type": "bytes32"
        }
      ],
      "payable": false,
      "stateMutability": "view",
      "type": "function"
    },
    {
      "constant": false,
      "inputs": [
        {
          "name": "newOwner",
          "type": "address"
        }
      ],
      "name": "transferOwnership",
      "outputs": [],
      "payable": false,
      "stateMutability": "nonpayable",
      "type": "function"
    },
    {
      "constant": true,
      "inputs": [
        {
          "name": "_guid",
          "type": "bytes32"
        }
      ],
      "name": "getTransactionByGuid",
      "outputs": [
        {
          "name": "",
          "type": "bytes32"
        },
        {
          "name": "",
          "type": "address"
        },
        {
          "name": "",
          "type": "bytes32"
        },
        {
          "name": "",
          "type": "bytes32"
        }
      ],
      "payable": false,
      "stateMutability": "view",
      "type": "function"
    },
    {
      "inputs": [],
      "payable": true,
      "stateMutability": "payable",
      "type": "constructor"
    },
    {
      "payable": true,
      "stateMutability": "payable",
      "type": "fallback"
    },
    {
      "anonymous": false,
      "inputs": [
        {
          "indexed": false,
          "name": "Id",
          "type": "uint256"
        },
        {
          "indexed": false,
          "name": "TxOrigin",
          "type": "address"
        },
        {
          "indexed": false,
          "name": "Created",
          "type": "uint256"
        },
        {
          "indexed": false,
          "name": "EventType",
          "type": "bytes32"
        },
        {
          "indexed": false,
          "name": "KeyType",
          "type": "bytes1"
        },
        {
          "indexed": false,
          "name": "ValueType",
          "type": "bytes1"
        },
        {
          "indexed": false,
          "name": "Key",
          "type": "bytes32"
        },
        {
          "indexed": false,
          "name": "Value",
          "type": "bytes32"
        }
      ],
      "name": "EsEvent",
      "type": "event"
    }
  ],
  "bytecode": "0x6060604052336000806101000a81548173ffffffffffffffffffffffffffffffffffffffff021916908373ffffffffffffffffffffffffffffffffffffffff16021790555032600260006101000a81548173ffffffffffffffffffffffffffffffffffffffff021916908373ffffffffffffffffffffffffffffffffffffffff160217905550610e3b806100946000396000f3006060604052600436106100a4576000357c0100000000000000000000000000000000000000000000000000000000900463ffffffff16806302d05d3f146100a957806329d27478146100fe57806335628b381461017b57806341c0e1b51461022657806371be2e4a1461023b5780638da5cb5b14610264578063da7b6108146102b9578063e1ba30a9146102ed578063f2fde38b14610421578063f3bdabb01461045a575b600080fd5b34156100b457600080fd5b6100bc6104ee565b604051808273ffffffffffffffffffffffffffffffffffffffff1673ffffffffffffffffffffffffffffffffffffffff16815260200191505060405180910390f35b341561010957600080fd5b61017960048080356000191690602001909190803560001916906020019091908035806c0100000000000000000000000090049068010000000000000000900463ffffffff1677ffffffffffffffffffffffffffffffffffffffffffffffff169091602001909192905050610514565b005b341561018657600080fd5b6102106004808035600019169060200190919080357effffffffffffffffffffffffffffffffffffffffffffffffffffffffffffff19169060200190919080357effffffffffffffffffffffffffffffffffffffffffffffffffffffffffffff191690602001909190803560001916906020019091908035600019169060200190919050506107ed565b6040518082815260200191505060405180910390f35b341561023157600080fd5b610239610951565b005b341561024657600080fd5b61024e61098b565b6040518082815260200191505060405180910390f35b341561026f57600080fd5b61027761099b565b604051808273ffffffffffffffffffffffffffffffffffffffff1673ffffffffffffffffffffffffffffffffffffffff16815260200191505060405180910390f35b34156102c457600080fd5b6102eb600480803560001916906020019091908035600019169060200190919050506109c0565b005b34156102f857600080fd5b61030e6004808035906020019091905050610b22565b604051808981526020018873ffffffffffffffffffffffffffffffffffffffff1673ffffffffffffffffffffffffffffffffffffffff1681526020018781526020018660001916600019168152602001857effffffffffffffffffffffffffffffffffffffffffffffffffffffffffffff19167effffffffffffffffffffffffffffffffffffffffffffffffffffffffffffff19168152602001847effffffffffffffffffffffffffffffffffffffffffffffffffffffffffffff19167effffffffffffffffffffffffffffffffffffffffffffffffffffffffffffff19168152602001836000191660001916815260200182600019166000191681526020019850505050505050505060405180910390f35b341561042c57600080fd5b610458600480803573ffffffffffffffffffffffffffffffffffffffff16906020019091905050610c0c565b005b341561046557600080fd5b61047f600480803560001916906020019091905050610cdc565b6040518085600019166000191681526020018473ffffffffffffffffffffffffffffffffffffffff1673ffffffffffffffffffffffffffffffffffffffff1681526020018360001916600019168152602001826000191660001916815260200194505050505060405180910390f35b600260009054906101000a900473ffffffffffffffffffffffffffffffffffffffff1681565b61051c610da5565b8460006003600083600019166000191681526020019081526020016000209050600073ffffffffffffffffffffffffffffffffffffffff168160010160009054906101000a900473ffffffffffffffffffffffffffffffffffffffff1673ffffffffffffffffffffffffffffffffffffffff1614151561059b57600080fd5b868360000190600019169081600019168152505033836020019073ffffffffffffffffffffffffffffffffffffffff16908173ffffffffffffffffffffffffffffffffffffffff16815250508583604001906000191690816000191681525050848484606001919077ffffffffffffffffffffffffffffffffffffffffffffffff169091828263ffffffff1690640100000000021768010000000000000000028152505050826003600089600019166000191681526020019081526020016000206000820151816000019060001916905560208201518160010160006101000a81548173ffffffffffffffffffffffffffffffffffffffff021916908373ffffffffffffffffffffffffffffffffffffffff160217905550604082015181600201906000191690556060820151806c0100000000000000000000000090049068010000000000000000900463ffffffff168260030160006101000a81548177ffffffffffffffffffffffffffffffffffffffffffffffff02191690848463ffffffff169073ffffffffffffffffffffffffffffffffffffffff166401000000000217021790555050608082015181600401906000191690559050506107e37f52455155455354000000000000000000000000000000000000000000000000007f53000000000000000000000000000000000000000000000000000000000000007f42000000000000000000000000000000000000000000000000000000000000007f67756964000000000000000000000000000000000000000000000000000000008b6107ed565b5050505050505050565b600073__EventStoreLib_________________________633bb64203600188888888886000604051602001526040518763ffffffff167c0100000000000000000000000000000000000000000000000000000000028152600401808781526020018660001916600019168152602001857effffffffffffffffffffffffffffffffffffffffffffffffffffffffffffff19167effffffffffffffffffffffffffffffffffffffffffffffffffffffffffffff19168152602001847effffffffffffffffffffffffffffffffffffffffffffffffffffffffffffff19167effffffffffffffffffffffffffffffffffffffffffffffffffffffffffffff1916815260200183600019166000191681526020018260001916600019168152602001965050505050505060206040518083038186803b151561092b57600080fd5b6102c65a03f4151561093c57600080fd5b50505060405180519050905095945050505050565b6000809054906101000a900473ffffffffffffffffffffffffffffffffffffffff1673ffffffffffffffffffffffffffffffffffffffff16ff5b6000600160000180549050905090565b6000809054906101000a900473ffffffffffffffffffffffffffffffffffffffff1681565b60006003600084600019166000191681526020019081526020016000209050818160040181600019169055508060030160009054906101000a900480640100000000900473ffffffffffffffffffffffffffffffffffffffff169063ffffffff16836040518263ffffffff167c0100000000000000000000000000000000000000000000000000000000028152600401808260001916600019168152602001915050600060405180830381600087803b1515610a7b57600080fd5b6102c65a03f11515610a8c57600080fd5b505050610b1c7f524553504f4e53450000000000000000000000000000000000000000000000007f53000000000000000000000000000000000000000000000000000000000000007f42000000000000000000000000000000000000000000000000000000000000007f6775696400000000000000000000000000000000000000000000000000000000876107ed565b50505050565b60008060008060008060008073__EventStoreLib_________________________63a057fd5e60018b600060405161010001526040518363ffffffff167c010000000000000000000000000000000000000000000000000000000002815260040180838152602001828152602001925050506101006040518083038186803b1515610bac57600080fd5b6102c65a03f41515610bbd57600080fd5b5050506040518051906020018051906020018051906020018051906020018051906020018051906020018051906020018051905097509750975097509750975097509750919395975091939597565b6000809054906101000a900473ffffffffffffffffffffffffffffffffffffffff1673ffffffffffffffffffffffffffffffffffffffff163373ffffffffffffffffffffffffffffffffffffffff161415610cd957600073ffffffffffffffffffffffffffffffffffffffff168173ffffffffffffffffffffffffffffffffffffffff16141515610cd857806000806101000a81548173ffffffffffffffffffffffffffffffffffffffff021916908373ffffffffffffffffffffffffffffffffffffffff1602179055505b5b50565b60008060008060006003600087600019166000191681526020019081526020016000209050600073ffffffffffffffffffffffffffffffffffffffff168160010160009054906101000a900473ffffffffffffffffffffffffffffffffffffffff1673ffffffffffffffffffffffffffffffffffffffff1614151515610d6157600080fd5b80600001548160010160009054906101000a900473ffffffffffffffffffffffffffffffffffffffff16826002015483600401549450945094509450509193509193565b60a06040519081016040528060008019168152602001600073ffffffffffffffffffffffffffffffffffffffff1681526020016000801916815260200160008063ffffffff16906401000000000217680100000000000000000281526020016000801916815250905600a165627a7a723058204986aef385cc0764956c652e82bb63027059e49f46a51748961d28940a1ebd900029",
  "source": "pragma solidity ^0.4.11;\n\nimport \"../node_modules/transmute-framework/contracts/TransmuteFramework/UnsafeEventStore.sol\";\n\ncontract Oracle is UnsafeEventStore {\n\n  // Think about standards...\n  // http://www.jsonrpc.org/specification\n  // struct RequestObject {\n  //   bytes32 jsonrpc;\n  //   bytes32 method;\n  //   bytes32 params;\n  //   bytes32 id;\n  // }\n\n  // struct ResponseObject {\n  //   bytes32 jsonrpc;\n  //   bytes32 result;\n  //   bytes32 error;\n  //   bytes32 id;\n  // }\n\n  // Modifiers\n  modifier transactionDoesNotExist(bytes32 _guid) {\n    OracleTransaction storage ot = transactions[_guid];\n    require(ot.callerAddress == address(0));\n    _;\n  }\n\n  // Fallback Function\n  function () public payable { revert(); }\n  \n  // Constructor\n  function Oracle() public payable {}\n\n  struct OracleTransaction {\n    bytes32 guid;\n    address callerAddress;\n    bytes32 callerRequest;\n    function(bytes32) external callerCallback;\n\n    bytes32 oracleResponse; \n  }\n\n  mapping (bytes32 => OracleTransaction) transactions;\n\n  function getTransactionByGuid(bytes32 _guid) external view returns (bytes32, address, bytes32, bytes32) {\n    OracleTransaction storage ot = transactions[_guid];\n    require(ot.callerAddress != address(0));\n    return (ot.guid, ot.callerAddress, ot.callerRequest, ot.oracleResponse);\n  }\n\n  function requestBytes32(bytes32 _guid, bytes32 _request, function(bytes32) external _callback) external transactionDoesNotExist(_guid) {\n    OracleTransaction memory ot;\n    ot.guid = _guid;\n    ot.callerAddress = msg.sender;\n    ot.callerRequest = _request;\n    ot.callerCallback = _callback;\n    transactions[_guid] = ot;\n    writeEvent(\"REQUEST\", \"S\", \"B\", \"guid\", _guid);\n  }\n\n  function respondBytes32(bytes32 _guid, bytes32 _data) external {\n    OracleTransaction storage ot = transactions[_guid];\n    ot.oracleResponse = _data;\n\n    ot.callerCallback(_data);\n\n    writeEvent(\"RESPONSE\", \"S\", \"B\", \"guid\", _guid);\n  }\n\n  event EsEvent(\n    uint Id,\n    address TxOrigin,\n    uint Created,\n\n    bytes32 EventType,\n\n    bytes1 KeyType,\n    bytes1 ValueType,\n\n    bytes32 Key,\n    bytes32 Value\n  );\n}",
  "sourcePath": "/Users/ericolszewski/Developer/Transmute-Industries/projects/lerna-transmute/packages/transmute-services/contracts/Oracle.sol",
  "compiler": {
    "name": "solc",
    "version": "0.4.18+commit.9cf6e910.Emscripten.clang"
  },
  "schemaVersion": "1.0.1",
  "updatedAt": "2017-11-27T16:04:56.353Z"
}