{
  "contractName": "Oracle",
  "abi": [
    {
      "constant": true,
      "inputs": [],
      "name": "creator",
      "outputs": [
        {
          "name": "",
          "type": "address"
        }
      ],
      "payable": false,
      "stateMutability": "view",
      "type": "function"
    },
    {
      "constant": false,
      "inputs": [
        {
          "name": "_guid",
          "type": "bytes32"
        },
        {
          "name": "_request",
          "type": "bytes32"
        },
        {
          "name": "_callback",
          "type": "bytes32"
        }
      ],
      "name": "requestBytes32",
      "outputs": [],
      "payable": false,
      "stateMutability": "nonpayable",
      "type": "function"
    },
    {
      "constant": false,
      "inputs": [
        {
          "name": "_eventType",
          "type": "bytes32"
        },
        {
          "name": "_keyType",
          "type": "bytes1"
        },
        {
          "name": "_valueType",
          "type": "bytes1"
        },
        {
          "name": "_key",
          "type": "bytes32"
        },
        {
          "name": "_value",
          "type": "bytes32"
        }
      ],
      "name": "writeEvent",
      "outputs": [
        {
          "name": "",
          "type": "uint256"
        }
      ],
      "payable": false,
      "stateMutability": "nonpayable",
      "type": "function"
    },
    {
      "constant": false,
      "inputs": [],
      "name": "kill",
      "outputs": [],
      "payable": false,
      "stateMutability": "nonpayable",
      "type": "function"
    },
    {
      "constant": true,
      "inputs": [],
      "name": "eventCount",
      "outputs": [
        {
          "name": "",
          "type": "uint256"
        }
      ],
      "payable": false,
      "stateMutability": "view",
      "type": "function"
    },
    {
      "constant": true,
      "inputs": [],
      "name": "owner",
      "outputs": [
        {
          "name": "",
          "type": "address"
        }
      ],
      "payable": false,
      "stateMutability": "view",
      "type": "function"
    },
    {
      "constant": false,
      "inputs": [
        {
          "name": "_guid",
          "type": "bytes32"
        },
        {
          "name": "_data",
          "type": "bytes32"
        }
      ],
      "name": "respondBytes32",
      "outputs": [],
      "payable": false,
      "stateMutability": "nonpayable",
      "type": "function"
    },
    {
      "constant": true,
      "inputs": [
        {
          "name": "_eventId",
          "type": "uint256"
        }
      ],
      "name": "readEvent",
      "outputs": [
        {
          "name": "",
          "type": "uint256"
        },
        {
          "name": "",
          "type": "address"
        },
        {
          "name": "",
          "type": "uint256"
        },
        {
          "name": "",
          "type": "bytes32"
        },
        {
          "name": "",
          "type": "bytes1"
        },
        {
          "name": "",
          "type": "bytes1"
        },
        {
          "name": "",
          "type": "bytes32"
        },
        {
          "name": "",
          "type": "bytes32"
        }
      ],
      "payable": false,
      "stateMutability": "view",
      "type": "function"
    },
    {
      "constant": false,
      "inputs": [
        {
          "name": "newOwner",
          "type": "address"
        }
      ],
      "name": "transferOwnership",
      "outputs": [],
      "payable": false,
      "stateMutability": "nonpayable",
      "type": "function"
    },
    {
      "constant": true,
      "inputs": [
        {
          "name": "_guid",
          "type": "bytes32"
        }
      ],
      "name": "getTransactionByGuid",
      "outputs": [
        {
          "name": "",
          "type": "bytes32"
        },
        {
          "name": "",
          "type": "address"
        },
        {
          "name": "",
          "type": "bytes32"
        },
        {
          "name": "",
          "type": "bytes32"
        },
        {
          "name": "",
          "type": "bytes32"
        }
      ],
      "payable": false,
      "stateMutability": "view",
      "type": "function"
    },
    {
      "inputs": [],
      "payable": true,
      "stateMutability": "payable",
      "type": "constructor"
    },
    {
      "payable": true,
      "stateMutability": "payable",
      "type": "fallback"
    },
    {
      "anonymous": false,
      "inputs": [
        {
          "indexed": false,
          "name": "Id",
          "type": "uint256"
        },
        {
          "indexed": false,
          "name": "TxOrigin",
          "type": "address"
        },
        {
          "indexed": false,
          "name": "Created",
          "type": "uint256"
        },
        {
          "indexed": false,
          "name": "EventType",
          "type": "bytes32"
        },
        {
          "indexed": false,
          "name": "KeyType",
          "type": "bytes1"
        },
        {
          "indexed": false,
          "name": "ValueType",
          "type": "bytes1"
        },
        {
          "indexed": false,
          "name": "Key",
          "type": "bytes32"
        },
        {
          "indexed": false,
          "name": "Value",
          "type": "bytes32"
        }
      ],
      "name": "EsEvent",
      "type": "event"
    }
  ],
  "bytecode": "0x6060604052336000806101000a81548173ffffffffffffffffffffffffffffffffffffffff021916908373ffffffffffffffffffffffffffffffffffffffff16021790555032600260006101000a81548173ffffffffffffffffffffffffffffffffffffffff021916908373ffffffffffffffffffffffffffffffffffffffff160217905550610ccd806100946000396000f3006060604052600436106100a4576000357c0100000000000000000000000000000000000000000000000000000000900463ffffffff16806302d05d3f146100a9578063333e02c9146100fe57806335628b381461013f57806341c0e1b5146101ea57806371be2e4a146101ff5780638da5cb5b14610228578063da7b61081461027d578063e1ba30a9146102b1578063f2fde38b146103e5578063f3bdabb01461041e575b600080fd5b34156100b457600080fd5b6100bc6104c1565b604051808273ffffffffffffffffffffffffffffffffffffffff1673ffffffffffffffffffffffffffffffffffffffff16815260200191505060405180910390f35b341561010957600080fd5b61013d60048080356000191690602001909190803560001916906020019091908035600019169060200190919050506104e7565b005b341561014a57600080fd5b6101d46004808035600019169060200190919080357effffffffffffffffffffffffffffffffffffffffffffffffffffffffffffff19169060200190919080357effffffffffffffffffffffffffffffffffffffffffffffffffffffffffffff1916906020019091908035600019169060200190919080356000191690602001909190505061069d565b6040518082815260200191505060405180910390f35b34156101f557600080fd5b6101fd610801565b005b341561020a57600080fd5b61021261083b565b6040518082815260200191505060405180910390f35b341561023357600080fd5b61023b61084b565b604051808273ffffffffffffffffffffffffffffffffffffffff1673ffffffffffffffffffffffffffffffffffffffff16815260200191505060405180910390f35b341561028857600080fd5b6102af60048080356000191690602001909190803560001916906020019091905050610870565b005b34156102bc57600080fd5b6102d26004808035906020019091905050610a22565b604051808981526020018873ffffffffffffffffffffffffffffffffffffffff1673ffffffffffffffffffffffffffffffffffffffff1681526020018781526020018660001916600019168152602001857effffffffffffffffffffffffffffffffffffffffffffffffffffffffffffff19167effffffffffffffffffffffffffffffffffffffffffffffffffffffffffffff19168152602001847effffffffffffffffffffffffffffffffffffffffffffffffffffffffffffff19167effffffffffffffffffffffffffffffffffffffffffffffffffffffffffffff19168152602001836000191660001916815260200182600019166000191681526020019850505050505050505060405180910390f35b34156103f057600080fd5b61041c600480803573ffffffffffffffffffffffffffffffffffffffff16906020019091905050610b0c565b005b341561042957600080fd5b610443600480803560001916906020019091905050610bdc565b6040518086600019166000191681526020018573ffffffffffffffffffffffffffffffffffffffff1673ffffffffffffffffffffffffffffffffffffffff1681526020018460001916600019168152602001836000191660001916815260200182600019166000191681526020019550505050505060405180910390f35b600260009054906101000a900473ffffffffffffffffffffffffffffffffffffffff1681565b6104ef610c4f565b838160000190600019169081600019168152505033816020019073ffffffffffffffffffffffffffffffffffffffff16908173ffffffffffffffffffffffffffffffffffffffff168152505082816040019060001916908160001916815250508181606001906000191690816000191681525050806003600086600019166000191681526020019081526020016000206000820151816000019060001916905560208201518160010160006101000a81548173ffffffffffffffffffffffffffffffffffffffff021916908373ffffffffffffffffffffffffffffffffffffffff1602179055506040820151816002019060001916905560608201518160030190600019169055608082015181600401906000191690559050506106967f52455155455354000000000000000000000000000000000000000000000000007f53000000000000000000000000000000000000000000000000000000000000007f42000000000000000000000000000000000000000000000000000000000000007f67756964000000000000000000000000000000000000000000000000000000008861069d565b5050505050565b600073__EventStoreLib_________________________633bb64203600188888888886000604051602001526040518763ffffffff167c0100000000000000000000000000000000000000000000000000000000028152600401808781526020018660001916600019168152602001857effffffffffffffffffffffffffffffffffffffffffffffffffffffffffffff19167effffffffffffffffffffffffffffffffffffffffffffffffffffffffffffff19168152602001847effffffffffffffffffffffffffffffffffffffffffffffffffffffffffffff19167effffffffffffffffffffffffffffffffffffffffffffffffffffffffffffff1916815260200183600019166000191681526020018260001916600019168152602001965050505050505060206040518083038186803b15156107db57600080fd5b6102c65a03f415156107ec57600080fd5b50505060405180519050905095945050505050565b6000809054906101000a900473ffffffffffffffffffffffffffffffffffffffff1673ffffffffffffffffffffffffffffffffffffffff16ff5b6000600160000180549050905090565b6000809054906101000a900473ffffffffffffffffffffffffffffffffffffffff1681565b60006003600084600019166000191681526020019081526020016000209050818160040181600019169055508060010160009054906101000a900473ffffffffffffffffffffffffffffffffffffffff1673ffffffffffffffffffffffffffffffffffffffff1660405180807f7265636569766528627974657333322900000000000000000000000000000000815250601001905060405180910390207c01000000000000000000000000000000000000000000000000000000009004836040518263ffffffff167c010000000000000000000000000000000000000000000000000000000002815260040180826000191660001916815260200191505060006040518083038160008761646e5a03f192505050151561098f57600080fd5b610a1c7f524553504f4e53450000000000000000000000000000000000000000000000007f53000000000000000000000000000000000000000000000000000000000000007f42000000000000000000000000000000000000000000000000000000000000007f67756964000000000000000000000000000000000000000000000000000000008761069d565b50505050565b60008060008060008060008073__EventStoreLib_________________________63a057fd5e60018b600060405161010001526040518363ffffffff167c010000000000000000000000000000000000000000000000000000000002815260040180838152602001828152602001925050506101006040518083038186803b1515610aac57600080fd5b6102c65a03f41515610abd57600080fd5b5050506040518051906020018051906020018051906020018051906020018051906020018051906020018051906020018051905097509750975097509750975097509750919395975091939597565b6000809054906101000a900473ffffffffffffffffffffffffffffffffffffffff1673ffffffffffffffffffffffffffffffffffffffff163373ffffffffffffffffffffffffffffffffffffffff161415610bd957600073ffffffffffffffffffffffffffffffffffffffff168173ffffffffffffffffffffffffffffffffffffffff16141515610bd857806000806101000a81548173ffffffffffffffffffffffffffffffffffffffff021916908373ffffffffffffffffffffffffffffffffffffffff1602179055505b5b50565b600080600080600080600360008860001916600019168152602001908152602001600020905080600001548160010160009054906101000a900473ffffffffffffffffffffffffffffffffffffffff16826002015483600301548460040154955095509550955095505091939590929450565b60a06040519081016040528060008019168152602001600073ffffffffffffffffffffffffffffffffffffffff16815260200160008019168152602001600080191681526020016000801916815250905600a165627a7a72305820e11c8d5606474ef22e736506798125f308192ee4dfb09f87b9dbd61c206718260029",
  "source": "pragma solidity ^0.4.11;\n\nimport \"../node_modules/transmute-framework/contracts/TransmuteFramework/UnsafeEventStore.sol\";\n\ncontract Oracle is UnsafeEventStore {\n\n  // FALLBACK\n  function () public payable { revert(); }\n  \n  // CONSTRUCTOR  \n  function Oracle() public payable {}\n\n  // Think about standards...\n  // http://www.jsonrpc.org/specification\n  // struct RequestObject {\n  //   bytes32 jsonrpc;\n  //   bytes32 method;\n  //   bytes32 params;\n  //   bytes32 id;\n  // }\n\n  // struct ResponseObject {\n  //   bytes32 jsonrpc;\n  //   bytes32 result;\n  //   bytes32 error;\n  //   bytes32 id;\n  // }\n\n  struct OracleTransaction {\n    bytes32 guid;\n    address callerAddress;\n    bytes32 callerRequest;\n    bytes32 callerCallback;\n\n    bytes32 oracleResponse; \n  }\n\n  mapping (bytes32 => OracleTransaction) transactions;\n\n  // function register(address _address, string _text) public returns (bool) {\n  //     return _address.call(bytes4(keccak256(\"register(string)\")), _text);\n  // }\n\n  function getTransactionByGuid(bytes32 _guid) public view returns (bytes32, address, bytes32, bytes32, bytes32) {\n    OracleTransaction storage ot = transactions[_guid];\n    return (ot.guid, ot.callerAddress, ot.callerRequest, ot.callerCallback, ot.oracleResponse);\n  }\n\n  function requestBytes32(bytes32 _guid, bytes32 _request, bytes32 _callback) public {\n    OracleTransaction memory ot;\n    ot.guid = _guid;\n    ot.callerAddress = msg.sender;\n    ot.callerRequest = _request;\n    ot.callerCallback = _callback;\n    transactions[_guid] = ot;\n    writeEvent(\"REQUEST\", \"S\", \"B\", \"guid\", _guid);\n  }\n\n  function respondBytes32(bytes32 _guid, bytes32 _data) public {\n    OracleTransaction storage ot = transactions[_guid];\n    ot.oracleResponse = _data;\n\n    if (! ot.callerAddress.call(bytes4(keccak256(\"receive(bytes32)\")), _data)) {\n      revert();\n    }\n    writeEvent(\"RESPONSE\", \"S\", \"B\", \"guid\", _guid);\n  }\n\n  event EsEvent(\n    uint Id,\n    address TxOrigin,\n    uint Created,\n\n    bytes32 EventType,\n\n    bytes1 KeyType,\n    bytes1 ValueType,\n\n    bytes32 Key,\n    bytes32 Value\n  );\n}",
  "sourcePath": "/Users/orie/Code/lerna-transmute/packages/transmute-services/contracts/Oracle.sol",
  "compiler": {
    "name": "solc",
    "version": "0.4.18+commit.9cf6e910.Emscripten.clang"
  },
  "schemaVersion": "1.0.1",
  "updatedAt": "2017-11-26T20:45:25.393Z"
}