{
  "contractName": "Oracle",
  "abi": [
    {
      "constant": true,
      "inputs": [],
      "name": "creator",
      "outputs": [
        {
          "name": "",
          "type": "address"
        }
      ],
      "payable": false,
      "stateMutability": "view",
      "type": "function"
    },
    {
      "constant": false,
      "inputs": [
        {
          "name": "_guid",
          "type": "bytes32"
        },
        {
          "name": "_request",
          "type": "bytes32"
        },
        {
          "name": "_callback",
          "type": "function"
        }
      ],
      "name": "requestBytes32",
      "outputs": [],
      "payable": false,
      "stateMutability": "nonpayable",
      "type": "function"
    },
    {
      "constant": false,
      "inputs": [
        {
          "name": "_eventType",
          "type": "bytes32"
        },
        {
          "name": "_keyType",
          "type": "bytes1"
        },
        {
          "name": "_valueType",
          "type": "bytes1"
        },
        {
          "name": "_key",
          "type": "bytes32"
        },
        {
          "name": "_value",
          "type": "bytes32"
        }
      ],
      "name": "writeEvent",
      "outputs": [
        {
          "name": "",
          "type": "uint256"
        }
      ],
      "payable": false,
      "stateMutability": "nonpayable",
      "type": "function"
    },
    {
      "constant": true,
      "inputs": [],
      "name": "eventCount",
      "outputs": [
        {
          "name": "",
          "type": "uint256"
        }
      ],
      "payable": false,
      "stateMutability": "view",
      "type": "function"
    },
    {
      "constant": false,
      "inputs": [],
      "name": "destroy",
      "outputs": [
        {
          "name": "",
          "type": "uint256"
        }
      ],
      "payable": false,
      "stateMutability": "nonpayable",
      "type": "function"
    },
    {
      "constant": true,
      "inputs": [],
      "name": "owner",
      "outputs": [
        {
          "name": "",
          "type": "address"
        }
      ],
      "payable": false,
      "stateMutability": "view",
      "type": "function"
    },
    {
      "constant": true,
      "inputs": [
        {
          "name": "_guid",
          "type": "bytes32"
        },
        {
          "name": "_data",
          "type": "bytes32"
        }
      ],
      "name": "getWhitelist",
      "outputs": [
        {
          "name": "",
          "type": "address[]"
        }
      ],
      "payable": false,
      "stateMutability": "view",
      "type": "function"
    },
    {
      "constant": false,
      "inputs": [
        {
          "name": "_guid",
          "type": "bytes32"
        },
        {
          "name": "_data",
          "type": "bytes32"
        }
      ],
      "name": "respondBytes32",
      "outputs": [
        {
          "name": "",
          "type": "uint256"
        },
        {
          "name": "",
          "type": "address"
        },
        {
          "name": "",
          "type": "uint256"
        },
        {
          "name": "",
          "type": "bytes32"
        },
        {
          "name": "",
          "type": "bytes1"
        },
        {
          "name": "",
          "type": "bytes1"
        },
        {
          "name": "",
          "type": "bytes32"
        },
        {
          "name": "",
          "type": "bytes32"
        }
      ],
      "payable": false,
      "stateMutability": "nonpayable",
      "type": "function"
    },
    {
      "constant": true,
      "inputs": [
        {
          "name": "_eventId",
          "type": "uint256"
        }
      ],
      "name": "readEvent",
      "outputs": [
        {
          "name": "",
          "type": "uint256"
        },
        {
          "name": "",
          "type": "address"
        },
        {
          "name": "",
          "type": "uint256"
        },
        {
          "name": "",
          "type": "bytes32"
        },
        {
          "name": "",
          "type": "bytes1"
        },
        {
          "name": "",
          "type": "bytes1"
        },
        {
          "name": "",
          "type": "bytes32"
        },
        {
          "name": "",
          "type": "bytes32"
        }
      ],
      "payable": false,
      "stateMutability": "view",
      "type": "function"
    },
    {
      "constant": false,
      "inputs": [
        {
          "name": "newOwner",
          "type": "address"
        }
      ],
      "name": "transferOwnership",
      "outputs": [
        {
          "name": "",
          "type": "bytes32"
        },
        {
          "name": "",
          "type": "address"
        },
        {
          "name": "",
          "type": "bytes32"
        },
        {
          "name": "",
          "type": "bytes32"
        }
      ],
      "payable": false,
      "stateMutability": "nonpayable",
      "type": "function"
    },
    {
      "inputs": [
        {
          "name": "_guid",
          "type": "bytes32"
        }
      ],
      "payable": false,
      "stateMutability": "view",
      "type": "function",
      "constant": true,
      "name": "getTransactionByGuid",
      "outputs": [
        {
          "name": "",
          "type": "bytes32"
        },
        {
          "name": "",
          "type": "address"
        },
        {
          "name": "",
          "type": "bytes32"
        },
        {
          "name": "",
          "type": "bytes32"
        }
      ]
    },
    {
      "payable": false,
      "stateMutability": "nonpayable",
      "type": "function",
      "constant": false,
      "inputs": [
        {
          "name": "_whitelist",
          "type": "address[]"
        }
      ],
      "name": "setWhitelist",
      "outputs": []
    },
    {
      "anonymous": false,
      "inputs": [
        {
          "indexed": false,
          "name": "_recipient",
          "type": "address"
        },
        {
          "indexed": false,
          "name": "TxOrigin",
          "type": "address"
        },
        {
          "indexed": false,
          "name": "Created",
          "type": "uint256"
        },
        {
          "indexed": false,
          "name": "EventType",
          "type": "bytes32"
        },
        {
          "indexed": false,
          "name": "KeyType",
          "type": "bytes1"
        },
        {
          "indexed": false,
          "name": "ValueType",
          "type": "bytes1"
        },
        {
          "indexed": false,
          "name": "Key",
          "type": "bytes32"
        },
        {
          "indexed": false,
          "name": "Value",
          "type": "bytes32"
        }
      ],
      "name": "destroyAndSend",
      "type": "function",
      "constant": false,
      "outputs": [],
      "payable": false,
      "stateMutability": "nonpayable"
    },
    {
      "inputs": [],
      "payable": true,
      "stateMutability": "payable",
      "type": "constructor"
    },
    {
      "payable": true,
      "stateMutability": "payable",
      "type": "fallback"
    },
    {
      "anonymous": false,
      "inputs": [
        {
          "indexed": false,
          "name": "Id",
          "type": "uint256"
        },
        {
          "indexed": false,
          "name": "TxOrigin",
          "type": "address"
        },
        {
          "indexed": false,
          "name": "Created",
          "type": "uint256"
        },
        {
          "indexed": false,
          "name": "EventType",
          "type": "bytes32"
        },
        {
          "indexed": false,
          "name": "KeyType",
          "type": "bytes1"
        },
        {
          "indexed": false,
          "name": "ValueType",
          "type": "bytes1"
        },
        {
          "indexed": false,
          "name": "Key",
          "type": "bytes32"
        },
        {
          "indexed": false,
          "name": "Value",
          "type": "bytes32"
        }
      ],
      "name": "EsEvent",
      "type": "event"
    },
    {
      "anonymous": false,
      "inputs": [
        {
          "indexed": true,
          "name": "previousOwner",
          "type": "address"
        },
        {
          "indexed": true,
          "name": "newOwner",
          "type": "address"
        }
      ],
      "name": "OwnershipTransferred",
      "type": "event"
    }
  ],
  "bytecode": "0x6060604052336000806101000a81548173ffffffffffffffffffffffffffffffffffffffff021916908373ffffffffffffffffffffffffffffffffffffffff16021790555032600560006101000a81548173ffffffffffffffffffffffffffffffffffffffff021916908373ffffffffffffffffffffffffffffffffffffffff1602179055506116cd806100946000396000f3006060604052600436106100c5576000357c0100000000000000000000000000000000000000000000000000000000900463ffffffff16806302d05d3f146100ca57806329d274781461011f57806335628b381461019c57806371be2e4a1461024757806383197ef0146102705780638da5cb5b14610285578063d01f63f5146102da578063da7b610814610344578063e1ba30a914610378578063f2fde38b146104ac578063f3bdabb0146104e5578063f421764814610579578063f5074f41146105d3575b600080fd5b34156100d557600080fd5b6100dd61060c565b604051808273ffffffffffffffffffffffffffffffffffffffff1673ffffffffffffffffffffffffffffffffffffffff16815260200191505060405180910390f35b341561012a57600080fd5b61019a60048080356000191690602001909190803560001916906020019091908035806c0100000000000000000000000090049068010000000000000000900463ffffffff1677ffffffffffffffffffffffffffffffffffffffffffffffff169091602001909192905050610632565b005b34156101a757600080fd5b6102316004808035600019169060200190919080357effffffffffffffffffffffffffffffffffffffffffffffffffffffffffffff19169060200190919080357effffffffffffffffffffffffffffffffffffffffffffffffffffffffffffff1916906020019091908035600019169060200190919080356000191690602001909190505061090b565b6040518082815260200191505060405180910390f35b341561025257600080fd5b61025a610b41565b6040518082815260200191505060405180910390f35b341561027b57600080fd5b610283610b51565b005b341561029057600080fd5b610298610be6565b604051808273ffffffffffffffffffffffffffffffffffffffff1673ffffffffffffffffffffffffffffffffffffffff16815260200191505060405180910390f35b34156102e557600080fd5b6102ed610c0b565b6040518080602001828103825283818151815260200191508051906020019060200280838360005b83811015610330578082015181840152602081019050610315565b505050509050019250505060405180910390f35b341561034f57600080fd5b61037660048080356000191690602001909190803560001916906020019091905050610dbc565b005b341561038357600080fd5b6103996004808035906020019091905050610f1e565b604051808981526020018873ffffffffffffffffffffffffffffffffffffffff1673ffffffffffffffffffffffffffffffffffffffff1681526020018781526020018660001916600019168152602001857effffffffffffffffffffffffffffffffffffffffffffffffffffffffffffff19167effffffffffffffffffffffffffffffffffffffffffffffffffffffffffffff19168152602001847effffffffffffffffffffffffffffffffffffffffffffffffffffffffffffff19167effffffffffffffffffffffffffffffffffffffffffffffffffffffffffffff19168152602001836000191660001916815260200182600019166000191681526020019850505050505050505060405180910390f35b34156104b757600080fd5b6104e3600480803573ffffffffffffffffffffffffffffffffffffffff169060200190919050506110da565b005b34156104f057600080fd5b61050a60048080356000191690602001909190505061122f565b6040518085600019166000191681526020018473ffffffffffffffffffffffffffffffffffffffff1673ffffffffffffffffffffffffffffffffffffffff1681526020018360001916600019168152602001826000191660001916815260200194505050505060405180910390f35b341561058457600080fd5b6105d16004808035906020019082018035906020019080806020026020016040519081016040528093929190818152602001838360200280828437820191505050505050919050506112f8565b005b34156105de57600080fd5b61060a600480803573ffffffffffffffffffffffffffffffffffffffff169060200190919050506115af565b005b600560009054906101000a900473ffffffffffffffffffffffffffffffffffffffff1681565b61063a611623565b8460006006600083600019166000191681526020019081526020016000209050600073ffffffffffffffffffffffffffffffffffffffff168160010160009054906101000a900473ffffffffffffffffffffffffffffffffffffffff1673ffffffffffffffffffffffffffffffffffffffff161415156106b957600080fd5b868360000190600019169081600019168152505033836020019073ffffffffffffffffffffffffffffffffffffffff16908173ffffffffffffffffffffffffffffffffffffffff16815250508583604001906000191690816000191681525050848484606001919077ffffffffffffffffffffffffffffffffffffffffffffffff169091828263ffffffff1690640100000000021768010000000000000000028152505050826006600089600019166000191681526020019081526020016000206000820151816000019060001916905560208201518160010160006101000a81548173ffffffffffffffffffffffffffffffffffffffff021916908373ffffffffffffffffffffffffffffffffffffffff160217905550604082015181600201906000191690556060820151806c0100000000000000000000000090049068010000000000000000900463ffffffff168260030160006101000a81548177ffffffffffffffffffffffffffffffffffffffffffffffff02191690848463ffffffff169073ffffffffffffffffffffffffffffffffffffffff166401000000000217021790555050608082015181600401906000191690559050506109017f52455155455354000000000000000000000000000000000000000000000000007f53000000000000000000000000000000000000000000000000000000000000007f42000000000000000000000000000000000000000000000000000000000000007f67756964000000000000000000000000000000000000000000000000000000008b61090b565b5050505050505050565b600033600273__AddressSetLib_________________________63dc02e70d9091836000604051602001526040518363ffffffff167c0100000000000000000000000000000000000000000000000000000000028152600401808381526020018273ffffffffffffffffffffffffffffffffffffffff1673ffffffffffffffffffffffffffffffffffffffff1681526020019250505060206040518083038186803b15156109b857600080fd5b6102c65a03f415156109c957600080fd5b5050506040518051905015156109de57600080fd5b73__EventStoreLib_________________________633bb64203600189898989896000604051602001526040518763ffffffff167c0100000000000000000000000000000000000000000000000000000000028152600401808781526020018660001916600019168152602001857effffffffffffffffffffffffffffffffffffffffffffffffffffffffffffff19167effffffffffffffffffffffffffffffffffffffffffffffffffffffffffffff19168152602001847effffffffffffffffffffffffffffffffffffffffffffffffffffffffffffff19167effffffffffffffffffffffffffffffffffffffffffffffffffffffffffffff1916815260200183600019166000191681526020018260001916600019168152602001965050505050505060206040518083038186803b1515610b1a57600080fd5b6102c65a03f41515610b2b57600080fd5b5050506040518051905091505095945050505050565b6000600160000180549050905090565b6000809054906101000a900473ffffffffffffffffffffffffffffffffffffffff1673ffffffffffffffffffffffffffffffffffffffff163373ffffffffffffffffffffffffffffffffffffffff16141515610bac57600080fd5b6000809054906101000a900473ffffffffffffffffffffffffffffffffffffffff1673ffffffffffffffffffffffffffffffffffffffff16ff5b6000809054906101000a900473ffffffffffffffffffffffffffffffffffffffff1681565b610c1361168d565b333073ffffffffffffffffffffffffffffffffffffffff16638da5cb5b6000604051602001526040518163ffffffff167c0100000000000000000000000000000000000000000000000000000000028152600401602060405180830381600087803b1515610c8057600080fd5b6102c65a03f11515610c9157600080fd5b5050506040518051905073ffffffffffffffffffffffffffffffffffffffff168173ffffffffffffffffffffffffffffffffffffffff161480610d215750600560009054906101000a900473ffffffffffffffffffffffffffffffffffffffff1673ffffffffffffffffffffffffffffffffffffffff168173ffffffffffffffffffffffffffffffffffffffff16145b1515610d2c57600080fd5b6002600001805480602002602001604051908101604052809291908181526020018280548015610db157602002820191906000526020600020905b8160009054906101000a900473ffffffffffffffffffffffffffffffffffffffff1673ffffffffffffffffffffffffffffffffffffffff1681526020019060010190808311610d67575b505050505091505090565b60006006600084600019166000191681526020019081526020016000209050818160040181600019169055508060030160009054906101000a900480640100000000900473ffffffffffffffffffffffffffffffffffffffff169063ffffffff16836040518263ffffffff167c0100000000000000000000000000000000000000000000000000000000028152600401808260001916600019168152602001915050600060405180830381600087803b1515610e7757600080fd5b6102c65a03f11515610e8857600080fd5b505050610f187f524553504f4e53450000000000000000000000000000000000000000000000007f53000000000000000000000000000000000000000000000000000000000000007f42000000000000000000000000000000000000000000000000000000000000007f67756964000000000000000000000000000000000000000000000000000000008761090b565b50505050565b60008060008060008060008033600273__AddressSetLib_________________________63dc02e70d9091836000604051602001526040518363ffffffff167c0100000000000000000000000000000000000000000000000000000000028152600401808381526020018273ffffffffffffffffffffffffffffffffffffffff1673ffffffffffffffffffffffffffffffffffffffff1681526020019250505060206040518083038186803b1515610fd557600080fd5b6102c65a03f41515610fe657600080fd5b505050604051805190501515610ffb57600080fd5b73__EventStoreLib_________________________63a057fd5e60018c600060405161010001526040518363ffffffff167c010000000000000000000000000000000000000000000000000000000002815260040180838152602001828152602001925050506101006040518083038186803b151561107957600080fd5b6102c65a03f4151561108a57600080fd5b505050604051805190602001805190602001805190602001805190602001805190602001805190602001805190602001805190509850985098509850985098509850985050919395975091939597565b6000809054906101000a900473ffffffffffffffffffffffffffffffffffffffff1673ffffffffffffffffffffffffffffffffffffffff163373ffffffffffffffffffffffffffffffffffffffff1614151561113557600080fd5b600073ffffffffffffffffffffffffffffffffffffffff168173ffffffffffffffffffffffffffffffffffffffff161415151561117157600080fd5b8073ffffffffffffffffffffffffffffffffffffffff166000809054906101000a900473ffffffffffffffffffffffffffffffffffffffff1673ffffffffffffffffffffffffffffffffffffffff167f8be0079c531659141344cd1fd0a4f28419497f9722a3daafe3b4186f6b6457e060405160405180910390a3806000806101000a81548173ffffffffffffffffffffffffffffffffffffffff021916908373ffffffffffffffffffffffffffffffffffffffff16021790555050565b60008060008060006006600087600019166000191681526020019081526020016000209050600073ffffffffffffffffffffffffffffffffffffffff168160010160009054906101000a900473ffffffffffffffffffffffffffffffffffffffff1673ffffffffffffffffffffffffffffffffffffffff16141515156112b457600080fd5b80600001548160010160009054906101000a900473ffffffffffffffffffffffffffffffffffffffff16826002015483600401549450945094509450509193509193565b6000333073ffffffffffffffffffffffffffffffffffffffff16638da5cb5b6000604051602001526040518163ffffffff167c0100000000000000000000000000000000000000000000000000000000028152600401602060405180830381600087803b151561136757600080fd5b6102c65a03f1151561137857600080fd5b5050506040518051905073ffffffffffffffffffffffffffffffffffffffff168173ffffffffffffffffffffffffffffffffffffffff1614806114085750600560009054906101000a900473ffffffffffffffffffffffffffffffffffffffff1673ffffffffffffffffffffffffffffffffffffffff168173ffffffffffffffffffffffffffffffffffffffff16145b151561141357600080fd5b6000600273__AddressSetLib_________________________631d4cf6c490916000604051602001526040518263ffffffff167c01000000000000000000000000000000000000000000000000000000000281526004018082815260200191505060206040518083038186803b151561148b57600080fd5b6102c65a03f4151561149c57600080fd5b505050604051805190501415156114b257600080fd5b600091505b82518210156115aa57600273__AddressSetLib_________________________631e401616909185858151811015156114ec57fe5b906020019060200201516000604051602001526040518363ffffffff167c0100000000000000000000000000000000000000000000000000000000028152600401808381526020018273ffffffffffffffffffffffffffffffffffffffff1673ffffffffffffffffffffffffffffffffffffffff1681526020019250505060206040518083038186803b151561158157600080fd5b6102c65a03f4151561159257600080fd5b505050604051805190505081806001019250506114b7565b505050565b6000809054906101000a900473ffffffffffffffffffffffffffffffffffffffff1673ffffffffffffffffffffffffffffffffffffffff163373ffffffffffffffffffffffffffffffffffffffff1614151561160a57600080fd5b8073ffffffffffffffffffffffffffffffffffffffff16ff5b60a06040519081016040528060008019168152602001600073ffffffffffffffffffffffffffffffffffffffff1681526020016000801916815260200160008063ffffffff1690640100000000021768010000000000000000028152602001600080191681525090565b6020604051908101604052806000815250905600a165627a7a72305820d9db4327b96da562b0c04222bfa12d23d024e45c96c5bb35b90ffa52e095aa250029",
  "source": "pragma solidity ^0.4.11;\n\nimport \"../node_modules/transmute-framework/contracts/TransmuteFramework/EventStore.sol\";\n\ncontract Oracle is EventStore {\n\n  // Think about standards...\n  // http://www.jsonrpc.org/specification\n  // struct RequestObject {\n  //   bytes32 jsonrpc;\n  //   bytes32 method;\n  //   bytes32 params;\n  //   bytes32 id;\n  // }\n\n  // struct ResponseObject {\n  //   bytes32 jsonrpc;\n  //   bytes32 result;\n  //   bytes32 error;\n  //   bytes32 id;\n  // }\n\n  // Modifiers\n  modifier transactionDoesNotExist(bytes32 _guid) {\n    OracleTransaction storage ot = transactions[_guid];\n    require(ot.callerAddress == address(0));\n    _;\n  }\n\n  // Fallback Function\n  function () public payable { revert(); }\n  \n  // Constructor\n  function Oracle() public payable {}\n\n  struct OracleTransaction {\n    bytes32 guid;\n    address callerAddress;\n    bytes32 callerRequest;\n    function(bytes32) external callerCallback;\n\n    bytes32 oracleResponse; \n  }\n\n  mapping (bytes32 => OracleTransaction) transactions;\n\n  function getTransactionByGuid(bytes32 _guid) external view returns (bytes32, address, bytes32, bytes32) {\n    OracleTransaction storage ot = transactions[_guid];\n    require(ot.callerAddress != address(0));\n    return (ot.guid, ot.callerAddress, ot.callerRequest, ot.oracleResponse);\n  }\n\n  function requestBytes32(bytes32 _guid, bytes32 _request, function(bytes32) external _callback) external transactionDoesNotExist(_guid) {\n    OracleTransaction memory ot;\n    ot.guid = _guid;\n    ot.callerAddress = msg.sender;\n    ot.callerRequest = _request;\n    ot.callerCallback = _callback;\n    transactions[_guid] = ot;\n    writeEvent(\"REQUEST\", \"S\", \"B\", \"guid\", _guid);\n  }\n\n  function respondBytes32(bytes32 _guid, bytes32 _data) external {\n    OracleTransaction storage ot = transactions[_guid];\n    ot.oracleResponse = _data;\n\n    ot.callerCallback(_data);\n\n    writeEvent(\"RESPONSE\", \"S\", \"B\", \"guid\", _guid);\n  }\n\n  event EsEvent(\n    uint Id,\n    address TxOrigin,\n    uint Created,\n\n    bytes32 EventType,\n\n    bytes1 KeyType,\n    bytes1 ValueType,\n\n    bytes32 Key,\n    bytes32 Value\n  );\n}",
  "sourcePath": "/Users/orie/Code/lerna-transmute/packages/transmute-services/contracts/Oracle.sol",
  "compiler": {
    "name": "solc",
    "version": "0.4.18+commit.9cf6e910.Emscripten.clang"
  },
  "schemaVersion": "1.0.1",
  "updatedAt": "2017-12-02T02:01:39.611Z"
}