{
  "contractName": "OracleCaller",
  "abi": [
    {
      "constant": false,
      "inputs": [
        {
          "name": "oracleAddress",
          "type": "address"
        }
      ],
      "name": "trigger",
      "outputs": [],
      "payable": false,
      "stateMutability": "nonpayable",
      "type": "function"
    },
    {
      "constant": false,
      "inputs": [],
      "name": "check",
      "outputs": [],
      "payable": false,
      "stateMutability": "nonpayable",
      "type": "function"
    },
    {
      "constant": false,
      "inputs": [
        {
          "name": "data",
          "type": "bytes32"
        }
      ],
      "name": "receive",
      "outputs": [],
      "payable": false,
      "stateMutability": "nonpayable",
      "type": "function"
    },
    {
      "constant": true,
      "inputs": [],
      "name": "state",
      "outputs": [
        {
          "name": "",
          "type": "bytes32"
        }
      ],
      "payable": false,
      "stateMutability": "view",
      "type": "function"
    },
    {
      "inputs": [],
      "payable": false,
      "stateMutability": "nonpayable",
      "type": "constructor"
    },
    {
      "payable": false,
      "stateMutability": "nonpayable",
      "type": "fallback"
    },
    {
      "anonymous": false,
      "inputs": [
        {
          "indexed": false,
          "name": "data",
          "type": "bytes32"
        }
      ],
      "name": "CallerState",
      "type": "event"
    },
    {
      "anonymous": false,
      "inputs": [
        {
          "indexed": false,
          "name": "Id",
          "type": "uint256"
        },
        {
          "indexed": false,
          "name": "TxOrigin",
          "type": "address"
        },
        {
          "indexed": false,
          "name": "Created",
          "type": "uint256"
        },
        {
          "indexed": false,
          "name": "EventType",
          "type": "bytes32"
        },
        {
          "indexed": false,
          "name": "KeyType",
          "type": "bytes1"
        },
        {
          "indexed": false,
          "name": "ValueType",
          "type": "bytes1"
        },
        {
          "indexed": false,
          "name": "Key",
          "type": "bytes32"
        },
        {
          "indexed": false,
          "name": "Value",
          "type": "bytes32"
        }
      ],
      "name": "EsEvent",
      "type": "event"
    }
  ],
  "bytecode": "0x6060604052341561000f57600080fd5b6102b38061001e6000396000f300606060405260043610610062576000357c0100000000000000000000000000000000000000000000000000000000900463ffffffff1680636f6ff40514610072578063919840ad146100ab578063b60a9b00146100c0578063c19d93fb146100e7575b341561006d57600080fd5b600080fd5b341561007d57600080fd5b6100a9600480803573ffffffffffffffffffffffffffffffffffffffff16906020019091905050610118565b005b34156100b657600080fd5b6100be610230565b005b34156100cb57600080fd5b6100e5600480803560001916906020019091905050610273565b005b34156100f257600080fd5b6100fa610281565b60405180826000191660001916815260200191505060405180910390f35b6000806000808493504360405180828152602001915050604051809103902092507f4d6174682e72616e646f6d28290000000000000000000000000000000000000091507f726563656976652862797465733332290000000000000000000000000000000090508373ffffffffffffffffffffffffffffffffffffffff1663333e02c98484846040518463ffffffff167c0100000000000000000000000000000000000000000000000000000000028152600401808460001916600019168152602001836000191660001916815260200182600019166000191681526020019350505050600060405180830381600087803b151561021557600080fd5b6102c65a03f1151561022657600080fd5b5050505050505050565b7fbdd467dd632f5f54be85b98dba3d539912f2c9c38ea8caa0a9c1cdc641ca50b760005460405180826000191660001916815260200191505060405180910390a1565b806000816000191690555050565b600054815600a165627a7a7230582060daa266edb93a639be1bef3bb830e34039045543222f7d8a784070f0acc2ac30029",
  "source": "pragma solidity ^0.4.11;\n\nimport \"./Oracle.sol\";\n\ncontract OracleCaller {\n\n  bytes32 public state;\n  // bytes32 requestIndex = ;\n  // FALLBACK\n  function () public { revert(); }\n  \n  // CONSTRUCTOR  \n  function OracleCaller() public {\n  }\n\n  event CallerState(\n    bytes32 data\n  );\n\n  function trigger(address oracleAddress) public {\n      Oracle orc = Oracle(oracleAddress);\n      bytes32 guid = keccak256(block.number);\n      bytes32 request = bytes32(\"Math.random()\");\n      bytes32 callback = bytes32(\"receive(bytes32)\");\n      orc.requestBytes32(guid, request, callback);\n  }\n\n  function receive(bytes32 data) public {\n      state = data;\n  }\n\n  function check() public {\n      CallerState(state);\n  }\n\n  event EsEvent(\n    uint Id,\n    address TxOrigin,\n    uint Created,\n\n    bytes32 EventType,\n\n    bytes1 KeyType,\n    bytes1 ValueType,\n\n    bytes32 Key,\n    bytes32 Value\n  );\n\n}",
  "sourcePath": "/Users/orie/Code/lerna-transmute/packages/transmute-services/contracts/OracleCaller.sol",
  "compiler": {
    "name": "solc",
    "version": "0.4.18+commit.9cf6e910.Emscripten.clang"
  },
  "schemaVersion": "1.0.1",
  "updatedAt": "2017-11-26T20:45:25.395Z"
}