{
  "contractName": "OracleCaller",
  "abi": [
    {
      "constant": false,
      "inputs": [],
      "name": "trigger",
      "outputs": [],
      "payable": false,
      "stateMutability": "nonpayable",
      "type": "function"
    },
    {
      "constant": false,
      "inputs": [
        {
          "name": "_data",
          "type": "bytes32"
        }
      ],
      "name": "receive",
      "outputs": [],
      "payable": false,
      "stateMutability": "nonpayable",
      "type": "function"
    },
    {
      "constant": true,
      "inputs": [],
      "name": "state",
      "outputs": [
        {
          "name": "",
          "type": "bytes32"
        }
      ],
      "payable": false,
      "stateMutability": "view",
      "type": "function"
    },
    {
      "constant": true,
      "inputs": [],
      "name": "getWhitelist",
      "outputs": [
        {
          "name": "",
          "type": "address[]"
        }
      ],
      "payable": false,
      "stateMutability": "view",
      "type": "function"
    },
    {
      "inputs": [
        {
          "name": "_oracleAddress",
          "type": "address"
        }
      ],
      "payable": false,
      "stateMutability": "nonpayable",
      "type": "constructor"
    },
    {
      "payable": false,
      "stateMutability": "nonpayable",
      "type": "fallback"
    },
    {
      "anonymous": false,
      "inputs": [
        {
          "indexed": false,
          "name": "Id",
          "type": "uint256"
        },
        {
          "indexed": false,
          "name": "TxOrigin",
          "type": "address"
        },
        {
          "indexed": false,
          "name": "Created",
          "type": "uint256"
        },
        {
          "indexed": false,
          "name": "EventType",
          "type": "bytes32"
        },
        {
          "indexed": false,
          "name": "KeyType",
          "type": "bytes1"
        },
        {
          "indexed": false,
          "name": "ValueType",
          "type": "bytes1"
        },
        {
          "indexed": false,
          "name": "Key",
          "type": "bytes32"
        },
        {
          "indexed": false,
          "name": "Value",
          "type": "bytes32"
        }
      ],
      "name": "EsEvent",
      "type": "event"
    }
  ],
  "bytecode": "0x6060604052341561000f57600080fd5b6040516020806106b083398101604052808051906020019091905050806000806101000a81548173ffffffffffffffffffffffffffffffffffffffff021916908373ffffffffffffffffffffffffffffffffffffffff160217905550600173__AddressSetLib_________________________631e4016169091336000604051602001526040518363ffffffff167c0100000000000000000000000000000000000000000000000000000000028152600401808381526020018273ffffffffffffffffffffffffffffffffffffffff1673ffffffffffffffffffffffffffffffffffffffff1681526020019250505060206040518083038186803b151561011557600080fd5b6102c65a03f4151561012657600080fd5b50505060405180519050505061056f806101416000396000f300606060405260043610610062576000357c0100000000000000000000000000000000000000000000000000000000900463ffffffff1680637fec8d3814610072578063b60a9b0014610087578063c19d93fb146100ae578063d01f63f5146100df575b341561006d57600080fd5b600080fd5b341561007d57600080fd5b610085610149565b005b341561009257600080fd5b6100ac600480803560001916906020019091905050610357565b005b34156100b957600080fd5b6100c16103c0565b60405180826000191660001916815260200191505060405180910390f35b34156100ea57600080fd5b6100f26103c6565b6040518080602001828103825283818151815260200191508051906020019060200280838360005b8381101561013557808201518184015260208101905061011a565b505050509050019250505060405180910390f35b60008033600173__AddressSetLib_________________________63dc02e70d9091836000604051602001526040518363ffffffff167c0100000000000000000000000000000000000000000000000000000000028152600401808381526020018273ffffffffffffffffffffffffffffffffffffffff1673ffffffffffffffffffffffffffffffffffffffff1681526020019250505060206040518083038186803b15156101f757600080fd5b6102c65a03f4151561020857600080fd5b50505060405180519050151561021d57600080fd5b4360405180828152602001915050604051809103902092507f4d6174682e72616e646f6d28290000000000000000000000000000000000000091506000809054906101000a900473ffffffffffffffffffffffffffffffffffffffff1673ffffffffffffffffffffffffffffffffffffffff166329d2747884843073ffffffffffffffffffffffffffffffffffffffff1663b60a9b006040518563ffffffff167c01000000000000000000000000000000000000000000000000000000000281526004018085600019166000191681526020018460001916600019168152602001838363ffffffff1690640100000000021768010000000000000000028152602001945050505050600060405180830381600087803b151561033e57600080fd5b6102c65a03f1151561034f57600080fd5b505050505050565b6000809054906101000a900473ffffffffffffffffffffffffffffffffffffffff1673ffffffffffffffffffffffffffffffffffffffff163373ffffffffffffffffffffffffffffffffffffffff161415156103b257600080fd5b806004816000191690555050565b60045481565b6103ce61052f565b33600173__AddressSetLib_________________________63dc02e70d9091836000604051602001526040518363ffffffff167c0100000000000000000000000000000000000000000000000000000000028152600401808381526020018273ffffffffffffffffffffffffffffffffffffffff1673ffffffffffffffffffffffffffffffffffffffff1681526020019250505060206040518083038186803b151561047957600080fd5b6102c65a03f4151561048a57600080fd5b50505060405180519050151561049f57600080fd5b600160000180548060200260200160405190810160405280929190818152602001828054801561052457602002820191906000526020600020905b8160009054906101000a900473ffffffffffffffffffffffffffffffffffffffff1673ffffffffffffffffffffffffffffffffffffffff16815260200190600101908083116104da575b505050505091505090565b6020604051908101604052806000815250905600a165627a7a72305820954291278dbf9d3e7689e18c61b64310e76632f0b302cde470a47b017c4777ef0029",
  "source": "pragma solidity ^0.4.11;\n\nimport \"./Oracle.sol\";\nimport \"../node_modules/transmute-framework/contracts/TransmuteFramework/SetLib/AddressSet/AddressSetLib.sol\";\n\ncontract OracleCaller {\n  \n  using AddressSetLib for AddressSetLib.AddressSet;\n\n  Oracle private oracle;\n  AddressSetLib.AddressSet private whitelist;\n  bytes32 public state;\n\n  // Modifiers\n  modifier onlyWhitelist(address _caller) {\n    require(whitelist.contains(_caller));\n    _;\n  }\n  \n  // Fallback Function\n  function () public { revert(); }\n  \n  // Constructor\n  function OracleCaller(address _oracleAddress) public {\n    oracle = Oracle(_oracleAddress);\n    whitelist.add(msg.sender);\n  }\n\n  // Interface\n  function trigger() external onlyWhitelist(msg.sender) {\n    bytes32 guid = keccak256(block.number);\n    bytes32 request = bytes32(\"Math.random()\");\n    oracle.requestBytes32(guid, request, this.receive);\n  }\n\n  function receive(bytes32 _data) external {\n    require(msg.sender == address(oracle));\n    state = _data;\n  }\n\n  // Helper Functions\n  // FIX - no clue why this is not working... \"invalid number of arguments\"\n  // function getState() external view onlyWhitelist(msg.sender) returns (bytes32) {\n  //   return state;\n  // }\n\n  function getWhitelist() external view onlyWhitelist(msg.sender) returns (address[]) {\n    return whitelist.values;\n  }\n\n  // Events\n  event EsEvent(\n    uint Id,\n    address TxOrigin,\n    uint Created,\n\n    bytes32 EventType,\n\n    bytes1 KeyType,\n    bytes1 ValueType,\n\n    bytes32 Key,\n    bytes32 Value\n  );\n}",
  "sourcePath": "/Users/ericolszewski/Developer/Transmute-Industries/projects/lerna-transmute/packages/transmute-services/contracts/OracleCaller.sol",
  "compiler": {
    "name": "solc",
    "version": "0.4.18+commit.9cf6e910.Emscripten.clang"
  },
  "schemaVersion": "1.0.1",
  "updatedAt": "2017-11-27T16:04:56.350Z"
}